:100000000000042061020000B9020000BB020000F1
:10001000BD020000BF020000C1020000000000009D
:10002000000000000000000000000000C30200000B
:10003000C502000000000000C7020000C902000065
:10004000CD020000CF0200000D300000D3020000FE
:10005000D5020000D7020000D9020000DB02000038
:10006000DD020000DF020000E1020000E302000008
:10007000E5020000E7020000E9020000EB020000D8
:10008000ED02000059200000F1020000F302000020
:1000900099200000F7020000F9020000FB020000B6
:1000A000FD020000FF020000010300000303000046
:1000B0000503000007030000CB020000CB02000094
:1000C000090300000B0300000D030000CD39000000
:1000D00011030000130300001503000017030000C4
:1000E000190300001B0300001D030000CB020000E9
:1000F000CB02000021030000CB0200001F03000020
:10010000364937480A1A02D0072291438D463549AD
:1001100035480A1A06D00722914381F30988022242
:1001200082F3148831483249324A00F045F83248A7
:100130003249334A00F040F832483349334A00F03C
:100140003BF833483349344A00F036F833483449F1
:10015000344A00F031F834483449354A00F02CF87C
:1001600034483549354A00F027F8354835490022EA
:1001700000F02DF834483549002200F028F83448C2
:100180003449091A082903DB0022026004300160A7
:10019000314A90471F482049884205D00268043000
:1001A00003B4904703BCF7E700208646EC460020E6
:1001B00000212A4A9047FEE7884207D0521A05D00C
:1001C000037801300B700131013AF9D17047884250
:1001D00002D002700130FAE77047000000000420EE
:1001E00000E003200000042000000420105C000058
:1001F0001C0000208C0000202403000024030000C9
:10020000AC570000105C00001C0000201C00002007
:10021000185800001858000018580000185800001E
:10022000185800001858000018580000185800000E
:10023000105C0000805C00008C0000208C0000201E
:100240008C000020A4070020A4070020A4070020A1
:10025000A4070020A4270020850200002D510000E3
:100260000F484FF00701884385460E4880470E48E7
:10027000016841F470010160BFF34F8FBFF36F8FCE
:10028000FFF73EBF09480A490A4A884207D0521A76
:1002900005D0037801300B700131013AF9D1704774
:1002A000000004204152000088ED00E0FC570000EF
:1002B000000000201C000020FEE7FEE7FEE7FEE74E
:1002C000FEE7FEE7FEE7FEE7FEE7FEE7FEE7FEE706
:1002D000FEE7FEE7FEE7FEE7FEE7FEE7FEE7FEE7F6
:1002E000FEE7FEE7FEE7FEE7FEE7FEE7FEE7FEE7E6
:1002F000FEE7FEE7FEE7FEE7FEE7FEE7FEE7FEE7D6
:10030000FEE7FEE7FEE7FEE7FEE7FEE7FEE7FEE7C5
:10031000FEE7FEE7FEE7FEE7FEE7FEE7FEE7FEE7B5
:04032000FEE700BF35
:1003240000B5A1B00590049103920293049802F0E1
:1003340076FC039B1593029B1693002317930023CB
:100344008DF8603000231993229B1A9300231F9386
:100354000FA91F9B0822049802F010FD08231F9385
:10036400119B1293BDF84030ADF84C30BDF84230CB
:10037400ADF84E3000238DF851309DF83C3003F039
:100384000303DBB2012B26D10F9BC3F395231D93EB
:100394009DF83C30C3F3C203DBB28DF85030BDF896
:1003A4003C30C3F38313DBB21C931C9B9A0009A952
:1003B4001F9B049802F0E2FC1C9B9B001F9A1344B1
:1003C4001F9312AA09A915AB009313461C9A1D98F2
:1003D40000F096FF2FE09DF83C3003F00303DBB2FE
:1003E400022B28D1BDF83E30C3F389139BB21E9370
:1003F4009DF83C30C3F3C203DBB28DF850301E9B32
:10040400082B28BF08231B9307A91F9B1B9A04983A
:1004140002F0B4FC1F9A1B9B13441F931E9A1B9B50
:10042400D31A1E9315AB12AA07A81B9901F00AF858
:100434001E9B002BE3D1049802F000FC00BF21B006
:100444005DF804FB00B583B00190019B1B781A464C
:100454000C4B9B5C002B05D0019B0433184604F025
:1004640083FC0BE0019B1B781A46064B9B5C002B1C
:1004740004D1019B0C33184603F05EFE00BF03B0A9
:100484005DF804FB1807002000B587B003900291C3
:1004940013468DF8073000230593039B1B781A46F7
:1004A400114B9B5C002B09D0039B04339DF8072060
:1004B4000299184604F086FC05900FE0039B1B7814
:1004C4001A46094B9B5C002B08D1039B0C339DF807
:1004D40007200299184603F0A5FE0590059B1846CF
:1004E40007B05DF804FB00BF1807002082B001903C
:1004F4000091034B01221A7000BF02B0704700BF85
:10050400CC00002030B58DB003468DF80730194B70
:1005140002AC1D460FCD0FC495E80F0084E80F0010
:10052400062302934FF0FF3303934FF0FF330493FA
:100534004FF0FF3305934FF0EB7308939DF80730AA
:10054400002B01D00C4A00E0002202AB19460B48F4
:1005540002F0FAFC0B900B9B0A930A9B002B02D02F
:100564000A9801F00CF9064A9DF80730137000BF91
:100574000DB030BD18580000F10400001C0000202C
:10058400CD00002000B583B001238DF807309DF81D
:1005940007301846FFF7B6FF00BF03B05DF804FB51
:1005A40000B589B0039002910192019B8DF81F3030
:1005B400114B00221A709DF81F301A4602990F48F9
:1005C400FFF762FF0690069B0593059B002B02D064
:1005D400059801F0D4F800BF094B1B78002B07D015
:1005E400054B1B78DBB283F00103DBB2002BF3D1A4
:1005F40000BF09B05DF804FBCC0000201C00002003
:10060400CD00002000B585B003900291054B009306
:100614004023054A02990398FFF782FE00BF05B004
:100624005DF804FBA50500008C00002082B0019059
:1006340000BF02B07047000000B583B001900548C8
:10064400FFF700FF0020FFF75DFF00BF03B05DF878
:1006540004FB00BF1C00002082B00190019B01221A
:100664005A7200BF02B0704700B583B04FF0FF3339
:100674000193FFF787FF0421054800F061FD019015
:100684000348FFF7E9FF00BF03B05DF804FB00BFB8
:100694003000002000B583B001900091019B1B68DD
:1006A4001B6800990198984700BF03B05DF804FBEC
:1006B40000B583B00190019B1B685B680198984763
:1006C40000BF03B05DF804FB00B583B00190019B4B
:1006D4001B689B680198984700BF03B05DF804FB52
:1006E40082B001900B468DF80330019B9DF80320E6
:1006F4001A7200BF02B0704782B00190019B1B7A4E
:10070400184602B0704782B00190019B01225A72D0
:1007140000BF02B0704782B00190019B5B7A18461B
:1007240002B0704700B587B0019000911D4BFF22C5
:100734009A601C4B00221A601A4B00225A60194B13
:100744000022C3F81824174B0022C3F81424154BB5
:10075400002283F82024144802F0C6F90490049B74
:10076400002B01D0049B18E0104A114BD31ADB086C
:100774000393002305930BE0059B9B000D4A134450
:100784000293059B9AB2029B1A80059B0133059341
:10079400059A039B9A42EFD30023184607B05DF8ED
:1007A40004FB00BFA0010020E4570000E457000050
:1007B400AC57000000000020024A034BD31ADB08A8
:1007C40018467047E4570000AC57000000B587B0E6
:1007D40001900B468DF803309DF80330002B1FD099
:1007E400FFF7EAFF04900023059313E0059B9B00A9
:1007F4000E4A13440393039B5B881A46019B1B68B0
:100804009A4204D1019B059A1A60002309E0059BD2
:1008140001330593059A049B9A42E7D3052300E02C
:100824000023184607B05DF804FB00BF0000002059
:1008340000B585B001900B468DF803309DF8032078
:1008440001AB11461846FFF7C1FF0346002B07D141
:10085400019BDB00054A13440393039B1B6800E0E0
:100864000023184605B05DF804FB00BFAC57000038
:1008740084B001900B468DF80330019BDB00174ACE
:10088400134402939DF80330013B032B1CD801A2AF
:1008940052F823F0A9080000B1080000B9080000CC
:1008A400C308000002238DF80F3011E004238DF8F3
:1008B4000F300DE0029B1B798DF80F3008E0029B8E
:1008C4005B798DF80F3003E000238DF80F3000BF03
:1008D4009DF80F30184604B0704700BFAC570000B5
:1008E40084B00190009100238DF80F30019B1B7898
:1008F40003F00303DBB2002B06D0019B1B7803F04B
:100904000403DBB2002B3DD0019B1B7803F00403EE
:10091400DBB2002B21D0019B1B78C3F30103DBB2B4
:10092400012B02D0022B0CD029E0009B1B68019AFA
:100934001288C2F38312D2B213449A1C009B1A6029
:100944001DE0009B1B68019A5288C2F3891292B27F
:1009540013449A1C009B1A6011E0009B1A68019BC7
:100964005B88C3F389139BB21946019B1B88C3F3AD
:1009740089139BB20B4413445A1C009B1A60012335
:100984008DF80F309DF80F30184604B07047000002
:1009940000B58BB00023ADF826303B4801F023FCB2
:1009A4003A4801F020FC3A4B5B680493384B9B684F
:1009B4000693049A069B134002339B00344A134463
:1009C4000433089304AB19460898FFF789FF0346DC
:1009D400002B09D0049A069B134002339B002C4A37
:1009E400134404330893EDE700BF0023079311E099
:1009F400079B9B0001AA1A44049B591C0491069965
:100A04000B40234902339B000B445B681360079B34
:100A140001330793079B012BEAD99DF80430C3F3F4
:100A24000103DBB2012B11D0022B00D01CE0BDF876
:100A34000A30ADF82630BDF80630C3F389139BB2F3
:100A440003339A08049B134404930DE0BDF80A3061
:100A5400ADF82630BDF80430C3F38313DBB21A4675
:100A6400049B1344049300BF084801F0C8FB05909D
:100A7400059B002B02D0049B054A5360BDF8263029
:100A840018460BB05DF804FBB8050020B40500203F
:100A9400A001002000B585B00021074801F02CFB1F
:100AA4000390039B0293029B83F310030193019B26
:100AB400184605B05DF804FBBC05002000B589B0FC
:100AC4000390029101920093039B1B0C0793FFF781
:100AD400E1FF0690009B5A1C0A9B1340069A1104DE
:100AE400079A0A431C4902339B000B445A60009A3C
:100AF4000A9B134002339B00174A134404330593A3
:100B0400039BDBB203F00703D9B2059A137861F3B0
:100B1400C5031370019BDBB203F00F03D9B2059A2E
:100B2400138861F389131380029BC3F31501059A9B
:100B3400136861F39F231360059A1378012161F30D
:100B440001031370059A13786FF38203137000BFC7
:100B540009B05DF804FB00BFA001002000B58BB014
:100B64000390029113468DF80730039B02330893D8
:100B740001238DF81F30002001F0AAFA3F4B1A68B8
:100B8400029B1A603D4B9A683C4B59683B4B1B686F
:100B9400CB1A13440133099314E00121384801F0BE
:100BA400F2FAFFF7F5FE06900699354801F0EBFAE4
:100BB400324B9A68314B5968304B1B68CB1A13443B
:100BC40001330993089A099B9A42E6D89DF81F308D
:100BD400002B4AD0002304939DF80730002B18D033
:100BE4009DF81030012262F301038DF810309DF856
:100BF400103043F004038DF81030039BDBB203F094
:100C04000F03DAB2BDF8103062F38913ADF8103077
:100C140017E09DF81030022262F301038DF81030C2
:100C24009DF8103043F004038DF81030039B9BB201
:100C3400C3F309039AB2BDF8123062F38F13ADF80F
:100C440012300E4B1A680D4B9B68134002339B0005
:100C54000A4A134404330593049A059B1A60074B0C
:100C64001A68089B1344054A1360002001F039FAFE
:100C74009DF81F3018460BB05DF804FBA00100205E
:100C8400BC05002000B58BB005900491039202933B
:100C94001F4B9B68079306AB012219460298FFF786
:100CA4005DFF0346002B24D0069B023309930023E7
:100CB400089311E0099B5A1C0992079A1340089A59
:100CC400920003990A441268114902339B000B44B1
:100CD4005A60089B01330893089A029B9A42E9D30D
:100CE400069A079B00931346029A04990598FFF706
:100CF400E5FE074B93F82034002B05D000BF00F02D
:100D040025F80346002BFAD100BF0BB05DF804FBB5
:100D1400A001002000B583B00190009100230022BF
:100D240000990198FFF7AEFF00BF03B05DF804FB24
:100D3400054B5A68044B1B689A420CBF01230023DD
:100D4400DBB21846704700BFA001002000B599B07F
:100D5400FFF7EEFF0346002B01D00023B1E19A4BCD
:100D64000022C3F81824BFF34F8F974B5B6804939A
:100D7400954B9B681093049A109B134002339B007D
:100D8400914A1344043317930023169300231593B5
:100D940000230F9304AB19461798FFF7A1FD0346F0
:100DA400002B14D0884B1A68049B9A4205D8864BB2
:100DB4001B68854A5360002383E1049A109B134007
:100DC40002339B00804A134404331793E2E700BFC5
:100DD4000023149311E0149B9B0001AA1A44049B62
:100DE400591C049110990B40774902339B000B4422
:100DF4005B681360149B01331493149B012BEAD991
:100E04009DF8043003F00303DBB2022B40F09C8016
:100E1400BDF80630C3F389139BB20E93BDF80630B8
:100E2400C3F389139BB2502BA8BF50230D930D9B82
:100E34009BB2C3F309039AB2BDF8063062F38F1371
:100E4400ADF806300D9B08330C939DF80430C3F3C2
:100E5400C203DBB20F930C995C4801F050FE16906C
:100E6400169B002B00F0D480169801F0D8FE01A93F
:100E7400159B0822169801F06FFF159B08331593F4
:100E8400049BDA43109B134001339B000B930D9A90
:100E94000B9B9A4242D90B9B002B08D0049A109BBF
:100EA400134002339B00484A1344043300E0484B88
:100EB4000A930B9B002B02D00B9BDBB201E00D9B32
:100EC400DBB28DF827300B9B002B01D0404B00E0A8
:100ED400002308930B9B002B06D00D9BDAB20B9BCF
:100EE400DBB2D31ADBB200E000238DF81F309DF88B
:100EF4002720159B0A99169801F02EFF9DF827309C
:100F0400159A13441593089B002B16D09DF81F20A7
:100F1400159B0899169801F01FFF0EE0049A109B88
:100F2400134002339B00284A134404330693159B51
:100F34000D9A0699169801F00FFF0E9B03339A0839
:100F4400049B1344049363E09DF8043003F003030B
:100F5400DBB2012B5CD1BDF80430C3F38313DBB2E5
:100F6400062B28BF0623DBB203F00F03DAB2BDF869
:100F7400043062F38913ADF80430BDF80430C3F3D0
:100F84008313DBB2023305939DF80430C3F3C20329
:100F9400DBB20F93059B9B0019460C4801F0AFFD93
:100FA4001690169B002B33D0169801F038FE01A939
:100FB400159B0822169801F0CFFE159B0833159354
:100FC400002314931BE000BFA0010020E45700009D
:100FD400AC010020049B5A1C0492109A1340023363
:100FE4009B003A4A1344191D159B0422169801F0DC
:100FF400B3FE159B04331593149B01331493BDF86E
:101004000430C3F38313DBB21A46149B9A42E1D82B
:10101400169B002B38D02D4BD3F8103413932B4B45
:10102400D3F81834002B1AD0169801F007FE42E0CA
:1010340000238DF84B301398FFF76DFB0346002B0C
:1010440002D001238DF84B309DF84B30002B03D098
:1010540016991398FFF71EFB139B5B681393139B5E
:10106400002BE5D1169801F0E9FD002001F030F8DD
:10107400164BD3F81834002B02D1049B134A536047
:10108400002001F02EF816E0104BD3F81034119321
:1010940005E01198FFF718FB119B5B681193119BF6
:1010A400002BF6D10A4B1B881B0443F002030949A9
:1010B4001846FFF72FFEFFF73BFE034683F00103BC
:1010C400DBB2184619B05DF804FB00BFA001002094
:1010D400140000205C58000000B585B00023039381
:1010E40022E0164BD3F81034029301238DF8073015
:1010F4000EE00298FFF700FB03461A46039B9A4250
:1011040003D100238DF8073005E0029B5B6802934E
:10111400029B002BEDD19DF80730002B01D0039BDF
:1011240007E0039B01330393039B092BD9DD4FF0A5
:10113400FF33184605B05DF804FB00BFA001002092
:1011440000B585B001900B468DF80330FFF7C4FF5E
:101154000390039BB3F1FF3F01D1039B1EE0039B6C
:10116400DBB219460198FFF7BBFA0E4BD3F81034E3
:10117400002B07D10B4A019BC2F81034019B0022BB
:101184005A600AE0074BD3F810345A68019B5A603E
:10119400044BD3F81034019A5A60039B184605B0E7
:1011A4005DF804FBA001002000B583B00C4BD3F81C
:1011B400103401930A4B012283F8202408E001989B
:1011C400FFF7A1FA0198FFF773FA019B5B6801939B
:1011D400019B002BF3D100BF03B05DF804FB00BFFB
:1011E400A001002082B00190009100BF02B07047BE
:1011F40010B584B003900291039BDB88002B0AD0C6
:10120400039BDB881A461F4B009313461E4A1F4953
:10121400029801F0B6F8039B1B7A052B2ED0039B92
:101224005B7A002B12D0039B9B881A46039B1B7A84
:1012340019461046FFF71CFB03461A46144B53F895
:1012440022301A461349029801F09BF8039B1B684D
:1012540019460298FFF7C6FF039B1B7A1A460E4BEA
:1012640053F82240039B9B8800211846FFF7E0FABD
:10127400034622460949029801F083F800BF04B0EE
:1012840010BD00BF90580000A0580000D8580000BE
:1012940050000020F05800003C000020F4580000EA
:1012A40000B585B00390029113468DF80730039B77
:1012B4001B7A052B0FD0039B5B7A002B06D00D4BBA
:1012C4001B681A460C49029801F05BF80B49029816
:1012D40001F057F807E09DF80730002B03D00749C9
:1012E400029801F04EF8029801F033F800BF05B0FF
:1012F4005DF804FB50000020F05800000059000085
:1013040030B58BB007900691059204930E9B1B7B1E
:101314008DF827300E9B00221A730E990498FFF75C
:1013240067FF059B062B7FD801A252F823F000BF6C
:10133400511300005B1300006B1300007F130000C7
:101344009D130000C5130000F513000007990E98C3
:1013540001F017F869E0069B1B681A4607990E9876
:1013640001F00FF861E0069B1A68069B04331B68C2
:1013740007990E9801F005F857E0069B1A68069B3A
:1013840004331968069B08331B6800930B460799BE
:101394000E9800F0F6FF48E0069B1968069B04339C
:1013A4001868069B08331B68069A0C32126801926F
:1013B400009303460A4607990E9800F0E2FF34E0D2
:1013C400069B1868069B04331C68069B08331B683D
:1013D400069A0C321268069910310968029101923A
:1013E40000932346024607990E9800F0CAFF1CE0BA
:1013F400069B1C68069B04331D68069B08331B6808
:10140400069A0C321268069910310968069814304D
:10141400006803900291019200932B46224607999B
:101424000E9800F0AEFF00E000BF00220E99049871
:10143400FFF736FF0E9B9DF827201A7300BF0BB0F1
:1014440030BD00BF00B587B00390029101920093B4
:10145400029B082B5CD8009B1B7B8DF81330009BF0
:1014640000221A7300990198FFF7C2FE0023059326
:1014740014E0059A029B9A4209D2039A059B1344ED
:101484001B781A462449009800F07BFF03E02349A7
:10149400009800F076FF059B01330593059B072B0D
:1014A400E7D91F49009800F06CFF0023059322E060
:1014B400059A029B9A4217D2039A059B13441B7800
:1014C4008DF812309DF81230184604F0D9F803460E
:1014D400002B02D09DF8123000E02E231A46114949
:1014E400009800F04EFF03E00F49009800F049FF18
:1014F400059B01330593059B072BD9D9012200993C
:101504000198FFF7CDFE009B9DF813201A7300E0AD
:1015140000BF07B05DF804FB045900000C5900003B
:1015240010590000145900001859000082B00190AD
:10153400019B1B681F2B02D84FF0A04306E0019BC0
:101544001B6803F01F02019B1A60024B184602B08D
:10155400704700BF0003005000B585B001900846F5
:1015640011461A4603468DF803300B468DF80230B7
:1015740013468DF8013001AB1846FFF7D7FF0390EF
:10158400019A9DF803109DF802305B0019439DF801
:1015940001309B0019439DF818301B0219439DF834
:1015A4001C301B041943039B02F5E07243F822101C
:1015B40000BF05B05DF804FB00B585B003900023BF
:1015C4000193002300930023012201210398FFF7D4
:1015D400C3FF00BF05B05DF804FB00B585B0039000
:1015E4000B468DF80B309DF80B200023019300234C
:1015F40000931346002200210398FFF7ADFF00BFBC
:1016040005B05DF804FB00B585B0019001AB184648
:10161400FFF78CFF0390019B012202FA03F31946A2
:10162400039800F02AF800BF05B05DF804FB00B58C
:1016340085B0019001AB1846FFF778FF0390019B3A
:10164400012202FA03F31946039800F020F800BFC0
:1016540005B05DF804FB00B583B001900091009BD8
:10166400002B03D10198FFF7E2FF02E00198FFF796
:10167400CAFF00BF03B05DF804FB82B00190009183
:10168400019B009AC3F8082500BF02B0704782B0DE
:1016940001900091019B009AC3F80C2500BF02B091
:1016A4007047000000B583B00190064A019B1344C3
:1016B4001B7801211846FFF7CEFF00BF03B05DF889
:1016C40004FB00BF1C59000000B583B00023019344
:1016D40005E00198FFF7E6FF019B01330193019BAD
:1016E400032BF6D900BF03B05DF804FB00B583B04B
:1016F4000023019309E0094A019B13441B7818460F
:10170400FFF75AFF019B01330193019B032BF2D98D
:10171400FFF7DAFF00BF03B05DF804FB1C590000BB
:1017240000B583B0002301930AE0094A019B1344E6
:101734001B7803211846FFF750FF019B01330193E7
:10174400019B032BF1D900BF03B05DF804FB00BF7C
:101754002059000000B583B00190019B03F0010300
:10176400002B01D0FFF7C2FF019B03F00203002B03
:1017740001D0FFF7D5FF00BF03B05DF804FB00B54F
:1017840087B001900023039300230493019B0593E6
:1017940003AB1A46002144F2010000F017F800BF21
:1017A40007B05DF804FB0000BFF34F8F0549054BFC
:1017B400DB6803F4E062044B1343CB60BFF34F8F49
:1017C40000BFFDE700ED00E00400FA0500B585B0B8
:1017D40003900291019272B6FFF7E6FC00BFFFF797
:1017E400B5FA0346002BFAD10F4B1B881B0443F0B8
:1017F40001030E491846FFF78DFA0D4B1B6803F0E1
:101804000103002B00D000BE074B1B881B0443F0D0
:10181400020308491846FFF77DFAFFF7C5FF00BF2A
:1018240005B05DF804FB00BF14000020245900003B
:10183400F0ED00E03059000082B003468DF8073027
:1018440007499DF907305B099DF8072002F01F0244
:10185400012000FA02F241F8232000BF02B07047D1
:1018640000E100E082B003468DF8073008499DF995
:1018740007305B099DF8072002F01F02012000FADF
:1018840002F2203341F8232000BF02B0704700BFAA
:1018940000E100E082B003468DF8073008499DF965
:1018A40007305B099DF8072002F01F02012000FAAF
:1018B40002F2403341F8232000BF02B0704700BF5A
:1018C40000E100E082B003468DF8073008499DF935
:1018D40007305B099DF8072002F01F02012000FA7F
:1018E40002F2603341F8232000BF02B0704700BF0A
:1018F40000E100E000B585B00190019B002B0AD007
:10190400074B43F001030393019B9B010293039B49
:101914000298984700E000BF05B05DF804FB00BFE3
:101924004059000008B50D4B4FF48032C3F84423EE
:101934000A4B4FF48032C3F804231120FFF7C2FF8F
:101944001120FFF779FF054B01221A602F20FFF7C2
:10195400D1FF034B01221A7000BF08BD00100140E3
:10196400E206002008B51120FFF77CFF0E4B4FF470
:101974008032C3F848230C4B4FF48032C3F8082359
:10198400094B01225A602F20FFF7B4FF064B0122B6
:101994009A60064B00221A602F20FFF7ABFF044B1E
:1019A40000221A7000BF08BD00100140D4060020B8
:1019B400E2060020024BD3F804351846704700BFF6
:1019C4000010014082B001900091019A009BD31A4B
:1019D40023F07F43184602B07047000082B00190A4
:1019E400034A019BC2F8403500BF02B0704700BFF4
:1019F4000010014086B00190284B1B68002B03D1D6
:101A0400264A019B136045E0019B1A68234B1B681F
:101A14001B689A4210D8214B1B68204A126811682F
:101A2400019A12688A1A1A601C4B1A68019BDA61BF
:101A34001A4A019B13602DE0019B1B680393174B0B
:101A44001B680593154B1B68049309E0049B1B68F2
:101A5400039AD31A0393049B0593049BDB690493B1
:101A6400049B002B04D0049B1A68039B9A42EDD379
:101A7400049B002B05D0049B1A68039BD21A049B79
:101A84001A60019B039A1A60019B049ADA61059B10
:101A9400019ADA6100BF06B0704700BFD00600208B
:101AA40000B587B001902A4B1B680393284B1B6831
:101AB4000593059B049308E0049A019B9A4208D07D
:101AC400049B0593049BDB690493049B002BF3D1D3
:101AD40000E000BF049B002B01D1002333E0059AF2
:101AE400049B9A4214D11A4B1B68DB69184A136091
:101AF400174B1B68002B0BD1164B01229A60164B17
:101B040000221A60154B01221A702F20FFF7F2FEF3
:101B1400049B1B680293049BDA69059BDA61059BAD
:101B2400DB690493049B002B05D0049B1A68029B79
:101B34001A44049B1A60064B1B68039A9A4214BF0A
:101B440001230023DBB2184607B05DF804FB00BF95
:101B5400D006002000100140D4060020E306002037
:101B640008B51120FFF796FE00BF08BD08B5142084
:101B7400FFF790FE00BF08BD00B583B00190019B44
:101B84005B69019A92691046984700BF03B05DF8FB
:101B940004FB000000B585B02B4B1B68002B4ED016
:101BA40000230193FFF706FF0246284B1B681946E2
:101BB4001046FFF707FF0290234B1B6803931DE0B9
:101BC400039B1A68029B9A421CD8039B1B68029AC7
:101BD400D31A0293039B1B68019A13440193039B3A
:101BE4000093039BDB690393009B1B7C002B05D0B4
:101BF400009B00221A740098FFF7BEFF039B002B82
:101C0400DED100E000BF124B1A78124B1B789A42C7
:101C14000CD1104B1B780133DAB20E4B1A700D4BFA
:101C24001B78022B02D10B4B00221A70094B1B7834
:101C34001946094A019B42F82130FFF797FF00BF7C
:101C440005B05DF804FB00BFD0060020D4060020D8
:101C5400E0060020E1060020D806002082B00190B2
:101C6400184B1A78184B1B789A4223D0154B1B78C3
:101C74000133DAB2134B1A70124B1B78022B02D1C8
:101C8400104B00221A700F4B1B781A460F4B53F857
:101C94002220019B1A60019B1A680D4B1B68134498
:101CA4000B4A13600A4B1B6823F07F43084A1360F6
:101CB400012303E0019B00221A600023184602B0AE
:101CC400704700BFE0060020E1060020D80600208F
:101CD400D406002088B00390029101920023079358
:101CE40038E0204B1B680693069B1A68039B9A42B4
:101CF40006D9069B1A68039BD21A069B1A602DE02C
:101D0400069B1B68039AD31A0393069B1B68079AC6
:101D140013440793069B00221A60124B1B68059319
:101D2400069BDB690F4A1360069BDB68002B11D00E
:101D3400029A079B134423F07F42069B5A60069B3A
:101D4400DA68069B9A60019B1A68069BDA61019B1C
:101D5400059A1A60034B1B68002BC2D100BF08B060
:101D6400704700BFD006002000B589B00190002361
:101D74008DF81F30664B1B680593AAE0019B002B6E
:101D840005D0019B0693069BDB69019361E0614BDF
:101D94001B781A4613465B001344DB005D4A134468
:101DA400043304935B4B1B780133DAB2594B1A703A
:101DB400584B1A78574B9B789A4202D1554B0022C4
:101DC4001A70049B5B680693049B1B78022B04D057
:101DD400032B1BD0012B1FD01DE0049B5B6818460E
:101DE400FFF75EFE0346002B02D001238DF81F305F
:101DF400069B00221A746CE0454B1B680393039BFB
:101E040000221A74039BDB69414A1360404B1B6830
:101E1400002BF1D15DE05CE000BF069B1B7C002B36
:101E240000D056E0049B9A68069B5A60049BDA68CB
:101E3400069B9A60049B1A69069BDA60049B5A69A4
:101E4400069B9A61344B1B78002B02D0069B002220
:101E54005A60069B5A68314B1B68D31A23F07F43A0
:101E64002F4A93420ED8069B5A682C4B1B6819467E
:101E74001046FFF7A7FD0246069B9B681A44069B83
:101E84001A6017E0254B1A68069B5B6819461046D2
:101E9400FFF798FD0290069B9A68029B9A4206D926
:101EA400069B9A68029BD21A069B1A6002E0069B64
:101EB40000221A60069B00225A60069B00229A6048
:101EC400069B01221A74069B0022DA610698FFF72A
:101ED40091FD019B002B7FF451AF0E4B1A780D4BF3
:101EE4005B789A427FF44AAF9DF81F30002B04D1EF
:101EF400074B1A68059B9A4201D0012300E0002396
:101F040003F00103DBB2184609B05DF804FB00BF1F
:101F1400D0060020C4050020E3060020D4060020DB
:101F2400FEFF7F0010B588B00190274B1B68002B83
:101F340044D0254B1B681B680793FFF73BFD0690B5
:101F4400224B1B68059305990698FFF73BFD034652
:101F5400033304931E4B1B7883F00103DBB2002B85
:101F640001D0FFF7DFFC049A079B934238BF134666
:101F7400059A13440593059B23F07F430593059825
:101F8400FFF72CFDFFF716FD039006990398FFF762
:101F940019FD0346DC1C06990598FFF713FD03465B
:101FA4009C420DD9FFF706FD03461846FFF716FDC0
:101FB4002F20FFF79FFCFFF7D3FD01E0FFF7D2FCD2
:101FC40000BF08B010BD00BFD0060020D40600201A
:101FD400E206002000B587B00023019300238DF8AA
:101FE4001730194B1B680493184B1B6803936B46FB
:101FF4001846FFF733FE03468DF80B309DF80B307F
:10200400002B08D0009B01AA04991846FFF762FE32
:1020140001238DF81730019B1846FFF7A5FE0346F0
:10202400002B02D001238DF817309DF81730002BB8
:1020340002D00398FFF776FF054B00221A7000BF09
:1020440007B05DF804FB00BFD4060020D0060020D2
:10205400E306002008B50E4B0022C3F840210C4BC8
:102064000022C3F844210A4B0022C3F84821084B3C
:102074000022C3F84C21064B0022C3F80021044B74
:102084000022C3F80421FFF785FD00BF08BD00BF8F
:102094000010014008B5FFF79DFF00BF08BD000018
:1020A40072B6034B1B680133014A136000BF7047CB
:1020B400E4060020054B1B68013B044A1360034BF4
:1020C4001B68002B00D162B600BF7047E4060020F5
:1020D40000B583B00190FFF7E3FF00BF03B05DF8E4
:1020E40004FB00B583B003468DF80730FFF7E2FF29
:1020F40000BF03B05DF804FB10B487B001900091F9
:10210400019B009A53E8004F104643E8000191F008
:10211400000FF7D1059404900391059B184607B06E
:102124005DF8044B704710B487B001900091019B97
:10213400009A53E8004F44EA020043E8000191F09A
:10214400000FF6D1059404900391049B184607B040
:102154005DF8044B704710B487B001900091019B67
:10216400009A53E8004F04EA020043E8000191F0AA
:10217400000FF6D1059404900391059B184607B00F
:102184005DF8044B704710B487B001900091019B37
:10219400009A53E8004F04EB020043E8000191F079
:1021A400000FF6D1059404900391049B184607B0E0
:1021B4005DF8044B704710B487B001900091019B07
:1021C400009A53E8004FA4EB020043E8000191F0A9
:1021D400000FF6D1059404900391049B184607B0B0
:1021E4005DF8044B704700B583B00190012101985C
:1021F400FFF799FF0346184603B05DF804FB00B5EA
:1022040083B0019000210198FFF7A5FF034618460B
:1022140003B05DF804FB82B001900B468DF80330E7
:10222400019BDA689DF803300199898A01FB03F365
:102234001344184602B0704782B001900091009B8D
:10224400019AD2689B1A019A928AB3FBF2F3DBB229
:10225400184602B0704784B00190019B002B01D155
:102264000E2321E0019B9B681A46019B5B68D31AED
:102274008DF80F30019B1B68019A52681A6007E0C1
:10228400019B1A681368591C11609DF80F201A707D
:102294009DF80F305A1E8DF80F20002BF0D1019BB2
:1022A4001B6800221A710023184604B0704700B559
:1022B40085B00190002303930020FFF709FF019BE1
:1022C4001B681A68019B5B689A4220D9019B1B68B2
:1022D4001A68013A1A601B681B7819460198FFF7BF
:1022E4009AFF0390019B9B681A46019B1B681B681D
:1022F400D31A8DF80B30019B1B681B799DF80B20BA
:102304009A4204D9019B1B689DF80B201A71002086
:10231400FFF7E7FE039B184605B05DF804FB10B514
:1023240084B001900091009B03930020FFF7D0FE3E
:10233400019B1B681C68621C1A6003990198FFF7D3
:102344007BFF034623700020FFF7CBFE00BF04B0E1
:1023540010BD00B583B00190019B9B68002B0CD08D
:10236400019B5B69019A1069019A1168019A92684C
:102374009847019B00229A6000E000BF03B05DF81B
:1023840004FB0EB400B584B00190059B002B0AD069
:102394000023039306AB039303AB1A4605990198F4
:1023A40000F0ACF900E000BF04B05DF804EB03B04A
:1023B400704700B583B001900B468DF80330019B44
:1023C4001A68019B9B68581C0199886013449DF806
:1023D40003201A70019B9A68019B5B689A4202D39E
:1023E4000198FFF7B6FF00BF03B05DF804FB00B52A
:1023F40087B0039002910192009300230593009B00
:1024040003F00103002B24D00BE0029B0133029361
:10241400059B013305939DF8133019460398FFF784
:10242400C8FF029B1B788DF813309DF81330002BE6
:10243400EBD106E0019B013B019320210398FFF7B8
:10244400B8FF019A059B9A422ED9019B002BF1D12A
:102454002AE0029B002B0BD0029803F075F905903B
:1024640006E0019B013B019320210398FFF7A1FFA4
:10247400019A059B9A420FD9019B002BF1D10BE0E5
:10248400029B01330293059B013305939DF813309E
:1024940019460398FFF78DFF029B1B788DF81330C4
:1024A4009DF81330002BEBD100BF07B05DF804FB9F
:1024B40000B589B00390029101920093029B0793A7
:1024C4000123069307E0079A019BB2FBF3F30793FA
:1024D400069B01330693079A019B9A42F3D2009A12
:1024E400069B9A4201D9009B06930B9B03F00103C0
:1024F400002B22D10A9B002B1FD00B9B03F002035D
:10250400002B06D0009B002B03D130238DF817300D
:1025140002E020238DF8173008E00A9B013B0A9360
:102524009DF8173019460398FFF743FF0A9B002BC9
:1025340003D0069A0A9B9A42EFD301230793009B88
:10254400012B03D9009B013B009309E0029A079BEE
:10255400B2FBF3F30493049A019B9A4200D205E080
:10256400079B019A02FB03F30793E8E7029A079B90
:10257400B2FBF3F30493049B079A02FB03F3029A5E
:10258400D31A0293154A049B13441B7819460398E3
:10259400FFF70FFF079A019BB2FBF3F30793079B27
:1025A400002BE3D10B9B03F00103002B11D00A9BFA
:1025B400002B0ED006E00A9B013B0A9320210398CE
:1025C400FFF7F7FE0A9B002B03D0069A0A9B9A4258
:1025D400F1D300BF09B05DF804FB00BF4859000007
:1025E40000B589B00590049103920293049B002BDB
:1025F400B8BF5B4206930123079307E0039B069A47
:1026040092FBF3F30693079B01330793039B069A0C
:102614009A42F3DA029A079B9A4201D9029B0793E2
:102624000A9B002B0AD0049B002B04DB0B9B03F0BA
:102634000403002B02D00A9B013B0A930B9B03F07B
:102644000203002B02D0029B002B16D00B9B03F03D
:102654000103002B11D10A9B002B0ED006E00A9B2C
:10266400013B0A9320210598FFF7A3FE0A9B002B48
:1026740003D0079A0A9B9A42F1D3049B002B07DAF2
:10268400049B5B4204932D210598FFF792FE08E01A
:102694000B9B03F00403002B03D02B210598FFF7B9
:1026A40088FE0B9B03F00203002B19D00B9B03F055
:1026B4000103002B14D1029B002B11D10A9B002B88
:1026C4000ED006E00A9B013B0A9330210598FFF7E0
:1026D40070FE0A9B002B03D0079A0A9B9A42F1D3FF
:1026E40004990B9B01930A9B0093029B039A059800
:1026F400FFF7DEFE00BF09B05DF804FB00B58FB044
:10270400059004910392049B002B00F0E981049B43
:102714001B788DF83730049B013304939DF83730D0
:10272400002B00F0D4819DF83730252B40F0C38175
:1027340000230A9301230C93049B1B788DF83730F4
:102744009DF837302D2B04D0302B0AD02B2B10D0F2
:1027540017E00A9B43F001030A93049B013304939B
:1027640012E00A9B43F002030A93049B013304938F
:102774000AE00A9B43F004030A93049B0133049385
:1027840002E000230C9300BF0C9B002BD4D1002348
:1027940009939DF837302A2B0CD1039B1B68191D14
:1027A400039A11601B68099A13440993049B01332B
:1027B40004931AE0049B1B788DF837309DF837306A
:1027C4002F2B12D99DF83730392B0ED8049B0133A7
:1027D4000493099A13469B0013445B001A469DF820
:1027E40037301344303B0993D3E700230B93049B06
:1027F4001B788DF837309DF837302E2B1DD1049B74
:1028040001330493049B1B788DF837309DF83730DF
:102814002F2B12D99DF83730392B0ED8049B013356
:1028240004930B9A13469B0013445B001A469DF8CD
:1028340037301344303B0B93E4E7049B1B788DF84B
:1028440037309DF837306C2B03D09DF83730682B28
:1028540007D1049B01330493049B1B788DF8373014
:10286400EFE79DF83730253B532B00F21F8101A27F
:1028740052F823F0A72A0000B12A0000B12A000070
:10288400B12A0000B12A0000B12A0000B12A0000D8
:10289400B12A0000B12A0000B12A0000B12A0000C8
:1028A400B12A0000B12A0000B12A0000B12A0000B8
:1028B400B12A0000B12A0000B12A0000B12A0000A8
:1028C400B12A0000B12A0000B12A0000B12A000098
:1028D400B12A0000B12A0000B12A0000B12A000088
:1028E400B12A0000B12A0000B12A0000B12A000078
:1028F400B12A0000B12A0000B12A0000B12A000068
:10290400B12A0000B12A0000B12A0000B12A000057
:10291400B12A0000B12A0000B12A0000B12A000047
:10292400B12A0000B12A0000B12A0000B12A000037
:10293400B12A0000B12A0000B12A0000B12A000027
:10294400332A0000B12A0000B12A0000B12A000095
:10295400B12A0000B12A0000B12A0000B12A000007
:10296400B12A0000B12A0000B12A0000C9290000E0
:10297400EB290000B12A0000B12A0000B12A0000AE
:10298400B12A0000EB290000B12A0000B12A00009E
:10299400B12A0000B12A0000B12A0000B12A0000C7
:1029A400732A0000B12A0000B12A0000572A00004F
:1029B400B12A00000F2A0000B12A0000B12A000049
:1029C400332A0000039B1B68191D039A11601B68BE
:1029D4000C930C9B8DF823309DF8233019460598F1
:1029E400FFF7E7FC63E0039B1B68191D039A116062
:1029F4001B680C930A9B0193099B00930B9B0A226F
:102A04000C990598FFF7ECFD51E0039B1B68191D19
:102A1400039A11601B680C930C990A9B0193099B00
:102A240000930B9B0A220598FFF742FD3FE0039BAE
:102A34001B68191D039A11601B680C930C990A9B5F
:102A44000193099B00930B9B10220598FFF730FD1F
:102A54002DE0039B1B68191D039A11601B680793E3
:102A64000A9B099A07990598FFF7C1FC1FE0039B8D
:102A74001B68191D039A11601B680C93302105987B
:102A8400FFF797FC78210598FFF793FC0C99002336
:102A9400019308230093082310220598FFF708FDEB
:102AA40005E025210598FFF784FC00E000BF049BA6
:102AB4000133049305E09DF8373019460598FFF774
:102AC40078FC049B1B78002B7FF421AE00E000BF50
:102AD400059B1B7B002B04D00598FFF73AFC00E014
:102AE40000BF0FB05DF804FB00B583B001900198FE
:102AF400FFF7B1FB0346184603B05DF804FB00B5CD
:102B04008BB001900091019B9B8A043B0793009A30
:102B1400079B1344DA1C079BB2FBF3F38DF81B30BD
:102B24000198FFF7C4FB0590059B002B01D10023FE
:102B340038E0059B00221A71059B01225A71079BFC
:102B44009AB2059BDA80059B09939DF81B30013BE3
:102B54000493099B019A1A60002308931DE00198CD
:102B6400FFF7A5FB0390039B002B0ED0059B5B791D
:102B74000133DAB2059B5A71099B039A1A60039BCD
:102B8400019A1A60039B099304E0059800F00EF87B
:102B9400002307E0089B01330893089A049B9A4298
:102BA400DDD3059B18460BB05DF804FB00B58BB074
:102BB4000190019B0793079B5B798DF81B30019B68
:102BC40008939DF81B30013B05930023099305E00E
:102BD400089B1B680893099B01330993099A059B79
:102BE4009A42F5D3089B1B680493019B0893002326
:102BF40009930BE0089B1B68039308990498FFF75B
:102C04008EFB039B0893099B013309939DF81B20BA
:102C1400099B9A42EED800BF0BB05DF804FB00B5E7
:102C240085B00190019B0393039B04330121184653
:102C3400FFF7A9FA00BF05B05DF804FB00B587B043
:102C44000190019B0593059B043301211846FFF76E
:102C5400B2FA0346039303AB0493049B1B78002B43
:102C640002D10198FFF7A2FF00BF07B05DF804FB93
:102C740000B58DB00390029101920093039B0693DB
:102C8400069BDB880593039B0B93009B1A1D059BF6
:102C9400B2FBF3F30A93009B0433059AB3FBF2F2FD
:102CA400059901FB02F29B1A0993009A019B1A44AD
:102CB400059B1344DA1C059BB2FBF3F38DF8133028
:102CC40005E00B9B1B680B930A9B013B0A930A9B31
:102CD400002BF6D100230893059A099BD31A079376
:102CE400079A019B934228BF134607932DE09DF852
:102CF4003830002B0BD0029A089BD0180B9A099BF2
:102D040013440433079A194602F0C0FC0AE00B9AF4
:102D1400099B1344181D029A089B1344079A1946E9
:102D240002F0B4FC002309930B9B1B680B93019ADC
:102D3400079BD31A0193089A079B13440893059A97
:102D4400019B934228BF13460793019B002BCED1CE
:102D540000BF0DB05DF804FB00B587B00590049189
:102D64000392029300230093029B039A049905980B
:102D7400FFF77EFF00BF07B05DF804FB00B587B026
:102D8400059004910392029301230093029B039AFA
:102D940004990598FFF76CFF00BF07B05DF804FBCA
:102DA40000B589B001900091009B0793019B1B78AB
:102DB4008DF80830019B5B680393019B9B68DBB231
:102DC4008DF81030019BDB680593019B1B69DBB216
:102DD4008DF81830074A079B52F823300649079AA2
:102DE40051F8221002AA1046984700BF09B05DF8B6
:102DF40004FB00BFE8060020F806002010B58AB0E6
:102E04000390029101920093039B1B78099322493A
:102E1400099B019A41F823202049099B009A41F813
:102E24002320002308931E4B04AC0FCB84E80F002F
:102E3400029B1B788DF81030029B5B788DF8113063
:102E4400029B9B788DF81230029BDB788DF813304F
:102E5400029B1B798DF81530029B5B798DF8163037
:102E6400029B9B680693029B1B7B8DF81C30029B84
:102E74005B7B8DF81D30039B181D019B002B01D03B
:102E8400084A00E00022099B04A900F04BFB0890CB
:102E9400089B18460AB010BDE8060020F80600207A
:102EA40058590000A52D000000B589B0019000918B
:102EB400009B0793019B1B788DF80C30019B5B688A
:102EC4000493019B1B7A8DF81430019BDB680693F5
:102ED400074A079B52F823300649079A51F82210F3
:102EE40003AA1046984700BF09B05DF804FB00BF71
:102EF400080700201007002000B589B00190009158
:102F0400009B0793019B1B788DF80C30019B5B6839
:102F14000493019B9B68DBB28DF81430019BDB6842
:102F24000693074A079B52F823300649079A51F83B
:102F3400221003AA1046984700BF09B05DF804FBAD
:102F4400080700201007002030B58FB003900291CD
:102F54000192039B1B780C9326490C9B019A41F820
:102F64002320029B1A6924490C9B41F82320029BCD
:102F74005B7F1946214A0C9B13440A461A70029B34
:102F840004AC1D460FCD0FC495E80F0084E80F0074
:102F94000C9B089300230D93039B1B781A46174B35
:102FA4009B5C002B0DD0039B181D019B002B01D0B3
:102FB400134A00E0002204AB194601F077FE0D909D
:102FC40014E0039B1B781A460C4B9B5C002B0DD121
:102FD400039B03F10C00019B002B01D0094A00E084
:102FE400002204AB194601F047F80D900D9B1846DA
:102FF4000FB030BD0807002010070020180700207C
:10300400AD2E0000FD2E000008B5024B1B6898474A
:1030140000BF08BD1C07002082B00190019B044A38
:10302400934201D1034B00E00023184602B07047DD
:10303400002000401C07002000B587B001900091DB
:103044000198FFF7E9FF0490049B002B1ED0002396
:103054008DF817300020FFF73BF8049B1B79002BF9
:1030640003D001238DF8173005E0049B009A1A6001
:10307400049B01221A710020FFF733F89DF81730E2
:10308400002B03D011230393039B02E0002303933B
:10309400039B184607B05DF804FB00B585B00190AA
:1030A4000198FFF7B9FF0390039B002B05D0039B06
:1030B40000221A60039B00221A7100BF05B05DF85C
:1030C40004FB000082B003468DF8073007499DF9E0
:1030D40007305B099DF8072002F01F02012000FA67
:1030E40002F241F8232000BF02B0704700E100E083
:1030F40082B003468DF8073008499DF907305B0913
:103104009DF8072002F01F02012000FA02F260334A
:1031140041F8232000BF02B0704700BF00E100E087
:1031240082B0034600918DF807309DF90730002BDB
:103134000CDA0D499DF8073003F00F03043B009AA5
:10314400D2B25201D2B20B441A7609E007499DF972
:103154000730009AD2B25201D2B20B4483F8002352
:1031640000BF02B0704700BF00ED00E000E100E0E6
:1031740082B00190019B03F06043B3F1005F0CBF88
:1031840001230023DBB2184602B0704784B00190DB
:10319400019B1B0B8DF80F309DF90F30184604B0BE
:1031A400704700B583B003460A468DF807301346CE
:1031B4008DF806309DF806209DF907301146184613
:1031C400FFF7AEFF00BF03B05DF804FB00B583B0AA
:1031D40003468DF807309DF907301846FFF788FF3E
:1031E4009DF907301846FFF76DFF00BF03B05DF887
:1031F40004FB82B001900B468DF803309DF8033038
:10320400019A134401221A6000BF02B0704784B0CF
:1032140001900B46ADF80230BDF80230019A134418
:1032240000221A60BDF80230019A13441B6803930C
:10323400039B00BF04B0704782B001900B46ADF809
:103244000230BDF80230019A13441B68002B14BFEE
:1032540001230023DBB2184602B0704782B001900C
:103264000091019B009AC3F8042300BF02B0704789
:1032740082B001900091019B009AC3F8082300BF1B
:1032840002B0704782B00190019B0722C3F8002569
:1032940000BF02B0704784B0039002910192009382
:1032A400039B029AC3F80825039B019AC3F80C25D3
:1032B400039B009AC3F8102500BF04B0704782B086
:1032C40001900091009A019BC3F8242500BF02B02D
:1032D400704784B0039002910192029A039BC3F851
:1032E4004425039B019AC3F8482500BF04B07047E6
:1032F40084B0039002910192029A039BC3F834258F
:10330400039B019AC3F8382500BF04B0704784B00A
:1033140001900B468DF8033013468DF802309DF86A
:103324000230002B14BF01230023DBB203939DF86A
:103334000330022B09D0032B0CD0012B00D00EE05C
:10334400039B43F00203039309E0039B43F004034C
:10335400039304E0039B43F00603039300BF019B24
:10336400039AC3F8542500BF04B0704782B001909B
:103374000B468DF803309DF80320019BC3F8C0254C
:1033840000BF02B0704782B00190019B0122C3F8D4
:10339400502500BF02B0704782B00190019B00220B
:1033A400C3F8502500BF02B0704782B00190019B62
:1033B4000122C3F8402500BF02B0704782B00190DB
:1033C400019B0022C3F8402500BF02B070470000F3
:1033D40082B00190019B1B681F2B02D84FF0A043C1
:1033E40006E0019B1B6803F01F02019B1A60024B5D
:1033F400184602B0704700BF0003005000B585B006
:103404000190084611461A4603468DF803300B46D0
:103414008DF8023013468DF8013001AB1846FFF7E2
:10342400D7FF0390019A9DF803109DF802305B00CA
:1034340019439DF801309B0019439DF818301B0275
:1034440019439DF81C301B041943039B02F5E072D9
:1034540043F8221000BF05B05DF804FB00B585B049
:1034640003900023019300230093002301220121F0
:103474000398FFF7C3FF00BF05B05DF804FB00B578
:1034840085B003900B468DF80B309DF80B2000237C
:103494000193002300931346002200210398FFF7B1
:1034A400ADFF00BF05B05DF804FB00B585B0019029
:1034B40001AB1846FFF78CFF0390019B012202FA2F
:1034C40003F31946039800F018F800BF05B05DF83F
:1034D40004FB00B585B0019001AB1846FFF778FFF7
:1034E4000390019B012202FA03F31946039800F0AA
:1034F4000EF800BF05B05DF804FB82B001900091A6
:10350400019B009AC3F8082500BF02B0704782B03F
:1035140001900091019B009AC3F80C2500BF02B0F2
:103524007047000000B58DB005900491039202939A
:10353400059B1B791A461346DB0013449B00794A0A
:1035440013440993099B1B7F002B03D00823089382
:10355400089BE2E0059B1B680793059B1A68059B83
:103564001B791946704B53F8213019461046FFF762
:1035740063FD0346002B03D011230893089BCCE082
:10358400099B039A1A60099B029A5A60049B1B7B4D
:10359400012B05D8049B1B781846FFF79AFF04E01B
:1035A400049B1B781846FFF780FF049B1B78184682
:1035B4000023019300230093002300220121FFF73D
:1035C4001DFF049B5B78FF2B09D0049B5B780B9356
:1035D4000B98FFF77EFF0B98FFF740FF02E04FF0D8
:1035E400FF330B93049B9B78FF2B07D0049B9B78A2
:1035F4000A9301210A98FFF742FF02E04FF0FF33DC
:103604000A93059B1B791946049B9878454A0B46F7
:10361400DB000B449B001344203302461A70049BC6
:10362400DB78FF2B2FD0049B1B79002B05D0049B48
:10363400DB781846FFF74DFF04E0049BDB7818465F
:10364400FFF733FF049BDB781846FFF707FF059B62
:103654001B791946049BD878324A0B46DB000B448D
:103664009B0013441F3302461A70059B1B791946AD
:10367400049B18792B4A0B46DB000B449B00134434
:103684001E3302461A70049B1B7819460A9B0B9A38
:103694000798FFF700FE049B9B6819460798FFF7FD
:1036A4000EFE049B197B049B5B7B1A460798FFF76D
:1036B4002EFE049B9B7919460798FFF757FE099B3A
:1036C4001B68002B03D040210798FFF7C7FD07981C
:1036D400FFF7D8FD099B1B68002B15D0059B1B68C1
:1036E4001846FFF753FD03461A46049B5B791946B7
:1036F4001046FFF756FD059B1B681846FFF746FD6D
:1037040003461846FFF762FD099B00225A77099B7E
:1037140001221A7700230893089B18460DB05DF820
:1037240004FB00BF240700207C59000000B583B0CF
:103734000190019BDB7FFF2B0ED0019B9B7F002B15
:1037440005D0019BDB7F1846FFF7C3FE04E0019B15
:10375400DB7F1846FFF7A9FE019B00225A77019BE5
:1037640000221A72019B1B68019A02F10800019A57
:1037740052681146984700BF03B05DF804FB00B5DA
:1037840083B001900B468DF803309DF8033083F02D
:103794000103DBB2002B04D040210198FFF768FD40
:1037A40003E040210198FFF759FD00BF03B05DF825
:1037B40004FB00B583B001900091009B03F001036A
:1037C400002B03D00198FFF7DEFD02E00198FFF71C
:1037D400E3FD009B03F00203002B03D00198FFF7E5
:1037E400E4FD02E00198FFF7E9FD00BF03B05DF8D6
:1037F40004FB00B587B00390029101920093019BF2
:103804001B68002B0AD0019B1B681846FFF7B0FC0D
:10381400034683F00103DBB2002B0ED1019B9B68AE
:10382400002B11D0019B9B681846FFF7A1FC0346AF
:1038340083F00103DBB2002B06D0029B00225A77EF
:1038440010230593059B54E0019B1968019B5B6859
:103854001A460398FFF73DFD019B9968019BDB68BD
:103864001A460398FFF744FD4FF48C710398FFF751
:10387400CEFC00990398FFF79CFF009B03F008031C
:10388400002B03D110210398FFF7B3FC029B1B68A4
:10389400002B1FD100BF4FF48C710398FFF7CCFCB1
:1038A400034683F00103DBB2002BF4D1029BDB7FE0
:1038B400FF2B1BD0029B9B7F002B05D0029BDB7F41
:1038C4001846FFF706FE11E0029BDB7F1846FFF760
:1038D400ECFD0BE0009B03F00403002B0CBF012361
:1038E4000023DBB219460398FFF749FF0023059331
:1038F400059B184607B05DF804FB000010B586B0C0
:10390400039002910192039B1B791A461346DB0034
:1039140013449B001F4A1344059300230493059BFF
:103924005B7FDBB2002B03D011230493049B2EE0B6
:10393400059B1B68002B07D0019B03F01403002B8D
:1039440002D1059B01225A77059B029A03F10C04CC
:1039540013460FCB84E80F00059BDB7FFF2B0ED0B3
:10396400059B9B7F002B05D0059BDB7F1846FFF74B
:103974009CFD04E0059BDB7F1846FFF7AAFD039B33
:103984001868019B029A0599FFF733FF034618460E
:1039940006B010BD2407002000B583B0019000914B
:1039A4004FF48C710198FFF747FC0346002B07D0B6
:1039B4004FF48C710198FFF72AFC0098FFF7B6FECC
:1039C40000BF03B05DF804FB08B503490348FFF7E3
:1039D400E3FF00BF08BD00BF240700200030024001
:1039E40082B003468DF8073007499DF907305B091B
:1039F4009DF8072002F01F02012000FA02F241F8AC
:103A0400232000BF02B0704700E100E082B003460B
:103A14008DF8073008499DF907305B099DF80720A8
:103A240002F01F02012000FA02F2203341F82320A1
:103A340000BF02B0704700BF00E100E082B003465F
:103A44008DF8073008499DF907305B099DF8072078
:103A540002F01F02012000FA02F2603341F8232031
:103A640000BF02B0704700BF00E100E082B003462F
:103A740000918DF807309DF90730002B0CDA0D49C1
:103A84009DF8073003F00F03043B009AD2B25201B1
:103A9400D2B20B441A7609E007499DF90730009A1F
:103AA400D2B25201D2B20B4483F8002300BF02B059
:103AB400704700BF00ED00E000E100E084B0019039
:103AC400019B1B0B8DF80F309DF90F30184604B085
:103AD400704700B583B003460A468DF80730134695
:103AE4008DF806309DF806209DF9073011461846DA
:103AF400FFF7BCFF00BF03B05DF804FB00B583B063
:103B040003468DF807309DF907301846FFF796FFF6
:103B14009DF907301846FFF763FF00BF03B05DF857
:103B240004FB00B583B003468DF807309DF90730D8
:103B34001846FFF76BFF00BF03B05DF804FB84B0C9
:103B440001900B46ADF80230BDF80230019A1344DF
:103B540000221A60BDF80230019A13441B680393D3
:103B6400039B00BF04B0704782B001900B46ADF8D0
:103B74000230BDF80230019A13441B68002B14BFB5
:103B840001230023DBB2184602B0704782B00190D3
:103B94000091019B009AC3F8042300BF02B0704750
:103BA40082B001900091019BD3F80423009B134041
:103BB400002B14BF01230023DBB2184602B0704768
:103BC40082B001900091019B009AC3F8082300BFC2
:103BD40002B0704784B00190019BD3F88034039302
:103BE400019B039AC3F88024039B184604B07047D2
:103BF40082B00190019B0422C3F8002500BF02B0EB
:103C0400704782B00190019B0022C3F8002500BFD9
:103C140002B0704784B0039002910192039B019A11
:103C2400C3F81425039B029AC3F80C2500BF04B003
:103C3400704700B583B001904FF0FF324FF0FF3171
:103C44000198FFF7E7FF00BF03B05DF804FB82B003
:103C54000190019BD3F80C35184602B0704782B02E
:103C64000190019BD3F81435184602B0704782B016
:103C74000190019BD3F80835184602B0704782B012
:103C84000190019BD3F81035184602B0704784B0F8
:103C9400039002910192039B029AC3F80825039BA7
:103CA400019AC3F8102500BF04B0704700B583B073
:103CB40001904FF0FF324FF0FF310198FFF7E7FF1B
:103CC40000BF03B05DF804FB82B00190019BD3F800
:103CD4001835DBB2184602B0704782B001900B462B
:103CE4008DF803309DF80320019BC3F81C2500BF09
:103CF40002B0704782B001900B468DF803309DF8F6
:103D04000330019A134401221A6000BF02B07047C5
:103D140082B001900B468DF8033013468DF80230C3
:103D24009DF803209DF802301343DBB21A46019B31
:103D3400C3F86C2500BF02B0704782B001900091B7
:103D4400019B009AC3F8242500BF02B0704700000D
:103D540082B00190019B1B681F2B02D84FF0A04337
:103D640006E0019B1B6803F01F02019B1A60024BD3
:103D7400184602B0704700BF0003005000B585B07C
:103D84000190084611461A4603468DF803300B4647
:103D94008DF8023013468DF8013001AB1846FFF759
:103DA400D7FF0390019A9DF803109DF802305B0041
:103DB40019439DF801309B0019439DF818301B02EC
:103DC40019439DF81C301B041943039B02F5E07250
:103DD40043F8221000BF05B05DF804FB00B585B0C0
:103DE4000390002301930023009300230122012167
:103DF4000398FFF7C3FF00BF05B05DF804FB00B5EF
:103E040085B003900B468DF80B309DF80B200023F2
:103E14000193002300931346002200210398FFF727
:103E2400ADFF00BF05B05DF804FB00B585B003909D
:103E3400002301930023009300230122002103980F
:103E4400FFF79CFF00BF05B05DF804FB00B585B02B
:103E5400019001AB1846FFF77BFF0390019B012201
:103E640002FA03F31946039800F004F800BF05B002
:103E74005DF804FB82B001900091019B009AC3F8A5
:103E8400082500BF02B0704700B583B001900091CF
:103E9400009B1B68B3F1FF3F09D0009B1B681846C9
:103EA400FFF7D4FF009B1B681846FFF797FF009BA2
:103EB4005B68B3F1FF3F05D0009B5B6800211846A7
:103EC400FFF79DFF019B1A68009B9B6919461046EA
:103ED400FFF733FF019B1868009B597D009B1B7DF6
:103EE4001A46FFF715FF019B1868009B1968009B91
:103EF4005B681A46FFF78EFE009B1B7D012B22D1C7
:103F0400009B9B68B3F1FF3F05D0009B9B68002199
:103F14001846FFF774FF009BDB68B3F1FF3F09D03D
:103F2400009BDB681846FFF791FF009BDB6818468F
:103F3400FFF754FF019B1868009BD968009B9B689E
:103F44001A46FFF7A4FE00BF03B05DF804FB0000AF
:103F540000B583B001900B468DF80330019B1B68BC
:103F64004FF48E711846FFF7EAFD019B1B684FF46E
:103F7400A2711846FFF7E3FD019B1B680E49184622
:103F8400FFF704FE019B1B681846FFF797FD0346E5
:103F94001A469DF8033019461046FFF79AFD019B17
:103FA4001B681846FFF78AFD03461846FFF7A6FD6F
:103FB40000BF03B05DF804FB8000020000B583B0CD
:103FC4000190019B1B6808491846FFF7F9FD019B06
:103FD4001B681846FFF772FD03461846FFF7A1FD5C
:103FE40000BF03B05DF804FB8402020000B587B093
:103FF4000190019B1B681846FFF729FE0590019B61
:104004001B681846FFF72BFE0490019B1B6818469B
:10401400FFF72DFE0390019B1B681846FFF72FFE48
:104024000290019B1B681846FFF703FE019B1B6867
:104034001846FFF73BFE059BB3F1FF3F02D00598FE
:10404400FFF7F3FE049BB3F1FF3F02D00498FFF7A0
:10405400ECFE029BB3F1FF3F02D00298FFF7E5FEAE
:10406400039BB3F1FF3F02D00398FFF7DEFE00BFCE
:1040740007B05DF804FB000000B587B0039002911F
:104084000192039B1B791A462C2303FB02F3284A53
:104094001344059300230493059B93F82A30002BC3
:1040A40003D008230493049B3EE0039B1A68039BFC
:1040B4001B7919461F4B53F8213019461046FEF759
:1040C400BBFF0346002B03D011230493049B2BE076
:1040D40002990398FFF7D8FE059B019A5A60029B48
:1040E4001A69059B1A60059B5B68002B05D0029B2F
:1040F4001B7F19460398FFF72BFF039B1B68184689
:10410400FFF776FD059B00229A61059B0022DA6188
:10411400059B002283F82920059B00225A61059BF8
:10412400012283F82A20049B184607B05DF804FB9B
:10413400480700208859000000B585B00190019B14
:104144001B791A462C2303FB02F3114A13440393ED
:10415400019B1B681846FFF754FD039B5B68002B0B
:1041640002D00198FFF72AFF0198FFF73FFF019B58
:104174001B681846FEF791FF039B002283F82A2050
:10418400039B00225A6000BF05B05DF804FB00BF2A
:104194004807002000B585B0019000914FF48E715E
:1041A4000198FFF7CCFC009B9A68009B1B6A1344A0
:1041B4001B788DF80F30009B1B6A5A1C009B1A62F7
:1041C4009DF80F3019460198FFF787FD00BF05B031
:1041D4005DF804FB00B583B00190009116E0009BEC
:1041E40093F82830DBB2002B01D0002315E04FF404
:1041F4008E710198FFF7B8FC034683F00103DBB22C
:10420400002BECD100990198FFF7C4FF009B1A6AB8
:10421400009B5B699A42EAD30123184603B05DF818
:1042240004FB000000B587B0039002910192039B48
:104234001B791A462C2303FB02F32F4A13440493DD
:10424400039800F05BF80346002B03D01123059379
:10425400059B4CE0049B019A5A61049B029A9A6064
:10426400049B00221A62049B002283F82820002366
:104274000593039B1B684FF48E711846FFF75FFC90
:10428400039B1B6808211846FFF734FD039B1B683A
:1042940004991846FFF77EFF049B5B68002B25D129
:1042A400039B1B6804991846FFF794FF034683F0A9
:1042B4000103DBB2002B02D00F23059313E000BFF0
:1042C400039B1B684FF48E711846FFF74DFC0346A1
:1042D40083F00103DBB2002BF2D1039B1B680C219A
:1042E4001846FFF707FD049B00225A61059B1846F8
:1042F40007B05DF804FB00BF4807002082B00190BE
:10430400019B1B791946074A2C2303FB01F3134431
:1043140014331B68002B14BF01230023DBB218469F
:1043240002B070474807002010B582B00190009198
:10433400009B9B69002B08D14FF484710198FFF70F
:10434400FEFB0198FFF7C0FC13E04FF48471019861
:10435400FFF7F5FB009BDA68009B5B6AD4180198B1
:10436400FFF7B2FC03462370009B5B6A5A1C009B58
:104374005A6202B010BD00B589B003900291019257
:1043840001238DF81030029B0693019B0593039B38
:104394005B68039A116804AA1046984700BF09B0E5
:1043A4005DF804FB00B587B00190009100238DF8FF
:1043B4000830009B0493019B9B680393019B00229C
:1043C4005A61019B5B68019A116802AA10469847DA
:1043D40000BF07B05DF804FB00B589B001900091FF
:1043E4004FF400710198FFF7DBFB0346002B39D033
:1043F4004FF492710198FFF7B7FB0346002B31D0BD
:104404004FF492710198FFF79AFB4FF401710198F0
:10441400FFF7D6FB009B93F8293083F00103DBB24E
:10442400002B03D004210198FFF764FC02238DF8CC
:1044340008300198FFF7CEFB03460593009B9B6968
:104444000493009BDB680393009B00229A61009B0A
:104454000022DA61009B5B68009A116802AA104688
:10446400984752E004210198FFF79AFB0346002B7A
:104474004BD04FF484710198FFF776FB0346002B71
:1044840043D000990198FFF74FFF009B9A69009B66
:104494005B6A9A4239D1009BDB69002B19D0009BDF
:1044A400DB680793009B5B6A0693009BDA69009BB9
:1044B4009A61009B1A69009BDA60009B0022DA6112
:1044C400009B00225A62079A06990098FFF753FF4F
:1044D4001BE0009B93F8293083F00103DBB2002B2F
:1044E40003D004210198FFF705FC4FF401710198F2
:1044F400FFF766FB009B00229A61009B596A009BB0
:10450400DB681A460098FFF736FF4FF48E71019866
:10451400FFF72AFB0346002B22D0009B1A6A009B5C
:104524005B699A420DD2009B93F82830DBB283F08A
:104534000103DBB2002B04D000990198FFF72AFE97
:104544000EE04FF48E710198FFF7F9FA009B5B6956
:10455400002B05D0009B5B6919460098FFF722FFEA
:104564004FF4A2710198FFF7FFFA0346002B1CD009
:104574004FF4A2710198FFF7E2FA009B93F82930F7
:10458400002B03D000210198FFF7B4FB009B9B692B
:10459400002B0AD0009B00229A61009B596A009B61
:1045A400DB681A460098FFF7E6FE00BF09B05DF825
:1045B40004FB000008B503490348FFF70DFF00BFE3
:1045C40008BD00BF480700200020004082B0034619
:1045D4008DF8073007499DF907305B099DF80720DE
:1045E40002F01F02012000FA02F241F8232000BF6A
:1045F40002B0704700E100E082B003468DF8073056
:1046040008499DF907305B099DF8072002F01F0255
:10461400012000FA02F2203341F8232000BF02B047
:10462400704700BF00E100E082B003468DF8073018
:1046340008499DF907305B099DF8072002F01F0225
:10464400012000FA02F2603341F8232000BF02B0D7
:10465400704700BF00E100E082B0034600918DF88E
:1046640007309DF90730002B0CDA0D499DF807300F
:1046740003F00F03043B009AD2B25201D2B20B44AE
:104684001A7609E007499DF90730009AD2B252011F
:10469400D2B20B4483F8002300BF02B0704700BFBE
:1046A40000ED00E000E100E082B00190019B03F026
:1046B4006043B3F1005F0CBF01230023DBB2184653
:1046C40002B0704784B00190019B1B0B8DF80F3032
:1046D4009DF90F30184604B0704700B583B0034607
:1046E4000A468DF8073013468DF806309DF80620EB
:1046F4009DF9073011461846FFF7AEFF00BF03B01F
:104704005DF804FB00B583B003468DF807309DF9CE
:1047140007301846FFF788FF9DF907301846FFF762
:1047240055FF00BF03B05DF804FB00B583B003463A
:104734008DF807309DF907301846FFF75DFF00BF7D
:1047440003B05DF804FB84B001900B46ADF8023071
:10475400BDF80230019A134400221A60BDF80230F9
:10476400019A13441B680393039B00BF04B0704772
:1047740082B001900B46ADF80230BDF80230019AC8
:1047840013441B68002B14BF01230023DBB218461B
:1047940002B0704782B001900091019BD3F80022CF
:1047A400009BDB431A40019BC3F8002200BF02B008
:1047B400704782B001900091019B009AC3F80423D2
:1047C40000BF02B0704782B001900091019B009A33
:1047D400C3F8082300BF02B0704784B00190019B66
:1047E400D3F880340393019B039AC3F88024039B7A
:1047F400184604B0704782B00190019B0822C3F8A8
:10480400002500BF02B0704782B00190019B0022D6
:10481400C3F8002500BF02B0704784B00390029132
:104824000192039B029AC3F80C25039B019AC3F8D7
:10483400142500BF04B0704700B583B001904FF059
:10484400FF324FF0FF310198FFF7E7FF00BF03B0DD
:104854005DF804FB82B00190019BD3F80C35184637
:1048640002B0704782B00190019BD3F8143518460A
:1048740002B0704782B00190019BD3F80835184606
:1048840002B0704782B00190019BD3F810351846EE
:1048940002B0704784B0039002910192039B029A84
:1048A400C3F80825039B019AC3F8102500BF04B080
:1048B400704700B583B001904FF0FF324FF0FF31E5
:1048C4000198FFF7E7FF00BF03B05DF804FB82B077
:1048D40001900B468DF803309DF80330019A134480
:1048E40001221A6000BF02B0704782B001900B46EB
:1048F4008DF8033013468DF802309DF803209DF89F
:1049040002301343DBB21A46019BC3F86C2500BF87
:1049140002B0704782B001900091019B009AC3F8E5
:10492400242500BF02B0704784B003900291019225
:10493400029A039BC3F84425039B019AC3F84825B4
:1049440000BF04B0704782B00190019BD3F84C358E
:10495400184602B0704782B00190019BD3F83C35F1
:10496400184602B07047000082B00190019B1B689A
:104974001F2B02D84FF0A04306E0019B1B6803F0F5
:104984001F02019B1A60024B184602B0704700BF19
:104994000003005000B585B00190084611461A4640
:1049A40003468DF803300B468DF8023013468DF81C
:1049B400013001AB1846FFF7D7FF0390019A9DF829
:1049C40003109DF802305B0019439DF801309B00F1
:1049D40019439DF818301B0219439DF81C301B0421
:1049E4001943039B02F5E07243F8221000BF05B09F
:1049F4005DF804FB00B585B0039000230193002308
:104A040000930023012201210398FFF7C3FF00BF95
:104A140005B05DF804FB00B585B003900B468DF836
:104A24000B309DF80B2000230193002300931346C1
:104A3400002200210398FFF7ADFF00BF05B05DF829
:104A440004FB00B585B00390002301930023009379
:104A54000023012200210398FFF79CFF00BF05B04B
:104A64005DF804FB00B585B0019001AB1846FFF773
:104A74007BFF0390019B012202FA03F3194603987A
:104A840000F004F800BF05B05DF804FB82B00190AB
:104A94000091019B009AC3F8082500BF02B070473B
:104AA40000B583B001900091009B1B68B3F1FF3FF8
:104AB40009D0009B1B681846FFF7D4FF009B1B68B6
:104AC4001846FFF797FF009B5B68B3F1FF3F05D0E3
:104AD400009B5B6800211846FFF79DFF019B1A6845
:104AE400009B9B6919461046FFF714FF019B186849
:104AF400009B597D009B1B7D1A46FFF7F6FE019B28
:104B04001868009B1968009B5B681A46FFF785FECE
:104B1400009B1B7D012B22D1009B9B68B3F1FF3FBF
:104B240005D0009B9B6800211846FFF774FF009B8B
:104B3400DB68B3F1FF3F09D0009BDB681846FFF741
:104B440091FF009BDB681846FFF754FF019B186830
:104B5400009BD968009B9B681A46FFF79BFE00BF29
:104B640003B05DF804FB000000B583B001900B4670
:104B74008DF80330019B1B684FF488711846FFF7CA
:104B8400E2FD019B1B684FF490711846FFF7DBFDB3
:104B9400019B1B684FF492711846FFF7D4FD019BEB
:104BA4001B684FF4A2711846FFF7CDFD019B1B68EB
:104BB4000E491846FFF7FDFD019B1B681846FFF7D9
:104BC40081FD03461A469DF8033019461046FFF747
:104BD40084FD019B1B681846FFF774FD03461846C5
:104BE400FFF790FD00BF03B05DF804FB1003020063
:104BF40000B583B00190019B1B6808491846FFF774
:104C0400E2FD019B1B681846FFF75CFD034618464E
:104C1400FFF78BFD00BF03B05DF804FB1003020037
:104C240000B587B00190019B1B681846FFF712FE80
:104C34000590019B1B681846FFF714FE0490019B26
:104C44001B681846FFF716FE0390019B1B68184665
:104C5400FFF718FE0290019B1B681846FFF7ECFD56
:104C6400019B1B681846FFF724FE059BB3F1FF3F29
:104C740002D00598FFF7E5FE049BB3F1FF3F02D095
:104C84000498FFF7DEFE029BB3F1FF3F02D00298C7
:104C9400FFF7D7FE039BB3F1FF3F02D00398FFF762
:104CA400D0FE00BF07B05DF804FB000000B587B07C
:104CB400039002910192039B1B791A461346DB0071
:104CC40013449B00264A1344059300230493059B35
:104CD40093F82030002B03D008230493049B3AE07C
:104CE400039B1A68039B1B7919461E4B53F821300A
:104CF40019461046FEF7A0F90346002B03D01123F2
:104D04000493049B27E002990398FFF7C9FE059BCF
:104D1400019A5A60029B1A69059B1A60059B5B689D
:104D2400002B05D0029B1B7F19460398FFF71CFF3D
:104D3400039B1B681846FFF75EFD059B00229A61E2
:104D4400059B0022DA61059B00225A61059B012222
:104D540083F82020049B184607B05DF804FB00BFCD
:104D6400740700209459000000B585B00190019BA0
:104D74001B791A461346DB0013449B00104A134464
:104D84000393019B1B681846FFF73EFD039B5B687A
:104D9400002B02D00198FFF72BFF0198FFF740FF8B
:104DA400019B1B681846FEF778F9039B002283F8E1
:104DB4002020039B00225A6000BF05B05DF804FB6D
:104DC4007407002000B589B0039002910192039BFF
:104DD4001B791A461346DB0013449B00394A1344DB
:104DE40006930298FFF760FC034683F00103DBB2ED
:104DF400002B03D010230793079B5EE0039800F079
:104E040063F80346002B03D011230793079B54E058
:104E1400069B019A5A61069B029A9A6000230793A3
:104E2400039B1B684FF490711846FFF78CFC039B9F
:104E34001B684FF4AC711846FFF785FC039B186898
:104E4400069B9968069B5B691A46FFF76DFD039BF9
:104E54001B6808211846FFF73AFD069B5B68002B88
:104E64002AD1039B1B684FF490711846FFF780FC0E
:104E740003468DF81730039B1B684FF4AC7118463A
:104E8400FFF776FC03468DF816309DF8173083F053
:104E94000103DBB2002B06D09DF8163083F001032A
:104EA400DBB2002BDDD19DF81630002B01D00F238F
:104EB4000793069B00225A61079B184609B05DF8C8
:104EC40004FB00BF7407002082B00190019B1B7992
:104ED4001946084A0B46DB000B449B001344143369
:104EE4001B68002B14BF01230023DBB2184602B059
:104EF400704700BF7407002000B589B00390029189
:104F0400019201238DF81030029BDBB28DF818302A
:104F1400019B0593039B5B68039A116804AA1046DE
:104F2400984700BF09B05DF804FB00B587B0019055
:104F3400009100238DF80830009BDBB28DF810300F
:104F4400019B9B680393019B00225A61019B5B6850
:104F5400019A116802AA1046984700BF07B05DF88D
:104F640004FB00B589B0019000914FF4927101984F
:104F7400FFF7FEFB0346002B24D04FF492710198F7
:104F8400FFF7E1FB02238DF808300198FFF725FCB9
:104F9400034605930198FFF7DEFC0346DBB28DF868
:104FA4001030009BDB680393009B00229A61009BF6
:104FB4000022DA61009B5B68009A116802AA10461D
:104FC40098473BE04FF488710198FFF7D1FB034603
:104FD400002B33D04FF488710198FFF7B4FB01988C
:104FE400FFF7B9FC0790009B9A69079B9A4225D169
:104FF400009BDB69002B17D0009BDB680693202104
:105004000198FFF7C7FB009BDA69009B9A61009B3C
:105014001A69009BDA60009B0022DA61069A0799FC
:105024000098FFF769FF09E0009B00229A61009B4A
:10503400DB681A4607990098FFF75EFF4FF4A271E8
:105044000198FFF795FB0346002B15D04FF4A2718E
:105054000198FFF778FB009B9B69002B0CD0009B09
:1050640000229A610198FFF776FC0146009BDB68F9
:105074001A460098FFF740FF4FF490710198FFF72C
:1050840077FB0346002B10D04FF490710198FFF783
:105094005AFB009B5B69002B07D00198FFF753FC78
:1050A400034619460098FFF740FF00BF09B05DF8BA
:1050B40004FB000008B503490348FFF752FF00BF93
:1050C40008BD00BF740700200020004000B58FB069
:1050D4000390029100931346ADF8063000230D931C
:1050E400029B0993BDF806300A93009B0B939DF82D
:1050F40040300C93039B043309A900221846FEF7A1
:10510400FDFB0D900D9B18460FB05DF804FB0000ED
:1051140082B001900091034B01221A7000BF02B0CB
:10512400704700BF9807002010B58AB00120FCF733
:1051340011FB4FF400410020FBF7F4FA0990099B9E
:10514400002B02D00998FCF71AFBFBF78DFA264BCB
:1051540004AC0FCB84E80F001D238DF813301C23FF
:105164008DF8123015238DF8113017238DF8103077
:1051740002238DF81C3004A900231C4A1C48FDF7A7
:105184003DFE0890089B002B02D00898FCF7F7FA24
:10519400184B1B881B0443F0030317491846FBF7FD
:1051A400B9FD07231A460021144800F099FA144B5C
:1051B40000221A7008238DF80F3007230DF10F0118
:1051C40000930E4B01220A48FFF780FF00E020BF46
:1051D4000B4B1B78DBB283F00103DBB2002BF6D15F
:1051E400002318460AB010BDC05900001551000034
:1051F4009859000014000020A85900009C070020C2
:1052040098070020BFF34F8F0549054BDB6803F473
:10521400E062044B1343CB60BFF34F8F00BFFDE745
:1052240000ED00E00400FA05024B034A1A6000BFD7
:10523400704700BF740000200090D00308B500F050
:1052440025F90346002B0ED04FF080430022C3F80B
:105254000C214FF080430022C3F810214FF080430B
:105264000022C3F8382500F02FF90346002B76D02E
:105274007D4A4FF08053D3F80434C2F820357A4A7B
:105284004FF08053D3F80834C2F82435764A4FF0EF
:105294008053D3F80C34C2F82835734A4FF0805346
:1052A400D3F81034C2F82C356F4A4FF08053D3F83A
:1052B4001434C2F830356C4A4FF08053D3F81834A4
:1052C400C2F83435684A4FF08053D3F81C34C2F81E
:1052D4004035654A4FF08053D3F82034C2F8443542
:1052E400614A4FF08053D3F82434C2F848355E4AFB
:1052F4004FF08053D3F82834C2F84C355A4A4FF053
:105304008053D3F82C34C2F85035574A4FF08053A9
:10531400D3F83034C2F85435534A4FF08053D3F89D
:105324003434C2F86035504A4FF08053D3F83834DF
:10533400C2F864354C4A4FF08053D3F83C34C2F879
:105344006835494A4FF08053D3F84034C2F86C357D
:10535400454A4FF08053D3F84434C2F8703500F016
:10536400D1F80346002B02D0404B414A1A6000F0AA
:10537400DBF80346002B03D03E4BFB22C3F8182571
:1053840000F0E4F80346002B0AD03B493A4B1B6873
:1053940023F00F02394B1B6803F00F0313430B6018
:1053A40000F0E6F80346002B03D0354B4FF40072AF
:1053B4001A6000F0EFF80346002B0DD04FF0804345
:1053C400D3F8003403F00103002B05D04FF08043E1
:1053D4006FF00102C3F800242A4A2A4BD3F888301C
:1053E40043F47003C2F88830BFF34F8FBFF36F8F5D
:1053F4004FF01023D3F80032002B05DB4FF01023BD
:10540400D3F80432002B2BDA1F4B0122C3F80425F6
:1054140000BF1D4BD3F80034002BFAD04FF01023FB
:105424001222C3F8002200BF174BD3F80034002B1C
:10543400FAD04FF010231222C3F8042200BF124BFB
:10544400D3F80034002BFAD00F4B0022C3F8042504
:1054540000BF0D4BD3F80034002BFAD0FFF7D2FE77
:10546400FFF7E2FE00BF08BD00C000408C560040BC
:105474004881030000F00040E40E00405802001090
:105484004096024000ED00E000E001400C4B1B6838
:10549400082B11D10B4B1B68002B01D101230CE00D
:1054A400084B1B68012B01D1012306E0054B1B6847
:1054B400022B01D1012300E001231846704700BFED
:1054C40030010010340100100C4B1B68082B11D163
:1054D4000B4B1B68002B01D101230CE0084B1B680C
:1054E400012B01D1012306E0054B1B68022B01D1DE
:1054F400012300E001231846704700BF300100106B
:1055040034010010064B1B68082B05D1054B1B68A2
:10551400002B01D1012300E000231846704700BF8F
:105524003001001034010010064B1B68082B05D114
:10553400054B1B68002B01D1012300E00023184612
:10554400704700BF3001001034010010064B1B6887
:10555400082B05D1054B1B68002B01D1012300E06A
:1055640000231846704700BF3001001034010010BA
:10557400064B1B68082B05D1054B1B68002B01D17A
:10558400012300E000231846704700BF30010010DB
:10559400340100100C4B1B68082B11D10B4B1B68FA
:1055A400002B01D101230CE0084B1B68012B01D116
:1055B400012306E0054B1B68022B01D1012300E007
:1055C40001231846704700BF300100103401001059
:1055D4007F2805D8034B185C034B5B5C184070476D
:1055E40000207047D0590000505A0000A0F1610318
:1055F400192B98BF20387047A0F14103192B98BF8D
:10560400203070477F2805D8034B185C034B5B5C44
:105614001840704700207047D0590000505A0000CD
:10562400A0F16103192B98BF20387047A0F1410302
:10563400192B98BF203070477F299ABF0170012031
:105644006FF02E0070475AB10A787F2A0AD800B149
:105654000260002119605960501A18BF0120704778
:10566400002070476FF02E007047000008B5034B10
:105674005B689B681B68984708BD00BF78000020E2
:1056840008B50921FFF7F2FF08BD0000844640EA8F
:10569400010313F0030F18D18446202A0BD32DE9FC
:1056A400F007B1E8F807A0E8F807A2F12002202AE1
:1056B400F7D2BDE8F007042A07D351F8043B40F8B9
:1056C400043BA2F10402042AF7D2002A05D011F8FF
:1056D400013B00F8013B013AF9D16046704700BF35
:1056E4008446002A2DD010F0030F04D000F8011BCB
:1056F400013A26D0F7E7C9B241EA012141EA014162
:10570400202A12D3A2F120022DE9F0030B460C4605
:105714000D460E460F4688468946A0E8FA03203A0D
:10572400FBD2BDE8F00320320BD0042A05D340F8A5
:10573400041B043A05D0042AF9D200F8011B013AEB
:10574400FBD16046704700BF00F1010110F0030F68
:1057540011D010F8012B002A23D010F0030F0AD027
:1057640010F8012B002A1CD010F0030F03D010F8FE
:10577400012B002A15D02DE970004FF001324FF0B3
:10578400803350F8044BA4EB020525EA04051D40C0
:1057940000D1F6E7A0F1040070BC10F8012B002A38
:0857A400FBD1A0EB01007047EE
:1057AC006859000000000000705900000000000063
:1057BC007459000000000000805900000000000037
:1057CC008C59000000000000585800000000030332
:0857DC00445800000000000326
:1057E40098010020D0000020D8000020D80000201C
:0857F40018000020180000005D
:1057FC00000000000000000000000000000000009D
:0C580C0000000000000000000000000090
:10581800FFFFFFFFFFFFFFFFFFFFFFFFFFFFFFFF90
:1058280000000000000000000000D6010701000091
:10583800090600003D0600003106000062616C6C3C
:105848006F632E6C6F675F6D656D706F6F6C0000B6
:10585800617070004261636B656E647320666C757D
:1058680073686564000000006572726F7200000062
:105878007761726E696E6700696E666F000000007E
:1058880064656275670000001B5B306D00000000F6
:105898001B5B313B33306D001B5B313B33316D009B
:1058A8001B5B313B33326D001B5B313B33336D0087
:1058B8001B5B313B33346D001B5B313B33356D0073
:1058C8001B5B313B33366D001B5B313B33376D005F
:1058D80025734C6F67732064726F7070656420283D
:1058E80025642925730D0A00257300003C25733EA5
:1058F8002025733A200000000D0A000020253032D0
:1059080078000000202020007C00000025630000B3
:10591800200000000D0E0F100B0C18194661746161
:105928006C206572726F720053797374656D2072A2
:1059380065736574000000000338FDD870470000E7
:1059480030313233343536373839414243444546AD
:10595800FFFFFFFF0002FF00000000400000000002
:105968004750494F54450000505253005350494D39
:1059780000000000CD3900005541525400000000DD
:10598800B94500005541525445000000B950000087
:10599800020000000030024000000000010000008A
:1059A800535049206578616D706C6520737461721D
:1059B8007465642E00000000FFFFFFFF07FF000072
:1059C800000000400000000020202020202020208F
:1059D8002068282828282020202020202020202057
:1059E80020202020202020204810101010101010F7
:1059F80010101010101010108484848484848484FF
:105A0800848410101010101010818181818181010F
:105A1800010101010101010101010101010101016E
:105A280001010110101010101082828282828202FD
:105A3800020202020202020202020202020202023E
:105A480002020210101010200007032004170201A0
:105A58000857104080000000045C0000C85A00008D
:105A6800DC5B000053756E004D6F6E005475650069
:105A78005765640054687500467269005361740084
:105A8800000000004A616E00466562004D617200C8
:105A9800417072004D6179004A756E004A756C005C
:105AA80041756700536570004F6374004E6F760050
:105AB8004465630000000000414D00504D000000A7
:105AC800005C0000FC5B0000FC5B0000FC5B00006D
