:020000022000DC
:106000000000042061620200B9620200BB6202006B
:10601000BD620200BF620200C16202000000000017
:10602000000000000000000000000000C362020049
:10603000C562020000000000C7620200C9620200DF
:1060400049980200CF620200FD9C0200D362020068
:10605000D5620200D7620200559B0200DB6202009B
:10606000DD620200DF620200E1620200E362020020
:10607000E5620200E7620200E9620200EB620200F0
:10608000ED6202006D700200F1620200F362020034
:1060900009710200F762020001E80200FB620200DF
:1060A000FD620200FF62020001630200036302005E
:1060B0000563020007630200CB620200CB620200AC
:1060C000096302000B6302000D6302000F6302000C
:1060D00011630200136302001563020017630200DC
:1060E000196302001B6302001D630200CB62020001
:1060F000CB62020021630200CB6202001F63020038
:10610000364937480A1A02D0072291438D4635494D
:1061100035480A1A06D00722914381F309880222E2
:1061200082F3148831483249324A00F045F8324847
:106130003249334A00F040F832483349334A00F0DC
:106140003BF833483349344A00F036F83348344991
:10615000344A00F031F834483449354A00F02CF81C
:1061600034483549354A00F027F83548354900228A
:1061700000F02DF834483549002200F028F8344862
:106180003449091A082903DB002202600430016047
:10619000314A90471F482049884205D002680430A0
:1061A00003B4904703BCF7E700208646EC46002086
:1061B00000212A4A9047FEE7884207D0521A05D0AC
:1061C000037801300B700131013AF9D170478842F0
:1061D00002D002700130FAE770470000000004208E
:1061E00000E0032000000420000004201CFF020047
:1061F00064220020D82200202463020024630200CD
:10620000C4ED02001CFF0200642200206422002072
:1062100030EF020030EF020030EF020030EF0200FA
:1062200030EF020030EF020030EF020030EF0200EA
:106230001CFF020090FF0200D8220020D82200207C
:10624000D822002000310020003100200031002041
:10625000003100200051002085620200FDAD0200E7
:106260000F484FF00701884385460E4880470E4887
:10627000016841F470010160BFF34F8FBFF36F8F6E
:10628000FFF73EBF09480A490A4A884207D0521A16
:1062900005D0037801300B700131013AF9D1704714
:1062A000000004207992020088ED00E0DCEE02009C
:1062B0001022002064220020FEE7FEE7FEE7FEE752
:1062C000FEE7FEE7FEE7FEE7FEE7FEE7FEE7FEE7A6
:1062D000FEE7FEE7FEE7FEE7FEE7FEE7FEE7FEE796
:1062E000FEE7FEE7FEE7FEE7FEE7FEE7FEE7FEE786
:1062F000FEE7FEE7FEE7FEE7FEE7FEE7FEE7FEE776
:10630000FEE7FEE7FEE7FEE7FEE7FEE7FEE7FEE765
:10631000FEE7FEE7FEE7FEE7FEE7FEE7FEE7FEE755
:04632000FEE700BFD5
:10632400F0B595B01C4608460D46164602F0ADFE83
:106334001A9B099400240D930822234605A9284694
:1063440008960A948DF82C400C9402F0DCFE079B0E
:106354000293BDF81830ADF80C30BDF81A30ADF822
:106364000E309DF814308DF8114003F00302012A19
:106374001DD1BDF81440059EC3F3C203C4F38314B6
:106384008DF81030A20008230EA9284602F0BBFEA7
:10639400C6F3952608AB0093224602AB0EA93046FD
:1063A40000F0F2FB284602F074FE15B0F0BD022A9C
:1063B400F8D1BDF81640C3F3C203C4F389148DF8B1
:1063C40010300827082C264628BF08263B463246AC
:1063D4000EA9284602F097FEA41B08AB02AA314678
:1063E4000EA8374400F034FC002CEBD1DAE70000AF
:1063F400014B01221A7070471923002070470000D6
:1064040070B50E4D06460FCD88B06C460FC495E8A6
:106414000F0084E80F0008A9002E4FF00603084A75
:1064240041F8203D08BF0022064803F095F908B161
:1064340000F06EFD044B1E7008B070BD30EF02001A
:10644400F563020064220020D822002007B5044B23
:106454000093044A4023FFF763FF03B05DF804FB95
:106464006D640200D922002038B50D4B0D4D00207B
:1064740018700D4804782D5DD2B21C4665B1043005
:1064840004F0B2F808B100F043FD084B1A7812B1D9
:106494002378002BFBD038BD0C3003F07FFEF1E7EE
:1064A40019230020682B002064220020D822002019
:1064B40008B50848084A0378D35C3BB1043004F0BB
:1064C4003DF80020BDE80840FFF79ABF0C3003F008
:1064D4000FFEF6E764220020682B00200120FFF75E
:1064E4008FBF000010B5054CFFF7F8FF04212046CC
:1064F40000F0BAFA0123637210BD00BF78220020B5
:10650400037813F0030F10B503F0040402D004F071
:10651400FF02F4B1B4B103F00303012B03D0022B47
:1065240009D0012010BD0A6800880232C0F383102C
:1065340002440A60F5E70B684288023303EB9213C6
:106544000B60EEE70B684288013303EB9213028879
:10655400F4E7104610BD00002DE9F04F89B006465F
:10656400851C08A8494C019200230F4600F8113DF0
:1065740000F0B4FF23683B606268A3681344226898
:1065840001339B1A04F21C4704F5836A04F214488D
:10659400AB421AD3019A0023002A6FD0012262F37E
:1065A400010343F0040366F389132168A2689DF88C
:1065B4000F000A4003320D4444F82230256000F0F5
:1065C400B1FF012009B0BDE8F08F0121384602F087
:1065D40019F8504602F033F8404602F030F80DF155
:1065E40020096068D4F808B049F8100D00EA0B00DF
:1065F400033004EB80004946FFF782FF049BB8B9DF
:106604000BEA030204EB8202D16805919A1C013360
:1066140003EA0B0B04EB8B0E0492DEF80C300693AA
:1066240001F00303012B21D0022B04D083460CE09C
:106634000BEA0300DCE7BDF81630BDF81AB0C3F36B
:106644008913033302EB93030493404601F0FAFFEA
:1066540008B1049B63605946384601F0D3FF626871
:10666400A3681344226801339B1A91E7BDF81430E0
:10667400BDF81AB0C3F383131344E5E7022262F3AF
:10668400010343F0040366F39F538EE7EC230020D9
:1066940008B50E4B0E48FF229A600022C3F8182456
:1066A4001A605A60C3F8142483F8202402F0A4FC6E
:1066B40038B9084A084B09499B1ADB0802469A4232
:1066C40000D108BD21F822200132F8E7EC23002094
:1066D4009CEE02001CEE02009CEE02001022002040
:1066E40030B50B4C79B10B4A0B49121BD20800236D
:1066F4009A4201D1002030BD01EB83056D888542AB
:1067040002D00133F4E7034654F8330030BD00BF30
:106714001CEE02009CEE020010220020094B0139FD
:1067240003EBC000032909D8DFE801F00A020406DC
:106734000420704700797047407970470020704703
:10674400022070471CEE0200034B58681B68C31AF2
:1067540058425841704700BFEC2300202DE9F04314
:1067640087B0FFF7F1FF0746002840F0E6807B4D35
:10677400C5F81804BFF34F8F6868AC680DF11808AA
:1067840048F8100D2040033005EB80004146FFF728
:10679400B7FE029B064600285AD104EA0302991C5C
:1067A400013305EB8202234005EB8303D268DB68E7
:1067B400049302F00303022B039202915AD1BDF811
:1067C4000E306748C3F389194F46502FA8BF50278E
:1067D40067F38F1307F10801ADF80E3002F024FCC3
:1067E4008046002800F0B08002F04FFC082203A984
:1067F4003346404602F05CFC029924EA010201326D
:10680400920097422FD9002A00F099802140D6B2F5
:106814000331BF1B534C05EB8101FFB20823324601
:10682400404602F045FC34B106F108033A462146DD
:10683400404602F03DFC029B09F1030903EB990376
:106844000293D5F81834002B47D1D5F8104450E002
:106854002A689A4204D86A60384607B0BDE8F083D3
:1068640004EA03008FE70C40E11C08233A4605EBD9
:106874008101DDE7012B67D1BDF80C303848C3F343
:106884008311062928BF062161F389130231890087
:10689400ADF80C3002F0C8FB8046002854D002F05A
:1068A400F4FB3346082203A9404602F001FCBDF87C
:1068B4000C20C2F38312B31C96424FEA8303C0D266
:1068C40002994A1C21400331029205EB8101042202
:1068D400404602F0EDFB0136E9E7404602F0D9FB01
:1068E400FFF732FF80F00100C7B2B5E7637A73BBEC
:1068F4006468002CFAD1404602F0CBFB06A800F8ED
:10690400114D00F0EBFDD5F818340BB9029B6B6008
:106914009DF8070000F006FEE2E7236820469B6826
:1069240098476468002CF8D10F4B1049188800046C
:1069340040F0020000F074F8D2E700278CE7FEB2C2
:1069440014460849174669E7D5F81044EAE723686E
:1069540041461B6820469847CAE700BFEC23002045
:106964009CEE0200F8230020242200205CEF0200A9
:106974002DE9F74F284C80460F46924601A9012283
:1069840018469B46A568FFF7E7FD88B3DDF8049039
:10699400002609F102025E4534D100211F4801F0AE
:1069A400E4FD80F3100009F101022A4004EB8202A5
:1069B400000405EA0903033340EA1840D06014F8E0
:1069C400232068F3C50204F8232034F8232066F357
:1069D400891224F8232054F82320012167F39F22ED
:1069E40044F8232061F301026FF3820204F82320A8
:1069F40094F820341BB1FFF7B1FE0028FBD103B09B
:106A0400BDE8F08F02EA050104EB81015AF8263053
:106A1400CB6001360132BEE7EC23002008280020B9
:106A240000231A46FFF7A4BF13B502AC012344F8B0
:106A3400042D2246FFF79CFF02B010BD07B58DE878
:106A44000C0002236A46FFF793FF03B05DF804FBD2
:106A54001FB50293069B0192039301AA0323FFF738
:106A640087FF05B05DF804FB0F4A30B5D2F8104437
:106A74000023214641B90372D2F810444CB9C2F83C
:106A840010044160184630BD0D7A9D4205D0496816
:106A9400F0E7626842606060F4E701330A2BE8D1F2
:106AA4004FF0FF33EEE700BFEC230020084A38B56F
:106AB4000123D2F8104482F820341D4604B938BDAD
:106AC4002368657220465B6898476468F6E700BFF0
:106AD400EC230020C38873B504460D4633B1144A31
:106AE40000921449144A284601F00DFE217A052922
:106AF4001CD0637A4BB1A088FFF710FE0F4B1049EE
:106B040053F82020284601F0FEFD227A0D4BA08880
:106B140053F822600021FFF7E3FD0B490346324698
:106B2400284602B0BDE8704001F0EDBD02B070BD72
:106B3400D7EF0200BFEF0200B7EF020084EF0200BC
:106B4400DCEF0200ECEF0200DFEF0200037A052B1A
:106B540010B50C460FD0437A23B1084A08492046A1
:106B640001F0D1FD0749204601F0CDFD2046BDE8E6
:106B7400104001F0BDBD002AF8D0F3E7D7EF0200C2
:106B8400DCEF0200D4EF02002DE9F04385B01F468C
:106B94000C9D002306460C46904695F80C902B73EA
:106BA40029463846FFF796FFB8F1060F09D8DFE803
:106BB40008F00412181F283340003146284601F01B
:106BC400A2FD002229463846FFF7C0FF85F80C9045
:106BD40005B0BDE8F08322683146284601F093FDF4
:106BE400EFE794E80C003146284601F08CFDE8E715
:106BF400A3680093314694E80C00284601F083FD15
:106C0400DFE7E3680193A3680093314694E80C003E
:106C1400284601F078FDD4E723690293E3680193E1
:106C2400A3680093314694E80C00284601F06BFDFC
:106C3400C7E76369039323690293E3680193A36835
:106C44000093314694E80C00284601F05CFDB8E757
:106C540008292DE9F84F80460E4617461C4636D8BB
:106C6400002593F80C901D7319461046FFF732FF68
:106C7400DFF87CA0DFF87CB0AE422AD918F80520F2
:106C84005946204601F03FFD0135082DF4D116493F
:106C9400DFF864B0204601F036FD0025AE421DD970
:106CA40018F805A0504607F0C3FF002814BF524649
:106CB4002E225946204601F026FD0135082DEDD13E
:106CC400012221463846FFF741FF84F80C90BDE8C5
:106CD400F88F5146204601F016FDD5E703492046BA
:106CE40001F011FDE9E700BFB2EF0200B0EF0200CE
:106CF400AEEF0200A8EF0200B4EF02002DE9F84F56
:106D0400DFF8A4B00025254B1B78ECB2A34201D8D0
:106D1400BDE8F88F224BD3F8008018F83490012096
:106D24004A46002107F0B0FEDBE9002300EA020630
:106D340001EA03073E4308EBC40A2CD023EA01010D
:106D440022EA0000CBE90001484602F0F1FE18F8FF
:106D54003440814622460120002107F095FE114B64
:106D6400D3E90067224606400F404846002107F059
:106D74008BFE8F4208BF86420DD1DAF8043053B13E
:106D84009AF801104A1E51425141A1EB09004142B7
:106D94004141204698470135B5E700BF102800203F
:106DA4004828002038280020402800202DE9F843F6
:106DB40007461F4800F082FB002837D13A460120DD
:106DC400002107F061FE1B4B04460D46D3E9000188
:106DD40004EA000805EA010958EA09021E461FD11F
:106DE400384602F0A5FE144B98B1D3E900012043C4
:106DF4002943C3E90001D6E900231D430F4B0C4886
:106E040019681443C6E900450022BDE8F84300F0C0
:106E14000FBBD3E9000120EA040021EA0501E8E7F9
:106E240020EA040421EA0505C3E90045BDE8F88326
:106E3400182800204028002038280020142800208A
:106E4400042AF7B505460C46164638D902F09EFDCD
:106E5400C8B11C4B1C491D601C4B1D4F1C701D4BA5
:106E640000221E600023C1E900231B49C1E900235D
:106E7400013CE4B20026FF2C0BD1184A184800212B
:106E840000F0C4FA03E002F049FD0028E1D003B0A9
:106E9400F0BD23B205EBC302032192788DF80410F0
:106EA4008DF8052001A93A4615F833008DF80660DF
:106EB40002F076FD013CE4B20028DCD0E7E70720CD
:106EC400E5E700BF482800203828002010280020CB
:106ED400B16D02001428002040280020016D02003A
:106EE4004CF0020070B5084D084E00242B789C42EB
:106EF40001D3002070BD3368012113F8340002F07F
:106F0400CDFD0134F2E700BF1028002048280020FE
:106F14001FB50021039001AA44F2010001910291DE
:106F240000F004F805B05DF804FB000010B572B67B
:106F3400FFF7BCFDFFF712FC0028FBD1104C1149F0
:106F44002088000440F00100FFF76AFD0E4B1B6827
:106F5400DB0700D500BE20880C49000440F0020085
:106F6400FFF75EFDBFF34F8F09490A4BCA6802F46D
:106F7400E0621343CB60BFF34F8F00BFFDE700BF58
:106F84002422002050F00200F0ED00E05CF002004A
:106F940000ED00E00400FA05094A537891780133C2
:106FA400DBB2994208BF0023117899421FBF0370D6
:106FB4005078182303FB002014BF043000207047CE
:106FC4004C28002073B5054602A8002400F8014DA2
:106FD4000E4600F083FA0DF10600FFF7DDFF90B1D5
:106FE40006700A4B9DF8062045605A709DF807000C
:106FF40000F098FA24B9064B4FF48012C3F800212C
:10700400204602B070BD0424F0E700BF4C280020E5
:1070140000E100E0024B4FF43C6043F001031847E9
:1070240070F0020038B50C4B0C4C4FF40032C3F82E
:10703400802001254FF48033C4F84833C4F8083362
:107044006560FFF7E7FF064BA56000241C60FFF7AF
:10705400E1FF044B1C7038BD00E100E0001001406A
:107064006829002059290020F8B51F4B1F491B68C7
:107074000025C1F84051C1F84451C1F84851C1F844
:107084004C51C1F80051C1F804514BB3D1F8044537
:1070940017490968641A24F07F442F461A68A242EB
:1070A40009D8A41A15441A7CDE691AB11F745A69E6
:1070B40098699047AEB90F4B0F4A197813788B42F1
:1070C40005D10133DBB2022B08BF00231370127801
:1070D4000A4B43F822500A4B4FF48012C3F80021A4
:1070E400F8BD3346DAE700BF6C29002000100140E8
:1070F4006829002064290020652900205C290020DB
:1071040000E100E02DE9F74F9C4A9D491378097886
:107114009C4E994257D00133DBB2022B08BF0023A7
:10712400137099491278994B0F6853F822003B1851
:1071340023F07F4300220B603368154614469646BD
:1071440013B942B1336006E01968814229D902B10A
:107154003360091A19604FF0010833688C4FDFF867
:107164003CB200934FF00009002D61D02C46ED692C
:10717400854B60681A68831A23F07F41854B9942D6
:10718400A36800F2B7800B44236000236360A3600C
:10719400E361336801222274002B40F0B380346031
:1071A400E2E7401A0C44D968C3F800E0D3F81CC0E5
:1071B40031B13A1922F07F42DD615A6099601D466F
:1071C40063460122BCE70025A846C6E7531CB978EC
:1071D400DBB299423B704FF0180303FB027208BF05
:1071E4003D7013799468022B1BD0032B11D0012B13
:1071F4001ED1217CE1B9D36863601369A36053692C
:10720400E3609369A361644B1B78002BB0D0616089
:10721400AEE7002335681A46002D67D143B13560C7
:1072240006E0326813469246002B5AD10023237499
:107234003A787B789342C9D1B9F1000F06D133680B
:10724400009A9A4202D1B8F1000F44D03368002B5F
:1072540073D0D3F800A0514D4B4BD5F804751C687E
:10726400DFF840813E1B98F8003026F07F46033655
:107274009BB94FF48033C5F84433C5F80433484B05
:107284004FF400324FF00109C3F880211A60C5F8A9
:107294000090FFF7BFFE88F80090B2452CBF54441D
:1072A400A41924F07F44C5F84045D5F80435DB1B08
:1072B40023F07F43E41B033324F07F44A3420AD921
:1072C400D5F80435C5F84035FFF7A4FE344B4FF428
:1072D4000032C3F80021304B00221A7003B0BDE81D
:1072E400F08F9C422CD09A46DB699DE72A740123D7
:1072F400ED6991E7121A22F07F429A4234BF9B1A39
:10730400002341E7226819688A420BD88A1A1A6056
:10731400E36144E7521AD969184661B92260E16110
:10732400DC6121E7184619689142F3D3891A196080
:1073340019460346F2E70B46F5E7FFF773FECAE783
:1073440054450DD1D369336053B90F4801920121DB
:10735400CBF808100360104B1970FFF75BFE019A1D
:10736400E1692368CAF81C1011B1086803440B6072
:1073740033689A4218BF4FF0010957E76429002087
:10738400652900206C290020682900205C29002040
:107394004C280020FEFF7F005829002000100140E7
:1073A40000E100E05929002008B5FFF73BFE114B2E
:1073B40000200B2218709A7058700F4B18600F4BF6
:1073C40018700F4B18700F4B4FF48012E021C3F864
:1073D400802183F814131A6002F18042A2F56F220F
:1073E400C2F8080583F81113074BD2F804251A6074
:1073F40008BD00BF4C2800206C290020642900200F
:107404006529002000E100E068290020074B9B78F3
:107414004BB132B128B10368187C20B959745A6150
:107424007047072070470820704700BF4C28002091
:107434002DE9F7431E4FBB7805460E469046ABB385
:10744400A0B3042930D9436983B3437C02A8002440
:10745400012B00F8014D0CBF8946A14600F03EF80F
:107464000DF10600FFF798FDE0B101230370114B05
:107474004560D3F8043583609DF80630C660C0F8D3
:107484001090C0F814807B709DF8070000F04AF853
:1074940024B9094B4FF48012C3F80021204603B0ED
:1074A400BDE8F0830424EFE70724F7E70824F5E7B1
:1074B4004C2800200010014000E100E0064A9278C8
:1074C4003AB130B1426922B1002202740221FFF7BD
:1074D40079BD0820704700BF4C28002070B5EFF339
:1074E400108672B60C4A946801239CB993600B4BC6
:1074F4000B4DD3F8801029401160C3F88050D3F8A5
:10750400841051604FF0FF32C3F88420047006B930
:1075140062B670BD0370FAE77029002000E100E054
:10752400FC06FFBD084B9A6810B55AB150B9EFF389
:10753400108272B605491C680C605C684C609860E7
:1075440002B962B610BD00BF7029002000E100E05E
:1075540070B5064E0546002456F824300BB1284673
:1075640098470134042CF7D170BD00BF882900204E
:10757400033080B240F2FD33984230B51FD8124B2D
:107584001A783AB95C891D892C440444A4B2B4F530
:10759400806F0AD31A7DA2B99A8BDC8B22440244F1
:1075A40092B2B2F5806F0CD201220A8014461422E2
:1075B40002FB04335A8910445881002030BD09204D
:1075C40030BD072030BD00BFBC2900200B4A0C4B46
:1075D4005188142000FB0131CB6833B90420496879
:1075E40010700122074801F0FBBA05230649137005
:1075F40002238B80012200230968F3E7A0290020DD
:10760400BC29002050220020742A002007B5002342
:1076140005490093054A09680548082301F058FA0A
:1076240003B05DF804FB00BF742A002084F002005C
:107634005022002007B50023009301460823034A83
:10764400034801F045FA03B05DF804FB7CF0020046
:107654005022002013B500230C4600930146042356
:10766400074A084801F034FA38B9074B142202FBE0
:1076740004340123237402B010BD0E20FBE700BFC5
:1076840078F0020050220020BC29002037B50A48B7
:107694000A4B42689C881968538803250333057094
:1076A4009BB2002000909B0001EB8401044801F090
:1076B4000FFA03B030BD00BFA0290020742A0020B7
:1076C4005022002010B50146044800F082FE1C221E
:1076D4000446002107F010FB204610BD8422002040
:1076E4004388033300EB8303994209D382884FF61E
:1076F400FF739A4206D00088B0FA80F040097047C0
:1077040002207047012070472DE9F8430223DFF877
:1077140064800B800D46174600F5805600F108047E
:107724004FF00109B44222D2236801331FD03146FD
:107734002046FFF7D5FF48B10FB187F80090022823
:107744000BD14FF480632B80BDE8F883A368D8F88D
:107754000020934201D9C8F800302B886288033393
:1077640013442B806388033304EB8304DAE7BDE816
:10777400F88300BFB4290020144A142303FB00201B
:1077840070B50B6844680D4604F5805653B15C88A7
:10779400033403EB8404A64202D9236801330BD1DA
:1077A400002070BD0834F6E72C60012070BD6388AA
:1077B400033304EB8304EEE731462046FFF790FFE2
:1077C4000128F4D0F0D30228EAD0E4E7BC29002051
:1077D400436873B505460C466BB3254AD1688B42A2
:1077E40029D31269934226D813F0030223D12149E5
:1077F4000089098988421ED12868996888421AD16B
:107804001D494868834203D900F5805083420ED352
:107814008A6993420DD902F58052934209D2012319
:1078240023800020B0FA80F0400902B070BD1346F6
:10783400F6E70A20F6E7002323801E462388012B5F
:1078440001D90020F1E7019601A92088FFF794FFF0
:1078540018B9238801332380F0E7019B2A689968CB
:107864009142F1D16B60034B1B892B81DDE700BF93
:1078740050220020A0290020BC2900202DE9F84333
:107884001C461E4B1B7806460F4615467BB38AB32F
:1078940084B3DFF870804FF01409A388012B02D958
:1078A4000A20BDE8F88309FB03F318F803302BB969
:1078B4002146A088FFF760FF20B92060A388013328
:1078C400A380EAE723681EB1998832889142EFD1F8
:1078D40047B99A6885E80C00094B1B892B81002065
:1078E400BDE8F88319883A889142E1D1F1E7022092
:1078F400BDE8F8830520BDE8F88300BF982900207F
:10790400A0290020BC29002008B5074B191D588860
:10791400FFF732FF18B1BDE80840FFF7B7BEBDE876
:107924000840FFF753BE00BFA02900202DE9F04F07
:10793400A04FDFF8A49289B00646B8463B6823B945
:1079440049469D4800F07FFD3860D8F800502A78F9
:10795400531E052B00F2EC81DFE813F006007000E3
:107964007000020102015B0126B1944B00225A60AF
:10797400012425E02B79032B1ED8DFE803F016023F
:107984003C478F490B78022B084632D00B7D022BE3
:107994004FF0010340F0108214225343C218002018
:1079A400C8545068FFF746FE03E001232B71FFF72C
:1079B4002DFE002800F0CE80804B00225A600E2459
:1079C4001422002103A807F097F941F61D539C42A5
:1079D40008BF0024D8F8003004941A78023A042A24
:1079E40000F2C581DFE812F0A601B201D501DD0184
:1079F400E4010023D0E773497348002302222B716A
:107A04008A800122096801F0EBF8D2E76D4C002668
:107A14002E7120686A4DFFF70DFE6C4BD4F800E020
:107A24005A8814235343EA18EE5451682160A188FC
:107A3400C2F804E011810222A280BAE7B5F814A0CA
:107A4400DFF87CB1B6B1AA7DEB88022A06D91421ED
:107A540001FB0AB1DA1C088902440A81142202FBE0
:107A64000ABAC3F57F43BAF80A20FD331344AAF8CF
:107A74000A307DE7142303FB0AB319895C68AB7DE4
:107A840004EB8104062B05D8DFE803F0274D3543CA
:107A94001C5967000F24AA7DEB88022A06D91421F9
:107AA40001FB0AB1DA1C088902440A81142202FB90
:107AB4000ABAC3F57F43BAF80A20FD331344AAF87F
:107AC4000A307DE74248434900234360AB690360C1
:107AD400FFF77EFE002800F029810223AB75002306
:107AE40000930423EA182146374800F0F1FF0028E8
:107AF40030D00E24CFE72B69002B14BF03230123BE
:107B0400AB750023009305F10C02042304F1080172
:107B1400EAE70123AB750022EB8800929B002A69F7
:107B240004F10C01E0E7032A0CBF05230623AB751F
:107B340000230093042305F10802E118D4E7062387
:107B4400AB75244B1988224B5868FFF783FD044614
:107B54000028A0D109B0BDE8F08F41F61D549AE782
:107B6400002E7FF405AF2B79012B37D005D3022BE0
:107B740041F61D5418BF0F2422E702232B710396EC
:107B840004960596EB6803930DF10A0103A8FFF729
:107B94001FFE002800F0CA800498BDF80A108388EC
:107BA400EB8003882B81FFF755FD0446002C7FF4FE
:107BB40007AFCFE7B82900208422002098290020AD
:107BC400BC290020742A002050220020A029002073
:107BD4007C290020802A0020B0290020DFF8FCA1A5
:107BE40003AA53463146A81DFFF748FE044650B980
:107BF400BAF804100498FFF72DFD04460A2CD5D1D9
:107C040041F61D54DCE608223146504607F074F86C
:107C1400F4E7002E7FF4ACAE6A4B1A7B5AB11E73A4
:107C24001A78013A062A00F28380DFE802F04A5FFC
:107C3400676A816D78001A78072AF1D801A151F892
:107C440022F000BF697C0200257C0200257C020032
:107C54008F7C0200A37C0200C37C0200C37C020070
:107C64008B7C02001A89584901321A8100225A80F9
:107C74001A730A78B2FA82F252099A720A7DB2FA37
:107C840082F25209DA72012207E0504958688A8860
:107C94004088033202448A8002221A70C0E74A4CA8
:107CA4005A884A49142505FB024208685468506002
:107CB4008888108102228A800C600622EDE7072260
:107CC400EBE79A7A32B1404900229A72CA680AB93B
:107CD400097C51B9DA7A62B10022DA723A4A116A3D
:107CE40039B992F8242022B101225A80FFF70CFE00
:107CF4005BE700221A705A805A6081E7FFF7C6FCDE
:107D040053E7FFF763FC50E706221A702E4A5B889C
:107D1400142101FB03235868FFF78CFC45E7072275
:107D24001A7000225A60FFF771FC3EE70A2447E606
:107D34000F2445E601228DF80C201A89ADF818208D
:107D44009A88ADF81A20DB68059310E002228DF8BA
:107D54000C201A89ADF818209A88ADF81A20DA6830
:107D640005929B7D9A1F534253418DF81C3003A802
:107D7400FFF7EEFB002649461548C8F8006000F0FE
:107D84008DFB0121134800F04AFC00287FF4D6AD96
:107D9400E0E603228DF80C20DA88ADF818201A8961
:107DA400CFE704228DF80C20DB88ADF81830DEE72D
:107DB40005238DF80C30DAE7074A1370002353606B
:107DC4001EE700BFA0290020BC290020742A00203F
:107DD40084220020702A002098290020842A002070
:107DE4004068FFF7A3BD000008B50121044800F076
:107DF400FCFB18B9BDE80840FFF798BD08BD00BFFB
:107E0400702A00202DE9F3419846344B1B7806462E
:107E14000D46002B59D0002959D009884FF6FF731D
:107E2400994256D06B88002B53D06B689B0752D174
:107E34004AB92F890DF102013846FFF799FB30B199
:107E440002B0BDE8F08113885788ADF8023001A86C
:107E5400FFF738FC044658B9BDF80230204A142113
:107E640001FB032358890338C01B58810820E7E726
:107E740000238375BDF8023083826B68036180F848
:107E840000800121174800F0BDFBE0602B882381AE
:107E94006B88A380B8F1030F04BF0423A375E780A4
:107EA40004BF3368A3610025658101A90E4800F071
:107EB400BAFA36B17560E36833600C4BB5721B894E
:107EC4003381FFF791FF0020BAE70220B8E70520CD
:107ED400B6E70420B4E70320B2E700BF98290020E6
:107EE400BC290020B429002084220020A0290020DD
:107EF40008B5084B1A68042A09D01968064A42F8DA
:107F040021000121184600F07DFB002008BD0C2053
:107F140008BD00BF7C2A0020882900202DE9F04FED
:107F240089B01422002103A806F0E6FE7A4A1378E9
:107F340003F0FF01009191463BB103A8FFF708FB52
:107F44000026304609B0BDE8F08F101D00F074FB28
:107F540005460028F4D14FF010234FF080525B699E
:107F640011695269DFF8DCA1581C08BF02FB01F358
:107F7400CAF810300022A3F540536849CAF80C30FF
:107F8400504600F077FD06460028DAD11C238C22E7
:107F94006349644800F0E8F93746B0464FF0030BF4
:107FA4003446CDF804A0019BDA6818EB02000CD02B
:107FB40058F802205C4B9A4207D142685B4B9A42C4
:107FC40000F083805A498A425ED0021F00F6FC7199
:107FD40052F8043F013340F091809142F8D1554A60
:107FE400116829B9022101231060918000930EE0E9
:107FF40014226243504B4FF0020C991803F802C04C
:108004004E4A486054800134A1F808C0A4B247F035
:10801400010708F58058B8F5405FC4D1BBF1010FE2
:1080240088BF3D46EDB2022D02D0062D02D05DB9C7
:108034000B2686E7012389F8003003A80023C9F83A
:108044000430FFF785FA7CE702A8FFF73BFBC8B1D1
:108054000123013D03700A2D09D8DFE805F0060865
:108064000608070807080F110F000023037102A96F
:108074002C4800F0D8F9FFF7B7FE62E70323F5E7D1
:108084000223F3E708265CE7009BDFF8A8A073B19E
:10809400294B1422624399184FF0020E03F802E0B0
:1080A4000134DAF800204A60A1F808E0A4B2002202
:1080B4002349CAF80000FFF727FBBAF80420022A74
:1080C40014BF082204221743A3E71B494FF0140EE0
:1080D4000EFB04FE01EB0E024FF0000C01F80EC083
:1080E40050600EF110020EF1080E0A447144FFF7BD
:1080F4000BFB47F002070134A4B28AE70E491422AD
:10810400624301EB020E0BF1FF33CEF804000320AF
:108114001FFA83FB8854EEE79829002088F20200B6
:10812400E429002084220020DEC0ADDEFE011EF121
:10813400FF011EF1742A0020BC290020A029002080
:10814400782A00205022002073B50D460446C8B199
:10815400C1B10DF10601FFF73BFBA8B10B4BBDF814
:1081640006006668142202FB003001210C3000F086
:1081740049FA63682E600C336B600123A3720020FC
:1081840002B070BD0520FBE70A20F9E7BC290020F6
:1081940013B50446A8B10DF10601FFF719FB90B120
:1081A4000B4ABDF80630142101FB0323DA6862B1DF
:1081B400A27A52B1DA680020013ADA60A07202B001
:1081C40010BD0520FBE70A20F9E70620F7E700BF0A
:1081D400BC2900200B4B1B7837B504460D4663B110
:1081E40068B10DF106012846FFF7C2F918B9BDF8C8
:1081F40006302380658003B030BD0220FBE70520F4
:10820400F9E700BF98290020104B1B7810B5B3B1D3
:10821400B8B10288022A16D80D494388142404FBF5
:1082240002129C1C51898C420DDAC3F57F43FD3345
:108234000B445381002303804380184610BD022061
:1082440010BD052010BD042010BD00BF98290020DA
:10825400BC29002002230022FFF7D4BD12B102235F
:10826400FFF7D0BD0520704718B103230022FFF7A4
:10827400C9BD052070470000104B1B7813B5044698
:10828400ABB14FF6FF73984213D001A8FFF71AFA67
:1082940088B10523037001230371C48001A9084830
:1082A40000F0C1F8FFF7A0FD002002B010BD0220CD
:1082B400FBE70420F9E70820F7E700BF982900202E
:1082C400842200200E4B1B7807B5A3B101A8FFF749
:1082D400F9F990B10623037001A90A4800F0A3F844
:1082E400094B1A780AB101221A73FFF77DFD0020A9
:1082F40003B05DF804FB0220FAE70820F8E700BFAA
:108304009829002084220020A029002007B5ADF878
:10831400060002A820F8041D01460DF10600FFF72F
:10832400ADFA03B05DF804FB13B502AC134624F8B0
:10833400020D0A4600202146FFF7A0FA02B010BD44
:1083440013B502AC134624F8020D0A462046002158
:10835400FFF794FA02B010BD20B119B103680B60A5
:10836400002070470520704710B561B1B2FBF3F4EB
:1083740003FB1424A4B244B980E81200846082810F
:10838400C381204610BD0E2010BD092010BD82B04F
:1083940050E8022FC188B2EB324F4FF0000317BFF1
:1083A40092B241EA014142EA014104E04268B2EB7F
:1083B400324F08BF012340E80212002AE8D18DF8A9
:1083C40007309DF80730002B0CBF1120002002B0AD
:1083D400704737B550E8013F9DB2C489254484896C
:1083E400A54228BF2D1B0489A54202BFBFF32F8FCE
:1083F400002207E0C5EA030540E80154002CE9D156
:108404004FF001028DF803200193019B9DF8032096
:108414000B6002F0FF0322B10B880068184403B01C
:1084240030BD1846FBE70A884B889A4209D150E8C8
:10843400012FC2EA024240E80123002BF7D10120B8
:1084440070470020704737B550E8023F1FFAA3F584
:10845400C488A54202BFBFF32F8F00220DE0C48958
:1084640025448489A54228BF2D1BC3EA054540E85D
:108474000254002CE8D14FF001028DF8032001933F
:10848400019B9DF803200B6002F0FF0322B14B888F
:108494000068184403B030BD1846FBE70A884B88CF
:1084A4009A4209D150E8022FC2EA224240E802234C
:1084B400002BF7D1012070470020704701F01F0204
:1084C4004B090121914000EB830000F067B84B0990
:1084D40010B501F01F040121A14000EB830000F05E
:1084E40050F8E04000F0010010BD01F01F0301222C
:1084F4009A404B0900EB8300D14300F069B84B0963
:1085040001F01F0150F82300C84000F0010070473B
:108514002DE9F0474E1E760980460F4601360025A8
:1085240058F8254008EB850AE44394FAA4F4B4FA15
:1085340084F44FEA4519202C06D10135AE42EFD818
:108544003C462046BDE8F0874C44A742F5D9214675
:108554004046FFF7BCFF0028F3D0DAF80040E443BC
:1085640094FAA4F4B4FA84F4E5E700B550E8002FD3
:108574000B4640E8003E9EF0000FF7D110465DF830
:1085840004FB00B550E8002F42EA010340E8003E36
:108594009EF0000FF6D110465DF804FB00B550E8DC
:1085A400003F43EA010240E8002E9EF0000FF6D19E
:1085B40010465DF804FB00B550E8002F02EA010301
:1085C40040E8003E9EF0000FF6D110465DF804FB33
:1085D40000B550E8003F03EA010240E8002E9EF097
:1085E400000FF6D110465DF804FB00B550E8002FEB
:1085F40002EB010340E8003E9EF0000FF6D1104666
:108604005DF804FB00B550E8003F03EB010240E8CD
:10861400002E9EF0000FF6D110465DF804FB00B565
:1086240050E8003FA3EB010240E8002E9EF0000F4B
:10863400F6D110465DF804FB0121FFF7A2BF01212A
:10864400FFF7ACBF0021FFF7B6BF10B590B1426889
:10865400836801689B1ADBB20A60013BDBB2FF2B23
:10866400026802D10020107110BD11684C1C146006
:108674000B70F2E70E2010BD37B5054602A80024A2
:1086840000F8014DFEF72AFF2A686B6811689942C9
:108694000ED9481E106011F8014CEB68A98A01FB41
:1086A4000434AB6811791B1ADBB2994238BF1371D9
:1086B4009DF80700FEF736FF204603B030BD37B5FE
:1086C400054602A8002300F8013D0C46FEF706FF0C
:1086D4002A681368591C1160E968641AA98AB4FBF2
:1086E400F1F41C709DF80700FEF71CFF03B030BDC9
:1086F400826810B504462AB1436901680069984745
:108704000023A36010BD0EB403B5039929B102AAD6
:1087140004AB42F8043D00F06DF802B05DF804EBE0
:1087240003B07047826830B40468551C8560A15456
:10873400826843689A4202D330BCFFF7D9BF30BC89
:10874400704700002DE9F84F0A9C99460B9B174689
:10875400824688460A460126BA420FD24E4538BFA1
:108764004E4613F0010B01D164B900240125B9F17F
:10877400010F1AD909F1FF397D43F8E7B2FBF7F28B
:108784000136E9E79B070ED5B9F1000F0CBF302580
:108794002025A642EAD2013C29465046FFF7C2FFF3
:1087A400002CF6D1E1E72025F3E7B8FBF5F39F426F
:1087B400E2D9DFF83C90B8FBF5F3504619F8031002
:1087C40005FB1388FFF7AEFFB5FBF7F5002DF2D1DB
:1087D400BBF1000F0AD03CB9BDE8F88F013C202161
:1087E4005046FFF79FFF0CB1A642F7D3BDE8F88FC0
:1087F4009BF002002DE9F74F054617460C46002969
:1088040000F0358114F8011B49B92B7B002B00F0D3
:108814002E81284603B0BDE8F04FFFF769BF252934
:1088240040F0218123460026194611F8012B2D2AF8
:1088340024D0302A26D02B2A27D000242A2A99464D
:1088440003F1010124D13B681A1D1B683A601C44E2
:10885400894699F800302E2B25D109F101014FF0FA
:108864000008894611F8012BA2F1300009281CD810
:108874000A2303FB0823A3F13008F2E746F00106BC
:108884000B46D1E746F00206FAE746F00406F7E79E
:108894001A780B46A2F130010929DAD80A2101FB22
:1088A4000424303CCAE74FF0000899F8001001F0A6
:1088B400FB02682A02D119F8011FF8E769290FD0D1
:1088C4004BD8582965D007D825296ED009F1010461
:1088D4002378002B96D198E7632962D06429F5D1D7
:1088E4003A68D2F800A0111D8AEAEA723960A2EB54
:1088F400EA724FF0010B092A5BDCC34538BFC3465B
:108904002CB1BAF1000F01DB710700D5013CB207AD
:1089140002D5B8F1000F04D0F30702D4002C4ED1D5
:108924000024BAF1000F52DACAF1000A2D212846B8
:10893400FFF7F8FE06F00302022A05D1B8F1000F92
:1089440002D1002C47D100248DE8500043460A226E
:1089540051462846FFF7F6FEB8E773294CD014D8E1
:108964007029B3D13B681A1D3A60302128461C682F
:10897400FFF7D8FE78212846FFF7D4FE00230193A1
:108984000823009310222146E3E775292BD0782988
:108994009CD139680A1D3A6043468DE85000102284
:1089A40028E03B681A1D19783A602846FFF7BAFE9A
:1089B4008CE70A230BF1010B92FBF3F29BE7A3452F
:1089C400AFD220212846013CFFF7ACFEA6E7700792
:1089D400B0D52B21ABE7A345B6D230212846013CC4
:1089E400FFF7A0FEADE739680A1D3A608DE8500034
:1089F40043460A220968ACE73B681A1D3A60F1074E
:108A0400D3F800A012D55646A6EB0A0B16F8011BA4
:108A140041B95C457FF65AAF20212846013CFFF757
:108A240081FEF6E72846FFF77DFEEDE7BAF1000F79
:108A340011D0504606F094F90646B44200D964B900
:108A44000AF1FF3A1AF8011F00293FF43FAF284604
:108A5400FFF768FEF6E75646EFE720212846013C7B
:108A6400FFF760FEE9E72846FFF75CFE30E703B056
:108A7400BDE8F08F07B50B4678B9104B104A18883B
:108A84000E2300930F4B00040F4940F00100FDF743
:108A9400DFFF0E2003B05DF804FB3BB9074B0B4A24
:108AA40018880E2300930004064BEDE703601B684F
:108AB400114603B05DF804EB184700BF3C220020C8
:108AC40058F10200ABF002005DF10200D4F10200A3
:108AD4002DE9F743DDF828C078B9364B364A1888B3
:108AE400364B0E2400040094354940F00100FDF794
:108AF400AFFF204603B0BDE8F0833AB92D4B314AAD
:108B040018882E4B0E2400040094EDE7D0F800E002
:108B1400BEF1000F07D1274B2B4A1888274B082496
:108B240000040094E0E73BB9224B284A1888234B01
:108B3400092400040094D7E74768D7F80490B3FBEE
:108B4400F9F709FB17373FB11A4B214A18881B4B19
:108B5400092400040094C7E78F0707D0154B1D4A6A
:108B64001888164B102400040094BDE712F0030F7C
:108B740007D0104B184A1888104B10240004009496
:108B8400B2E7C768B9420DD34C1E05691C44AC4218
:108B940008D8CDF828C0DEF80C40A44603B0BDE8E0
:108BA400F0436047034B0D4A1888044B102400041B
:108BB400009499E73C22002058F10200BDF0020025
:108BC4005DF10200DAF10200CEF102008DF1020043
:108BD400E0F102000AF2020022F2020045F2020071
:108BE400F7B570B9254B264A1888264B0E24000485
:108BF4000094254940F00100FDF72AFF204603B008
:108C0400F0BDD0F800E0BEF1000F07D11B4B1F4AA6
:108C140018881C4B082400040094EAE73AB9174B5F
:108C24001B4A1888174B092400040094E1E747689D
:108C3400D7F800C00CF1FF370F4207D00F4B154A8D
:108C44001888104B102400040094D2E7C768B94276
:108C540005D34C1E05690CFB0244AC4207D9074BF3
:108C64000D4A1888074B102400040094C1E7DEF86D
:108C74001040A44603B0BDE8F04060473C22002009
:108C840058F10200D0F002005DF10200CEF10200C2
:108C94008DF10200E3F0020009F1020070B508B1A1
:108CA4000368B3B90D4D0E4B14225B1B0024B3FBB8
:108CB400F2F302FB03F6A64201D1002070BD2B594A
:108CC40028190BB91434F6E7DB6998470028F9D062
:108CD40070BDDB69BDE87040184700BF502200201A
:108CE4006422002029DF704728DF704770B50368CD
:108CF4009D6886B004460E466DB118220021684670
:108D040005F0FAFFA3680593237901962BB1012B93
:108D14000DD06846A84706B070BD01238DF8003019
:108D240023690293E368039363690493F1E70223DD
:108D34008DF80030E3681B030293F5E7084670479B
:108D440000207047024B187A003018BF012070478A
:108D5400182B0020034B187A0122B0FA80F05A74C1
:108D640040097047182B002008B510461A4605F034
:108D740099FF002008BD000008B514220021044812
:108D840005F0BAFF0348FFF702FB002008BD00BF4F
:108D9400182B00209822002010B5094C094B436081
:108DA4002046FFF749FC40B905F00EFD1C23207452
:108DB4008C2205490548FFF7D7FA002010BD00BFF3
:108DC400182B00207CF202008C2A0020982200201C
:108DD40070B5244D244E2B7A2C463BB923492448A4
:108DE400FFF731FB306008B9686070BD022323725D
:108DF40033681A7972B1012A24D018460321FFF787
:108E040075FF00232372636018491948BDE8704058
:108E1400FFF744BB98695A69D9681D69121AB2F5FB
:108E2400805F28BF4FF480529208012A014438BF62
:108E340001222844FFF756FF50B11128DDD1012348
:108E4400237270BDD8681A691044FFF74DFFF3E729
:108E5400237C2BB90146BDE87040022000F00AB81B
:108E640070BD00BF182B0020302B00202C2B0020BD
:108E74009822002038B5831E012B45D8234C237A31
:108E8400002B41D0022B09D1032830D0204B1B6882
:108E94000022E2601A793AB1012A22D0637C7BBBBA
:108EA400BDE83840FFF794BF9A6959698D1AB5F542
:108EB400805F94BF521902F580529A619142EDD1BC
:108EC40002284FF0000308BF19462372104B18BF45
:108ED4000D211868FFF70AFF0E490F48FFF7DEFA65
:108EE400DCE71A6901321A615B699A42E7E7E368D1
:108EF4000133082B01D8E360D0E70023E360DFE708
:108F0400BDE8384005F050BC38BD00BF182B002028
:108F1400302B00202C2B00209822002000F0FD0391
:108F2400012B08D1044B00225A74421E5042504176
:108F34001874FFF74DBF7047182B002010B5064C6E
:108F4400201DFFF779FB28B9637C1BB9BDE81040ED
:108F5400FFF73EBF10BD00BF182B00202DE9F341E1
:108F640080460D460F4801A916461F46FFF731FA01
:108F74000446A8B11C22002105F0BEFE2D0B0123DE
:108F8400237101A9C4F80080A760E5606661054803
:108F9400FFF749FAFFF7D2FF002002B0BDE8F081E5
:108FA4000420FAE7982200202DE9F74381468846F9
:108FB400104801A917461E46FFF70BFA0446B8B13C
:108FC4001C22002105F098FE00250A9BA36001A93C
:108FD4002571C4F80090C4F81080E7606661054804
:108FE400FFF721FAFFF7AAFF284603B0BDE8F08394
:108FF4000420FAE798220020FFF727BBF8B546794A
:109004000446721E00239342246804D301460025BB
:10901400B54202D3F8BD0133F5E70F682046FFF7E8
:109024004EFB01353946F3E72DE9F843878ACD1C19
:109034008046FFF721FB043F3D440446B5FBF7F5AA
:10904400002650B10123EDB206714371C780013D82
:10905400C0F800808146AE4202D32046BDE8F883C2
:109064004046FFF709FB074648B163790133637152
:109074000136C9F80000C0F800808146EBE72046BD
:10908400FFF7BCFF3846BDE8F88301210430FFF741
:10909400B9BA10B5012104460430FFF7C0FA10F044
:1090A400FF0F04D12046BDE81040FFF7A7BF10BD55
:1090B4002DE9F843C68804330F46B3FBF6F415468E
:1090C40006FB143380463CB9A6EB0309A94528BF27
:1090D400A9462DB9BDE8F883D8F80080013CF2E731
:1090E400043308EB0300A5EB09054A46391905F0DA
:1090F400D9FDAE424C44D8F80080B1464FF000038D
:1091040028BFA946E5E72DE9F843C6880F46191D8F
:109114001546B1FBF6F4804606FB14113CB9A6EBE8
:109124000109A94528BFA9462DB9BDE8F883D8F897
:109134000080013CF2E704314144A5EB09054A46AD
:10914400381905F0AFFDAE424C44D8F80080B14662
:109154004FF0000128BFA946E6E741DF7047000051
:10916400064B10B500241C70054B1C60BFF35F8FC9
:109174000449054800F030F8204610BD3C2B00207F
:10918400402B0020B8F20200342B002007B502A8BF
:10919400002300F8013DFEF7A1F9F1EE103A23F0A7
:1091A4009F03E1EE103ABFF35F8F0A4B4022C3F8EE
:1091B40084219DF80700FEF7B5F905F005FB20B101
:1091C400FFF7CBFF03B05DF804FB20BF40BF20BF17
:1091D400F8E700BF00E100E00B684A68436093428F
:1091E40008BF0023016008BF43607047436843B170
:1091F4000268916852680B449342436004BF0023A1
:10920400436070470D4930B5A1F59472022591422F
:1092140001D8002030BD8B1ADB1093FBF5F302EB71
:10922400C30452F83330834205D802D204F1080251
:10923400EDE7606830BD2146E9E700BF08F40200AD
:1092440008B5FFF7DFFF024B002808BF184608BD2A
:10925400CDF20200054B1B68082B01BF044B1868B4
:10926400B0FA80F0400918BF0020704730010010A8
:109274003401001008B54FF080430022C3F80C21DC
:10928400C3F81021C3F838254FF0805203F540434A
:10929400D2F80414C3F82015D2F80814C3F824151E
:1092A400D2F80C14C3F82815D2F81014C3F82C15EE
:1092B400D2F81414C3F83015D2F81814C3F83415BE
:1092C400D2F81C14C3F84015D2F82014C3F844157E
:1092D400D2F82414C3F84815D2F82814C3F84C154E
:1092E400D2F82C14C3F85015D2F83014C3F854151E
:1092F400D2F83414C3F86015D2F83814C3F86415DE
:10930400D2F83C14C3F86815D2F84014C3F86C15AD
:10931400D2F84424C3F87025FFF79CFF10B1384BF2
:10932400384A1A60FFF796FF18B1374BFB22C3F88F
:109334001825FFF78FFF48B13449354B0A681B687D
:1093440022F00F0203F00F0313430B60FFF782FFB9
:1093540018B1304B4FF400721A604FF08043D3F8C9
:109364000024D20744BF6FF00102C3F800242A4A44
:10937400D2F8883043F47003C2F88830BFF34F8FBB
:10938400BFF36F8F4FF01023D3F80022002A03DBC2
:10939400D3F80432002B2FDA204B0122C3F8042522
:1093A400D3F80024002AFBD04FF010221221C2F877
:1093B4000012D3F80024002AFBD04FF0102312220D
:1093C400C3F80422154B1A46D3F800140029FBD025
:1093D4000021C3F80415D2F80034002BFBD0BFF3EE
:1093E4004F8F0D490E4BCA6802F4E0621343CB6001
:1093F400BFF34F8F00BFFDE70A4B0B4A1A6008BD4D
:109404008C5600404881030000F00040E40E004008
:10941400580200104096024000ED00E000E00140D8
:109424000400FA05AC2200200090D003074B1B5C1B
:109434001F2B8ABF064A4FF0A04203F01F03D2F845
:109444000405D840C04300F001007047C6F702008D
:1094540000030050074B1B5C1F2B86BF03F01F0348
:1094640005494FF0A041012202FA03F3C1F80C357B
:10947400704700BFC6F7020000030050074B1B5C97
:109484001F2B86BF03F01F0305494FF0A0410122A3
:1094940002FA03F3C1F80835704700BFC6F70200AB
:1094A4000003005008B50020FFF7E8FF0120FFF794
:1094B400E5FF0220FFF7E2FF0320BDE80840FFF7C5
:1094C400DDBF08B50020FFF7C5FF0120FFF7C2FF8D
:1094D4000220FFF7BFFF0320BDE80840FFF7BABF33
:1094E4000A4B185C1F288ABF094B4FF0A04300F0B9
:1094F4001F00D3F804250121814021EA02000A401B
:10950400C3F80805C3F80C25704700BFC6F702006E
:1095140000030050074B1B5C1F2B8ABF064A4FF009
:10952400A04203F01F03D2F81005D840C04300F056
:1095340001007047C2F70200000300500B2809D055
:109544000C2809D0182809D019280CBF03204FF083
:10955400FF30704700207047012070470220704799
:10956400014B185C704700BFC2F70200C20770B518
:10957400044614D5154D164E00220320535D1F2BAF
:1095840086BF03F01F0331464FF0A04103F5E0739B
:109594000132042A41F82300F0D1FFF783FFA30727
:1095A40012D50C4C0A4D00220C20135D1F2B86BFD4
:1095B40003F01F0329464FF0A04103F5E073013285
:1095C400042A41F82300F0D170BD00BFC6F70200A1
:1095D40000030050C2F7020038B5084C04F1080338
:1095E4000546002818BF1C4623682BB11A68226060
:1095F4005B6828469847F7E738BD00BF4C2B00202E
:1096040020B9054B01225A70FFF7E6BF012802D1A9
:10961400014A9070F8E77047442B002020B9034BAF
:1096240001225A70FFF7D8BF704700BF442B0020B7
:1096340038B50B4C237883B90A486360A36023616F
:10964400E36000F0D1F8054605F0BEF808B900F073
:10965400D9F801232370284638BD8525FBE700BFD0
:10966400442B00200596020037B502A80023094CBC
:1096740000F8013DFDF732FFE368013BE360E56874
:1096840015B900F0D3F8A5709DF80700FDF74AFF5F
:1096940003B030BD442B0020012813B509D003D3F7
:1096A40003281BD002B010BD0F4B0122C3F8802049
:1096B400F8E702A800230D4C00F8013DFDF70EFF6A
:1096C40023780BB9FFF7B4FFE3689DF80700013373
:1096D400E3600123A370FDF725FFE3E700F092F8B0
:1096E400FFF7C2FFDEE700BF00E100E0442B0020EB
:1096F4001FB503788DF8003043680193037A8DF821
:109704000830C3680393054A054B684653F8213073
:1097140052F82110984705B05DF804FB582B00203F
:10972400602B00201FB503788DF800304368019347
:1097340083688DF80830C3680393054A054B68466F
:1097440053F8213052F82110984705B05DF804FB16
:10975400582B0020602B0020F0B5194B0678DFF859
:1097640070C043F82620174B96460A6943F8262012
:109774004B7F0CF806300C4607460FCC89B06D467B
:109784000FC594E80F0085E80F001CF80630049616
:1097940053B1BEF1000F0C4A694608BF0022381DC0
:1097A40000F0E8FD09B0F0BDBEF1000F074A6946BC
:1097B40008BF002207F10C0000F0BEFBF2E700BF77
:1097C400602B0020582B0020F596020029970200F8
:1097D400682B002000F180400023036082B00368FE
:1097E4000193019B02B07047054A13792BB90121FB
:1097F400106011715371184670478520704700BF7F
:109804006C2B0020084B1A68D20706D4E02283F898
:1098140000230122C3F880211A604FF08043012203
:10982400C3F81825704700BF00E100E0044B012293
:109834001A604FF08042D2F81834DB03FBD470472F
:109844000C000040124B1B6810B573B14FF48070CC
:10985400FFF7C0FF4FF080430122C3F808230D4BEC
:10986400587910B95A711B6898470B4B1B6873B130
:109874004FF48270FFF7AEFF4FF080430222C3F82B
:109884000823044B01201B68BDE81040184710BD95
:10989400000100406C2B00200401004000F18040D6
:1098A40000F5C040002382B0036003680193019B6C
:1098B40002B0704703681F2B83BF03F01F030360CC
:1098C40001484FF0A04070470003005007B502ABB9
:1098D40043F8040D1846FFF7EDFF019B00EB8300EE
:1098E400D0F8003723F44033C0F80037D0F80037FD
:1098F40043EA0141C0F8001703B05DF804FB00001F
:10990400054B4FF0FF32072843F8202084BF1B1873
:1099140083F85820704700BF742B002010B5174CF3
:1099240094F86A3043BBFF21E2180133302B82F8EC
:109934003010F9D10021C8B2FFF7E2FF01310C2940
:10994400F9D1002106220E4805F0D6F90D4BE0228C
:1099540083F806234022C3F880214FF4BE701A60B6
:10996400FFF79CFF084B4FF00042C3F80423012388
:1099740084F86A30002010BD082010BD742B00202C
:10998400D82B002000E100E000600040034B93F876
:109994006A00003018BF0120704700BF742B0020FC
:1099A400F7B53C4C2318064693F93030002B6FDA98
:1099B4008878C0F3400000280BBF082300230C253F
:1099C4000825AB4202D1042003B0F0BD54F8237043
:1099D400013745D1A7195DB287F8305044F82320E8
:1099E40010B9234483F858608B785A0718D4D807E1
:1099F40038D502A840F8086DFFF75CFF009B00EB28
:109A04008300D0F8003723F00203C0F8003722485F
:109A1400F20806F007070123BB40875C3B438354ED
:109A240088780A7810F0020029D0AB0003F1804353
:109A340003F5C0433602D3F8101521F44F3121F455
:109A44004071C3F810151204D3F8101506F47C56AF
:109A540002F4403216430E43C3F810650020B3E706
:109A64000133AEE702A84A7840F8046DFFF722FFFD
:109A7400019B03F5E073920040F82320C7E7083DFB
:109A84002C4494F8606046EA821284F860209BE7D4
:109A9400082099E7742B0020D82B002073B5224CA2
:109AA4002518064695F93020072A1ADD224492F833
:109AB40058309B09032B10D102A840F8046DFFF71E
:109AC400F9FE019AD0F81035D340DB0707D4022100
:109AD4003046FFF7FBFE02B070BD012BF7D0032127
:109AE400F6E7D3B2072BF6D8930003F1804303F5CE
:109AF400C043D3F8100540F00100C3F8100502F18B
:109B04004000800080B2FFF7C9FE0029E3D095F938
:109B1400303054F82330002BDDD0012303FA02F255
:109B2400024BC3F80423D6E7742B002000600040E6
:109B340007B502AB43F8040D1846FFF7BBFE019BC3
:109B4400D0F81005D84000F0010003B05DF804FB24
:109B54002DE9F04F89B00024614A624E624D0294AF
:109B640003940121A2F5C04052F8043B012B80B2BA
:109B740006D1D6F804330B4202D0FFF78FFE0C4314
:109B8400AA424FEA4101EDD1584B1B68012B0ED17B
:109B94004FF4BE70FFF782FE4FF0A04344F0004440
:109BA400D3F810350293524BD3F81035039314F0C5
:109BB400FF0F34D1002C80F28F8004AE0023049375
:109BC40073604C4F4FF0FF33069307934FF0010837
:109BD400002425467B1993F96020531C63D0D2B22C
:109BE40022F0C00908AB4FEAD90003EB000B02F0E6
:109BF40007011BF8083C08FA01F10B4253D007EBAC
:109C04000903920993F9303057F823A0BAF1000FF1
:109C140021D1032A47D1335C0B4333541DE0354F24
:109C240001260025344210D0AB0003F1804303F534
:109C3400C043D3F81005D3F8101557F8253023B1D5
:109C4400C1F30141C0F3052098470135082D4FEABF
:109C54004606E7D1AEE7032ADDD001A8CDF804908B
:109C6400FFF728FE019B03F5E07350F823301BF83F
:109C7400180C0842C3F3014305D0022B13D1032A65
:109C84000BD1114604E0032B0DD1032A05D1022187
:109C94004846FFF71BFE0134E4B2BAF1000F02D0CC
:109CA40011464846D0470135042D93D1A4B14FF055
:109CB400A0430299D3F8102503F540739142D3F8D9
:109CC400103502D10399994206D002920393049A63
:109CD400059B069207937BE709B0BDE8F08F00BFB0
:109CE4000061004000600040206100407C61004051
:109CF40000030050742B0020014B1B68184700BF61
:109D0400E02B00200D4B984237B50D4610D102A828
:109D1400002300F8013DFDF7E1FB094B1C7914B960
:109D240001221D601A719DF80700FDF7FBFB14B9B1
:109D3400002003B030BD1120FBE700BF002000402D
:109D4400E02B0020034B984201BF034B00221A6012
:109D54001A71704700200040E02B0020002343507C
:109D640082B043580193019B02B070470A4610B574
:109D74004FF48E71FFF7F2FF136A9168C95C136A9E
:109D840001331362C0F81C1510BD8B690A4610B567
:109D94004FF4847123B9FFF7E1FFD0F8183510BDF3
:109DA400FFF7DCFF536AD168D0F81805C854536A2A
:109DB4000133536210BD00001FB501238DF800303C
:109DC400044B02900191684693E80600904705B061
:109DD4005DF804FBE82B002030B54D4AD2F804337B
:109DE40013F4007F85B015464FD0D2F82431002BF0
:109DF4004BD04FF492711046FFF7B0FF4FF401734C
:109E0400C2F80833434B93F8291009B90121516072
:109E14003F4902228DF80020D1F88024C1F8802423
:109E240003929A690292DA68019200229A61DA61D5
:109E3400684693E8060090473548D0F81C315BB17A
:109E440034490A6A4B699A420A464CD291F828303E
:109E5400002B48D1FFF78AFF2D4AD2F8443193B141
:109E64004FF4A2711046FFF779FF2A4B93F829109B
:109E740009B1012111609A692AB100229A61586AD4
:109E8400D968FFF799FF05B030BDD5F804335B07F7
:109E9400D2D5D5F80831002BCED01E4C1C48214613
:109EA400FFF773FF636AA2699A422346C4D1E26949
:109EB40052B12369E168E3600023606AA261E3614F
:109EC4006362FFF779FFB7E794F829200AB9012202
:109ED4006A600F4A4FF40171C2F8081300229A61B4
:109EE400586AD968EDE74FF48E710948FFF736FFD9
:109EF40051690029B0D00023029191688DF8003097
:109F040001915361684692E80A009847A4E700BFAC
:109F140000200040E82B00201F2886BF00F01F000F
:109F2400044B4FF0A04300F5E070022243F82020D8
:109F3400704700BF000300502DE9F843674B0479D4
:109F440091462C2202FB0432064692F82A200D4642
:109F54009846002A40F0BE8061490068FFF7D2FEAF
:109F64000746002840F0B88029684A1C10D01F29F1
:109F740087BF01F01F035B4A0B464FF0A04201204C
:109F8400984003F5E073C2F80805032042F8230063
:109F94006868431C0DD01F288BBF00F01F030346C5
:109FA400504A4FF0A04203F5E0734FF0000E42F820
:109FB40023E03368AA6995F814E0C3F824256A7D80
:109FC400BEF1010F4EEA0202C3F86C25C3F8140572
:109FD400C3F80C152BD1A968481C0DD01F298BBFC1
:109FE40001F01F020A463F484FF0A04002F5E0721C
:109FF4004FF0000E40F822E0E868421C13D01F28FE
:10A0040087BF00F01F0E374A86464FF0A0424FF03C
:10A01400010C0CFA0EFC0EF5E07EC2F808C54FF0F8
:10A02400030C42F82EC0C3F80805C3F810152C23FE
:10A03400634308EB0302C2F804902A6948F803203A
:10A04400B9F1000F33D04FF48E7130682D7FFFF7D4
:10A0540085FE30684FF4A271FFF780FE3268224B10
:10A06400C2F80433120B53B2002BA8BF03F16040B3
:10A074004FEA53134FEA4511BABF1C4802F00F05CB
:10A0840000F561404FEA8303B4BFC9B2C9B203F11A
:10A094006043B4BF415580F8001303F5614302F0F7
:10A0A4001F02012101FA02F2C3F880211A60336809
:10A0B4000422C3F800252C2303FB048300229A61A5
:10A0C400DA6183F829205A61012283F82A2038466C
:10A0D400BDE8F8830827FAE71127F8E7E82B002002
:10A0E400DD9D0200000300508000020014ED00E03A
:10A0F4002DE9F04103680479254D0022C3F80025B9
:10A104002C2202FB04520646526872B1214AC3F85B
:10A114000823190B4AB20120520901F01F0100FA69
:10A1240001F120321C4840F82210D3F80C05D3F872
:10A134001485D3F80815D3F810754FF0FF32904208
:10A14400C3F81425C3F80C25C3F80825C3F8102553
:10A1540001D0FFF7E1FEB8F1FF3F02D04046FFF720
:10A16400DBFE7A1C02D03846FFF7D6FE4B1C02D029
:10A174000846FFF7D1FE3068FFF7E4FD2C2303FB0C
:10A184000454002384F82A306360BDE8F08100BFE2
:10A19400E82B00208402020000E100E02DE9F843EE
:10A1A400234F06794FF02C0909FB06748046656934
:10A1B400002D37D16261A16025624FF48E71006871
:10A1C40084F82850FFF7CAFDD8F800000123836003
:10A1D4002146FFF7CBFD6368A14633BBD8F8005096
:10A1E400226A63699A4212D3D8F80030D3F81C214A
:10A1F400002AFBD00122DA6000202C2303FB067620
:10A2040000237361BDE8F88394F8283043B9D5F886
:10A214001C31002BF8D049462846FFF7A7FDDFE79D
:10A224000F20EAE71120BDE8F8832846BDE8F8834B
:10A23400E82B00200023435082B043580193019B34
:10A2440002B070471FB501238DF80030054B8DF81F
:10A2540008000191684693E80600904705B05DF850
:10A2640004FB00BF142C00207FB5384AD2F82461C7
:10A27400002E49D010464FF49271FFF7DBFF022302
:10A284008DF80030D2F88034C2F880340393D2F8C9
:10A294003C358DF808302E4BDA68019200229A6121
:10A2A400DA61684693E806009047284AD2F84431B8
:10A2B40073B14FF4A2711046FFF7BCFF244B9969A8
:10A2C40031B100219961D2F83C05D968FFF7BAFF92
:10A2D4001E4AD2F82031ABB14FF490711046FFF70B
:10A2E400A9FF1B4B596969B1D2F84C158DF80810B8
:10A2F400002299688DF8002001915A61684693E81C
:10A304000600904704B070BDD2F81031002BCCD0B9
:10A314004FF488711046FFF78DFF0D4BD2F83C05C2
:10A3240099698842C1D1DC696CB1D2F80052D9680C
:10A3340025F02005C2F800521A699C61DA60DE61DA
:10A34400FFF780FFB1E79C61D968F9E7002000407E
:10A35400142C00201F2886BF00F01F00044B4FF070
:10A36400A04300F5E070022243F82020704700BFAC
:10A37400000300502DE9F8436B4B067991462422E3
:10A3840002FB0632044692F820200D469846002A25
:10A3940040F0C68065490068FFF7B4FC0746002812
:10A3A40040F0C0802868421C10D01F2887BF00F0EE
:10A3B4001F035F4A03464FF0A0420121994003F571
:10A3C400E073C2F80815032142F8231069684B1C96
:10A3D4000DD01F298BBF01F01F030B46544A4FF0C9
:10A3E400A04203F5E0734FF0000E42F823E0236827
:10A3F400AA6995F814E0C3F824256A7DBEF1010F1B
:10A404004EEA0202C3F86C25C3F80C05C3F8141510
:10A414002BD1A968481C0DD01F298BBF01F01F0246
:10A424000A4643484FF0A04002F5E0724FF0000E98
:10A4340040F822E0E868421C13D01F2887BF00F0D0
:10A444001F0E3B4A86464FF0A0424FF0010C0CFA17
:10A454000EFC0EF5E07EC2F808C54FF0030C42F87E
:10A464002EC0C3F80805C3F810152423734308EB62
:10A474000302C2F804902A6948F80320B9F1000FD6
:10A484003DD04FF4887120682D7FFFF7D3FE4FF441
:10A4940090712068FFF7CEFE4FF492712068FFF7A9
:10A4A400C9FE20684FF4A271FFF7C4FE2268214B55
:10A4B400C2F80433120B53B2002BA8BF03F160405F
:10A4C4004FEA53134FEA4511BABF1B4802F00F0578
:10A4D40000F561404FEA8303B4BFC9B2C9B203F1C6
:10A4E4006043B4BF415580F8001303F5614302F0A3
:10A4F4001F02012101FA02F2C3F880211A602368C5
:10A504000822C3F80025242303FB068300229A6152
:10A51400DA615A61012283F820203846BDE8F883C5
:10A524000827FAE71127F8E7142C00206DA202008F
:10A53400000300501003020014ED00E02DE9F04187
:10A5440003680479254D0022C3F80025242202FB68
:10A5540004520646526872B1214AC3F80823190B03
:10A564004AB20120520901F01F0100FA01F1203220
:10A574001C4840F82210D3F80C05D3F81485D3F8FE
:10A584000815D3F810754FF0FF329042C3F80C252C
:10A59400C3F81425C3F80825C3F8102501D0FFF724
:10A5A400D9FEB8F1FF3F02D04046FFF7D3FE7A1C34
:10A5B40002D03846FFF7CEFE4B1C02D00846FFF708
:10A5C400C9FE3068FFF7BEFB242303FB04540023B9
:10A5D40084F820306360BDE8F08100BF142C0020B3
:10A5E4001003020000E100E001F06043B3F1005FFA
:10A5F4002DE9F041074632D11D4B0679242505FB90
:10A60400063598466C696CBB6A61A96000684FF4B2
:10A614009071FFF70FFE4FF4AC713868FFF70AFE34
:10A624003B686A69A968C3F84415C3F84825012240
:10A634009A606A68CAB9D3F82011D3F8582149B985
:10A64400002AF8D00F20242303FB0686002373611D
:10A65400BDE8F081002A14BF0F200020F3E710208A
:10A66400BDE8F0811120BDE8F0812046BDE8F0810D
:10A67400142C00200220FEF733BF000008B5094B5C
:10A684001B7853B10020FEF7F9FE0120FEF7F6FE19
:10A694000320BDE80840FEF7F1BEBDE80840FEF720
:10A6A40001BF00BF392C0020F8B5764C237805464D
:10A6B4001BB100232370FFF7E1FF172D00F2838005
:10A6C400DFE805F00C13133F5060717B83888388A7
:10A6D400909494949494BEC2C9D0DADAFFF7CEFF72
:10A6E400694B00241C702046F8BD0020FEF79EFE36
:10A6F400F8B10020FEF7C2FE022D0CBF4FF4E16159
:10A704004FF47A61604B1D704FF400404FF4FA74BB
:10A714000025E0FB01454FF47A72002320462946C8
:10A7240004F0C6F9002201465848BDE8F840FCF799
:10A734007FBEFEF78FFE022D0CBFC8214FF4C871F7
:10A74400E0E70020FEF772FE40B10020FEF796FE1F
:10A754004FF4487103224C4B1A70D5E7FEF77AFE8A
:10A76400C821F7E70020FEF761FE30B10020FEF7B4
:10A7740085FE4FF47A610422EDE7FEF76BFE4FF499
:10A78400C871F8E70020FEF751FE48B10020FEF73B
:10A7940075FE3D4B05221A7041F69A110022C3E75B
:10A7A400FEF758FEF5E70020FEF79AFE364B062228
:10A7B4001A70002240F6CD41B6E70020FEF74AFEAB
:10A7C4000722314B1A7000248DE701202070FEF718
:10A7D40087FEEEE701202070FEF782FE00224FF490
:10A7E4008041A1E7FEF76DFE0C22EAE72848294ED6
:10A7F400FCF764FED5F1110504461CD0D8B9012D2F
:10A8040013D0C8235D434FF4FA7000214FF400477E
:10A814004FF47A720023C7FB050104F049F922467C
:10A8240001461B48FCF704FE04460220FEF712FE14
:10A834000123337057E70220FEF720FE0023F8E7D8
:10A84400FFF71CFF1222BCE7FFF718FF0020FEF7FA
:10A8540001FE1322B5E7FFF711FF0120FEF7FAFD11
:10A864001422AEE7FFF70AFF0020FEF7F3FD0120F4
:10A87400FEF7F0FD1522A4E7FEF723FE024B1D7040
:10A88400A1E700BFAC2C0020B42C00207C2C0020BD
:10A894003C2C0020392C00202DE9F04781460D4640
:10A8A400FEF74CFE0328044631D8012D04D022D3F0
:10A8B400022D2ED0BDE8F087194D47003A18A9188B
:10A8C400AE5C4A7852B1DFF86880164842464FF4CD
:10A8D4000041FCF7ADFD08B988F800903B192B4402
:10A8E4009A78114B1A5596B1104B1B687BB13046C0
:10A8F400BDE8F04718470B48FCF7E0FD084B04EBB4
:10A90400440213449E78084B1B5DB342EBD0BDE870
:10A91400F087034B00EB40041C446678E3E700BF78
:10A924009C2C00205C2C0020B52C0020B02C002096
:10A93400382C002002210078FFF7AEBF044B1B68BF
:10A94400DB0703D5034B1878FFF7AEBE704700BF93
:10A95400A82C0020B42C0020002910B514BF032417
:10A964000024FEF7FDFD1F288ABF0A4B4FF0A043C9
:10A9740000F01F0003EB8000D0F8002722F44032DF
:10A98400C0F80027D0F8003743EA0443C0F8003782
:10A99400002010BD00030050032801D8FEF7BABD03
:10A9A40000207047044B1B6813F0010301D0FFF72C
:10A9B4007BBE1846704700BFA82C002038B51C4B3E
:10A9C40018601C4B10F00204054619601AD01A4B8B
:10A9D4001A480E221A700F22DA7010229A7111226C
:10A9E4005A72042140F26662FCF72AFA044648B916
:10A9F400FCF778FA044628B90146114A1148FCF7D5
:10AA040005FD0446EB0711D50120FEF7AFFD6CB937
:10AA140021460D4A0D48FCF7F9FC044630B90C4AAE
:10AA24000C480121BDE83840FCF7F0BC204638BD95
:10AA3400A82C0020B02C00209C2C0020ECF7020055
:10AA440039A9020010F8020041A9020014F802001A
:10AA540079A602000CF80200032812D8012A0BD1AF
:10AA6400012908D100F10E02D2B200EB40000C4BD8
:10AA74001A540020704700220129F6D009D3022974
:10AA840001D007207047064B00EB40001844427089
:10AA9400EFE7034B00EB400018448270E9E700BF86
:10AAA4009C2C0020032802D80121FFF755BF062063
:10AAB400704708B5012202210020FFF7CDFF08B13D
:10AAC400072810D1072202210120FFF7C5FF08B192
:10AAD400072808D100210A220846FFF7BDFF10B15C
:10AAE400072808BF002008BD0388102B10B502D02A
:10AAF400112B1ED010BD194C2168B1B90122084692
:10AB0400FFF7AAFF08B1072821D10722022101205B
:10AB1400FFF7A2FF08B1072819D10422022100205F
:10AB2400FFF79AFF08B1072811D123680133236086
:10AB340010BD0A4A1368013B136073B9FFF7B9FFEC
:10AB440058B1074B1B6843B1BDE810401847044B8C
:10AB54001B68002BE9D09847E7E710BDC02C002004
:10AB6400BC2C002008B50020FFF79CFF08B1062884
:10AB740006D10120FFF796FF10B1062808BF002078
:10AB840008BD00000D4B10B518600C4629B101201A
:10AB9400FFF702FF40B102232370094B1B6853B92E
:10ABA400BDE81040FFF785BFFFF7F6FE08B10B23A1
:10ABB400F2E72070F1E7002010BD00BFBC2C00209C
:10ABC400C02C002076DF70477ADF70477CDF704747
:10ABD4008FDF704733DF7047FCF79AB908B5002060
:10ABE400FFF7E0FE08B1FCF793F9FFF7BBFF08B1EC
:10ABF400FCF78EF9FFF7EEFF18B1BDE80840FCF74B
:10AC040087B908BD0388212B13B5044631D005D874
:10AC1400102B15D0112B0AD002B010BD3B2B01D044
:10AC2400562BF9D11321A088FFF7CCFF1CE0164B5B
:10AC340016491888000440F00300FBF7F1FEEBE727
:10AC4400114B13491888000440F00300FBF7E8FE99
:10AC54000720FFF7A7FE08B1FCF75AF90D4BA188AE
:10AC64000D48198001F01CFF0028D5D0FCF750F9DD
:10AC7400D2E7002301A980888DF804308DF80530CF
:10AC8400FFF7A6FFF0E700BF2422002018F8020017
:10AC940026F80200B4220020902D002008B5037885
:10ACA4004BB9054B3B211888FFF78CFF18B1BDE861
:10ACB4000840FCF72DB908BDB4220020072808B5C8
:10ACC40013D00A280DD0042819D10D4B132118884C
:10ACD400FFF778FF30F0080311D0BDE80840FCF717
:10ACE40017B9BDE80840FFF779BF054B1A884FF63E
:10ACF400FF739A4203D1034800F0EEFDEAE708BD72
:10AD0400B4220020C42C002008B588B1032813D134
:10AD14000A4B0B491888000440F00300FBF780FE3F
:10AD24000220FFF73FFE38B1BDE80840FCF7F0B859
:10AD3400BDE80840FFF752BF08BD00BF2422002031
:10AD44005EF8020008B50321044800F064FC18B161
:10AD5400BDE80840FCF7DCB808BD00BFC42C0020E7
:10AD640030B5037885B004460D2B10D8DFE803F026
:10AD7400070F110F220F2A390F350F3932391A4BA9
:10AD84001A491888000440F00300FBF749FE05B097
:10AD940030BD154B40881D8800F09AFF2D04227A9F
:10ADA400009245F003050246638811492846FBF7E3
:10ADB4004FFEECE704A9002301F8043D408802F0AB
:10ADC4005DFCE4E7FDF77EFA30F00803DFD0FCF722
:10ADD4009FF8DCE7FFF7B6FFD9E700690028D6D073
:10ADE400F5E78068FAE700BF2422002070F802002B
:10ADF40099F80200FCF78CB800B54FF40041ADB0EF
:10AE04000020FBF745FC08B1FCF782F8FBF76AFB6E
:10AE1400FCF7CAFA08B1FCF77BF87F490320FFF777
:10AE2400CDFD08B1FCF774F801A90020FFF7AAFED4
:10AE340008B1FCF76DF89DF80440FEF791F908B1EC
:10AE4400FCF766F803F044FC08B1FCF761F8002352
:10AE540001A90120019303F001FD08B1FCF758F8A2
:10AE640001A803F0A7FD08B1FCF752F89DF80030E3
:10AE74006A48012262F303032CAD62F3071305F859
:10AE8400B03D03F06DFF654982B22846FFF79EFE90
:10AE940008B1FCF73DF80822002101A803F02CFFBB
:10AEA4005023ADF80430A023ADF806300023ADF8EC
:10AEB400083001A84FF4C873ADF80A30FFF784FED8
:10AEC40008B1FCF725F80021554801F0DFFC08B172
:10AED400FCF71EF8AC22002101A803F00DFF0223A9
:10AEE4008DF8043001238DF80630ADF814308DF858
:10AEF40080304FF496730622239344F250638DF806
:10AF040007202493474A484B4848069201A92A93AC
:10AF140000F019FB08B1FBF7FBFF0121434800F0E7
:10AF24000FFB434B4348019301A901F0A7FD08B16E
:10AF3400FBF7EEFF1C22002101A803F0DDFE002335
:10AF44004FF4203201930292ADF812304FF4702284
:10AF54008DF81430384B039206930322374B8DF847
:10AF6400102001A8079300F0D5FD08B1FBF7D0FF2E
:10AF740002F030FB08B1FBF7CBFF0522002101A84A
:10AF840003F0BAFE9DF8043043F00103032203F0FA
:10AF9400F10362F306136FF3C7138DF8043007232C
:10AFA4008DF8053010238DF806309DF807301343D3
:10AFB4008DF807309DF8083001A813438DF8083048
:10AFC40002F052FB08B1FBF7A3FF1D4802F034FB6B
:10AFD40008B1FBF79DFF1B4D1B492888000440F076
:10AFE4000300FBF71DFD022C12D128881749000429
:10AFF40040F00300FBF714FD02F04EFB08B1FBF731
:10B0040087FFFBF7ABFB0028FBD1FEF7BFF8F8E79F
:10B01400FFF798FEF5E700BFC1AC020031F802006B
:10B024007C2D0020B02200200DAD0200C42C002095
:10B03400F9AD0200902D0020A1AC0200DDAB0200AE
:10B0440065AD02002422002037F8020051F8020006
:10B054006DDF704779DF70477DDF704764DF7047CD
:10B064002DE9F74F0C9CBDF834B0278800258046A5
:10B074008A4691462E46B8F8002096420BDB35B13D
:10B084002288013AD21B92B2FF2A39D8DA5500201D
:10B0940003B0BDE8F08FD8F8042052F826000190E0
:10B0A40000220DF1030101A8FFF7D8FF0028EFD11A
:10B0B4009DF803204A4521D12288002D14BF002089
:10B0C400022002EB09010144594519DC3DB9013262
:10B0D40092B2228003F802A02288013222802288C0
:10B0E4000DF103011A4401A8FFF7B8FF0028CFD1DE
:10B0F40021889DF803200A44228001250136BAE7FD
:10B104000C20C5E72DE9F341089CBDF824501746EF
:10B114008DE8300002220646FFF7A2FF48B910224C
:10B12400394630460995089402B0BDE8F041FFF76E
:10B1340097BF02B0BDE8F0812DE9F04F00231688D7
:10B14400138090F82D3085B007460D46144643B35E
:10B15400082E4ED902A8FFF77BFF002840F0FF809D
:10B1640013880822CA54238801339BB21B222380EC
:10B17400CA542088013080B2208006220DF10901D2
:10B18400284403F08FFD23889DF8082006339BB2E2
:10B1940012F0FE0218BF01222380EA5423880133EF
:10B1A4002380BB78FBB123880433B34221D802A89F
:10B1B400FFF750FF002840F0D28023880322EA548E
:10B1C400238801339BB219222380EA542388BDF8D3
:10B1D400082001339BB2E9182380EA54120A4A700A
:10B1E400238802332380FA78AAB12388D91CB14278
:10B1F40001D90C20B3E00221E954238801339BB226
:10B2040001212380E95423880B449BB22380EA5410
:10B2140023880B4423807A68AAB12388D91CB142BD
:10B22400E7D8022192F90020E954238801339BB224
:10B234000A212380E954238801339BB22380EA54F2
:10B244002388013323803B89002B7CD13B8A53B173
:10B254008DE850002B460722032107F11000FFF769
:10B2640051FF00287BD13B8B53B18DE850002B4616
:10B274001522142107F11800FFF744FF00286ED1AE
:10B284003A6A002A6ED1D7F82480B8F1000F2ED084
:10B29400B8F804302188981C8A1C0244B242A8D809
:10B2A400FE28A6D803336B54238801339BB2FF22B4
:10B2B4002380EA54238801339BB22380B8F800200A
:10B2C400EA54E918120A4A702088023080B22080B9
:10B2D400B8F804205AB1D8F8081000294CD02844F2
:10B2E40003F0E0FC2388B8F804201344238097F883
:10B2F4002C30002B7BD1387888B33B88012B3BD092
:10B3040021888A1CB2423FF674AF012805D17B78AC
:10B3140002330B449E42FFF46CAF023E761A04A93A
:10B32400B6B221F8086DA818FFF796FEB8B93B78B5
:10B33400022B40F09F80BDF80830B34240F2B68043
:10B34400ADF808609FE08DE850002B4606220221EC
:10B3540007F10800FFF7D6FE00283FF477AF05B0E9
:10B36400BDE8F08FB4F800E00EF10603B3423FF6F7
:10B3740040AF1188052901D80720F0E76FF4486C25
:10B3840001EB0C039BB24FF27D3C6345F4D9538827
:10B39400052BF1D96FF44860181880B26045EBD9D9
:10B3A4004FF6FF70814203D0834201D09942E3D823
:10B3B400052305F80E30238801339BB21221238024
:10B3C400E954238801339BB223801188E954E81897
:10B3D400090A4170238802339BB223805288EA54BD
:10B3E400E918120A4A702388023323804BE7BB6AA8
:10B3F400002BC1D04FF000094FF00C0A4FF0160B90
:10B4040097F82C305FFA89F293427FF674AFB96AE9
:10B414000AFB02F201EB0208B8F80430981CFE287B
:10B424003FF6E7AE208803332B54238801339BB2C5
:10B43400238005F803B0238801339BB223808A5A02
:10B44400EA54E918120A4A702088023080B2208037
:10B45400B8F804205AB1D8F8081000298CD0284430
:10B4640003F020FC2388B8F804201344238009F156
:10B474000109C5E7012B7FF463AF7B789E42FFF49B
:10B484005FAFADF808300821BDF80830FE2B3FF659
:10B49400B0AE22880133AB542288013292B22280AA
:10B4A400A954228813442380002058E70921EBE79C
:10B4B40070B558B14AB116880024B44203D30519B3
:10B4C4006D789D4208D08C4201D3002070BD055D8B
:10B4D40001352C44A4B2F0E78C42F6D2A31C1380AD
:10B4E400005D013880B270BD37B502AC002324F88A
:10B4F400023D134622460546FFF7DAFF10B1BDF8B8
:10B504000600284403B030BD72DF704773DF704714
:10B5140074DF704738B5012204460D46B0F8981020
:10B52400D0F89400FFF7E0FF00B1057004F13C028D
:10B5340004F1940104F15400BDE83840FFF7E4BF7E
:10B5440080F830107047F8B504460F4641B138B161
:10B5540091F87A3033B191F898301BB10720F8BDD7
:10B564000E20F8BD07F178060FCE4FF0000E251D12
:10B5740084F802E00FC50FCE0FC596E8070085E8F2
:10B58400070084F830E0D7F8A4306363D7F8A83014
:10B59400A3634FF6FF7504F19403C4F8A430A4F830
:10B5A400A8500722714604F1AA0003F0A5FB2378F2
:10B5B4000BB984F85450224604F155011F25C4F8F0
:10B5C4009410384622F8985FFFF7B6FD10BB224668
:10B5D40004F17401C4F89C1007F13C0022F8A05F48
:10B5E400FFF7AAFDB0B9A269A4F848200123626953
:10B5F400206484F850006264014684F8513084F871
:10B604003C3004F13C0204F15400FFF77DFF08B91B
:10B614002370F8BDF8BDF8B5077804460D46002F31
:10B6240000F00C81A1700020FDF738FB014618B131
:10B63400012363700020F8BD04F1AA0607223046F6
:10B6440003F05AFBE38813B1A378012B04D0E37908
:10B654004BB1A378022B06D1636B9BB1012284F812
:10B66400B12008209847324604F1B00112F8013F96
:10B674005BB98A42FAD16A1E032A52D8DFE802F083
:10B68400070D111484F8B130EDE73B46F3E7A279D6
:10B694001AB194F8242002B95BB9E2790AB1002BFB
:10B6A40041D1237A002B40D1637A002B0CBF0025B3
:10B6B4000425636BA570002B39D0033D012D36D8CA
:10B6C4006279A2B394F8B2208ABB84F8B420012230
:10B6D40084F8B3200720984704F13C051822002180
:10B6E400284603F009FBE36A0122591E914284F8BB
:10B6F4003C2002D9042B40F0A38084F8513094F804
:10B7040024201AB1BFB1A36A84F85230A17800236F
:10B7140084F8503004291DD8DFE801F07C0F273A63
:10B724005E000025C5E70225C3E70325C1E7002322
:10B7340084F8B330D0E70123E6E7C4F8A4306364A7
:10B744000223012284F83C30802384F831202664CB
:10B75400A4F84830A378002B5FD1636B002B3FF42F
:10B7640069AF94F83100984764E7022384F83130D4
:10B7740062B1072384F83C302369A4F848300023DD
:10B78400C4F8A430E36826646364E3E70323F1E7C1
:10B7940063696364A369A4F8483012B1062384F88A
:10B7A4003C306379B3B194F8B2309BB994F8B430B7
:10B7B40083B1022384F8503004212046FFF7AAFE07
:10B7C4000028C7D1052384F8313004F19403C4F868
:10B7D400A430BFE70323F6E7E3696364236AA4F8AC
:10B7E400483012B1062384F83C30637983B194F86D
:10B7F400B2306BB994F8B43053B1022384F85030AA
:10B8040004212046FFF786FE0028A3D10623DAE7A9
:10B814000423D8E784F831309CE72A46D4F8A410EE
:10B8240004F15400FFF770FE70B994F8301094F8E6
:10B834005400FFF76BFE00288FD0F8BD0820F8BD38
:10B8440084F8512000275AE7F8BD0388112B10B55E
:10B854000C460AD0262B1CD0102B28D1C37B012BDD
:10B8640025D18388A1F8A83010BD0022838881F8EF
:10B87400B220B1F8A8209A4219D10B79BBB90121A1
:10B884002046FFF7C8FE90B1A36B83B1BDE810401A
:10B894001847037A013B012B09D889780523013124
:10B8A40091FBF3F303EB8303C91AC9B2E8E710BDB4
:10B8B4000238012810B50C460DD84B785BB1002333
:10B8C4004B7020468978FFF7A6FE20B1A36B13B115
:10B8D400BDE81040184710BD38B5044690F8540030
:10B8E400FFF716FE012384F8B230002384F8B43045
:10B8F40084F8503006212046FFF70CFE054638B97F
:10B90400A1782046FFF787FE10B1A36B03B19847D7
:10B91400284638BD75DF704776DF70477ADF704799
:10B924007BDF7047034B1A8882420CBF1846002005
:10B93400704700BFB82D0020024B9B6903B1184724
:10B94400704700BF9C2D002037B585B22846FFF70D
:10B95400E9FF034670B1164C017A227B91420BD267
:10B9640000F10A012846FFF7D5FFE8B1112801D0FC
:10B97400FFF7E2FF03B030BD237C0022027243B123
:10B984003B212846FFF7C8FF30F0080301D0FFF73A
:10B99400D3FF6369002BEDD000228DF80420ADF8AD
:10B9A400065001A89847E5E71A7A01321A72E1E7CE
:10B9B4009C2D002013B50B46497A0F4C024669B9F9
:10B9C400A06861681C7A002C18BF01465868FBF710
:10B9D4002FFD08B1FFF7B0FF02B010BD00211972AE
:10B9E4006369002BF8D00121ADF806008DF804102E
:10B9F40001A89847F0E700BF9C2D00208388B3F589
:10BA0400FA7F28BF6FF4F97230B528BF9C180588F7
:10BA14004A8838BF002495420CD84088904209D304
:10BA24008A88A24206D303F2F310904234BF002066
:10BA3400012030BD002030BD0388112B70B50146B4
:10BA44002ED002D8102B05D070BD122B51D0502B04
:10BA540035D070BDC37B012B4AD14FF6FF70FFF781
:10BA640061FF054620B90420BDE87040FFF764BFBC
:10BA7400264A8E880680002303721368C5F80A30AC
:10BA84000A30536843601031FFF7B8FF204B6872E7
:10BA9400DB896BBB29463046BDE87040FFF78ABF9F
:10BAA4008088FFF73FFF044610B34068FBF706FDAC
:10BAB40008B1FFF741FF4FF6FF73238070BD144BAD
:10BAC400C288DB899A4213D1038A022B10D186885B
