:100000000000042061020000B9020000BB020000F1
:10001000BD020000BF020000C1020000000000009D
:10002000000000000000000000000000C30200000B
:10003000C502000000000000C7020000C902000065
:10004000CD020000CF020000D1020000D302000068
:10005000D5020000D7020000D9020000DB02000038
:10006000E5170000DF020000E1020000E3020000EB
:10007000E5020000E7020000E9020000EB020000D8
:10008000ED020000EF020000F1020000F3020000A8
:10009000F5020000F7020000F9020000FB02000078
:1000A000FD020000FF020000010300000303000046
:1000B0000503000007030000CB020000CB02000094
:1000C000090300000B0300000D0300000F030000F4
:1000D00011030000130300001503000017030000C4
:1000E000190300001B0300001D030000CB020000E9
:1000F000CB02000021030000CB0200001F03000020
:10010000364937480A1A02D0072291438D463549AD
:1001100035480A1A06D00722914381F30988022242
:1001200082F3148831483249324A00F045F83248A7
:100130003249334A00F040F832483349334A00F03C
:100140003BF833483349344A00F036F833483449F1
:10015000344A00F031F834483449354A00F02CF87C
:1001600034483549354A00F027F8354835490022EA
:1001700000F02DF834483549002200F028F83448C2
:100180003449091A082903DB0022026004300160A7
:10019000314A90471F482049884205D00268043000
:1001A00003B4904703BCF7E700208646EC460020E6
:1001B00000212A4A9047FEE7884207D0521A05D00C
:1001C000037801300B700131013AF9D17047884250
:1001D00002D002700130FAE77047000000000420EE
:1001E00000E003200000042000000420841E000022
:1001F000000000200C000020240300002403000065
:100200002E1C0000841E00000000002000000020C2
:10021000301C0000301C0000301C0000301C0000AE
:10022000301C0000301C0000301C0000301C00009E
:10023000841E0000901E00000C0000200C00002016
:100240000C000020A0000020A0000020A000002042
:10025000A0000020A0200020850200005104000022
:100260000F484FF00701884385460E4880470E48E7
:10027000016841F470010160BFF34F8FBFF36F8FCE
:10028000FFF73EBF09480A490A4A884207D0521A76
:1002900005D0037801300B700131013AF9D1704774
:1002A000000004203518000088ED00E0301C00003C
:1002B0000000002000000020FEE7FEE7FEE7FEE76A
:1002C000FEE7FEE7FEE7FEE7FEE7FEE7FEE7FEE706
:1002D000FEE7FEE7FEE7FEE7FEE7FEE7FEE7FEE7F6
:1002E000FEE7FEE7FEE7FEE7FEE7FEE7FEE7FEE7E6
:1002F000FEE7FEE7FEE7FEE7FEE7FEE7FEE7FEE7D6
:10030000FEE7FEE7FEE7FEE7FEE7FEE7FEE7FEE7C5
:10031000FEE7FEE7FEE7FEE7FEE7FEE7FEE7FEE7B5
:04032000FEE700BF35
:1003240082B001900B46ADF80230BDF80230019A5C
:100334001344184602B0704700B583B001900B46D1
:10034400ADF80230019B1B68BDF802201146184627
:10035400FFF7E6FF0346184603B05DF804FB82B0DE
:1003640003460091ADF8063000BF02B070470000AC
:1003740000B58BB0314A02AB1268114619800233C2
:10038400120C1A7002AB19460C2000F0C3FC099041
:10039400099B0893089B002B04D0294A51210898F3
:1003A40000F0E0F8002300930123264A00212648A8
:1003B40001F0A1F90DF10B03184600F007FE0990B6
:1003C400099B0793079B002B04D01D4A57210798CC
:1003D40000F0C8F84FF4A0711B48FFF7ADFF06907A
:1003E4000C2000F031FD05909DF80B30059A06991C
:1003F400184600F03FFE0990099B0493049B002BD0
:1004040004D00F4A5D21049800F0ACF89DF80B303D
:10041400184600F068FE0990099B0393039B002B88
:1004240004D0074A6021039800F09CF80C2000F0E7
:10043400D9FC00BF0BB05DF804FB00BF981C0000A2
:10044400301C0000400D03000000002000B587B000
:1004540000F034F90590059B0493049B002B04D011
:10046400174A6D21049800F07DF800F001FC059016
:10047400059B0393039B002B04D0114A702103981E
:1004840000F070F80F4A6B4692E8030083E803001B
:100494006B460D4A19460D4800F0CAFF0590059BAE
:1004A4000293029B002B04D0054A7421029800F0A9
:1004B40059F8FFF75DFF054801F0B6F8FEE700BF05
:1004C400301C00009C1C000063030000000000209E
:1004D40086B003900291019201238DF817309DF8A4
:1004E40017301F4A039B13601D4A029B53601C4A2A
:1004F400019B9360039B44F20102934212D044F2A5
:100504000202934221D1019B154AD360144BDB684C
:100514001B881A46124B9A61114BDB685B68104AC0
:10052400D36112E0019B0E4A13610D4B1B699B685A
:100534000B4A53610A4B1B691B68094A9361084BB8
:100544001B695B68064AD36100BF72B600BF9DF8A1
:100554001730DBB2002BFAD162B600BF06B0704789
:100564000C00002000B583B002900091019244F287
:10057400010071466A4600F003F803B000BD00BFF5
:1005840000B587B003900291019272B6039B44F2C6
:100594000102934207D044F20202934200D005E0E4
:1005A400019B059302E0019B049300BF074B1B686A
:1005B40003F00103002B00D000BE019A02990398B6
:1005C400FFF786FF00BF07B05DF804FBF0ED00E025
:1005D40072B6034B1B680133014A136000BF7047B6
:1005E4002C000020054B1B68013B044A1360034B9D
:1005F4001B68002B00D162B600BF70472C0000209E
:1006040000B583B0019000F025F80346012B03D018
:100614000449432000F03BF8FFF7DAFF00BF03B0C2
:100624005DF804FBA41C000000B583B003468DF8FC
:10063400073000F00FF80346012B03D00449512082
:1006440000F025F8FFF7CEFF00BF03B05DF804FB10
:10065400A41C000084B0EFF305830193019BC3F352
:1006640008030393039B002B0DD1EFF31483009332
:10067400009B0293029B03F00103002B0CBF012398
:100684000023DBB200E00123184604B0704700B534
:1006940085B003460091ADF80630BDF80630ADF8DC
:1006A4000830009B039302AB1A46002144F2020077
:1006B400FFF766FF00BF05B05DF804FB054B1B7830
:1006C400002B04D1034B01221A70002300E0852380
:1006D400184670473000002082B003468DF807307A
:1006E4009DF8073003F01F0205499DF907305B09A7
:1006F400012000FA02F241F8232000BF02B0704743
:1007040000E100E082B003468DF807309DF8073021
:1007140003F01F0206499DF907305B09012000FA26
:1007240002F2603341F8232000BF02B0704700BFDB
:1007340000E100E082B0034600918DF807309DF996
:100744000730002B0CDA009BDAB20C499DF8073015
:1007540003F00F03043B5201D2B20B441A7609E0B2
:10076400009BDAB206499DF907305201D2B20B441C
:1007740083F8002300BF02B0704700BF00ED00E023
:1007840000E100E000B583B003460A468DF8073067
:1007940013468DF806309DF80630072B03D9084917
:1007A4006B20FFF774FF9DF806209DF90730114672
:1007B4001846FFF7BFFF00BF03B05DF804FB00BF9E
:1007C400181D000000B583B003468DF807309DF96D
:1007D40007301846FFF796FF9DF907301846FFF7D4
:1007E4007BFF00BF03B05DF804FB82B003468DF8C5
:1007F40007309DF8073003F1804303F5C0431846E2
:1008040002B0704700B585B00346ADF80630BDF8B8
:100814000630184600F011F803461A460023136008
:10082400BDF80630184600F008F803461B68039329
:10083400039B00BF05B05DF804FB82B00346ADF82E
:100844000630BDF8063003F1804303F5C043184673
:1008540002B0704782B00190034A019BC2F804338E
:1008640000BF02B0704700BF0060004084B0019038
:10087400094A019B03F5A27352F8233043F00303A2
:1008840003930549019B03F5A273039A41F82320BE
:1008940000BF04B0704700BF0060004084B0039004
:1008A400029111461A460B468DF8073013468DF80F
:1008B4000630184A039B03F5A27352F823301549F6
:1008C40023F4991323F4F853039A02F5A27241F81E
:1008D4002230104A039B03F5A27352F82320029B93
:1008E4001B0203F47C519DF807301B0403F44033CE
:1008F40019439DF806301B0503F480130B43054987
:100904001A43039B03F5A27341F8232000BF04B0EC
:10091400704700BF0060004000B583B00190019BA8
:100924001B682F2B04D90B4940F2C710FFF7AFFE09
:10093400019B1B681F2B02D84FF0A04306E0019BCC
:100944001B6803F01F02019B1A60034B184603B097
:100954005DF804FB481D00000003005000B585B09D
:100964000190084611461A4603468DF803300B469B
:100974008DF8023013468DF8013001AB1846FFF7AD
:10098400CBFF03909DF803209DF802305B001A43CF
:100994009DF801309B001A439DF818301B0242EA6F
:1009A40003019DF81C301B04019A1943039B02F5B3
:1009B400E07243F8221000BF05B05DF804FB00B5F7
:1009C40085B00390002301930023009300230122A8
:1009D40001210398FFF7C2FF00BF05B05DF804FBD7
:1009E40000B585B0019001AB1846FFF795FF039061
:1009F400019B012202FA03F31946039800F018F848
:100A040000BF05B05DF804FB00B585B0019001ABF3
:100A14001846FFF781FF0390019B012202FA03F3BA
:100A24001946039800F00EF800BF05B05DF804FB0A
:100A340082B001900091019B009AC3F8082500BF81
:100A440002B0704782B001900091019B009AC3F8F4
:100A54000C2500BF02B0704784B001900091009B48
:100A64000393019BDB080293019B03F007030193AB
:100A7400039A029B13441B785AB20121019B01FA89
:100A840003F35BB2134359B2039A029B1344CAB2F1
:100A94001A7000BF04B0704782B00190074A019BEE
:100AA4001344243393F90030B3F1FF3F14BF0123FF
:100AB4000023DBB2184602B0704700BF34000020A8
:100AC40082B001900C4A019B1344243393F9003003
:100AD400002B09DB084A019B1344243393F90030AB
:100AE400072B01DC012300E0002303F00103DBB248
:100AF400184602B0704700BF3400002084B0039051
:100B0400029101928DF80330029B59B20E4A039B65
:100B1400134424330A461A700B49029B019A41F884
:100B240023209DF8033083F00103DBB2002B08D0AF
:100B3400029B083B039A51B2034A13440A4683F8C2
:100B4400542000BF04B070473400002082B00190EC
:100B5400044A019B13442433FE221A7000BF02B0DE
:100B6400704700BF3400002082B00190044A019B0A
:100B740013442433FF221A7000BF02B0704700BF31
:100B84003400002000B583B0019004490198FFF7B8
:100B940063FF00BF03B05DF804FB00BF89000020C1
:100BA40082B00190044A019B1344243393F900302A
:100BB400184602B0704700BF3400002000B589B069
:100BC4000390029113468DF80730FF238DF81F30F0
:100BD4009DF80730002B01D0002300E00823059383
:100BE4009DF80730002B01D0082300E0092304936B
:100BF400059B069314E00F4A069B52F82330B3F189
:100C0400FF3F0AD19DF80730029A06990398FFF72F
:100C140075FF069B8DF81F3006E0069B0133069393
:100C2400069A049B9A42E6D39DF91F30184609B0F0
:100C34005DF804FB3400002082B003468DF80730D1
:100C44009DF80730094A4FF0FF3142F823109DF810
:100C54000730072B07D99DF80730083B034A134494
:100C6400FF2283F8542000BF02B0704734000020F4
:100C740000B583B0254B93F85B30002B03D00823D9
:100C84000093009B3EE000238DF8073009E09DF8B7
:100C940007301846FFF768FF9DF8073001338DF8D9
:100CA40007309DF807302F2BF1D900238DF807303A
:100CB40009E09DF807301846FFF7BEFF9DF807309E
:100CC40001338DF807309DF80730082BF1D906223F
:100CD40000210F4800F076FF07210620FFF752FDA0
:100CE4000620FFF76FFD4FF4BE70FFF78BFD4FF04A
:100CF4000040FFF7AFFD054B012283F85B20002382
:100D04000093009B184603B05DF804FB34000020F8
:100D14008900002000B585B001900091019B2F2B24
:100D240004D92E4940F22D10FFF7B1FC2C4B93F857
:100D34005B30012B04D029494FF49770FFF7A7FCCF
:100D4400009B002B04D1254940F22F10FFF79FFC94
:100D5400002303930198FFF79FFE0346002B02D064
:100D64000823039334E0009B9B78002B19D00122C5
:100D740000210198FFF722FF03468DF80B309DF9FF
:100D84000B30B3F1FF3F09D09DF90B00009B1A789B
:100D9400009B5B780199FFF781FD05E00423039331
:100DA40002E00198FFF7D2FE039B002B10D1009BB9
:100DB4005B78012B03D10198FFF712FE02E0019842
:100DC400FFF722FE0198FFF7FAFD0198FFF7DAFE1C
:100DD400039B184605B05DF804FB00BF781D0000B6
:100DE4003400002000B583B00190019B2F2B04D95F
:100DF400134940F29710FFF74AFC0198FFF74CFEA5
:100E04000346002B04D10E494FF4CC70FFF73FFC8E
:100E14000198FFF755FE0346002B04D1084940F220
:100E24009910FFF734FC074A019B1344243393F9C8
:100E340000301846FFF71AFD00BF03B05DF804FB4D
:100E4400781D00003400002000B585B00190019B9E
:100E54002F2B04D9104940F2AB10FFF718FC01986E
:100E6400FFF72EFE0346002B04D10B494FF4D67036
:100E7400FFF70DFC0198FFF793FE0346DBB29B00DE
:100E84008DF80F309DF80F301846FFF7AEFC03467F
:100E9400184605B05DF804FB781D000082B00346D7
:100EA4008DF807309DF80730044A012101FA03F355
:100EB400C2F8043500BF02B0704700BF00F0014023
:100EC40084B00346029101928DF80F3008499DF8D1
:100ED4000F30A233029A41F83320054A9DF80F30AF
:100EE400A233DB001344019A5A6000BF04B0704778
:100EF40000F0014082B003468DF807309DF80730BA
:100F0400012202FA03F3184602B0704700B583B019
:100F140003468DF807309DF807301846FFF7EAFFBF
:100F24000346C3F31303002B14BF01230023DBB2D6
:100F3400184603B05DF804FB82B001900123184603
:100F440002B0704700B583B003468DF807309DF8B2
:100F540007301846FFF7CEFF03461846FFF7ECFFAD
:100F64000346184603B05DF804FB000000B583B0E7
:100F740003468DF807309DF807301846FFF7BAFF8F
:100F84000246064B1B681340002B14BF01230023A9
:100F9400DBB2184603B05DF804FB00BF90000020EC
:100FA40000B583B003468DF807309DF80730184626
:100FB400FFF7A0FF0246044B1B681343024A136069
:100FC40000BF03B05DF804FB9000002000B587B0BB
:100FD4000190002305930023039304230593244BDA
:100FE400039300238DF8133037E00020FFF708FB4C
:100FF4009DF813301846FFF77DFF0246039B13400C
:10100400002B15D09DF813301846FFF7AFFF0346A9
:1010140083F00103DBB2002B0AD09DF8133018468D
:10102400FFF7BEFF019B9DF813201A700023059360
:101034000020FFF7F9FA059B002B12D09DF813301E
:101044001846FFF757FF0346DB43039A1340039305
:101054009DF8133001338DF81330039B002BC4D15A
:1010640000E000BF059B184607B05DF804FB00BF15
:10107400FFFF0F0000B587B00346029101928DF87F
:101084000F30029B002B02D0019B002B01D10E23B9
:1010940025E0002305939DF80F301846FFF736FF2F
:1010A400034683F00103DBB2002B02D00723059330
:1010B40014E09DF80F301846FFF758FF034683F0FD
:1010C4000103DBB2002B02D00823059306E09DF850
:1010D4000F30019A02991846FFF7F2FE059B184655
:1010E40007B05DF804FB00B585B003468DF8073002
:1010F400002303939DF807301846FFF723FF0346A8
:1011040083F00103DBB2002B02D0072303931AE020
:101114009DF807301846FFF7F9FE0346002B0DD063
:101124009DF807301846FFF721FF034683F00103BB
:10113400DBB2002B02D00823039304E09DF80730B0
:101144001846FFF7ABFE039B184605B05DF804FB99
:1011540082B003468DF807309DF8073003F01F0274
:1011640005499DF907305B09012000FA02F241F8B4
:10117400232000BF02B0704700E100E082B00346C4
:101184008DF807309DF8073003F01F0206499DF9DA
:1011940007305B09012000FA02F2603341F8232092
:1011A40000BF02B0704700BF00E100E082B0034618
:1011B40000918DF807309DF90730002B0CDA009B65
:1011C400DAB20C499DF8073003F00F03043B5201D7
:1011D400D2B20B441A7609E0009BDAB206499DF9B3
:1011E40007305201D2B20B4483F8002300BF02B08F
:1011F400704700BF00ED00E000E100E084B0019022
:10120400019B1B0B8DF80F309DF90F30184604B06D
:101214007047000000B583B003460A468DF80730D6
:1012240013468DF806309DF80630072B03D908497C
:101234006B20FFF72CFA9DF806209DF90730114624
:101244001846FFF7B3FF00BF03B05DF804FB00BF0F
:10125400E81D000000B583B003468DF807309DF902
:1012640007301846FFF78AFF9DF907301846FFF745
:101274006FFF00BF03B05DF804FB82B001900B4622
:101284008DF803309DF80330019A134401221A604B
:1012940000BF02B0704784B001900B46ADF8023035
:1012A400BDF80230019A134400221A60BDF80230DE
:1012B400019A13441B680393039B00BF04B0704757
:1012C40082B001900B46ADF80230BDF80230019AAD
:1012D40013441B68002B14BF01230023DBB2184600
:1012E40002B0704782B001900091019BD3F80022B4
:1012F400009B1A43019BC3F8002200BF02B0704751
:1013040082B001900091019BD3F80022009BDB4343
:101314001A40019BC3F8002200BF02B0704782B09C
:1013240001900091019B009AC3F8042300BF02B00E
:10133400704782B001900091019B009AC3F8082382
:1013440000BF02B0704782B001900091019BD3F8B6
:101354000423009B1340002B14BF01230023DBB2A2
:10136400184602B0704782B001900B468DF80330E6
:10137400019BD3F8043523F003029DF8033003F0F6
:1013840003031A43019BC3F8042500BF02B070474E
:1013940082B001900B468DF80330019BD3F80835D9
:1013A40023F003029DF8033003F003031A43019B67
:1013B400C3F8082500BF02B0704782B001900B4605
:1013C4008DF80330019BD3F8103523F00F029DF8FC
:1013D400033003F00F031A43019BC3F8102500BF29
:1013E40002B0704784B003900B4601928DF80B3025
:1013F4009DF80B20039B02F5A872019943F8221073
:1014040000BF04B0704782B00190019B9BB250337F
:101414009BB29B009BB2184602B0704782B0019009
:101424004FF48032019B02FA03F3184602B070476E
:1014340010B588B0039002910192039B1B791A4660
:1014440013465B0013449B00704A13440693029BAB
:10145400002B03D16E494A20FFF719F9019B002B99
:1014640003D16B494B20FFF712F9069B1B7A002B23
:1014740003D008230593059BC4E0039B1B68654ABE
:1014840093420FD1029B9B78012B64D0029B9B78E3
:10149400002B60D0029B9B78022B5CD0029B9B7834
:1014A400032B58D0039B1B685B4A93420FD1029BCA
:1014B4009B78012B4FD0029B9B78002B4BD0029B37
:1014C4009B78022B47D0029B9B78032B43D0039B32
:1014D4001B68524A93420FD1029B9B78012B3AD04E
:1014E400029B9B78002B36D0029B9B78022B32D038
:1014F400029B9B78032B2ED0039B1B68484A934284
:101504000FD1029B9B78012B25D0029B9B78002B4B
:1015140021D0029B9B78022B1DD0029B9B78032B2E
:1015240019D0039B1B683F4A93420FD1029B9B78BF
:10153400012B10D0029B9B78002B0CD0029B9B7834
:10154400022B08D0029B9B78032B04D030495F20E8
:10155400FFF79DF800E000BF069B019A1A60029B0A
:101564005A68069B5A6000238DF81F3010E0039BD5
:101574001C689DF81F301846FFF745FF03461946BF
:101584002046FFF788FE9DF81F3001338DF81F3089
:10159400039B5B799DF81F209A42E8D3039B1B6849
:1015A4001846FFF72BFE03461A46029BDB781946C2
:1015B4001046FFF72FFE039B1B681846FFF71EFE1D
:1015C40003461846FFF746FE039B1A68029B5B78A6
:1015D40019461046FFF7C7FE039B1A68029B9B78C7
:1015E40019461046FFF7D4FE039B1A68029B1B782A
:1015F40019461046FFF7E1FE069B01221A720023EA
:101604000593059B184608B010BD00BF9400002048
:10161400181E0000008000400090004000A0004020
:1016240000A0014000B0014000B583B00190019BCF
:101634001B791946114A0B465B000B449B0013446B
:1016440008331B78012B03D00D498F20FFF71FF8B7
:10165400019B1B6800211846FFF70FFE019B1B79B5
:101664001946064A0B465B000B449B00134408339F
:1016740002221A7000BF03B05DF804FB940000203E
:10168400181E000010B586B0039001921A460B464E
:101694008DF80B3013468DF80A309DF80B30184640
:1016A400FFF7BCFE05909DF80A30002B12D0039B77
:1016B4001C689DF80B301846FFF7A5FE0346194633
:1016C4002046FFF7E8FD039B1B6805991846FFF7C2
:1016D40026FE05E0039B1B6805991846FFF729FEC3
:1016E400039B1B689DF80B10019A1846FFF77AFEBE
:1016F40000BF06B010BD00B585B0039001921A4634
:101704000B468DF80B301346ADF80830039B186870
:101714009DF80B304FF480729A409DF80B300121F4
:1017240001FA03F313431946FFF7EAFD039B1B6811
:10173400BDF8082011461846FFF7D4FD9DF818306F
:101744009DF80B10019A0398FFF79CFF00BF05B0AA
:101754005DF804FB00B587B00390029113468DF841
:10176400073000238DF8173030E09DF81730184605
:10177400FFF749FE0346ADF814309DF817301846BC
:10178400FFF74CFE0490BDF8143019460398FFF798
:1017940097FD0346002B14D004990398FFF7D3FD5B
:1017A4000346002B0DD0BDF8143019460398FFF7FB
:1017B40072FD029B1B68029A5168BDF81420104602
:1017C40098479DF8173001338DF817309DF817208E
:1017D4009DF807309A42C8D300BF07B05DF804FBF8
:1017E40008B5042202490348FFF7B4FF00BF08BD4F
:1017F4009400002000800040BFF34F8F054BDB684E
:1018040003F4E0620349044B1343CB60BFF34F8FEF
:1018140000BFFDE700ED00E00400FA05024B034AB7
:101824001A6000BF704700BF080000200090D0037A
:1018340008B500F025F90346002B0ED04FF0804385
:101844000022C3F80C214FF080430022C3F810217A
:101854004FF080430022C3F8382500F02FF90346E7
:10186400002B76D04FF080537C4AD3F80434C2F86E
:1018740020354FF08053794AD3F80834C2F8243520
:101884004FF08053754AD3F80C34C2F828354FF022
:101894008053724AD3F81034C2F82C354FF0805379
:1018A4006E4AD3F81434C2F830354FF080536B4A83
:1018B400D3F81834C2F834354FF08053674AD3F85C
:1018C4001C34C2F840354FF08053644AD3F82034B6
:1018D400C2F844354FF08053604AD3F82434C2F838
:1018E40048354FF080535D4AD3F82834C2F84C355C
:1018F4004FF08053594AD3F82C34C2F850354FF086
:101904008053564AD3F83034C2F854354FF08053DC
:10191400524AD3F83434C2F860354FF080534F4AFA
:10192400D3F83834C2F864354FF080534B4AD3F8B7
:101934003C34C2F868354FF08053484AD3F84034F9
:10194400C2F86C354FF08053444AD3F84434C2F89B
:10195400703500F0D1F80346002B02D0404B414AC9
:101964001A6000F0DBF80346002B03D03E4BFB2249
:10197400C3F8182500F0E4F80346002B0AD03B4BCB
:101984001B6823F00F023A4B1B6803F00F0337491F
:1019940013430B6000F0E6F80346002B03D0354BED
:1019A4004FF400721A6000F0EFF80346002B0DD0DC
:1019B4004FF08043D3F8003403F00103002B05D02B
:1019C4004FF080436FF00102C3F800242A4BD3F890
:1019D4008830294A43F47003C2F88830BFF34F8F2C
:1019E400BFF36F8F4FF01023D3F80032002B05DBC9
:1019F4004FF01023D3F80432002B2BDA1F4B0122B3
:101A0400C3F8042500BF1D4BD3F80034002BFAD0D3
:101A14004FF010231222C3F8002200BF174BD3F853
:101A24000034002BFAD04FF010231222C3F8042202
:101A340000BF124BD3F80034002BFAD00F4B002216
:101A4400C3F8042500BF0D4BD3F80034002BFAD0A3
:101A5400FFF7D2FEFFF7E2FE00BF08BD00C0004062
:101A64008C5600404881030000F00040E40E004022
:101A7400580200104096024000ED00E000E00140F2
:101A84000C4B1B68082B11D10B4B1B68002B01D18D
:101A940001230CE0084B1B68012B01D1012306E054
:101AA400054B1B68022B01D1012300E001231846DA
:101AB400704700BF30010010340100100C4B1B684C
:101AC400082B11D10B4B1B68002B01D101230CE017
:101AD400084B1B68012B01D1012306E0054B1B6851
:101AE400022B01D1012300E001231846704700BFF7
:101AF4003001001034010010064B1B68082B05D17F
:101B0400054B1B68002B01D1012300E0002318467C
:101B1400704700BF3001001034010010064B1B68F1
:101B2400082B05D1054B1B68002B01D1012300E0D4
:101B340000231846704700BF300100103401001024
:101B4400064B1B68082B05D1054B1B68002B01D1E4
:101B5400012300E000231846704700BF3001001045
:101B640034010010064B1B68082B05D1054B1B687C
:101B7400002B01D1012300E000231846704700BF69
:101B840030010010340100100C4B1B68082B11D1DC
:101B94000B4B1B68002B01D101230CE0084B1B6885
:101BA400012B01D1012306E0054B1B68022B01D157
:101BB400012300E001231846704700BF30010010E4
:101BC400340100108446002A2DD010F0030F04D0F5
:101BD40000F8011B013A26D0F7E7C9B241EA012116
:101BE40041EA0141202A12D3A2F120022DE9F00397
:101BF4000B460C460D460E460F4688468946A0E81D
:101C0400FA03203AFBD2BDE8F00320320BD0042AB9
:101C140005D340F8041B043A05D0042AF9D200F88D
:0A1C2400011B013AFBD16046704736
:101C30002F55736572732F7368696E72612F446FCD
:101C400063756D656E74732F434849432F4348494C
:101C5000432D706F63732F5069657272652F6E52DA
:101C600046355F53444B5F31352E302E305F613542
:101C700033363431612F6578616D706C65732F7008
:101C800065726970686572616C2F6770696F7465E1
:101C90002F6D61696E2E63000300010004000307CD
:101CA000000000002F55736572732F7368696E72A0
:101CB000612F446F63756D656E74732F434849439C
:101CC0002F434849432D706F63732F5069657272BB
:101CD000652F6E5246355F53444B5F31352E302EA3
:101CE000305F613533363431612F636F6D706F6EE5
:101CF000656E74732F6C69627261726965732F759A
:101D000074696C2F6170705F7574696C5F706C6161
:101D100074666F726D2E63002E2E2F2E2E2F2E2E98
:101D20002F2E2E2F2E2E2F2E2E2F696E746567725A
:101D30006174696F6E2F6E7266782F6E7266785F4F
:101D4000676C75652E6800002E2E2F2E2E2F2E2EDE
:101D50002F2E2E2F2E2E2F2E2E2F6D6F64756C652D
:101D6000732F6E7266782F68616C2F6E72665F6774
:101D700070696F2E680000002F55736572732F73A2
:101D800068696E72612F446F63756D656E74732F31
:101D9000434849432F434849432D706F63732F5085
:101DA00069657272652F6E5246355F53444B5F31E1
:101DB000352E302E305F613533363431612F6D6F03
:101DC00064756C65732F6E7266782F6472697665C0
:101DD00072732F7372632F6E7266785F6770696FAC
:101DE00074652E63000000002E2E2F2E2E2F2E2E17
:101DF0002F2E2E2F2E2E2F2E2E2F696E746567728A
:101E00006174696F6E2F6E7266782F6E7266785F7E
:101E1000676C75652E6800002F55736572732F739C
:101E200068696E72612F446F63756D656E74732F90
:101E3000434849432F434849432D706F63732F50E4
:101E400069657272652F6E5246355F53444B5F3140
:101E5000352E302E305F613533363431612F6D6F62
:101E600064756C65732F6E7266782F64726976651F
:101E700072732F7372632F6E7266785F74696D650B
:041E8000722E63005B
:0C1E840000800040000400000090D0032B
:040000030000026196
:00000001FF
