:100000000000042061020000B9020000BB020000F1
:10001000BD020000BF020000C1020000000000009D
:10002000000000000000000000000000C30200000B
:10003000C502000000000000C7020000C902000065
:10004000CD020000CF0200006D080000D3020000C6
:10005000D5020000D7020000D9020000DB02000038
:10006000DD020000DF020000E1020000E302000008
:10007000E5020000E7020000E9020000EB020000D8
:10008000ED020000EF020000F1020000F3020000A8
:10009000F5020000F7020000F9020000FB02000078
:1000A000FD020000FF020000010300000303000046
:1000B0000503000007030000CB020000CB02000094
:1000C000090300000B0300000D0300000F030000F4
:1000D00011030000130300001503000017030000C4
:1000E000190300001B0300001D030000CB020000E9
:1000F000CB02000021030000CB0200001F03000020
:10010000364937480A1A02D0072291438D463549AD
:1001100035480A1A06D00722914381F30988022242
:1001200082F3148831483249324A00F045F83248A7
:100130003249334A00F040F832483349334A00F03C
:100140003BF833483349344A00F036F833483449F1
:10015000344A00F031F834483449354A00F02CF87C
:1001600034483549354A00F027F8354835490022EA
:1001700000F02DF834483549002200F028F83448C2
:100180003449091A082903DB0022026004300160A7
:10019000314A90471F482049884205D00268043000
:1001A00003B4904703BCF7E700208646EC460020E6
:1001B00000212A4A9047FEE7884207D0521A05D00C
:1001C000037801300B700131013AF9D17047884250
:1001D00002D002700130FAE77047000000000420EE
:1001E00000E003200000042000000420081D00009F
:1001F0000000002018000020240300002403000059
:10020000781C0000081D00000000002000000020F5
:10021000781C0000781C0000781C0000781C00008E
:10022000781C0000781C0000781C0000781C00007E
:10023000081D0000201D00001800002018000020EC
:1002400018000020B8020020B8020020B8020020E8
:10025000B8020020B8220020850200003D03000003
:100260000F484FF00701884385460E4880470E48E7
:10027000016841F470010160BFF34F8FBFF36F8FCE
:10028000FFF73EBF09480A490A4A884207D0521A76
:1002900005D0037801300B700131013AF9D1704774
:1002A000000004207912000088ED00E0781C0000B6
:1002B0000000002000000020FEE7FEE7FEE7FEE76A
:1002C000FEE7FEE7FEE7FEE7FEE7FEE7FEE7FEE706
:1002D000FEE7FEE7FEE7FEE7FEE7FEE7FEE7FEE7F6
:1002E000FEE7FEE7FEE7FEE7FEE7FEE7FEE7FEE7E6
:1002F000FEE7FEE7FEE7FEE7FEE7FEE7FEE7FEE7D6
:10030000FEE7FEE7FEE7FEE7FEE7FEE7FEE7FEE7C5
:10031000FEE7FEE7FEE7FEE7FEE7FEE7FEE7FEE7B5
:04032000FEE700BF35
:10032400704770470378022B02D1406800F0A0B8F0
:10033400012BFAD07047000030B51A4D8BB0012064
:1003440000F060F80FCD04AC0FC495E80300164B21
:10035400164A00934FF4807384E8030001930292D9
:100364000393134A0723694604A800F057F908B118
:1003740000F07EF80F4801F08FF8684600F0A6F907
:100384000028FAD19DF8000000F0B6F90028F9D150
:100394009DF8003003F0DF03512BEED1064801F045
:1003A4007BF8FEE7781C00001800002018010020EC
:1003B40029030000901C0000AA1C0000074B1B5CD2
:1003C4001F2B86BF03F01F0305494FF0A0410122F4
:1003D40002FA03F3C1F80835704700BFB91C0000E6
:1003E4000003005008B50020FFF7E8FF0120FFF7E5
:1003F400E5FF0220FFF7E2FF0320BDE80840FFF716
:10040400DDBF0000C20770B5044614D5154D164E65
:1004140000220320535D1F2B86BF03F01F033146C8
:100424004FF0A04103F5E0730132042A41F82300A0
:10043400F0D1FFF7D7FFA30712D50C4C0A4D0022C9
:100444000C20135D1F2B86BF03F01F0329464FF0BA
:10045400A04103F5E0730132042A41F82300F0D1EE
:1004640070BD00BFB91C000000030050B51C0000A3
:100474001FB50021039001AA44F2010001910291E9
:1004840000F004F805B05DF804FB000072B6094BF7
:100494001B68DB0700D500BEBFF34F8F0649074B2F
:1004A400CA6802F4E0621343CB60BFF34F8F00BF0E
:1004B400FDE700BFF0ED00E000ED00E00400FA0508
:1004C40049B152B1531E1A4007D182600160838042
:1004D400C260104670470E2070470920704710B55F
:1004E4008468C2688388121B934208D3C26813408D
:1004F4000268D154C3680133C360002010BD0420D6
:1005040010BD8268C3689A420AD082688388134007
:100514000268D35C0B7083680133836000207047EA
:10052400052070470648074A03780749D35C01222F
:1005340013B1043000F020BE0C3000F0D7BB00BF74
:100544000000002058020020400200200648074A0C
:1005540003780749D35C012213B1043000F0BABD1B
:100564000C3000F06BBB00BF0000002058020020DC
:100574004102002037B50578012D04D035D3022D72
:1005840028D003B030BD43681F4C19782046FFF7CC
:10059400A6FF78B11D4B01908DF800501B6868468A
:1005A4009847A168E368A2885B1A9A420ED3FFF7C2
:1005B400B9FFE6E7A268E3689A42F2D002AB134AB5
:1005C40003F8080D126818469047EAE7104B012219
:1005D4001A70D6E7C36801938DF80050FFF7A2FFA5
:1005E4000A4B1B6868469847CBE70A490A48FFF755
:1005F40088FF10B9FFF7AAFFC3E702A8032300F896
:10060400083D024B1B68EEE71C0200201802002084
:100614002C0200204102002030020020F0B51F46C9
:10062400234B89B006461A600C4600293DD08A88BF
:1006340020480968FFF744FF002834D1A289A16843
:100644001D48FFF73DFF00282DD11C4D0FCD6C46F2
:100654000FC495E80F0084E80F0073690693337C98
:10066400174A18488DF81C70003318BF01238DF801
:100674001430737C002B14BF0E2300238DF8153027
:10068400F3680293B368039333680193694673680C
:10069400009300F0ABF830B90B4B1870336801339A
:1006A40001D0FFF73FFF09B0F0BD0720FBE700BF13
:1006B400180200201C02002030020020C01C000090
:1006C40079050000000000202C02002070B5084CC1
:1006D400014608482678FFF714FF054636B1002383
:1006E4002370FFF71FFF08B1FFF7C2FE284670BD55
:1006F4002C0200201C02002010B501460E48FFF712
:10070400EEFE0446A8B90D480D4A0378D35C63B1E4
:10071400043000F025FD60B90A490748FFF7F1FEEF
:1007240038B9BDE81040FFF711BF0C3000F0D2FA21
:10073400F1E7204610BD00BF300200200000002079
:10074400580200204102002072B6024A13680133A5
:100754001360704744020020034A1368013B13608E
:1007640003B962B6704700BF44020020FFF7ECBF34
:10077400FFF7F2BF10B50446C0B2FFF7BDFF204635
:1007840010BD00001FB503788DF800304368019355
:10079400037A8DF80830C3680393054A054B68460D
:1007A40053F8213052F82110984705B05DF804FB46
:1007B40048020020500200201FB503788DF8003055
:1007C4004368019383688DF80830C3680393054A2E
:1007D400054B684653F8213052F82110984705B06C
:1007E4005DF804FB4802002050020020F0B5194BCC
:1007F4000678DFF870C043F82620174B96460A693E
:1008040043F826204B7F0CF806300C4607460FCCE5
:1008140089B06D460FC594E80F0085E80F001CF8F9
:100824000630049653B1BEF1000F0C4A694608BF66
:100834000022381D00F06AFB09B0F0BDBEF1000FC4
:10084400074A694608BF002207F10C0000F01AF9B4
:10085400F2E700BF50020020480200208907000090
:10086400BD07000058020020014B1B68184700BF59
:100874005C02002038B50A4B98420D460CD100208A
:10088400FFF774FF074B1C7914B901221D601A711C
:100894000020FFF76DFF0CB9002038BD112038BDD2
:1008A400002000405C0200200023435082B04358E3
:1008B4000193019B02B070470A4610B54FF48E7144
:1008C400FFF7F2FF136A9168C95C136A013313627C
:1008D400C0F81C1510BD024608B54FF492710068AB
:1008E400FFF7E2FF4FF484711068FFF7DDFF136830
:1008F40001221A6008BD8B690A4610B54FF4847151
:1009040023B9FFF7D1FFD0F8183510BDFFF7CCFF9E
:10091400536AD168D0F81805C854536A0133536236
:1009240010BD00001FB501238DF80030044B029068
:100934000191684693E80600904705B05DF804FB12
:100944006402002030B54D4AD2F8043313F4007F1A
:1009540085B015464FD0D2F82431002B4BD04FF43C
:1009640092711046FFF7A0FF4FF40173C2F80833E9
:10097400434B93F8291009B9012151603F490222E0
:100984008DF80020D1F88024C1F8802403929A695C
:100994000292DA68019200229A61DA61684693E869
:1009A400060090473548D0F81C315BB134490A6AD7
:1009B4004B699A420A464CD291F82830002B48D110
:1009C400FFF77AFF2D4AD2F8443193B14FF4A27164
:1009D4001046FFF769FF2A4B93F8291009B101214A
:1009E40011609A692AB100229A61586AD968FFF79E
:1009F40099FF05B030BDD5F804335B07D2D5D5F8DF
:100A04000831002BCED01E4C1C482146FFF773FF43
:100A1400636AA2699A422346C4D1E26952B1236946
:100A2400E168E3600023606AA261E3616362FFF747
:100A340079FFB7E794F829200AB901226A600F4ABE
:100A44004FF40171C2F8081300229A61586AD968F8
:100A5400EDE74FF48E710948FFF726FF516900292D
:100A6400B0D00023029191688DF800300191536158
:100A7400684692E80A009847A4E700BF00200040B7
:100A8400640200202DE9F843674B047991462C2237
:100A940002FB0432064692F82A200D469846002AA4
:100AA40040F0BE8061490068FFF7E4FE0746002875
:100AB40040F0B88029684A1C10D01F2987BF01F074
:100AC4001F035B4A0B464FF0A0420120984003F5F8
:100AD400E073C2F80805032042F823006868431C49
:100AE4000DD01F288BBF00F01F030346504A4FF060
:100AF400A04203F5E0734FF0000E42F823E03368A0
:100B0400AA6995F814E0C3F824256A7DBEF1010FA3
:100B14004EEA0202C3F86C25C3F81405C3F80C1599
:100B24002BD1A968481C0DD01F298BBF01F01F02CF
:100B34000A463F484FF0A04002F5E0724FF0000E25
:100B440040F822E0E868421C13D01F2887BF00F059
:100B54001F0E374A86464FF0A0424FF0010C0CFAA4
:100B64000EFC0EF5E07EC2F808C54FF0030C42F807
:100B74002EC0C3F80805C3F810152C23634308EBF3
:100B84000302C2F804902A6948F80320B9F1000F5F
:100B940033D04FF48E7130682D7FFFF785FE3068B7
:100BA4004FF4A271FFF780FE3268224BC2F804337F
:100BB400120B53B2002BA8BF03F160404FEA53134A
:100BC4004FEA4511BABF1C4802F00F0500F5614019
:100BD4004FEA8303B4BFC9B2C9B203F16043B4BFDF
:100BE400415580F8001303F5614302F01F0201210F
:100BF40001FA02F2C3F880211A6033680422C3F8B0
:100C040000252C2303FB048300229A61DA6183F814
:100C140029205A61012283F82A203846BDE8F88346
:100C24000827FAE71127F8E76402002049090000C1
:100C3400000300508000020014ED00E02DE9F843A9
:100C4400234F06794FF02C0909FB06748046656929
:100C5400002D37D16261A16025624FF48E71006866
:100C640084F82850FFF720FED8F8000001238360A1
:100C74002146FFF721FE6368A14633BBD8F8005034
:100C8400226A63699A4212D3D8F80030D3F81C213F
:100C9400002AFBD00122DA6000202C2303FB067615
:100CA40000237361BDE8F88394F8283043B9D5F87C
:100CB4001C31002BF8D049462846FFF7FDFDDFE73D
:100CC4000F20EAE71120BDE8F8832846BDE8F88341
:100CD400640200200379044A2C2101FB0323586990
:100CE400003018BF01207047640200202DE9F8434A
:100CF4003D4D07792C2303FB075306465C6824B15A
:100D040003684FF40170C3F808032C2303FB075353
:100D1400986940B3D869002862D024B133684FF48D
:100D24000172C3F804231120BDE8F883002A44D1DA
:100D3400002C42D14146FFF7DEFDD9F82430D9F822
:100D440018209A422DD8224637E05A6045E033688D
:100D54004FF40172C3F804233FE00320BDE8F88395
:100D64000F20BDE8F8839A61D9605862D8612C24B9
:100D740004FB075393F829301BB910B93046FFF729
:100D8400AAFD04FB07535B68002BE0D14FF4A2716A
:100D94003068FFF789FD4FF02C0907FB045809FB65
:100DA40007593068D0F82421D0F80831D0F84441EC
:100DB400002BBBD10CB9002AF3D02C2303FB07551D
:100DC4000023AB61002AC8D1002CC9D195F82910A1
:100DD400336801220029B8D01A600020BDE8F883E6
:100DE4001961DA610120C2E7640200200023435044
:100DF40082B043580193019B02B070471FB5012391
:100E04008DF80030054B8DF808000191684693E891
:100E14000600904705B05DF804FB00BF9002002077
:100E24007FB5384AD2F82461002E49D010464FF4D9
:100E34009271FFF7DBFF02238DF80030D2F8803483
:100E4400C2F880340393D2F83C358DF808302E4B29
:100E5400DA68019200229A61DA61684693E8060032
:100E64009047284AD2F8443173B14FF4A271104626
:100E7400FFF7BCFF244B996931B100219961D2F885
:100E84003C05D968FFF7BAFF1E4AD2F82031ABB14E
:100E94004FF490711046FFF7A9FF1B4B596969B1D4
:100EA400D2F84C158DF80810002299688DF80020AE
:100EB40001915A61684693E80600904704B070BDFA
:100EC400D2F81031002BCCD04FF488711046FFF7C4
:100ED4008DFF0D4BD2F83C0599698842C1D1DC697C
:100EE4006CB1D2F80052D96825F02005C2F800523E
:100EF4001A699C61DA60DE61FFF780FFB1E79C61EB
:100F0400D968F9E700200040900200202DE9F84359
:100F14006B4B06799146242202FB0632044692F872
:100F240020200D469846002A40F0C6806549006896
:100F3400FFF7A0FC0746002840F0C0802868421C48
:100F440010D01F2887BF00F01F035F4A03464FF0ED
:100F5400A0420121994003F5E073C2F8081503216A
:100F640042F8231069684B1C0DD01F298BBF01F078
:100F74001F030B46544A4FF0A04203F5E0734FF0B1
:100F8400000E42F823E02368AA6995F814E0C3F838
:100F940024256A7DBEF1010F4EEA0202C3F86C25D6
:100FA400C3F80C05C3F814152BD1A968481C0DD03F
:100FB4001F298BBF01F01F020A4643484FF0A0408F
:100FC40002F5E0724FF0000E40F822E0E868421C9F
:100FD40013D01F2887BF00F01F0E3B4A86464FF0F0
:100FE400A0424FF0010C0CFA0EFC0EF5E07EC2F8A4
:100FF40008C54FF0030C42F82EC0C3F80805C3F827
:1010040010152423734308EB0302C2F804902A69E1
:1010140048F80320B9F1000F3DD04FF488712068DF
:101024002D7FFFF7E3FE4FF490712068FFF7DEFE9B
:101034004FF492712068FFF7D9FE20684FF4A27133
:10104400FFF7D4FE2268214BC2F80433120B53B2CB
:10105400002BA8BF03F160404FEA53134FEA451138
:10106400BABF1B4802F00F0500F561404FEA830345
:10107400B4BFC9B2C9B203F16043B4BF415580F8EB
:10108400001303F5614302F01F02012101FA02F289
:10109400C3F880211A6023680822C3F8002524239A
:1010A40003FB068300229A61DA615A61012283F804
:1010B40020203846BDE8F8830827FAE71127F8E727
:1010C40090020020250E00000003005010030200CF
:1010D40014ED00E001F06043B3F1005F2DE9F0414D
:1010E400074632D11D4B0679242505FB0635984663
:1010F4006C696CBB6A61A96000684FF49071FFF77A
:1011040075FE4FF4AC713868FFF770FE3B686A698E
:10111400A968C3F84415C3F8482501229A606A688F
:10112400CAB9D3F82011D3F8582149B9002AF8D004
:101134000F20242303FB068600237361BDE8F0819E
:10114400002A14BF0F200020F3E71020BDE8F0812F
:101154001120BDE8F0812046BDE8F0819002002016
:101164000379044A242101FB03235869003018BF82
:101174000120704790020020F8B501F06043B3F1FC
:10118400005F04460F4628D10379314E242101FB28
:101194000361486820B121684FF40475C1F808530D
:1011A400242101FB03639D69CDB1D96900294AD08B
:1011B40020B123684FF40472C3F804231120F8BD4E
:1011C400D3F8002242F02002C3F800221DE04FF4BD
:1011D4000472C3F804230020F8BD1020F8BD9A61FE
:1011E400DF60DD614FF488712068FFF7FFFD4FF485
:1011F400A2712068FFF7FAFD2368C3F83475C3F8B9
:101204003825002DDCD101221A602279242101FB2A
:10121400026149680029DAD1D3F81041D3F84411A6
:10122400D3F8240114B909B90028F5D0242303FB09
:1012340002660023984214BF032018469942B36102
:1012440018BF0F20F8BD1F61DA610125CAE700BF8E
:1012540090020020054B1B68082B01BF044B186843
:10126400B0FA80F0400918BF002070473001001028
:101274003401001008B54FF080430022C3F80C215C
:10128400C3F81021C3F838254FF0805203F54043CA
:10129400D2F80414C3F82015D2F80814C3F824159E
:1012A400D2F80C14C3F82815D2F81014C3F82C156E
:1012B400D2F81414C3F83015D2F81814C3F834153E
:1012C400D2F81C14C3F84015D2F82014C3F84415FE
:1012D400D2F82414C3F84815D2F82814C3F84C15CE
:1012E400D2F82C14C3F85015D2F83014C3F854159E
:1012F400D2F83414C3F86015D2F83814C3F864155E
:10130400D2F83C14C3F86815D2F84014C3F86C152D
:10131400D2F84424C3F87025FFF79CFF10B1384B72
:10132400384A1A60FFF796FF18B1374BFB22C3F80F
:101334001825FFF78FFF48B13449354B0A681B68FD
:1013440022F00F0203F00F0313430B60FFF782FF39
:1013540018B1304B4FF400721A604FF08043D3F849
:101364000024D20744BF6FF00102C3F800242A4AC4
:10137400D2F8883043F47003C2F88830BFF34F8F3B
:10138400BFF36F8F4FF01023D3F80022002A03DB42
:10139400D3F80432002B2FDA204B0122C3F80425A2
:1013A400D3F80024002AFBD04FF010221221C2F8F7
:1013B4000012D3F80024002AFBD04FF0102312228D
:1013C400C3F80422154B1A46D3F800140029FBD0A5
:1013D4000021C3F80415D2F80034002BFBD0BFF36E
:1013E4004F8F0D490E4BCA6802F4E0621343CB6081
:1013F400BFF34F8F00BFFDE70A4B0B4A1A6008BDCD
:101404008C5600404881030000F00040E40E004088
:10141400580200104096024000ED00E000E0014058
:101424000400FA05140000200090D00338B50446E7
:101434000846A16841B1236862685D1C954208BFF3
:101444000020934208D2C854E3682BB12168626833
:10145400914201D22146984723680133236038BD65
:1014640070B54C1E09D41646C5B229463046FFF75E
:10147400DDFF013CB4F1FF3FF7D170BD10F0100F58
:1014840009D108B500F40070002814BF30202020D2
:10149400FFF7E6FF08BD70470FB410B586B008AB80
:1014A40053F8044B0593002303936FF00043029316
:1014B400084B0493FEF734FF059A214601A800F077
:1014C4004BF80446FEF72DFF204606B0BDE8104059
:1014D40004B070477907000003784BB151B101445F
:1014E400034613F8012F0AB18B42FAD1181A704738
:1014F4000346FBE70346F9E700F1010110F0030F8F
:1015040011D010F8012B002A23D010F0030F0AD0B9
:1015140010F8012B002A1CD010F0030F03D010F890
:10152400012B002A15D02DE970004FF001324FF045
:10153400803350F8044BA4EB020525EA04051D4052
:1015440000D1F6E7A0F1040070BC10F8012B002ACA
:10155400FBD1A0EB010070472DE9F04F89B007469D
:101564008846039200230360DFF818A653E300259E
:1015740002E045F040051446224612F8010BA0F1A2
:1015840020033E2B00F2948001A151F823F000BF08
:1015940077150000B5160000B5160000911600007E
:1015A400B5160000B5160000B51600009716000029
:1015B400B5160000B5160000B5160000A31600000D
:1015C400B5160000A9160000B5160000B5160000F7
:1015D400AF160000B5160000B5160000B5160000E1
:1015E400B5160000B5160000B5160000B5160000CB
:1015F400B5160000B5160000B5160000B5160000BB
:10160400B5160000B5160000B5160000B5160000AA
:10161400B5160000B5160000B5160000B51600009A
:10162400B5160000B5160000B5160000B51600008A
:10163400B5160000B5160000B5160000B51600007A
:10164400B5160000B5160000B5160000B51600006A
:10165400B5160000B5160000B5160000B51600005A
:10166400B5160000B5160000B5160000B51600004A
:10167400B5160000B5160000B5160000B51600003A
:10168400B5160000B51600009D16000045F0800553
:1016940071E745F400456EE745F480556BE745F086
:1016A400200568E745F0100565E745F4007562E735
:1016B4002A2827D0A0F13003DBB2092B88BF0023EE
:1016C4000CD8002303EB8303303800EB430312F8F8
:1016D400010BA0F13001C9B20929F3D923EAE3745B
:1016E4002E281BD0002174283FD07A283DD06C28A6
:1016F40000F0BC804C2800F0BF80682800F0CC804B
:10170400904635E0039B191D03911B68002BBCBF59
:101714005B4245F010051078A21CDFE7561C1078D8
:101724002A2819D0A0F13003DBB2092B88BF00218D
:101734000ED8002101EB8101303800EB410116F88D
:10174400010BA0F13003DBB2092BF3D900290ADB2A
:1017540045F480753246C6E7039B191D0391196849
:10176400961C5078F2E73246BDE702F10108107882
:10177400782800F28480DFE810F06D028200820095
:101784008200820082008200820082008200820045
:101794008200820082008200820082008200820035
:1017A4008200820082008200820082008200820025
:1017B4008200820082008200820082008200820015
:1017C400820082009D0082008200820082008200EA
:1017D40082008200820082008200820082008200F5
:1017E40082008200820082008200820082008200E5
:1017F40082008200820082008200820082008200D5
:1018040082008200820082008200820082008200C4
:1018140082008200820082008200820082008200B4
:101824008200820082008200820003018200820022
:101834008200820082008200820082008200820094
:10184400A2004001820082008200820040018200E6
:10185400820082008200BB002D01EC008200820025
:10186400C7008200390182008200050102F10108EB
:10187400107845F001057BE745F001059046BD4B26
:101884001E68002E00F0C78103AB0193009123462C
:101894002A463946B047BEE11078682804D002F1E0
:1018A400010845F0040563E745F0080502F1020864
:1018B40050785DE725213846FFF7B8FDABE1039B7F
:1018C4001A1D03921E78013C3A4621462846FFF72A
:1018D400D5FD31463846FFF7A9FDA94619F0100F8A
:1018E40000F099813A4621462020FFF7B9FD92E1A4
:1018F40015F0080F039B03F1040203921B683A6876
:1019040014BF1A701A6086E1039B1A1D03921868AB
:10191400994B002808BF1846064625F4007915F4AB
:10192400807F12D0FFF7D8FD0546641B3A46214656
:101934004846FFF7A3FD002DD0D016F8011B38460A
:10194400FFF774FD013DF8D1C8E7FFF7D5FD054663
:10195400EBE7039B1A1D03921A6805F08003002B22
:101964000CBF0026232645F480750821002A00F0C8
:101974002E8105AB4FF0000905F400508C46D4E0ED
:1019840045F4005515F0800F22D043F2580343F27A
:101994007806782818BF1E4615F4807F01D025F4F8
:1019A400007515F4804F36D0039B1A1D03921A68F4
:1019B40015F0040F27D012B2002A29DB15F0200FEE
:1019C40040F0878005F04003002B18BF20262AE052
:1019D4000026E1E705F08003002B0CBF002630262B
:1019E40015F4807FDDD025F40075DAE715F4807FE7
:1019F40007D025F400750026D3E745F4804500267A
:101A0400CFE70026CDE715F0080F18BFD2B2D3E711
:101A140052422D2607E0039B1A1D03921A6815F003
:101A2400040F51D092B215F4807F14BF25F40075D1
:101A34000121A0F15803202B00F2C68001A050F828
:101A440023F000BF71190000CD1B0000CD1B000066
:101A5400CD1B0000CD1B0000CD1B0000CD1B0000E2
:101A6400CD1B0000CD1B0000CD1B0000CD1B0000D2
:101A7400CD1B0000FB1A0000CD1B0000CD1B000095
:101A8400CD1B0000CD1B0000FB1A0000CD1B000085
:101A9400CD1B0000CD1B0000CD1B0000CD1B0000A2
:101AA400DB1A000071190000CD1B0000CD1B0000E3
:101AB400CD1B0000CD1B0000FB1A0000CD1B000055
:101AC400CD1B00007119000015F0080FABD0D2B285
:101AD400A9E72B26A7E74FF000098AB305A84FF022
:101AE400000902F00703303300F8013B09F1010952
:101AF400D208F6D124E04FF000090AB34FF00009F0
:101B040005F4004E4FF02C0C934673468E4619464E
:101B14004BE002F00F0E194911F80EE083F800E0D3
:101B240009F101090133120909D00028F1D002F0AA
:101B34000F0E134911F80EE083F800E0F0E7614658
:101B4400A1EB090121EAE17BA4EB0B04A4EB09045A
:101B5400FF2E88BF04F1FF34002E7ED0013C15F423
:101B6400007F7DD0FF2E36D8F1B23846FFF75EFCF9
:101B740038E000BFB4020020001D0000E01C00009B
:101B8400F01C0000CDCCCCCC08AB03EB0900AAFBC5
:101B94000B23DB0803EB8302ABEB4202303200F889
:101BA4000C2C09F101099B4663B10029ECD009F022
:101BB4000303032BE8D108AB4B4403F80CCC09F125
:101BC4000109E1E77146BBE74FF00009B8E74FF0C0
:101BD4000009B5E70024C6F307213846FFF726FCC1
:101BE400002EC1D13A4621462846FFF747FC3A4623
:101BF40059463020FFF734FCB9F1010F08D405AE83
:101C0400B14419F8011D3846FFF710FC4E45F8D1D0
:101C140015F0100F0CD108F1010498F8001069B107
:101C240025293FF4A4AC3846FFF700FCA046F2E7B0
:101C34003A4621462020FFF713FCECE7BB682BB1A2
:101C44003A6879688A423CBF00219954386809B0DF
:101C5400BDE8F08F4FF0FF30F9E715F4007FC1D1F4
:101C64003A4621462846FFF709FCFF2EB2D8002445
:041C7400B6E700BF10
:101C78000800000006000000050000000700000042
:101C88000000000000E0D7010D0A554152542065BC
:101C980078616D706C6520737461727465642E0D63
:101CA8000A00200D0A45786974210D0A000B0C18EA
:101CB800190D0E0F10000000FFFFFFFFFFFFFFFFD1
:101CC800FFFFFFFFFFFFFFFF000000000000000014
:101CD8000000D60107010000303132333435363781
:101CE800383961626364656630313233343536378A
:101CF8003839414243444546286E756C6C290000CA
:101D0800000000000020004000000000002000400B
:081D1800000000000090D00360
:040000030000026196
:00000001FF
