:020000022000DC
:106000000000042061620200B9620200DD9002001B
:10601000BD620200BF620200C16202000000000017
:1060200000000000000000000000000065AC02005D
:10603000C56202000000000089AC0200C9620200D3
:10604000C5DB0200CF6202007DE4020079FD0200A0
:1060500029EF0200D7620200C9200300DB620200C0
:10606000DD620200DF620200E1620200E362020020
:10607000E5620200E7620200E9620200EB620200F0
:10608000ED620200D5B00200F1620200F36202008C
:10609000F5620200F7620200F5A30300FB62020052
:1060A000FD620200FF62020001630200036302005E
:1060B0000563020007630200CB620200CB620200AC
:1060C000096302000B6302000D6302003DEF020052
:1060D00011630200136302001563020017630200DC
:1060E000196302001B6302001D630200CB62020001
:1060F000CB62020021630200CB6202001F63020038
:10610000364937480A1A02D0072291438D4635494D
:1061100035480A1A06D00722914381F309880222E2
:1061200082F3148831483249324A00F045F8324847
:106130003249334A00F040F832483349334A00F0DC
:106140003BF833483349344A00F036F83348344991
:10615000344A00F031F834483449354A00F02CF81C
:1061600034483549354A00F027F83548354900228A
:1061700000F02DF834483549002200F028F8344862
:106180003449091A082903DB002202600430016047
:10619000314A90471F482049884205D002680430A0
:1061A00003B4904703BCF7E700208646EC46002086
:1061B00000212A4A9047FEE7884207D0521A05D0AC
:1061C000037801300B700131013AF9D170478842F0
:1061D00002D002700130FAE770470000000004208E
:1061E00000F80320000004200000042074CD030008
:1061F0001C580020B77A00202463020024630200A8
:1062000090BE030074CD03001C5800201C580020D1
:106210003CC003003CC003003CC003003CC0030082
:106220003CC003003CC003003CC003003CC0030072
:1062300074CD030010F00300B87A0020B87A002073
:10624000B87A0020BC060120BC060120BC06012053
:10625000BC060120BC0A0120856202001F15030054
:106260000F484FF00701884385460E4880470E4887
:10627000016841F470010160BFF34F8FBFF36F8F6E
:10628000FFF73EBF09480A490A4A884207D0521A16
:1062900005D0037801300B700131013AF9D1704714
:1062A00000000420E1A6020088ED00E0D8BF030052
:1062B000B85700201C580020FEE7FEE7FEE7FEE787
:1062C000FEE7FEE7FEE7FEE7FEE7FEE7FEE7FEE7A6
:1062D000FEE7FEE7FEE7FEE7FEE7FEE7FEE7FEE796
:1062E000FEE7FEE7FEE7FEE7FEE7FEE7FEE7FEE786
:1062F000FEE7FEE7FEE7FEE7FEE7FEE7FEE7FEE776
:10630000FEE7FEE7FEE7FEE7FEE7FEE7FEE7FEE765
:10631000FEE7FEE7FEE7FEE7FEE7FEE7FEE7FEE755
:04632000FEE700BFD5
:1063240000B583B001900091019B1B681B68009924
:106334000198984700BF03B05DF804FB00B583B033
:106344000190019B1B685B680198984700BF03B0EC
:106354005DF804FB00B583B00190019B1B689B684A
:106364000198984700BF03B05DF804FB82B0019028
:10637400019B01225A7200BF02B0704782B00190A3
:10638400019B5B7A184602B0704784B0019000917B
:1063940000238DF80F30019B1B7803F00303DBB25D
:1063A400002B06D0019B1B7803F00403DBB2002B07
:1063B4003DD0019B1B7803F00403DBB2002B21D0FA
:1063C400019B1B78C3F30103DBB2012B02D0022B28
:1063D4000CD029E0009B1B68019A1288C2F3831237
:1063E400D2B213449A1C009B1A601DE0009B1B68E8
:1063F400019A5288C2F3891292B213449A1C009BE8
:106404001A6011E0009B1A68019B5B88C3F389132F
:106414009BB21946019B1B88C3F389139BB20B449F
:1064240013445A1C009B1A6001238DF80F309DF809
:106434000F30184604B0704700B58BB00023ADF898
:1064440026303B4803F061F93A4803F05EF93A4BD1
:106454005B680493384B9B680693049A069B13402D
:1064640002339B00344A13440433089304AB1946A3
:106474000898FFF78AFF0346002B09D0049A069B6D
:10648400134002339B002C4A134404330893EDE772
:1064940000BF0023079311E0079B9B0001AA1A4445
:1064A400049B591C049106990B40234902339B0019
:1064B4000B445B681360079B01330793079B012B15
:1064C400EAD99DF80430C3F30103DBB2012B11D0E8
:1064D400022B00D01CE0BDF80A30ADF82630BDF820
:1064E4000630C3F389139BB203339A08049B134405
:1064F40004930DE0BDF80A30ADF82630BDF8043041
:10650400C3F38313DBB21A46049B1344049300BF02
:10651400084803F006F90590059B002B02D0049B64
:10652400054A5360BDF8263018460BB05DF804FBED
:10653400A07F00209C7F0020887B002000B585B0D0
:106544000021074803F016F80390039B0293029B73
:1065540083F310030193019B184605B05DF804FB17
:10656400A47F002000B589B00390029101920093AA
:10657400039B1B0C0793FFF7E1FF0690009B5A1C3B
:106584000A9B1340069A1104079A0A431C490233D2
:106594009B000B445A60009A0A9B134002339B00F1
:1065A400174A134404330593039BDBB203F0070338
:1065B400D9B2059A137861F3C5031370019BDBB25A
:1065C40003F00F03D9B2059A138861F3891313807A
:1065D400029BC3F31501059A136861F39F231360AB
:1065E400059A1378012161F301031370059A137856
:1065F4006FF38203137000BF09B05DF804FB00BFA2
:10660400887B002000B58DB00390029113468DF86D
:106614000730039B02330A9301238DF827300023AC
:106624008DF81B300DF11B03184600F0D7FE414BCB
:106634001A68029B1A603F4B9A683E4B59683D4B5F
:106644001B68CB1A134401330B9314E001213A481D
:1066540003F01FF8FFF7F0FE08900899364803F09E
:1066640018F8344B9A68334B5968324B1B68CB1A71
:10667400134401330B930A9A0B9B9A42E6D89DF874
:106684002730002B4AD0002305939DF80730002BB8
:1066940018D09DF81430012262F301038DF81430F0
:1066A4009DF8143043F004038DF81430039BDBB2DF
:1066B40003F00F03DAB2BDF8143062F38913ADF8B6
:1066C400143017E09DF81430022262F301038DF8B0
:1066D40014309DF8143043F004038DF81430039BF8
:1066E4009BB2C3F309039AB2BDF8163062F38F1359
:1066F400ADF816300F4B1A680E4B9B6813400233EB
:106704009B000C4A134404330793059A079B1A60B1
:10671400084B1A680A9B1344064A13609DF81B3001
:10672400184600F065FE9DF8273018460DB05DF858
:1067340004FB00BF887B0020A47F002000B58BB041
:1067440005900491039202931F4B9B68079306AB39
:10675400012219460298FFF755FF0346002B24D067
:10676400069B023309930023089311E0099B5A1CEA
:106774000992079A1340089A920003990A441268EE
:10678400114902339B000B445A60089B0133089360
:10679400089A029B9A42E9D3069A079B00931346F0
:1067A400029A04990598FFF7DDFE074B93F820340D
:1067B400002B05D000BF00F061F80346002BFAD18E
:1067C40000BF0BB05DF804FB887B002000B583B0EC
:1067D400019000910023002200990198FFF7AEFF79
:1067E40000BF03B05DF804FB00B587B003900291CD
:1067F4000192019B059305AA012302990398FFF7CF
:106804009DFF00BF07B05DF804FB00B587B003909F
:10681400029101920093019B0493009B059304AAA7
:10682400022302990398FFF789FF00BF07B05DF8C0
:1068340004FB00B589B00390029101920093019B7F
:106844000593009B06930A9B079305AA03230299C9
:106854000398FFF773FF00BF09B05DF804FB000065
:10686400054B5A68044B1B689A420CBF0123002352
:10687400DBB21846704700BF887B002000B599B092
:10688400FFF7EEFF0346002B01D00023B8E19A4B3B
:106894000022C3F81824BFF34F8F974B5B6804930F
:1068A400954B9B681093049A109B134002339B00F2
:1068B400914A13440433179300231693002315932A
:1068C40000230F9304AB19461798FFF75EFD0346A8
:1068D400002B14D0884B1A68049B9A4205D8864B27
:1068E4001B68854A536000238AE1049A109B134075
:1068F40002339B00804A134404331793E2E700BF3A
:106904000023149311E0149B9B0001AA1A44049BD6
:10691400591C049110990B40774902339B000B4496
:106924005B681360149B01331493149B012BEAD905
:106934009DF8043003F00303DBB2022B40F09C808B
:10694400BDF80630C3F389139BB20E93BDF806302D
:10695400C3F389139BB2502BA8BF50230D930D9BF7
:106964009BB2C3F309039AB2BDF8063062F38F13E6
:10697400ADF806300D9B08330C939DF80430C3F337
:10698400C203DBB20F930C995C4803F061FC1690D0
:10699400169B002B00F0D480169803F0E9FC01A9A3
:1069A400159B0822169803F080FD159B0833159358
:1069B400049BDA43109B134001339B000B930D9A05
:1069C4000B9B9A4242D90B9B002B08D0049A109B34
:1069D400134002339B00484A1344043300E0484BFD
:1069E4000A930B9B002B02D00B9BDBB201E00D9BA7
:1069F400DBB28DF827300B9B002B01D0404B00E01D
:106A0400002308930B9B002B06D00D9BDAB20B9B43
:106A1400DBB2D31ADBB200E000238DF81F309DF8FF
:106A24002720159B0A99169803F03FFD9DF82730FF
:106A3400159A13441593089B002B16D09DF81F201C
:106A4400159B0899169803F030FD0EE0049A109BEC
:106A5400134002339B00284A134404330693159BC6
:106A64000D9A0699169803F020FD0E9B03339A089D
:106A7400049B1344049363E09DF8043003F0030380
:106A8400DBB2012B5CD1BDF80430C3F38313DBB25A
:106A9400062B28BF0623DBB203F00F03DAB2BDF8DE
:106AA400043062F38913ADF80430BDF80430C3F345
:106AB4008313DBB2023305939DF80430C3F3C2039E
:106AC400DBB20F93059B9B0019460C4803F0C0FBF7
:106AD4001690169B002B33D0169803F049FC01A99D
:106AE400159B0822169803F0E0FC159B08331593B8
:106AF400002314931BE000BF887B002098BF030091
:106B0400947B0020049B5A1C0492109A1340023375
:106B14009B003D4A1344191D159B0422169803F04B
:106B2400C4FC159B04331593149B01331493BDF8D3
:106B34000430C3F38313DBB21A46149B9A42E1D8A0
:106B4400169B002B3FD0304BD3F8103413932E4BAD
:106B5400D3F81834002B1AD0169803F018FC49E027
:106B640000238DF84B301398FFF708FC0346002BE5
:106B740002D001238DF84B309DF84B30002B03D00D
:106B840016991398FFF7CCFB139B5B681393139B25
:106B9400002BE5D1169803F0FAFB00238DF803309F
:106BA4000DF10303184600F019FC174BD3F8183401
:106BB400002B02D1049B144A53609DF803301846FD
:106BC40000F016FC16E0104BD3F81034119305E0D6
:106BD4001198FFF7BFFB119B5B681193119B002B6E
:106BE400F6D10A4B1B881B0443F0020308491846DC
:106BF400FFF7ECFDFFF734FE034683F00103DBB23D
:106C0400184619B05DF804FB887B0020D457002097
:106C140054C0030000B583B00C4BD3F81034019377
:106C24000A4B012283F8202408E00198FFF79EFB19
:106C34000198FFF783FB019B5B680193019B002B89
:106C4400F3D100BF03B05DF804FB00BF887B0020D4
:106C54002DE9F04F89B0019000238DF81F3098E0A2
:106C6400514B1A689DF81F30DB0013440693069BB2
:106C74001B7819464FF001024FF00003A1F1200EDA
:106C8400C1F1200003FA01F902FA0EFE49EA0E09E5
:106C940022FA00F049EA000902FA01F8CDE9048970
:106CA400424BD3E90001DDE9042302EA000203EACE
:106CB4000103134368D0DDE904236FEA02006FEA9D
:106CC40003013A4BD3E9002302EA000203EA010379
:106CD4003649C1E90023069B1B78184607F0BCFB24
:106CE40003468DF80F30069B1B7819464FF00102BE
:106CF4004FF00003A1F1200EC1F1200003FA01F5C9
:106D040002FA0EFE45EA0E0522FA00F0054302FAE5
:106D140001F4274BD3E9002304EA020A05EA030B32
:106D24009DF80F204FF0000306990978A1F1200E79
:106D3400C1F1200003FA01F702FA0EFE47EA0E073A
:106D440022FA00F0074302FA01F6BB4508BFB24538
:106D54001AD19DF80F30069A5278012A0CBF0122ED
:106D64000022D2B293420CBF01230023DBB2029370
:106D7400069B5B68002B07D0069B5B68069A12781B
:106D84000299C9B2104698479DF81F3001338DF817
:106D94001F30084B1B789DF81F209A42FFF460AF08
:106DA40000BF09B0BDE8F08FAC7F0020E07F002079
:106DB400D87F0020B07F002070B586B001900A46CD
:106DC4008DF803204FF001014FF000020198A0F16B
:106DD4002006C0F1200502FA00F401FA06F6344355
:106DE40021FA05F52C4301FA00F3CDE904342F4BC5
:106DF400184600F039FA0390039B002B53D12C4B17
:106E0400D3E90012DDE9043403EA010304EA0204CD
:106E1400234337D1019807F01FFB0346002B0CD006
:106E2400244BD3E90012DDE9043443EA010344EAC4
:106E34000204204AC2E900340FE0DDE904346FEAB9
:106E440003016FEA04021B4BD3E9003403EA010394
:106E540004EA0204174AC2E90034154BD3E90012CC
:106E6400DDE9043443EA010344EA0204104AC2E9B6
:106E740000340E48104B1B680022194600F07CF9C0
:106E8400039011E0DDE904346FEA03016FEA0402C0
:106E9400074BD3E9003403EA010304EA0204044A79
:106EA400C2E9003400E000BF06B070BDB87F002026
:106EB400E07F0020D87F0020B47F002010B58AB086
:106EC40003900B4601928DF80B30019B042B01D8E3
:106ED40007235AE007F0D0F9034683F00103DBB23D
:106EE400002B09D007F076F90990099B0893089BB9
:106EF400002B01D0089B48E0254A039B1360254AD8
:106F04009DF80B301370244A019B1360234A4FF001
:106F140000034FF00004C2E90034214A4FF000039B
:106F24004FF00004C2E9003422E09DF80B30DB008E
:106F3400039A1344079305AB00210A461A800A46B4
:106F44009A7003238DF81430079B9B788DF81530C5
:106F5400079B1B78184605AB124A194607F098F9A7
:106F64000990099B0693069B002B01D0069B0CE01D
:106F74009DF80B305A1E8DF80B20002BD5D10A4AF0
:106F840000210A4800F0AAF8034618460AB010BDCA
:106F9400AC7F0020B07F0020B47F0020D87F002089
:106FA400E07F0020BD6D0200556C020068C0030044
:106FB40000B583B0002301930CE00C4B1A68019BCD
:106FC400DB0013441B780121184607F0D1F9019B1B
:106FD40001330193064B1B781A46019B9A42ECD865
:106FE4000023184603B05DF804FB00BFAC7F00200B
:106FF400B07F002000B587B00190002303930023E5
:107004000493019B059303AB1A46002144F201004B
:1070140000F016F800BF07B05DF804FBBFF34F8F14
:107024000549054BDB6803F4E062044B1343CB6072
:10703400BFF34F8F00BFFDE700ED00E00400FA0549
:1070440000B585B003900291019272B6FFF7E2FD9C
:1070540000BFFFF713FC0346002BFAD10F4B1B882C
:107064001B0443F001030E491846FFF7AFFB0D4B19
:107074001B6803F00103002B00D000BE074B1B88E4
:107084001B0443F0020308491846FFF79FFBFFF770
:10709400C5FF00BF05B05DF804FB00BFD457002056
:1070A4006CC00300F0ED00E078C0030000B585B0CB
:1070B4000190019806F064F80390039B1B7B002B5E
:1070C40005D0039B9B68039A12681046984700BF3B
:1070D40005B05DF804FB00231846704700B58BB07B
:1070E40005900B4603928DF81330059B1B6807939C
:1070F40000230993039B002B02D0059B002B01D195
:10710400072330E0079B1B7B002B01D008232AE0D8
:10711400079B5B68002B23D110220021079814F0F1
:10712400A1FA9DF81330002B02D10023089301E04B
:1071340001230893079B039A9A600D4B0093079BC6
:10714400089A4FF47A710B4805F070FD0246079BCC
:107154005A60079B5B68002B04D10E23099301E05E
:10716400082300E0099B18460BB05DF804FB00BF40
:10717400B170020088C0030000B58BB00590049183
:107184000392059B0993099B5B680893089B002B5A
:1071940001D1082362E0099B1B7B002B07D00898D0
:1071A40005F0D8FF0346002B01D0002356E0099BCD
:1071B400039A1A60EFF305830793079B002B2DD0E6
:1071C4000023069306AA002300931346049A092178
:1071D400089805F06BFD0346012B01D004233DE024
:1071E40004F0B8FF014606AA0023009313460A469A
:1071F4000621089805F05AFD0346012B01D004230B
:107204002CE0069B002B25D0164B4FF080525A6081
:1072140040BFBFF34F8FBFF36F8F1BE00223009378
:107224000023049A0421089805F040FD0346012B2D
:1072340001D0042312E004F083FF024602230093EA
:1072440000230121089805F031FD0346012B01D0EC
:10725400042303E0099B01221A73002318460BB090
:107264005DF804FB00ED00E000B589B00390039BDA
:107274000793079B5B680693069B002B01D10823A9
:1072840033E0EFF305830593059B002B1CD000230B
:10729400049304AA002300931346002208210698AD
:1072A40005F004FD0346012B01D004231DE0049BDB
:1072B400002B16D00F4B4FF080525A6040BFBFF3E3
:1072C4004F8FBFF36F8F0CE0022300930023002243
:1072D4000321069805F0EAFC0346012B01D00423A0
:1072E40003E0079B00221A730023184609B05DF8D7
:1072F40004FB00BF00ED00E082B0EFF310830093C5
:10730400009B019372B6019B184602B0704762B6A7
:1073140000BF704700B585B00190FFF7EDFF039003
:10732400164B9B68002B1BD1144B01229A60144B03
:10733400D3F88020134B1340104A1360104B114AAA
:10734400C3F880200E4BD3F884300C4A53600C4BA6
:107354004FF0FF32C3F88420019B00221A7002E030
:10736400019B01221A70039B002B01D1FFF7CFFF71
:107374000023184605B05DF804FB00BFE87F002039
:1073840000E100E0FC06FFBD00B585B003468DF8C2
:107394000730104B9B68002B16D09DF80730002B4C
:1073A40012D1FFF7A9FF03900B4A0A4B1B68136025
:1073B400094A084B5B685360064B00229A60039BA2
:1073C400002B01D1FFF7A3FF0023184605B05DF899
:1073D40004FB00BFE87F002000E100E000B583B0BB
:1073E40001900198FFF796FF00BF03B05DF804FB1E
:1073F40000B583B003468DF807309DF80730184672
:10740400FFF7C2FF00BF03B05DF804FB82B0019038
:10741400019B03F00303002B0CBF01230023DBB209
:10742400184602B07047000000B585B001900023F3
:1074340003930EE00A4A039B52F82330002B05D035
:10744400074A039B52F8233001989847039B013362
:107454000393039B032BEDD900BF05B05DF804FB38
:107464000480002082B001900091019B1B78013BB5
:10747400052B61D801A252F823F000BF99740200D1
:10748400A1740200C7740200F974020019750200A5
:1074940035750200009B00221A704EE0009B012209
:1074A4001A70019B1A89009B9A81019B9A88009B00
:1074B400DA81019BDA68009B9A60009B00221A74AF
:1074C4003BE0009B02221A70019B1A89009B9A815F
:1074D400019B9A88009BDA81019BDA68009B9A6081
:1074E400019B9B7D062B0CBF01230023DAB2009B7A
:1074F4001A7422E0009B03221A70019BDA88009B15
:107504009A81019B1A89009BDA81019BDA68009BAE
:107514009A6012E0009B04221A70019BDA88009B97
:107524009A81009B0022DA81009B00229A6004E089
:10753400009B05221A7000E000BF00BF02B0704734
:1075440084B001900091019B0393039A009B9A429B
:1075540006D2039B1B68B3F1FF3F01D0012300E077
:10756400002303F00103DBB2184604B0704782B075
:107574000190019B5B8803339B00019A13441846D6
:1075840002B0704700B583B0019000910198FFF7F5
:10759400EEFF0246009B9A4201D902230CE0019BB4
:1075A4009B884FF6FF72934203D0019B1B88002BEC
:1075B40001D1012300E00023184603B05DF804FB69
:1075C40000B583B00190019B002B13D00D4BDB68F9
:1075D4001A46019B9A420DD80A4B1B691A46019B15
:1075E4009A4207D30198FFF711FF0346002B01D0FD
:1075F400012300E0002303F00103DBB2184603B0CB
:107604005DF804FB0858002082B00190019B002B18
:1076140004D0019B1B680B4A934201D003230DE065
:10762400019B04331B68084A934204D0074A9342DF
:1076340003D1012302E0002300E00323184602B033
:10764400704700BFDEC0ADDEFE011EF1FF011EF17A
:1076540084B00190002303930CE0039B9B00019AE8
:1076640013441B68B3F1FF3F01D0002307E0039BE1
:1076740001330393039BB3F5806FEED301231846C4
:1076840004B0704782B003460A46ADF8063013468C
:10769400ADF80430BDF80620134913469B0013448B
:1076A4009B000B4408331A88BDF804301344ADF82A
:1076B4000430BDF806200C4913469B0013449B007C
:1076C4000B440A331A88BDF804301344ADF804306F
:1076D400BDF8043040F2FF32934294BF01230023EB
:1076E400DBB2184602B07047A480002084B0019039
:1076F40000910A2303930023ADF80A3027E0BDF874
:107704000A20174913469B0013449B000B4404337F
:107714001A68009B9A4215D2BDF80A2010491346F4
:107724009B0013449B000B4404331B6803F58052F5
:10773400009B9A4206D900230393019BBDF80A20BB
:107744001A8008E0BDF80A300133ADF80A30BDF8FC
:107754000A30012BD3D9039B184604B0704700BFED
:10776400A480002000B589B0039002910192039B8C
:1077740003F580530693039B08330393029B022271
:107784001A80039B079332E006990798FFF7FAFEE5
:1077940003468DF817309DF81730002B0AD1079B4C
:1077A4009A68184B1B689A4213D9079B9B68154A21
:1077B40013600EE0019B002B02D0019B01221A7082
:1077C4009DF81730022B04D1029B4FF480621A807B
:1077D40014E0029B1A88079B5B8813449BB2033313
:1077E4009AB2029B1A800798FFF7C1FE0790069988
:1077F4000798FFF7A5FE0346002BC5D109B05DF835
:1078040004FB00BF1480002082B001900091009B13
:107814009B7D022B09D9019B1A89009BDB881344A9
:107824009BB203339AB2019B1A81019B5A89009B34
:10783400DB88D31A9BB2033B9AB2019B5A8100BFE7
:1078440002B0704700B583B0074B1B68194600238C
:1078540000930823054A064802F034F80346184604
:1078640003B05DF804FB00BFCC8000209CC0030083
:107874000858002000B585B00390039900230093B5
:107884000823044A044802F01DF80346184605B0CC
:107894005DF804FBA4C003000858002000B585B0BF
:1078A40003460091ADF8063000238DF80F30BDF883
:1078B40006300333ADF80A30BDF80A3040F2FD3229
:1078C400934201D909234AE00023ADF80C303BE090
:1078D400BDF80C20244913469B0013449B000B4421
:1078E4001B78002B2BD1BDF80A20BDF80C301146B3
:1078F4001846FFF7C7FE0346002B20D001238DF85E
:107904000F30009BBDF80C201A80BDF80C20BDF888
:107914000C1015480B469B000B449B0003440A3390
:107924001988BDF80A300B4498B20F4913469B00DE
:1079340013449B000B440A3302461A8008E0BDF846
:107944000C300133ADF80C30BDF80C30012BBFD92D
:107954009DF80F30002B01D0002300E007231846C8
:1079640005B05DF804FB00BFA480002082B003468C
:107974000A46ADF806301346ADF80430BDF80420CD
:10798400BDF804100C480B469B000B449B000344B9
:107994000A331988BDF80630CB1A9BB2033B98B260
:1079A400054913469B0013449B000B440A330246CB
:1079B4001A8000BF02B07047A480002008B50121DE
:1079C400024801F066FE0346184608BD14800020F4
:1079D40000B585B003460091ADF80630BDF8062029
:1079E400234913469B0013449B000B4404331B6838
:1079F40003F580530293009B1B680393039B002BA6
:107A040004D00398FFF7B3FD039024E0BDF80620EB
:107A1400174913469B0013449B000B4404331B6813
:107A24000833039317E002990398FFF7ABFD03466D
:107A3400012B09D0022B0CD0002B00D00BE0009BB3
:107A4400039A1A6001230EE00398FFF790FD039058
:107A540001E0002307E002990398FFF771FD034654
:107A6400002BE0D10023184605B05DF804FB00BFED
:107A7400A480002000B585B001900091019B5B6853
:107A84001846FFF79DFD0346002B19D0019B1A8968
:107A9400244B1B899A4213D1019B1A68019B5B6892
:107AA4009B689A420CD1019B5B6819460098FFF7CA
:107AB4001DFE0346002B0CBF01230023DBB22CE088
:107AC400009B00221A8023E00023029310E0029B13
:107AD4000393039B9A68019B1B689A4208D1029AFC
:107AE400019B5A600F4B1A89019B1A81012314E0F0
:107AF400009B1B8802AA11461846FFF769FF03463C
:107B0400002BE4D1009B1B8801339AB2009B1A809E
:107B1400009B1B88012BD7D90023184605B05DF8BC
:107B240004FB00BFD480002000B587B0039002910D
:107B340001920093304B1B78DBB283F00103DBB27C
:107B4400002B01D0022353E0019B002B02D0009BA9
:107B5400002B48D105234BE0009B9B881946274AFC
:107B64000B469B000B449B0013441B78002B33D122
:107B740024E0009B1B680593039B002B06D0059B08
:107B84009A88039B1B889A4200D017E0029B002B23
:107B940006D0059B1A88029B1B889A4200D00DE0F0
:107BA400059B9A68019B1A60009B1A68019B5A60A6
:107BB400134B1A89019B1A81002319E0009B9B88AF
:107BC400009A11461846FFF703FF0346002BD0D155
:107BD400009B00221A6000E000BF009B9B880133D9
:107BE4009AB2009B9A80009B9B88012BB4D90A23EC
:107BF400184607B05DF804FBF47F0020A480002041
:107C0400D480002000B585B00190084B0199184636
:107C140001F09DFB03901C220021039813F022FD28
:107C2400039B184605B05DF804FB00BF1C580020F8
:107C340000B583B00190044B0199184601F0A0FBF4
:107C440000BF03B05DF804FB1C58002000B583B0EE
:107C54000190054B0199184601F0A6FB034618460E
:107C640003B05DF804FB00BF1C58002000B583B0CE
:107C74000190044B0199184601F0AFFB00BF03B01B
:107C84005DF804FB1C58002008B50121054801F0EB
:107C940018FD0346002B14BF01230023DBB2184652
:107CA40008BD00BFFC7F002000B587B0002305930A
:107CB4000023ADF812300323ADF8103000238DF803
:107CC4000F300023ADF80C30F0E0BDF80C301B038E
:107CD4001A467F4BDB68134402930298FFF794FC27
:107CE40003468DF807309DF80730012B00F09C8087
:107CF400032B02D0002B62D0D3E00298FFF7A8FC3C
:107D04000346002B3BD0734B1B68002B29D0BDF8D6
:107D14001220714913469B0013449B000B4402221A
:107D24001A70BDF812206C4913469B0013449B0043
:107D34000B440433029A1A60BDF8122066491346B4
:107D44009B0013449B000B44083302221A80634AAD
:107D5400BDF812305380BDF812300133ADF8123043
:107D640008E05C4A029B13605A4B02229A8001236A
:107D74008DF80F30059B43F00103059391E0BDF8A6
:107D84001030013BADF81030BDF8122052491346B3
:107D94009B0013449B000B440433029A1A60BDF801
:107DA40012204D4913469B0013449B000B440322AD
:107DB4001A70BDF812300133ADF8123071E0BDF81D
:107DC4001220454913469B0013449B000B44002298
:107DD4001A70BDF81220404913469B0013449B00BF
:107DE4000B440433029A1A60BDF8122013469B0018
:107DF40013449B000833384A9918BDF812201346DF
:107E04009B0013449B001033334A13441A460298D0
:107E1400FFF7A8FC059B43F002030593BDF812305D
:107E24000133ADF812303CE09DF80F30002B25D023
:107E3400BDF81220284913469B0013449B000B44B1
:107E440002221A70BDF81220224B196822481346E8
:107E54009B0013449B00034404331960BDF81220B3
:107E64001D4913469B0013449B000B440833022214
:107E74001A80BDF812300133ADF81230154A029B56
:107E84001360002216490298FFF76CFC114B9B8883
:107E9400022B01D1042300E00823059A1343059320
:107EA40000BFBDF80C300133ADF80C30BDF80C3018
:107EB400022B7FF60AAFBDF81030012B01D8002346
:107EC4000593059BDBB2184607B05DF804FB00BFC1
:107ED40008580020CC800020A4800020D4800020FA
:107EE400D080002000B587B003900291039B02224A
:107EF4009A750299039B1A1D0023009304230748D3
:107F040001F0E0FC0590059B002B01D1002300E06B
:107F14000E23184607B05DF804FB00BF0858002084
:107F240000B587B003900291039B1B69002B01D01D
:107F3400032200E00122039B9A75029B0833194631
:107F4400039B03F10C02002300930423064801F071
:107F5400B9FC0590059B002B01D1002300E00E2302
:107F6400184607B05DF804FB0858002000B587B038
:107F740003900291039B1B78032B01D1052200E09F
:107F84000622039B9A75029B04331946039B03F153
:107F94000802002300930423064801F093FC059093
:107FA400059B002B01D1002300E00E23184607B0E7
:107FB4005DF804FB0858002000B587B003900B4619
:107FC400ADF80A3003990023009304230C4A0D48AA
:107FD40001F078FC0590059B002B01D00E230BE0EB
:107FE400BDF80A20084913469B0013449B000B4428
:107FF400103301221A700023184607B05DF804FB01
:10800400ACC0030008580020A480002000B589B04B
:10801400019002AB00221A605A609A60019BDB68EF
:1080240002930DF1160202AB11461846FFF722FD2A
:108034000346002B12D0039B0693069B9A88019B50
:10804400DA80069B1A88019B1A81039BBDF81620CF
:1080540011461846FFF7B0FF079001E00A23079383
:10806400079B184609B05DF804FB000000B587B013
:108074000190019B981D02AA0D4B0021FFF754FDAE
:108084000590059B002B08D1039A094B9B88194640
:108094001046FFF791FF059004E0082200210448F0
:1080A40013F0E0FA059B184607B05DF804FB00BF27
:1080B400E480002000B587B003900291039B012265
:1080C4009A75029B0C331846039B1A69039BDB8841
:1080D4009900002300930B460146074801F0F2FB88
:1080E4000590059B002B01D1002300E00E231846C8
:1080F40007B05DF804FB00BF0858002082B0174B9E
:108104001B8901339AB2154B1A81144B00225A80F1
:10811400124B00221A730023ADF8063017E0BDF8A5
:108124000610BDF806200E4813469B0013449B001E
:1081340003441B78002B0CBF01230023DAB2074B46
:108144000B449A72BDF806300133ADF80630BDF821
:108154000630012BE3D900BF02B07047D480002061
:10816400A480002084B0019000238DF80F300023F8
:10817400ADF80C3031E0BDF80C301C4A13449B7A46
:10818400002B25D0BDF80C30184A134400229A72F3
:10819400BDF80C20164913469B0013449B000B4466
:1081A4000C331B68002B13D1BDF80C201049134667
:1081B4009B0013449B000B4410331B78002B07D007
:1081C400019BBDF80C201A8001238DF80F3008E0C4
:1081D400BDF80C300133ADF80C30BDF80C30012B78
:1081E400C9D99DF80F30184604B07047D4800020D8
:1081F400A480002008B5084B05221A70074B022200
:108204009A80064B1B68194600230122044801F09A
:1082140031FC0346184608BDD4800020CC800020E1
:108224000858002000B583B0164B5B88ADF80230C7
:10823400BDF80220144913469B0013449B000B44D1
:108244000C331B68002B14D10E4B04221A70BDF89A
:1082540002200D4913469B0013449B000B44043336
:108264001B68194600230122084801F003FC019011
:1082740002E0FFF7BFFF0190019B184603B05DF8D1
:1082840004FB00BFD4800020A480002008580020F4
:1082940000B587B0114B5B680593114B1A68104BFE
:1082A4009B889B0013440493059B5B880333ADF8C0
:1082B4000E300A4B03221A700499084B5A68BDF811
:1082C4000E309800002300930346064801F0FAFAA2
:1082D4000346184607B05DF804FB00BFD4800020B5
:1082E400CC8000200858002000B583B00A4B5B887E
:1082F4000A491846FFF76CFB0346002B03D0FFF72F
:10830400C7FF019002E0FFF78DFF0190019B184623
:1083140003B05DF804FB00BFD4800020D8800020A7
:1083240008B50A4B06221A70084B5B881946084A9E
:108334000B469B000B449B00134404331B681846F4
:10834400FFF798FA0346184608BD00BFD480002002
:10835400A480002008B5054B07221A70034B0022A5
:108364005A60FFF76FFA0346184608BDD480002010
:1083740008B50D48FFF7F6FE034683F00103DBB2B0
:10838400002B0BD0094B00221A70084B00225A8094
:10839400064B00225A6041F61D5302E0FFF7A4FF8A
:1083A4000346184608BD00BFD6800020D4800020B4
:1083B40082B0094B5B680193019B5B880333ADF882
:1083C4000230064B9A88BDF8023013449AB2034B2C
:1083D4009A8000BF02B07047D4800020CC80002077
:1083E40082B0184B1B680193174B5B881946174AD8
:1083F4000B469B000B449B00134404331B68114A37
:108404001360114B5B881946104A0B469B000B44C2
:108414009B0013440433019A1A600B4B5B88194682
:10842400084B9888094A0B469B000B449B00134455
:10843400083302461A80034B02229A8000BF02B01E
:10844400704700BFCC800020D4800020A48000208E
:1084540008B51A4B1B78072B2CD801A252F823F02D
:1084640085840200B9840200B98402009184020068
:108474009D840200A9840200A9840200B184020040
:10848400FFF73CFE0D4B01221A7014E0FFF790FF3A
:108494000A4B02221A700EE0FFF7A2FF074B0622D6
:1084A4001A7008E0054B07221A7004E0034B0122FE
:1084B4001A7000E000BF00BF08BD00BFD4800020D8
:1084C40000B587B0019000910F230593019B002B09
:1084D40004D0624B00225A600123BBE0009B1B794D
:1084E400032B00F2AB8001A252F823F001850200B5
:1084F4000F8502009D850200BD850200009B0122BC
:108504001A71FFF79FF905909BE000238DF8133053
:108514000023ADF810302BE0BDF81020504913466D
:108524009B0013449B000B441B78022B1BD1BDF80A
:1085340010204B4913469B0013449B000B4400221C
:108544001A7001238DF81330BDF8102044491346E6
:108554009B0013449B000B4404331B681846FFF72D
:1085640089F9059008E0BDF810300133ADF81030FA
:10857400BDF81030012BCFD99DF8133083F00103DF
:10858400DBB2002B5CD0354B01221A70334B002236
:108594005A6041F61D535DE0009B00221A71314B75
:1085A40002229A802F4B1B681946002301222E4871
:1085B40001F060FA059044E0009B00221A71294BF7
:1085C4001B681846FFF756F90590284B5B88ADF8F1
:1085D4000E30244B1B680293BDF80E20204913462D
:1085E4009B0013449B000B4404331B681D4A136017
:1085F400BDF80E201A4913469B0013449B000B44FC
:108604000433029A1A60BDF80E20164B9888144958
:1086140013469B0013449B000B44083302461A8004
:10862400104B02229A80BDF80E200D4913469B0080
:1086340013449B000B4400221A7002E000BF00E0C8
:1086440000BF059B002B04D0044B00225A600E236C
:1086540000E00023184607B05DF804FBF47F002017
:10866400A4800020CC80002008580020D480002062
:1086740000B587B001900091009B9B8A1A4613466F
:108684009B0013449B003A4A13440493019B002B20
:1086940005D000990498FFF7B7F8012363E0049B21
:1086A4005A68049B1B899B0013440393009B9B7D86
:1086B400062B4DD801A252F823F000BF0387020015
:1086C400278702000F8702001B870200DD86020055
:1086D400338702004D870200264B00225A60009B1C
:1086E4009B69244A136024492248FFF7C3F90346CF
:1086F40083F00103DBB2002B01D00A2333E003999A
:108704000098FFF7EFFB059025E003990098FFF729
:1087140007FC05901FE003990098FFF7CBFC059038
:1087240019E003990098FFF721FC059013E0009BE2
:1087340006229A750F4B5A680F4B1B881946104630
:10874400FFF73AFC059006E041F61D53059302E05D
:108754000F23059300BF059B002B03D000990498B9
:10876400FFF752F8059B184607B05DF804FB00BFFD
:10877400A4800020EC800020F880002000B585B0A3
:1087840001900091019B002B01D0012323E0009B69
:108794001B79012B0BD0022B14D0002B16D1009B7C
:1087A40002221A710098FFF731FC039012E000983E
:1087B400FFF75CFC0390039B0A2B0AD141F61D537F
:1087C400039306E041F61D53039303E00F23039341
:1087D40000E000BF039B184605B05DF804FB0000F1
:1087E40000B585B00190019B002B01D001233BE033
:1087F4001F4B1B7B002B03D01D4B00221A7301E07F
:10880400FFF726FE1A4B1B78013B062B28D801A242
:1088140052F823F0358802003D88020045880200A2
:108824004D88020065880200558802005D880200B8
:10883400FFF79EFD039016E0FFF756FD039012E04C
:10884400FFF726FD03900EE0FFF7ECFC03900AE02F
:10885400FFF766FD039006E0FFF77CFD039002E05E
:108864000F23039300BF039B184605B05DF804FB78
:10887400D480002000B589B001903A4B1B68002BCE
:1088840005D13948FFF7E2F90246364B1A60354BF9
:108894001B681B78013B052B2BD801A252F823F04F
:1088A400BD880200CD880200CD880200DD88020068
:1088B400DD880200ED8802002A4B1B6819460198E6
:1088C400FFF7FEFD019017E0264B1B68194601983F
:1088D400FFF7CEFE01900FE0224B1B68194601986A
:1088E400FFF74CFF019007E00198FFF779FF019033
:1088F40002E00F23019300BF019B002B2BD003AB9D
:1089040000221A605A609A60DA601A61019B41F68B
:108914001D52934201D0019B00E000230493114BAC
:108924001B6803AA11461846FEF79CFD03AB1846C4
:10893400FEF77AFD0B4B00221A60002301930A48CC
:10894400FFF794F9FFF7A0F9034683F00103DBB2C4
:10895400002B02D191E700BF00E000BF00BF09B0C7
:108964005DF804FBFC8000200081002008B5012193
:10897400054800F076FE0346002B02D10020FFF7E5
:1089840079FF00BF08BD00BFFC7F002000B583B0A5
:108994000190019B5B681846FFF76CFF00BF03B0B2
:1089A4005DF804FB00B58BB00390029101928DF841
:1089B40003300023ADF824300023ADF82630514BAA
:1089C4001B78DBB283F00103DBB2002B01D002235E
:1089D40093E0029B002B01D105238EE0029B1B88B0
:1089E4004FF6FF72934203D0029B5B88002B01D1A8
:1089F400042382E0029B5B681846FEF707FD0346EA
:108A040083F00103DBB2002B01D0032375E0019B4B
:108A1400002B11D1029B9B68ADF826300DF11A0290
:108A2400BDF8263011461846FEF738FF0890089B1B
:108A3400002B09D0089B60E0019B1B88ADF81A301D
:108A4400019B5B88ADF8263005AB1846FFF7DAF8D2
:108A54000790079B002B09D1BDF81A20BDF82630DA
:108A640011461846FEF782FF082346E0079B9DF84F
:108A740003201A70079B00229A75BDF81A20079BE1
:108A84009A82029B5A68079B1A61FEF797FF024677
:108A9400079BDA60029B1A88079B1A81029B5A88FB
:108AA400079B9A80079BBDF82620DA809DF8033047
:108AB400032B06D1079B04229A75039B1A68079B14
:108AC4009A61079BBDF824205A8105AB1846FFF72D
:108AD400AFF8039B002B0DD0039B00225A60079B29
:108AE400DA68039B1A60039B00229A72064B1A8968
:108AF400039B1A81FFF73AFF002318460BB05DF879
:108B040004FB00BFF47F0020D480002000B585B0B2
:108B140001900C4B1B68042B02D10C2303930BE034
:108B2400084B1B680849019A41F823200121054894
:108B340000F0AFFD00230393039B184605B05DF8D6
:108B440004FB00BF008000200480002084B04FF0AC
:108B540010235B6903934FF080531B6902934FF01A
:108B640080535B690193039BB3F1FF3F04D1019BE5
:108B7400029A02FB03F300E0039B184604B070471B
:108B840000B583B04FF440530193FFF7DFFF024673
:108B9400054B1A61044B1A69019BD31A024AD3602C
:108BA40000BF03B05DF804FB0858002008B5FFF7C8
:108BB400E7FF00220349044800F040FE034618463C
:108BC40008BD00BFE8C203000858002008B50448E7
:108BD4001C238C22034900F073FB00BF08BD00BFB7
:108BE4001C5800201880002000B58BB002AB002276
:108BF4001A605A609A60DA601A61404B1B78DBB2E3
:108C0400002B05D002AB1846FEF70EFC002371E0E2
:108C14003B4800F06EFD0346002B01D0002369E0C1
:108C2400FFF7C4FF0990099B002B01D0099B61E069
:108C3400FFF7CCFFFFF738F803468DF823309DF893
:108C44002330022B0DD0062B0DD0002B09D000BFF2
:108C540001AB1846FEF7D6FF0790079B002B10D1F7
:108C64000DE00B2346E0254B01221A70234B002212
:108C74005A6002AB1846FEF7D7FB00233AE00823FC
:108C840038E0079B01221A709DF82330013B0A2B20
:108C940028D801A252F823F0C98C0200E98C020002
:108CA400C98C0200E98C0200E18C0200E98C02000C
:108CB400E18C0200E98C0200D18C0200D98C020004
:108CC400D18C0200079B00221A710CE0079B03223F
:108CD4001A7108E0079B02221A7104E0079B012223
:108CE4001A7100E000BF01AB1846FEF7A1FFFFF7C1
:108CF4003DFE002318460BB05DF804FBF47F002012
:108D0400F87F002000B585B001900091019B002BF5
:108D140002D0009B002B01D1052329E00DF10A03A9
:108D240019460198FEF7A6FE0346002B1FD0019BAF
:108D34005B680393BDF80A301A4613469B0013443C
:108D44009B0008330C4A134404330121184600F0F5
:108D5400A0FC009B039A1A60019B5B6803F10C0260
:108D6400009B5A60019B01229A72002300E00A23AF
:108D7400184605B05DF804FBA480002000B585B05A
:108D84000190019B002B01D1052339E00DF10A0369
:108D940019460198FEF76EFE0346002B2DD0BDF850
:108DA4000A301946184A0B469B000B449B00134497
:108DB4000C331B68002B1DD0019B9B7A002B19D010
:108DC400BDF80A301A46104913469B0013449B0011
:108DD4000B440C331B68591E0B4813469B00134469
:108DE4009B0003440C331960019B00229A720023F8
:108DF400039304E00623039301E00A230393039BF4
:108E0400184605B05DF804FBA480002000B585B0C9
:108E140001900B46ADF80230134B1B78DBB283F0A4
:108E24000103DBB2002B01D0022319E0019B002BCC
:108E340001D1052314E00DF10A02BDF802301146F8
:108E44001846FEF72BFD0390039B002B07D1BDF8BA
:108E54000A20019B1A80019BBDF802205A80039BC3
:108E6400184605B05DF804FBF47F002000B585B01A
:108E740001901F4B1B78DBB283F00103DBB2002BA4
:108E840001D002232FE0019B002B01D105232AE00E
:108E9400019B1B88022B01D9042324E0019B1B881E
:108EA4001A4613469B0013449B00124A1344029330
:108EB400019B5B880333029A5289934210DC019B25
:108EC4005A88019B1B8819461046FEF74FFD019BEB
:108ED40000221A80019B00225A800023039301E0A0
:108EE40004230393039B184605B05DF804FB00BFFD
:108EF400F47F0020A480002000B583B0019000918D
:108F04000223002200990198FFF74CFD03461846FE
:108F140003B05DF804FB00B585B0039002910192A3
:108F2400019B002B01D1052306E00223019A02993B
:108F34000398FFF737FD0346184605B05DF804FBB8
:108F440000B583B001900091019B002B01D1052352
:108F540006E00323002200990198FFF723FD03464E
:108F6400184603B05DF804FB00B585B00346ADF8C0
:108F74000630184B1B78DBB283F00103DBB2002B05
:108F840001D0022322E0BDF806304FF6FF7293426F
:108F940001D104231AE002AB1846FEF733FE039016
:108FA400039B002B01D1082310E0039B05221A70B8
:108FB400039B01221A71039BBDF80620DA8002ABE1
:108FC4001846FEF735FEFFF7D1FC0023184605B01E
:108FD4005DF804FBF47F002000B583B0144B1B78CC
:108FE400DBB283F00103DBB2002B01D002231AE0D1
:108FF4006B461846FEF706FE0190019B002B01D13B
:10900400082310E0019B06221A706B461846FEF7EF
:109014000FFE084B1B78002B02D0064B01221A735B
:10902400FFF7A4FC0023184603B05DF804FB00BF5F
:10903400F47F0020D480002000B585B00292019313
:109044000346ADF80E300B46ADF80C3003A90DF114
:109054000E00019B029AFEF767FD0346184605B011
:109064005DF804FB00B585B0034602910192ADF8AA
:109074000E300DF10E01019B029A0020FEF754FD03
:109084000346184605B05DF804FB00B585B00346F9
:1090940002910192ADF80E300DF10E00019B029A7F
:1090A4000021FEF741FD0346184605B05DF804FBB8
:1090B40082B001900091019B002B02D0009B002BF9
:1090C40001D1052304E0019B1A68009B1A60002368
:1090D400184602B070470000EFF308831C4623468D
:1090E4001C46246B2146124809F056FD1EF0040F5D
:1090F4001CBFEFF309800AE0EFF308800849094A2E
:10910400884201D8904202D88D464FF000006B4649
:10911400854608B5044B9847BDE808409D4670470E
:109124000000042000F803206F91020000BF00BF7C
:10913400B0C00300BFF34F8F0549054BDB6803F450
:10914400E062044B1343CB60BFF34F8F00BFFDE7D6
:1091540000ED00E00400FA0500B583B00190FFF7CC
:10916400E9FF00BF03B05DF804FB00B583B00190D4
:10917400FDF750FD00BFFDF781FB0346002BFAD13C
:109184000198FFF7E9FF00BF03B05DF804FB86B068
:1091940001900091019B53E8011F8AB2D8890244CF
:1091A4009889824228BF121A1889824202BFBFF3EB
:1091B4002F8F002307E0C2EA010243E801200028C0
:1091C400E9D14FF001038DF80F300590029104921C
:1091D400029A009B1A609DF80F30DBB2184606B065
:1091E400704784B00190019951E8013FC3EA0343F9
:1091F40041E80132002AF7D10392029300BF04B080
:10920400704786B001900091019B53E8021F1FFA3A
:10921400A1F2D888824202BFBFF32F8F00230DE052
:10922400D88902449889824228BF121AC1EA0242AC
:1092340043E802200028E8D14FF001038DF80F30F5
:10924400059002910492029A009B1A609DF80F30D7
:10925400DBB2184606B0704784B00190019951E81A
:10926400023FC3EA234341E80232002AF7D10392C2
:10927400029300BF04B0704786B00190019B53E88D
:10928400021FDA88B1EB314F4FF0000017BF89B2EB
:1092940042EA024241EA024204E05968B1EB314F2A
:1092A40008BF012043E802210029E8D18DF80F000E
:1092B400059104929DF80F30DBB2184606B0704752
:1092C40084B00390029111461A460B46ADF806305D
:1092D4001346ADF80430029B002B01D10E231FE08E
:1092E400BDF80630BDF80420B3FBF2F102FB01F235
:1092F4009B1A9BB2002B01D0092311E0039B029A15
:109304001A60039B00225A60039B00229A60039B0D
:10931400BDF806209A81039BBDF80420DA8100235E
:10932400184604B0704700B585B001900198FFF766
:10933400A3FF03468DF80F309DF80F30002B01D0AA
:10934400002300E01123184605B05DF804FB00B5C6
:1093540085B001900091009B19460198FFF717FF13
:109364000346002B07D0019B1B68009A1288134404
:109374000393039B00E00023184605B05DF804FB4B
:1093840000B583B001900091009B1A88009B5B8814
:109394009A4204D10198FFF724FF012300E000233F
:1093A400184603B05DF804FB00B585B00190009148
:1093B400009B19460198FFF724FF0346002B07D0B2
:1093C400019B1B68009A528813440393039B00E09B
:1093D4000023184605B05DF804FB00B583B0019086
:1093E4000091009B1A88009B5B889A4204D10198E3
:1093F400FFF732FF012300E00023184603B05DF8B5
:1094040004FB00B585B001900091009B5B099B00B3
:10941400019AD018009B03F01F03012202FA03F300
:10942400194600F0D6F8039000BF05B05DF804FBC0
:1094340000B583B001900091009B5B099B00019AE9
:10944400D018009B03F01F03012202FA03F319460C
:1094540000F0A7F80246009B03F01F0322FA03F36F
:1094640003F00103002B14BF01230023DBB21846D1
:1094740003B05DF804FB00B585B001900091009B3A
:109484005B099B00019AD018009B03F01F03012283
:1094940002FA03F3DB43194600F0CBF8039000BF54
:1094A40005B05DF804FB82B001900091009B5B095C
:1094B4009B00019A13441A68009B03F01F0322FACD
:1094C40003F303F00103002B14BF01230023DBB2D9
:1094D400184602B0704700B58BB00190009100238C
:1094E40009933BE0099B9B00019A13441B68DB43EF
:1094F4000693069B93FAA3F30593059BB3FA83F3B0
:10950400089323E0099B5A01089B13440793079A85
:10951400009B9A421ED207990198FFF789FF0346E0
:1095240083F00103DBB2002B01D0079B1EE0099BF3
:109534009B00019A13441B68DB430493049B93FA36
:10954400A3F30393039BB3FA83F30893089B1F2BA2
:10955400D8D900E000BF099B01330993009B013B6C
:109564005B095A1C099B9A42BCD8009B18460BB055
:109574005DF804FB10B487B001900091019B009A40
:1095840053E8004F104643E8000191F0000FF7D173
:10959400059404900391059B184607B05DF8044BAD
:1095A400704710B487B001900091019B009A53E872
:1095B400004F44EA020043E8000191F0000FF6D1A5
:1095C400059404900391059B184607B05DF8044B7D
:1095D400704710B487B001900091019B009A53E842
:1095E400004F44EA020043E8000191F0000FF6D175
:1095F400059404900391049B184607B05DF8044B4E
:10960400704710B487B001900091019B009A53E811
:10961400004F04EA020043E8000191F0000FF6D184
:10962400059404900391059B184607B05DF8044B1C
:10963400704710B487B001900091019B009A53E8E1
:10964400004F04EA020043E8000191F0000FF6D154
:10965400059404900391049B184607B05DF8044BED
:10966400704710B487B001900091019B009A53E8B1
:10967400004F04EB020043E8000191F0000FF6D123
:10968400059404900391059B184607B05DF8044BBC
:10969400704710B487B001900091019B009A53E881
:1096A400004F04EB020043E8000191F0000FF6D1F3
:1096B400059404900391049B184607B05DF8044B8D
:1096C400704710B487B001900091019B009A53E851
:1096D400004FA4EB020043E8000191F0000FF6D123
:1096E400059404900391049B184607B05DF8044B5D
:1096F400704700B583B0019001210198FFF751FF35
:109704000346184603B05DF804FB00B583B001902E
:1097140001210198FFF75DFF0346184603B05DF889
:1097240004FB00B583B0019000210198FFF769FFA5
:109734000346184603B05DF804FB82B001900B4663
:109744008DF80330019BDA689DF803300199898A0A
:1097540001FB03F31344184602B0704782B0019032
:109764000091009B019AD2689B1A019A928AB3FBDA
:10977400F2F3DBB2184602B0704700B585B0019031
:109784000023039300238DF80A300DF10A031846D1
:10979400FDF724FE019B1B681A68019B5B689A42D3
:1097A40020D9019B1B681A68013A1A601B681B7850
:1097B40019460198FFF7C1FF0390019B9B681A4665
:1097C400019B1B681B68D31A8DF80B30019B1B6827
:1097D4001B799DF80B209A4204D9019B1B689DF8C4
:1097E4000B201A719DF80A301846FDF701FE039B01
:1097F400184605B05DF804FB10B584B001900091E3
:10980400009B039300238DF80B300DF10B031846D6
:10981400FDF7E4FD019B1B681C68621C1A60039938
:109824000198FFF79BFF034623709DF80B30184601
:10983400FDF7DEFD00BF04B010BD000000B587B029
:10984400059004910392059B002B0FD1184B1B88A4
:109854001B0443F001031846164A17490E230093CC
:109864000B461649FCF7E5FF0E231CE0049B002B76
:109874000FD10F4B1B881B0443F001031846104AF9
:109884000D490E2300930B460C49FCF7D2FF0E231F
:1098940009E0059B049A1A60059B1B681B680399E1
:1098A400059898470346184607B05DF804FB00BFC7
:1098B400F4570020ECC0030090C20300F4C003007E
:1098C40020C1030010B586B0059004910392029361
:1098D400059B002B0FD15C4B1B881B0443F0010339
:1098E40018465A4A5A490E2300930B465949FCF725
:1098F400A0FF0E23A4E0039B002B0FD1524B1B8827
:109904001B0443F001031846534A51490E230093A4
:109914000B465049FCF78DFF0E2391E0059B1B6815
:10992400002B0FD1484B1B881B0443F0010318463E
:109934004A4A4749082300930B464649FCF779FFF6
:1099440008237DE0029B002B0FD13F4B1B881B0497
:1099540043F001031846424A3D49092300930B464C
:109964003C49FCF766FF09236AE0059B5B685A687B
:10997400029BB3FBF2F102FB01F29B1A002B0FD006
:10998400314B1B881B0443F001031846354A304908
:10999400092300930B462F49FCF74BFF09234FE0A3
:1099A400049800F057F90346002B0FD1264B1B886F
:1099B4001B0443F0010318462B4A25491023009346
:1099C4000B462449FCF735FF102339E0039B184666
:1099D40000F040F90346002B0FD11B4B1B881B04DE
:1099E40043F001031846214A1949102300930B46FA
:1099F4001849FCF71EFF102322E0029A04990598E7
:109A040000F00EF90346002B0FD10F4B1B881B04EB
:109A140043F001031846164A0D49102300930B46E0
:109A24000C49FCF706FF10230AE0059B1B68DC6861
:109A3400089B0093029B039A04990598A047034648
:109A4400184606B010BD00BFF4570020ECC0030058
:109A5400A4C20300F4C0030080C1030028C10300B2
:109A64003CC1030088C10300B4C10300CCC103009E
:109A7400F0C1030010B586B00590049103920293DF
:109A8400059B002B0FD13C4B1B881B0443F00103A7
:109A940018463A4A3A490E2300930B463949FCF7D3
:109AA400C8FE0E2364E0059B1B68002B0FD1324BCC
:109AB4001B881B0443F001031846334A304908232A
:109AC40000930B462F49FCF7B4FE082350E0039B98
:109AD400002B0FD1284B1B881B0443F001031846AD
:109AE4002A4A2749092300930B462649FCF7A1FE7D
:109AF40009233DE00499059800F0B9F80346002BCA
:109B04000FD11D4B1B881B0443F001031846204A48
:109B14001B49102300930B461A49FCF78AFE1023B5
:109B240026E0059B5B681B68039A02FB03F31A4655
:109B34000499059800F074F80346002B0FD10E4BDE
:109B44001B881B0443F001031846124A0C491023D6
:109B540000930B460B49FCF76CFE102308E0059BB1
:109B64001B681C69029B039A04990598A047034645
:109B7400184606B010BD00BFF4570020ECC0030027
:109B8400B8C20300F4C0030028C103003CC10300B1
:109B940018C2030040C2030000B585B00190019BC8
:109BA400002B03D0019B1B68002B28D100230393B7
:109BB40019E0039A13469B0013449B001A46154B65
:109BC40013440193019B1B68002B09D0019B1B6864
:109BD400DB69019898470346002B01D0012314E068
:109BE400039B013303930C4A0A4BD31A0B4AA2FB7F
:109BF40003231B09039A9A42DBD3002305E0019B4C
:109C04001B68DB69019898470346184605B05DF860
:109C140004FB00BF085800201C580020CDCCCCCC3D
:109C240084B0039002910192039BDA68029B9A42EA
:109C340009D8029A019B13445A1E039B1B699A423A
:109C440001D8012300E0002303F00103DBB218462E
:109C540004B0704782B00190019B03F00303002B12
:109C64000CBF01230023DBB2184602B0704782B058
:109C740001900091019B5B681B685A1E009B134076
:109C8400002B0CBF01230023DBB2184602B070473F
:109C940029DF704700BF184628DF704700BF184609
:109CA40000B589B001900091019B1B689B68002B53
:109CB40035D002AB00221A605A609A60DA601A61E9
:109CC4005A61009B0393019B9B680793019B1B793B
:109CD400002B02D0012B0DD01AE001238DF808309F
:109CE400019B1B690493019BDB680593019B5B69E2
:109CF40006930DE002238DF80830019BDB684FF4D6
:109D0400805202FB03F30493019B5B69069300BF3B
:109D1400019B1B689B6802AA1046984700E000BF9D
:109D240009B05DF804FB00B587B00190019B5A6946
:109D3400019B9B69D31AB3F5805F28BF4FF480530E
:109D440005930422059BB3FBF2F3012B38BF0123D7
:109D54000593019B1A69019B9B6913440493019B1E
:109D6400DB681A46019B9B6913440393059A039984
:109D74000498FFF78DFF0346184607B05DF804FB0F
:109D840000B583B00190019BDA68019B1B69134401
:109D94001846FFF781FF0346184603B05DF804FB3D
:109DA40008B5034B03491846FFF717FB00BF08BD6E
:109DB40030580020A881002008B5084B08491846EF
:109DC400FFF7F2FA0246074B1A60064B1B68002B9A
:109DD40014BF01230023DBB2184608BD305800200D
:109DE400A8810020A481002000B583B02A4B1B7AEF
:109DF400002B0BD1FFF7E0FF034683F00103DBB236
:109E0400002B03D0244B00225A6042E0224B022252
:109E14001A72224B1B681B79002B02D0012B07D02E
:109E24000DE01E4B1B681846FFF77DFF019009E00B
:109E34001A4B1B681846FFF7A3FF019002E00323A7
:109E4400019300BF019B002B02D0112B0CD00FE01B
:109E5400114B1B7C83F00103DBB2002B18D00021D3
:109E6400022000F061F913E00B4B01221A7210E09A
:109E74000A4B1B6803211846FFF712FF064B00220A
:109E84001A72054B00225A60FFF78AFF00BF00E0F8
:109E940000BF03B05DF804FB90810020A481002082
:109EA40008B50848FFF725FC0346002B08D1064BEC
:109EB4005B7C83F00103DBB2002B01D0FFF794FF3E
:109EC40000BF08BD948100209081002084B00190DF
:109ED4001B4B0022DA60019B1B79002B02D0012B63
:109EE40019D028E0019B5A69019B9B69D31AB3F5E9
:109EF400805F28BF4FF480530393019B9A69039BAF
:109F04001A44019B9A61019B9A69019B5B699A427D
:109F14000ED1012310E0019B1B695A1C019B1A619D
:109F2400019B1A69019B5B699A4203D1012303E0F7
:109F340000BF00E000BF0023184604B0704700BF14
:109F44009081002082B00190084BDB680133074AFE
:109F5400D360064BDB68082B04D9044B0022DA607B
:109F6400012300E00023184602B0704790810020CE
:109F740000B583B001900091019B0C4A5A600C48D3
:109F8400FFF7B7FB0346002B0BD110F025F903466E
:109F94001A46074B1A7407481C238C220649FFF7FC
:109FA4008FF90023184603B05DF804FBCCC203000C
:109FB40090810020305800200481002000B583B037
:109FC4000190009114220021054811F04BFB054B30
:109FD4001846FFF7A8F90023184603B05DF804FB00
:109FE400908100203058002000B587B00390029182
:109FF40001920093174A04AB19461046FFF7A7F9DC
:10A004000590059B002B01D104231FE01C22002195
:10A01400059811F027FB059B00221A71059B039AF2
:10A024001A60059B089A9A60059B029A1A61059B1F
:10A03400019ADA60059B009A5A61064A04AB1946F4
:10A044001046FFF79DF9FFF72BFF0023184607B0D2
:10A054005DF804FB3058002000B585B003900291F0
:10A0640001920093029B009A1946019811F0D0FACC
:10A074000023184605B05DF804FB000000B587B066
:10A084000390029101920093184A04AB19461046BA
:10A09400FFF75DF90590059B002B01D1042320E017
:10A0A4001C220021059811F0DDFA059B01221A718A
:10A0B400059B039A1A60059B009A9A604FF480529C
:10A0C400029BB3FBF2F2059BDA60059B019A5A618D
:10A0D400064A04AB19461046FFF752F9FFF7E0FEB3
:10A0E4000023184607B05DF804FB00BF3058002079
:10A0F40082B001900091009B184602B0704782B074
:10A10400019000910023184602B0704782B001907C
:10A11400044B1B7A002B14BF01230023DBB2184627
:10A1240002B070479081002000B585B00190009185
:10A13400019B022B02D0019B032B49D1274B1B7A95
:10A14400012B35D0022B02D0002B43D033E0002367
:10A154008DF80F30019B022B02D0032B09D011E0A4
:10A164001F4B1B681846FFF7B1FE03468DF80F30EE
:10A1740008E01B4B1B681846FFF7E4FE03468DF806
:10A184000F3000BF9DF80F30002B13D0134B00226B
:10A194001A72134B1A68019B022B01D1002300E0B1
:10A1A4000D2319461046FFF77BFDFFF7F9FD01E08B
:10A1B40000BF00E000BF094B5B7C83F00103DBB20E
:10A1C400002B02D0FFF710FE05E00FF0E9FF02E0DC
:10A1D40000BF00E000BF05B05DF804FB90810020E3
:10A1E400A481002082B0034600918DF80730064B0D
:10A1F40001225A74044B1B7A002B0CBF0123002349
:10A20400DBB2184602B070479081002000B583B0DD
:10A21400034600918DF807309DF80730012B03D0D9
:10A224009DF80730032B0DD1084B00225A749DF87A
:10A234000730012B0CBF01230023DAB2034B1A743D
:10A24400FFF7D2FD00BF03B05DF804FB908100204E
:10A2540000B58BB001900091019B9B8A043B07934E
:10A26400009A079B1344DA1C079BB2FBF3F38DF8A7
:10A274001B300198FFF781FA0590059B002B01D153
:10A28400002338E0059B00221A71059B01225A71B4
:10A29400079B9AB2059BDA80059B09939DF81B30B6
:10A2A400013B0493099B019A1A60002308931DE063
:10A2B4000198FFF762FA0390039B002B0ED0059BD5
:10A2C4005B790133DAB2059B5A71099B039A1A60D0
:10A2D400039B019A1A60039B099304E0059800F01C
:10A2E4000EF8002307E0089B01330893089A049BA7
:10A2F4009A42DDD3059B18460BB05DF804FB00B50C
:10A304008BB00190019B0793079B5B798DF81B3001
:10A31400019B08939DF81B30013B0593002309938F
:10A3240005E0089B1B680893099B01330993099A6C
:10A33400059B9A42F5D3089B1B680493019B0893E1
:10A34400002309930BE0089B1B6803930899049866
:10A35400FFF752FA039B0893099B013309939DF875
:10A364001B20099B9A42EED800BF0BB05DF804FB9A
:10A3740000B585B00190019B0393039B0433012135
:10A384001846FFF786F900BF05B05DF804FB00B579
:10A3940087B00190019B0593059B04330121184666
:10A3A400FFF78FF90346039303AB0493049B1B78D5
:10A3B400002B02D10198FFF7A2FF00BF07B05DF8A0
:10A3C40004FB00B58DB00390029101920093039BAE
:10A3D4000693069BDB880593039B0B93009B1A1D36
:10A3E400059BB2FBF3F30A93009B0433059AB3FB7A
:10A3F400F2F2059901FB02F29B1A0993009A019B60
:10A404001A44059B1344DA1C059BB2FBF3F38DF845
:10A41400133005E00B9B1B680B930A9B013B0A93CB
:10A424000A9B002BF6D100230893059A099BD31AA3
:10A434000793079A019B934228BF134607932DE085
:10A444009DF83830002B0BD0029A089BD0180B9A39
:10A45400099B13440433079A194611F0D9F80AE00A
:10A464000B9A099B1344181D029A089B1344079ADC
:10A47400194611F0CDF8002309930B9B1B680B932D
:10A48400019A079BD31A0193089A079B13440893D4
:10A49400059A019B934228BF13460793019B002B07
:10A4A400CED100BF0DB05DF804FB00B587B00590B8
:10A4B40004910392029300230093029B039A04994C
:10A4C4000598FFF77EFF00BF07B05DF804FB82B07C
:10A4D40001900091019B009A1A60019B1B681A6805
:10A4E400019B5A60019B5A68019B1B685B689A42F6
:10A4F40002D1019B00225A6000BF02B0704782B0B3
:10A504000190019B5B68002B14D0019B5B681A4689
:10A51400019B1B689B6813441A46019B5A60019B6C
:10A524005A68019B1B685B689A4204D1019B002214
:10A534005A6000E000BF02B07047000000B585B06B
:10A544000190019800F00EF80390039B002B01D0BA
:10A55400039B00E0024B184605B05DF804FB00BF06
:10A5640008C3030086B00190164B0593164B049361
:10A574001FE0049A059BD31ADB10DA0F13445B1017
:10A58400DB00059A13440393039B1B680293029A0E
:10A59400019B9A4202D9039B04930AE0029A019B0D
:10A5A4009A4203D2039B0833059302E0039B5B6842
:10A5B40004E0059A049B9A42DBD30023184606B0B4
:10A5C400704700BF08C7030030C8030082B0019081
:10A5D4000091009B1B7B002B07D0009B5A68019BBA
:10A5E4001A60019B00221A7106E0009B1A68019B05
:10A5F4001A60019B01221A7100BF02B0704700B5B6
:10A6040083B001900091019B1B79002B04D0009929
:10A61400019800F00BF803E00099019800F024F889
:10A62400019B1B68184603B05DF804FB82B00190DF
:10A634000091009B5A68019B1B68D21A009B9B687F
:10A644009A4207D9019B1A68009B9B681A44019B94
:10A654001A6006E0009B5A68019B1A60019B002265
:10A664001A7100BF02B0704782B001900091019B43
:10A674001A68009B1B68D21A009B9B689A4207D9F0
:10A68400019B1A68009B9B68D21A019B1A6006E022
:10A69400009B1A68019B1A60019B01221A7100BF7A
:10A6A40002B07047BFF34F8F0549054BDB6803F4D5
:10A6B400E062044B1343CB60BFF34F8F00BFFDE751
:10A6C40000ED00E00400FA05024B034A1A6000BFE3
:10A6D400704700BF445800200090D00308B500F034
:10A6E40025F90346002B0ED04FF080430022C3F817
:10A6F4000C214FF080430022C3F810214FF0804317
:10A704000022C3F8382500F02FF90346002B76D039
:10A714007D4A4FF08053D3F80434C2F820357A4A86
:10A724004FF08053D3F80834C2F82435764A4FF0FA
:10A734008053D3F80C34C2F82835734A4FF0805351
:10A74400D3F81034C2F82C356F4A4FF08053D3F845
:10A754001434C2F830356C4A4FF08053D3F81834AF
:10A76400C2F83435684A4FF08053D3F81C34C2F829
:10A774004035654A4FF08053D3F82034C2F844354D
:10A78400614A4FF08053D3F82434C2F848355E4A06
:10A794004FF08053D3F82834C2F84C355A4A4FF05E
:10A7A4008053D3F82C34C2F85035574A4FF08053B5
:10A7B400D3F83034C2F85435534A4FF08053D3F8A9
:10A7C4003434C2F86035504A4FF08053D3F83834EB
:10A7D400C2F864354C4A4FF08053D3F83C34C2F885
:10A7E4006835494A4FF08053D3F84034C2F86C3589
:10A7F400454A4FF08053D3F84434C2F8703500F022
:10A80400D1F80346002B02D0404B414A1A6000F0B5
:10A81400DBF80346002B03D03E4BFB22C3F818257C
:10A8240000F0E4F80346002B0AD03B493A4B1B687E
:10A8340023F00F02394B1B6803F00F0313430B6023
:10A8440000F0E6F80346002B03D0354B4FF40072BA
:10A854001A6000F0EFF80346002B0DD04FF0804350
:10A86400D3F8003403F00103002B05D04FF08043EC
:10A874006FF00102C3F800242A4A2A4BD3F8883027
:10A8840043F47003C2F88830BFF34F8FBFF36F8F68
:10A894004FF01023D3F80032002B05DB4FF01023C8
:10A8A400D3F80432002B2BDA1F4B0122C3F8042502
:10A8B40000BF1D4BD3F80034002BFAD04FF0102307
:10A8C4001222C3F8002200BF174BD3F80034002B28
:10A8D400FAD04FF010231222C3F8042200BF124B07
:10A8E400D3F80034002BFAD00F4B0022C3F8042510
:10A8F40000BF0D4BD3F80034002BFAD0FFF7D2FE83
:10A90400FFF7E2FE00BF08BD00C000408C560040C7
:10A914004881030000F00040E40E0040580200109B
:10A924004096024000ED00E000E001400C4B1B6843
:10A93400082B11D10B4B1B68002B01D101230CE018
:10A94400084B1B68012B01D1012306E0054B1B6852
:10A95400022B01D1012300E001231846704700BFF8
:10A9640030010010340100100C4B1B68082B11D16E
:10A974000B4B1B68002B01D101230CE0084B1B6817
:10A98400012B01D1012306E0054B1B68022B01D1E9
:10A99400012300E001231846704700BF3001001076
:10A9A40034010010064B1B68082B05D1054B1B68AE
:10A9B400002B01D1012300E000231846704700BF9B
:10A9C4003001001034010010064B1B68082B05D120
:10A9D400054B1B68002B01D1012300E0002318461E
:10A9E400704700BF3001001034010010064B1B6893
:10A9F400082B05D1054B1B68002B01D1012300E076
:10AA040000231846704700BF3001001034010010C5
:10AA1400064B1B68082B05D1054B1B68002B01D185
:10AA2400012300E000231846704700BF30010010E6
:10AA3400340100100C4B1B68082B11D10B4B1B6805
:10AA4400002B01D101230CE0084B1B68012B01D121
:10AA5400012306E0054B1B68022B01D1012300E012
:10AA640001231846704700BF300100103401001064
:10AA740000B585B0019000230393019B03F0070305
:10AA8400002B04D0019B23F007030833019301F04A
:10AA940089FA164B1B68002B05D1154B23F00703CD
:10AAA4001A46124B1A60134B1A68019B134440F662
:10AAB400F772934213D80F4B1A68019B1A440D4B3B
:10AAC4001B689A420BD9094B1A680A4B1B6813443A
:10AAD4000393084B1A68019B1344064A136001F060
:10AAE400A1FA039B184605B05DF804FBB091002061
:10AAF400B4810020AC91002082B0019000BF02B06C
:10AB0400704782B00190019B03F10802019B5A60D7
:10AB1400019B4FF0FF329A60019B03F10802019BF5
:10AB2400DA60019B03F10802019B1A61019B002278
:10AB34001A6000BF02B0704782B00190019B0022EE
:10AB44001A6100BF02B0704784B001900091019B6C
:10AB54005B680393009B039A5A60039B9A68009B6B
:10AB64009A60039B9B68009A5A60039B009A9A60C0
:10AB7400009B019A1A61019B1B685A1C019B1A6075
:10AB840000BF04B0704784B001900091009B1B6823
:10AB94000293029BB3F1FF3F03D1019B1B69039313
:10ABA4000CE0019B0833039302E0039B5B6803936F
:10ABB400039B5B681A68029B9A42F6D9039B5A6806
:10ABC400009B5A60009B5B68009A9A60009B039A02
:10ABD4009A60039B009A5A60009B019A1A61019B38
:10ABE4001B685A1C019B1A6000BF04B0704784B0F4
:10ABF4000190019B1B690393019B5B68019A926816
:10AC04009A60019B9B68019A52685A60039B5A6838
:10AC1400019B9A4203D1019B9A68039B5A60019B52
:10AC240000221A61039B1B685A1E039B1A60039B34
:10AC34001B68184604B070470848006880F3088809
:10AC440062B661B6BFF34F8FBFF36F8F4FF4F070EE
:10AC540080F3118800DF00BF00BF00000060020025
:10AC6400074B19680868B0E8F04F80F30988BFF310
:10AC74006F8F4FF0000080F31188704700BF000011
:10AC8400C8910020EFF30980BFF36F8F154B1A684A
:10AC94001EF0100F08BF20ED108A20E9F04F10605D
:10ACA4004DF8043D4FF0400080F31188BFF34F8FFF
:10ACB400BFF36F8F01F004FB4FF0000080F31188A5
:10ACC40008BC19680868B0E8F04F1EF0100F08BF00
:10ACD400B0EC108A80F30988BFF36F8F704700BF10
:10ACE40000BF0000C891002082B0034600918DF897
:10ACF40007309DF90730002B0CDA0D499DF8073019
:10AD040003F00F03043B009AD2B25201D2B20B44B7
:10AD14001A7609E007499DF90730009AD2B2520128
:10AD2400D2B20B4483F8002300BF02B0704700BFC7
:10AD340000ED00E000E100E086B003900291019292
:10AD4400039B043B0393002305939DF8173043F0C2
:10AD540001038DF81730059A039B1A60039B043B8B
:10AD64000393029A039B1A60039B043B03930B4ACD
:10AD7400039B1A60039B143B0393019A039B1A6081
:10AD8400039B043B0393039B6FF002021A60039B33
:10AD9400203B0393039B184606B07047A5AD020001
:10ADA40082B040230193019B83F31188FEE70000E6
:10ADB40008B50F216FF00100FFF796FF00F0D0F9FE
:10ADC4000B4B00221A6000F03DF80A4A094B5B68FD
:10ADD40043F040435360084A074B1B6943F0100398
:10ADE4001361FFF729FFFFF7DBFF0023184608BDB7
:10ADF400B491002030EF00E000ED00E082B0402389
:10AE04000193019B83F31188034B1B680133024AAE
:10AE1400136000BF02B07047B491002082B0084BA9
:10AE24001B68013B064A1360054B1B68002B04D1C9
:10AE340000230193019B83F3118800BF02B0704784
:10AE4400B4910020044A044BD3F8883043F47003CF
:10AE5400C2F8883000BF704700ED00E082B00346BE
:10AE64008DF8073007499DF907305B099DF80720E5
:10AE740002F01F02012000FA02F241F8232000BF71
:10AE840002B0704700E100E082B003468DF807305D
:10AE940008499DF907305B099DF8072002F01F025D
:10AEA400012000FA02F2603341F8232000BF02B00F
:10AEB400704700BF00E100E082B0034600918DF8C6
:10AEC40007309DF90730002B0CDA0D499DF8073047
:10AED40003F00F03043B009AD2B25201D2B20B44E6
:10AEE4001A7609E007499DF90730009AD2B2520157
:10AEF400D2B20B4483F8002300BF02B0704700BFF6
:10AF040000ED00E000E100E082B0EFF31083009375
:10AF1400009B019372B6019B184602B0704762B65B
:10AF240000BF704700B585B00190FFF7EDFF0390B7
:10AF3400164B9B68002B1BD1144B01229A60144BB7
:10AF4400D3F88020134B1340104A1360104B114A5E
:10AF5400C3F880200E4BD3F884300C4A53600C4B5A
:10AF64004FF0FF32C3F88420019B00221A7002E0E4
:10AF7400019B01221A70039B002B01D1FFF7CFFF25
:10AF84000023184605B05DF804FB00BFE87F0020ED
:10AF940000E100E0FC06FFBD00B585B003468DF876
:10AFA4000730104B9B68002B16D09DF80730002B00
:10AFB40012D1FFF7A9FF03900B4A0A4B1B681360D9
:10AFC400094A084B5B685360064B00229A60039B56
:10AFD400002B01D1FFF7A3FF0023184605B05DF84D
:10AFE40004FB00BFE87F002000E100E084B0EFF341
:10AFF40011830193019B039340230293029B83F3E8
:10B004001188039B184604B0704784B003900291E2
:10B014000192039B029A02F5A872019943F8221047
:10B0240000BF04B0704782B001900091019B009A68
:10B03400C3F8042300BF02B0704782B001900091AE
:10B04400019B009AC3F8082300BF02B0704784B084
:10B0540001900B46ADF80230BDF80230019A13445A
:10B0640000221A60BDF80230019A13441B6803934E
:10B07400039B00BF04B0704782B00190019BD3F8DA
:10B084000435184602B0704782B001900091019BCC
:10B09400009AC3F8082500BF02B0704782B001903F
:10B0A4000B468DF803309DF80320019B13441A4688
:10B0B4000123136000BF02B0704782B00190009179
:10B0C400019B009AC3F8442300BF02B070470000FC
:10B0D40000B587B04FF4A0711F48FFF7B8FF0023F5
:10B0E4000593FFF783FF03901B48FFF7C5FF02900A
:10B0F4004FF480711848FFF7AAFF01F021F80246C7
:10B10400029B9B1A23F07F430493049B012B0DD9CC
:10B1140001F0F0FA0346022B08D00123049305E062
:10B1240001F032F80246059B13430593049B5A1E13
:10B134000492002BF4D1059B002B04D0074B4FF055
:10B1440080525A6040BF039B0193019B83F3118893
:10B1540000BF07B05DF804FB0010014000ED00E003
:10B1640008B5002002F0CCFA1F210E48FFF78CFF2F
:10B1740001210C48FFF757FF08210A48FFF78EFF0B
:10B1840000210848FFF78AFF02210648FFF795FFD0
:10B194000F211120FFF790FE1120FFF75FFE00BF83
:10B1A40008BD00BF0010014000B58DB00190019BA7
:10B1B400424A934201D9414B019300238DF80B304D
:10B1C4000DF10B031846FFF7ADFE0A900A9B099395
:10B1D400099B002B02D00998FBF70CFF3848FFF7B6
:10B1E4004BFF089001F0BEF90346002B55D0089A96
:10B1F400019B134423F07F43079301213048FFF759
:10B204001CFF079A00212E48FFF7FFFE4FF4A071A0
:10B214002B48FFF71CFF4FF480312948FFF703FF49
:10B22400BFF34F8F019B0693069B002B09D020BFD1
:10B23400244BD3F80021234BD3F804311343002BC0
:10B24400F5D04FF480311E48FFF7F7FE4FF4A0719C
:10B254001B48FFF7FCFE4FF480711948FFF7F7FE17
:10B2640001211748FFF7DFFE1548FFF705FF05909A
:10B27400059A089BD31A23F07F430B931120FFF701
:10B2840003FE0B9A019B9A4201D9019B0B930B9BE2
:10B29400002B02D00B9800F069FF0020FFF77CFE22
:10B2A4000490049B0393039B002B02D00398FBF7A9
:10B2B400A1FE00BF0DB05DF804FB00BFFDFFFF0061
:10B2C4000010014000E100E084B0EFF3118301932A
:10B2D400019B039340230293029B83F31188039BF6
:10B2E400184604B07047000000B585B00190009185
:10B2F400019B0393FFF782FD039B1A68039BDB6B9F
:10B304000399096C01FB03F31A44039B5A60039BE2
:10B3140000229A63039B1A68039B9A60039B1A6832
:10B32400039BDB6B013B0399096C01FB03F31A4498
:10B33400039BDA60039BFF2283F84420039BFF22D4
:10B3440083F84520009B002B15D1039B1B69002B20
:10B354001BD0039B1033184601F022F80346002B40
:10B3640013D00D4B4FF080525A6040BFBFF34F8F44
:10B37400BFF36F8F09E0039B10331846FFF7C1FB3F
:10B38400039B24331846FFF7BCFBFFF747FD01235B
:10B39400184605B05DF804FB00ED00E000B58BB085
:10B3A4000590049113468DF80F30049B002B02D1B5
:10B3B4000023099304E0059B049A02FB03F3099319
:10B3C400099B48331846FFF753FB0890089B002B52
:10B3D4000CD0089B483307939DF80F20089B0093DB
:10B3E4001346079A0499059800F005F8089B184637
:10B3F4000BB05DF804FB00B585B003900291019297
:10B404008DF80330029B002B03D1069B069A1A6029
:10B4140002E0069B019A1A60069B039ADA63069B74
:10B42400029A1A6401210698FFF75EFF00BF05B077
:10B434005DF804FB00B58BB0039002910192009378
:10B4440000230993039B0893FFF7D8FC089B9A6B8E
:10B45400089BDB6B9A4202D3009B022B2BD1009AF0
:10B464000299089800F080F90790089B5B6A002B0A
:10B4740011D0089B2433184600F092FF0346002B9A
:10B4840015D0404B4FF080525A6040BFBFF34F8FEE
:10B49400BFF36F8F0BE0079B002B08D0394B4FF0A5
:10B4A40080525A6040BFBFF34F8FBFF36F8FFFF7D7
:10B4B400B5FC012362E0019B002B03D1FFF7AEFC36
:10B4C40000235BE0099B002B05D105AB184600F077
:10B4D400BDFF01230993FFF7A1FC00F063FDFFF713
:10B4E4008DFC089B93F844305BB2B3F1FF3F03D16A
:10B4F400089B002283F84420089B93F845305BB2F4
:10B50400B3F1FF3F03D1089B002283F84520FFF7E6
:10B5140085FC01AA05AB1146184600F0A9FF0346B5
:10B52400002B25D1089800F019FA0346002B19D0F6
:10B53400089B1033019A1146184600F0FFFE089844
:10B5440000F0A0F900F06EFD0346002B7FF47CAF01
:10B554000C4B4FF080525A6040BFBFF34F8FBFF384
:10B564006F8F71E7089800F08DF900F05BFD6BE7D1
:10B57400089800F087F900F055FD002318460BB039
:10B584005DF804FB00ED00E000B58BB00390029180
:10B5940001920093039B0893FFF796FE0790089B84
:10B5A4009A6B089BDB6B9A4202D3009B022B2CD133
:10B5B400089B93F845308DF81B30009A029908983F
:10B5C40000F0D2F89DF91B30B3F1FF3F12D1089B74
:10B5D4005B6A002B16D0089B2433184600F0E0FE6B
:10B5E4000346002B0ED0019B002B0BD0019B0122A4
:10B5F4001A6007E09DF81B300133DBB25AB2089B96
:10B6040083F845200123099301E000230993079B54
:10B614000593059B83F31188099B18460BB05DF8CD
:10B6240004FB000000B58BB003900291019200234B
:10B634000993039B0893FFF7E1FB089B9B6B07931C
:10B64400079B002B20D00299089800F0F6F8079B7E
:10B654005A1E089B9A63089B1B69002B10D0089BF9
:10B664001033184600F09CFE0346002B08D03D4BD7
:10B674004FF080525A6040BFBFF34F8FBFF36F8FBC
:10B68400FFF7CCFB012368E0019B002B03D1FFF7FC
:10B69400C5FB002361E0099B002B05D105AB1846CF
:10B6A40000F0D4FE01230993FFF7B8FB00F07AFC05
:10B6B400FFF7A4FB089B93F844305BB2B3F1FF3F60
:10B6C40003D1089B002283F84420089B93F845305B
:10B6D4005BB2B3F1FF3F03D1089B002283F84520FE
:10B6E400FFF79CFB01AA05AB1146184600F0C0FE0B
:10B6F4000346002B24D1089800F01BF90346002BC5
:10B7040018D0089B2433019A1146184600F016FEFF
:10B71400089800F0B7F800F085FC0346002B8AD1A6
:10B72400104B4FF080525A6040BFBFF34F8FBFF3AE
:10B734006F8F80E7089800F0A5F800F073FC7AE7B3
:10B74400089800F09FF800F06DFC089800F0F1F8FC
:10B754000346002B3FF46FAF002318460BB05DF88F
:10B7640004FB00BF00ED00E000B587B00390029138
:10B77400019200230593039B9B6B0493039B1B6C17
:10B78400002B0DD1039B1B68002B4DD1039B5B68E1
:10B79400184600F0C9FF0590039B00225A6043E05D
:10B7A400019B002B19D1039B9868039B1B6C1A46C1
:10B7B40002990FF02DFF039B9A68039B1B6C1A449C
:10B7C400039B9A60039B9A68039B5B689A422BD302
:10B7D400039B1A68039B9A6026E0039BD868039B2B
:10B7E4001B6C1A4602990FF013FF039BDA68039B44
:10B7F4001B6C5B421A44039BDA60039BDA68039B6D
:10B804001B689A4207D2039B5A68039B1B6C5B42DA
:10B814001A44039BDA60019B022B05D1049B002B85
:10B8240002D0049B013B0493049B5A1C039B9A6320
:10B83400059B184607B05DF804FB00B583B0019082
:10B844000091019B1B6C002B18D0019BDA68019BB3
:10B854001B6C1A44019BDA60019BDA68019B5B68EC
:10B864009A4203D3019B1A68019BDA60019BD96851
:10B87400019B1B6C1A4600980FF0CAFE00BF03B070
:10B884005DF804FB00B585B00190FFF7B7FA019BA2
:10B8940093F845308DF80F3013E0019B5B6A002B61
:10B8A40014D0019B2433184600F07AFD0346002B84
:10B8B40001D000F023FE9DF80F30013BDBB28DF880
:10B8C4000F309DF90F30002BE7DC00E000BF019B37
:10B8D400FF2283F84520FFF7A1FAFFF78FFA019BB7
:10B8E40093F844308DF80E3013E0019B1B69002B54
:10B8F40014D0019B1033184600F052FD0346002B70
:10B9040001D000F0FBFD9DF80E30013BDBB28DF859
:10B914000E309DF90E30002BE7DC00E000BF019BE8
:10B92400FF2283F84420FFF779FA00BF05B05DF8E1
:10B9340004FB00B585B00190FFF760FA019B9B6B97
:10B94400002B02D10123039301E000230393FFF7AB
:10B9540065FA039B184605B05DF804FB00B585B095
:10B964000190FFF74BFA019B9A6B019BDB6B9A42A8
:10B9740002D10123039301E000230393FFF74EFA5E
:10B98400039B184605B05DF804FB000084B00190E9
:10B9940000910023039314E00D4A039B52F83330C3
:10B9A400002B0BD10A49039B009A41F83320084A23
:10B9B400039BDB001344019A5A6005E0039B0133A7
:10B9C4000393039B012BE7D900BF04B0704700BF6A
:10B9D400B891002000B587B0039002910192039BB7
:10B9E4000593FFF70BFA059B93F844305BB2B3F170
:10B9F400FF3F03D1059B002283F84420059B93F865
:10BA040045305BB2B3F1FF3F03D1059B002283F8BD
:10BA14004520FFF703FA059B9B6B002B06D1059B82
:10BA24002433019A0299184600F09EFC0598FFF70A
:10BA340029FF00BF07B05DF804FB84B0EFF3118366
:10BA44000193019B039340230293029B83F3118888
:10BA5400039B184604B0704700B58DB0079006915B
:10BA640004931346ADF81630BDF816309B00184603
:10BA7400FEF7FEFF0990099B002B0ED04820FEF72D
:10BA8400F7FF0B900B9B002B03D00B9B099A1A63B7
:10BA940005E00998FFF730F801E000230B930B9BB6
:10BAA400002B14D0BDF81620002303930B9B0293A4
:10BAB4000F9B01930E9B0093049B0699079800F03B
:10BAC4000EF80B9800F082F801230A9302E04FF07D
