:020000022000DC
:106000000000042061620200B9620200959B020058
:10601000BD620200BF620200C16202000000000017
:1060200000000000000000000000000029BF020086
:10603000C5620200000000004DBF0200C9620200FC
:10604000C1EC0200CF6202009DF902005D1B03005B
:10605000751B0300D7620200B5F60200DB62020086
:10606000DD620200DF620200E1620200E362020020
:10607000E5620200E7620200E9620200EB620200F0
:10608000ED62020099C30200F1620200F3620200B5
:10609000F5620200F7620200ADAE0300FB6202008F
:1060A000FD620200FF62020001630200036302005E
:1060B0000563020007630200CB620200CB620200AC
:1060C000096302000B6302000D6302000F6302000C
:1060D00011630200136302001563020017630200DC
:1060E000196302001B6302001D630200CB62020001
:1060F000CB62020021630200CB6202001F63020038
:10610000364937480A1A02D0072291438D4635494D
:1061100035480A1A06D00722914381F309880222E2
:1061200082F3148831483249324A00F045F8324847
:106130003249334A00F040F832483349334A00F0DC
:106140003BF833483349344A00F036F83348344991
:10615000344A00F031F834483449354A00F02CF81C
:1061600034483549354A00F027F83548354900228A
:1061700000F02DF834483549002200F028F8344862
:106180003449091A082903DB002202600430016047
:10619000314A90471F482049884205D002680430A0
:1061A00003B4904703BCF7E700208646EC46002086
:1061B00000212A4A9047FEE7884207D0521A05D0AC
:1061C000037801300B700131013AF9D170478842F0
:1061D00002D002700130FAE770470000000004208E
:1061E00000F8032000000420000004202CD303004A
:1061F00018580020DC5800202463020024630200A9
:1062000088C203002CD3030018580020185800201F
:1062100028C4030028C4030028C4030028C40300C2
:1062200028C4030028C4030028C4030028C40300B2
:106230002CD30300F0D30300DC580020DC580020EE
:10624000DC580020A4780020A4780020A478002046
:10625000A4780020A47C002085620200253403007D
:106260000F484FF00701884385460E4880470E4887
:10627000016841F470010160BFF34F8FBFF36F8F6E
:10628000FFF73EBF09480A490A4A884207D0521A16
:1062900005D0037801300B700131013AF9D1704714
:1062A00000000420A5B9020088ED00E0C8C3030087
:1062B000B857002018580020FEE7FEE7FEE7FEE78B
:1062C000FEE7FEE7FEE7FEE7FEE7FEE7FEE7FEE7A6
:1062D000FEE7FEE7FEE7FEE7FEE7FEE7FEE7FEE796
:1062E000FEE7FEE7FEE7FEE7FEE7FEE7FEE7FEE786
:1062F000FEE7FEE7FEE7FEE7FEE7FEE7FEE7FEE776
:10630000FEE7FEE7FEE7FEE7FEE7FEE7FEE7FEE765
:10631000FEE7FEE7FEE7FEE7FEE7FEE7FEE7FEE755
:04632000FEE700BFD5
:1063240000B5A1B00590049103920293049805F07E
:1063340070F9039B1593029B169300231793002374
:106344008DF8603000231993229B1A9300231F9326
:106354000FA91F9B0822049805F00AFA08231F932B
:10636400119B1293BDF84030ADF84C30BDF842306B
:10637400ADF84E3000238DF851309DF83C3003F0D9
:106384000303DBB2012B26D10F9BC3F395231D938B
:106394009DF83C30C3F3C203DBB28DF85030BDF836
:1063A4003C30C3F38313DBB21C931C9B9A0009A9F2
:1063B4001F9B049805F0DCF91C9B9B001F9A134457
:1063C4001F9312AA09A915AB009313461C9A1D9892
:1063D40001F084F82FE09DF83C3003F00303DBB2B6
:1063E400022B28D1BDF83E30C3F389139BB21E9310
:1063F4009DF83C30C3F3C203DBB28DF850301E9BD2
:10640400082B28BF08231B9307A91F9B1B9A0498DA
:1064140005F0AEF91F9A1B9B13441F931E9A1B9BF6
:10642400D31A1E9315AB12AA07A81B9901F0F8F80A
:106434001E9B002BE3D1049805F0FAF800BF21B0AD
:106444005DF804FB00B583B00190019B1B781A46EC
:106454000C4B9B5C002B05D0019B043318460AF0BF
:10646400C3FC0BE0019B1B781A46064B9B5C002B7C
:1064740004D1019B0C33184609F09EFE00BF03B003
:106484005DF804FB6C71002000B587B003900291A5
:1064940013468DF8073000230593039B1B781A4697
:1064A400114B9B5C002B09D0039B04339DF8072000
:1064B400029918460AF0C6FC05900FE0039B1B786E
:1064C4001A46094B9B5C002B08D1039B0C339DF8A7
:1064D40007200299184609F0E5FE0590059B184629
:1064E40007B05DF804FB00BF6C71002082B001901E
:1064F4000091034B01221A7000BF02B0704700BF25
:106504001C59002030B58DB003468DF80730194B67
:1065140002AC1D460FCD0FC495E80F0084E80F00B0
:10652400062302934FF0FF3303934FF0FF3304939A
:106534004FF0FF3305934FF0EB7308939DF807304A
:10654400002B01D00C4A00E0002202AB19460B4894
:1065540008F0F6F90B900B9B0A930A9B002B02D0D0
:106564000A9801F0A3FA064A9DF80730137000BF99
:106574000DB030BD28C40300F16402001858002097
:106584001D59002000B583B001238DF807309DF814
:1065940007301846FFF7B6FF00BF03B05DF804FBF1
:1065A40000B589B0039002910192019B8DF81F30D0
:1065B400114B00221A709DF81F301A4602990F4899
:1065C400FFF762FF0690069B0593059B002B02D004
:1065D400059801F06BFA00BF094B1B78002B07D01C
:1065E400054B1B78DBB283F00103DBB2002BF3D144
:1065F40000BF09B05DF804FB1C59002018580020A6
:106604001D59002000B585B003900291054B0093FD
:106614004023054A02990398FFF782FE00BF05B0A4
:106624005DF804FBA5650200DC58002082B00190EF
:1066340000BF02B07047000000B583B00190054868
:10664400FFF700FF0020FFF75DFF00BF03B05DF818
:1066540004FB00BF1858002082B00190019B012266
:106664005A7200BF02B0704700B583B04FF0FF33D9
:106674000193FFF787FF0421054800F04FFE0190C6
:106684000348FFF7E9FF00BF03B05DF804FB00BF58
:106694002C58002000B583B001900091019B1B6829
:1066A4001B6800990198984700BF03B05DF804FB8C
:1066B40000B583B00190019B1B685B680198984703
:1066C40000BF03B05DF804FB00B583B00190019BEB
:1066D4001B689B680198984700BF03B05DF804FBF2
:1066E40082B001900B468DF80330019B9DF8032086
:1066F4001A7200BF02B0704782B00190019B1B7AEE
:10670400184602B0704782B00190019B01225A7270
:1067140000BF02B0704782B00190019B5B7A1846BB
:1067240002B0704700B587B0019000911D4BFF2265
:106734009A601C4B00221A601A4B00225A60194BB3
:106744000022C3F81824174B0022C3F81424154B55
:10675400002283F82024144804F0C0FE0490049B13
:10676400002B01D0049B18E0104A114BD31ADB080C
:106774000393002305930BE0059B9B000D4A1344F0
:106784000293059B9AB2029B1A80059B01330593E1
:10679400059A039B9A42EFD30023184607B05DF88D
:1067A40004FB00BFF059002088C3030088C3030022
:1067B400F0C20300B8570020024A034BD31ADB0887
:1067C4001846704788C30300F0C2030000B587B0C1
:1067D40001900B468DF803309DF80330002B1FD039
:1067E400FFF7EAFF04900023059313E0059B9B0049
:1067F4000E4A13440393039B5B881A46019B1B6850
:106804009A4204D1019B059A1A60002309E0059B72
:1068140001330593059A049B9A42E7D3052300E0CC
:106824000023184607B05DF804FB00BFB8570020EA
:1068340000B585B001900B468DF803309DF8032018
:1068440001AB11461846FFF7C1FF0346002B07D1E1
:10685400019BDB00054A13440393039B1B6800E080
:106864000023184605B05DF804FB00BFF0C2030026
:1068740084B001900B468DF80330019BDB00174A6E
:10688400134402939DF80330013B032B1CD801A24F
:1068940052F823F0A9680200B1680200B968020046
:1068A400C368020002238DF80F3011E004238DF831
:1068B4000F300DE0029B1B798DF80F3008E0029B2E
:1068C4005B798DF80F3003E000238DF80F3000BFA3
:1068D4009DF80F30184604B0704700BFF0C20300A3
:1068E40084B00190009100238DF80F30019B1B7838
:1068F40003F00303DBB2002B06D0019B1B7803F0EB
:106904000403DBB2002B3DD0019B1B7803F004038E
:10691400DBB2002B21D0019B1B78C3F30103DBB254
:10692400012B02D0022B0CD029E0009B1B68019A9A
:106934001288C2F38312D2B213449A1C009B1A60C9
:106944001DE0009B1B68019A5288C2F3891292B21F
:1069540013449A1C009B1A6011E0009B1A68019B67
:106964005B88C3F389139BB21946019B1B88C3F34D
:1069740089139BB20B4413445A1C009B1A600123D5
:106984008DF80F309DF80F30184604B070470000A2
:1069940000B58BB00023ADF826303B4803F005FC6E
:1069A4003A4803F002FC3A4B5B680493384B9B680B
:1069B4000693049A069B134002339B00344A134403
:1069C4000433089304AB19460898FFF789FF03467C
:1069D400002B09D0049A069B134002339B002C4AD7
:1069E400134404330893EDE700BF0023079311E039
:1069F400079B9B0001AA1A44049B591C0491069905
:106A04000B40234902339B000B445B681360079BD4
:106A140001330793079B012BEAD99DF80430C3F394
:106A24000103DBB2012B11D0022B00D01CE0BDF816
:106A34000A30ADF82630BDF80630C3F389139BB293
:106A440003339A08049B134404930DE0BDF80A3001
:106A5400ADF82630BDF80430C3F38313DBB21A4615
:106A6400049B1344049300BF084803F0AAFB059059
:106A7400059B002B02D0049B054A5360BDF82630C9
:106A840018460BB05DF804FB085E0020045E00208D
:106A9400F059002000B585B00021074803F0BAFA88
:106AA4000390039B0293029B83F310030193019BC6
:106AB400184605B05DF804FB0C5E002000B589B0F3
:106AC4000390029101920093039B1B0C0793FFF721
:106AD400E1FF0690009B5A1C0A9B1340069A11047E
:106AE400079A0A431C4902339B000B445A60009ADC
:106AF4000A9B134002339B00174A13440433059343
:106B0400039BDBB203F00703D9B2059A137861F350
:106B1400C5031370019BDBB203F00F03D9B2059ACE
:106B2400138861F389131380029BC3F31501059A3B
:106B3400136861F39F231360059A1378012161F3AD
:106B440001031370059A13786FF38203137000BF67
:106B540009B05DF804FB00BFF059002000B58DB00A
:106B64000390029113468DF80730039B02330A9376
:106B740001238DF8273000238DF81B300DF11B0302
:106B8400184601F087F9414B1A68029B1A603F4B83
:106B94009A683E4B59683D4B1B68CB1A134401332A
:106BA4000B9314E001213A4803F0C3FAFFF7F0FE17
:106BB40008900899364803F0BCFA344B9A68334B72
:106BC4005968324B1B68CB1A134401330B930A9A4E
:106BD4000B9B9A42E6D89DF82730002B4AD000231D
:106BE40005939DF80730002B18D09DF8143001222E
:106BF40062F301038DF814309DF8143043F004035C
:106C04008DF81430039BDBB203F00F03DAB2BDF846
:106C1400143062F38913ADF8143017E09DF8143082
:106C2400022262F301038DF814309DF8143043F00E
:106C340004038DF81430039B9BB2C3F309039AB287
:106C4400BDF8163062F38F13ADF816300F4B1A6887
:106C54000E4B9B68134002339B000C4A13440433CD
:106C64000793059A079B1A60084B1A680A9B1344FA
:106C7400064A13609DF81B30184601F015F99DF87B
:106C8400273018460DB05DF804FB00BFF059002012
:106C94000C5E002000B58BB0059004910392029322
:106CA4001F4B9B68079306AB012219460298FFF716
:106CB40055FF0346002B24D0069B0233099300237F
:106CC400089311E0099B5A1C0992079A1340089AE9
:106CD400920003990A441268114902339B000B4441
:106CE4005A60089B01330893089A029B9A42E9D39D
:106CF400069A079B00931346029A04990598FFF796
:106D0400DDFE074B93F82034002B05D000BF00F0C4
:106D140005F90346002BFAD100BF0BB05DF804FB64
:106D2400F059002000B583B00190009100230022A7
:106D340000990198FFF7AEFF00BF03B05DF804FBB4
:106D440000B587B0039002910192019B059305AAB7
:106D5400012302990398FFF79DFF00BF07B05DF878
:106D640004FB00B587B00390029101920093019B4C
:106D74000493009B059304AA022302990398FFF746
:106D840089FF00BF07B05DF804FB00B589B003902C
:106D9400029101920093019B0593009B06930A9B29
:106DA400079305AA032302990398FFF773FF00BF13
:106DB40009B05DF804FB000000B58DB003900291AA
:106DC4001346ADF806304C4B9B680B93BDF8063068
:106DD40003339B0805A900221846FFF7BFFE0346AC
:106DE400002B79D0059B0A93059B02330593424BF4
:106DF4009A6805990B9B0B40D31A01339B000993A6
:106E0400BDF80620099B9A420ED8059A0B9B1340A5
:106E140002339B00384A13440433BDF80620029918
:106E2400184615F0A1F917E0059A0B9B134002339D
:106E34009B00314A13440433099A0299184615F009
:106E440093F9029A099BD118BDF80620099BD31A1D
:106E54001A462A4815F088F9039B1B0C0893FFF780
:106E640019FE07900A9B5A1C0B9B1340079A1104A6
:106E7400089A0A43204902339B000B445A600A9A39
:106E84000B9B134002339B001B4A134404330693A9
:106E9400039BDBB203F00703D9B2069A137861F3BC
:106EA400C5031370069A13886FF38F131380BDF80C
:106EB4000630C3F3090399B2069A538861F38F131A
:106EC4005380069A1378022161F301031370069A22
:106ED40013786FF382031370074B93F82034002B5D
:106EE40005D000BF00F01AF80346002BFAD100BF0A
:106EF4000DB05DF804FB00BFF0590020FC590020E0
:106F0400054B5A68044B1B689A420CBF01230023AB
:106F1400DBB21846704700BFF059002000B599B0A5
:106F2400FFF7EEFF0346002B01D00023B8E19A4B94
:106F34000022C3F81824BFF34F8F974B5B68049368
:106F4400954B9B681093049A109B134002339B004B
:106F5400914A134404331793002316930023159383
:106F640000230F9304AB19461798FFF7B9FC0346A7
:106F7400002B14D0884B1A68049B9A4205D8864B80
:106F84001B68854A536000238AE1049A109B1340CE
:106F940002339B00804A134404331793E2E700BF93
:106FA4000023149311E0149B9B0001AA1A44049B30
:106FB400591C049110990B40774902339B000B44F0
:106FC4005B681360149B01331493149B012BEAD95F
:106FD4009DF8043003F00303DBB2022B40F09C80E5
:106FE400BDF80630C3F389139BB20E93BDF8063087
:106FF400C3F389139BB2502BA8BF50230D930D9B51
:107004009BB2C3F309039AB2BDF8063062F38F133F
:10701400ADF806300D9B08330C939DF80430C3F390
:10702400C203DBB20F930C995C4804F062FA169029
:10703400169B002B00F0D480169804F0EAFA01A9FC
:10704400159B0822169804F081FB159B08331593B1
:10705400049BDA43109B134001339B000B930D9A5E
:107064000B9B9A4242D90B9B002B08D0049A109B8D
:10707400134002339B00484A1344043300E0484B56
:107084000A930B9B002B02D00B9BDBB201E00D9B00
:10709400DBB28DF827300B9B002B01D0404B00E076
:1070A400002308930B9B002B06D00D9BDAB20B9B9D
:1070B400DBB2D31ADBB200E000238DF81F309DF859
:1070C4002720159B0A99169804F040FB9DF8273059
:1070D400159A13441593089B002B16D09DF81F2076
:1070E400159B0899169804F031FB0EE0049A109B46
:1070F400134002339B00284A134404330693159B20
:107104000D9A0699169804F021FB0E9B03339A08F6
:10711400049B1344049363E09DF8043003F00303D9
:10712400DBB2012B5CD1BDF80430C3F38313DBB2B3
:10713400062B28BF0623DBB203F00F03DAB2BDF837
:10714400043062F38913ADF80430BDF80430C3F39E
:107154008313DBB2023305939DF80430C3F3C203F7
:10716400DBB20F93059B9B0019460C4804F0C1F950
:107174001690169B002B33D0169804F04AFA01A9F6
:10718400159B0822169804F0E1FA159B0833159311
:10719400002314931BE000BFF059002088C30300B0
:1071A400FC590020049B5A1C0492109A1340023389
:1071B4009B003D4A1344191D159B0422169804F0A4
:1071C400C5FA159B04331593149B01331493BDF82E
:1071D4000430C3F38313DBB21A46149B9A42E1D8FA
:1071E400169B002B3FD0304BD3F8103413932E4B07
:1071F400D3F81834002B1AD0169804F019FA49E081
:1072040000238DF84B301398FFF785FA0346002BC3
:1072140002D001238DF84B309DF84B30002B03D066
:1072240016991398FFF736FA139B5B681393139B15
:10723400002BE5D1169804F0FBF900238DF80330F8
:107244000DF10303184600F025FE174BD3F818344C
:10725400002B02D1049B144A53609DF80330184656
:1072640000F022FE16E0104BD3F81034119305E021
:107274001198FFF729FA119B5B681193119B002B5E
:10728400F6D10A4B1B881B0443F002030849184635
:10729400FFF748FDFFF734FE034683F00103DBB23A
:1072A400184619B05DF804FBF0590020D0570020AF
:1072B4006CC4030000B585B00023039322E0164B91
:1072C400D3F81034029301238DF807300EE00298AE
:1072D400FFF712FA03461A46039B9A4203D100238E
:1072E4008DF8073005E0029B5B680293029B002B3C
:1072F400EDD19DF80730002B01D0039B07E0039BE1
:1073040001330393039B092BD9DD4FF0FF33184658
:1073140005B05DF804FB00BFF059002000B585B04E
:1073240001900B468DF80330FFF7C4FF0390039BD5
:10733400B3F1FF3F01D1039B1EE0039BDBB219466F
:107344000198FFF7CDF90E4BD3F81034002B07D179
:107354000B4A019BC2F81034019B00225A600AE0D8
:10736400074BD3F810345A68019B5A60044BD3F886
:107374001034019A5A60039B184605B05DF804FB6B
:10738400F059002000B583B00C4BD3F810340193AE
:107394000A4B012283F8202408E00198FFF7B3F98F
:1073A4000198FFF785F9019B5B680193019B002B12
:1073B400F3D100BF03B05DF804FB00BFF059002017
:1073C40082B00190009100BF02B0704710B584B044
:1073D40003900291039BDB88002B0AD0039BDB887C
:1073E4001A461F4B009313461E4A1F49029802F087
:1073F400B8FF039B1B7A052B2ED0039B5B7A002BD3
:1074040012D0039B9B881A46039B1B7A194610468D
:10741400FFF72EFA03461A46144B53F822301A4645
:107424001349029802F09DFF039B1B6819460298BA
:10743400FFF7C6FF039B1B7A1A460E4B53F82240F4
:10744400039B9B8800211846FFF7F2F90346224666
:107454000949029802F085FF00BF04B010BD00BFC7
:10746400A0C40300B0C40300E8C403004C580020C7
:1074740000C503003858002004C5030000B585B0DA
:107484000390029113468DF80730039B1B7A052B5A
:107494000FD0039B5B7A002B06D00D4B1B681A465A
:1074A4000C49029802F05DFF0B49029802F059FF63
:1074B40007E09DF80730002B03D00749029802F03B
:1074C40050FF029802F035FF00BF05B05DF804FBE1
:1074D4004C58002000C5030010C5030030B58BB024
:1074E40007900691059204930E9B1B7B8DF8273021
:1074F4000E9B00221A730E990498FFF767FF059BF1
:10750400062B7FD801A252F823F000BF2D7502008C
:1075140037750200477502005B7502007975020039
:10752400A1750200D175020007990E9802F019FFA7
:1075340069E0069B1B681A4607990E9802F011FF32
:1075440061E0069B1A68069B04331B6807990E9832
:1075540002F007FF57E0069B1A68069B043319687C
:10756400069B08331B6800930B4607990E9802F09C
:10757400F8FE48E0069B1968069B04331868069BCE
:1075840008331B68069A0C32126801920093034672
:107594000A4607990E9802F0E4FE34E0069B186848
:1075A400069B04331C68069B08331B68069A0C323E
:1075B40012680699103109680291019200932346DA
:1075C400024607990E9802F0CCFE1CE0069B1C684C
:1075D400069B04331D68069B08331B68069A0C320D
:1075E40012680699103109680698143000680390EF
:1075F4000291019200932B46224607990E9802F0BD
:10760400B0FE00E000BF00220E990498FFF736FF99
:107614000E9B9DF827201A7300BF0BB030BD00BF2E
:1076240000B587B00390029101920093029B082B4E
:107634005CD8009B1B7B8DF81330009B00221A73CF
:1076440000990198FFF7C2FE0023059314E0059A00
:10765400029B9A4209D2039A059B13441B781A464B
:107664002449009802F07DFE03E02349009802F0CB
:1076740078FE059B01330593059B072BE7D91F492A
:10768400009802F06EFE0023059322E0059A029B07
:107694009A4217D2039A059B13441B788DF8123033
:1076A4009DF81230184614F007FD0346002B02D053
:1076B4009DF8123000E02E231A461149009802F07A
:1076C40050FE03E00F49009802F04BFE059B013386
:1076D4000593059B072BD9D9012200990198FFF73F
:1076E400CDFE009B9DF813201A7300E000BF07B085
:1076F4005DF804FB14C503001CC5030020C503008A
:1077040024C5030028C503002DE9F04F89B001907A
:1077140000238DF81F3098E0514B1A689DF81F30F4
:10772400DB0013440693069B1B7819464FF00102B5
:107734004FF00003A1F1200EC1F1200003FA01F97A
:1077440002FA0EFE49EA0E0922FA00F049EA00099B
:1077540002FA01F8CDE90489424BD3E90001DDE9DD
:10776400042302EA000203EA0103134368D0DDE9BB
:1077740004236FEA02006FEA03013A4BD3E90023C2
:1077840002EA000203EA01033649C1E90023069B29
:107794001B78184607F07CFF03468DF80F30069BD4
:1077A4001B7819464FF001024FF00003A1F1200E9F
:1077B400C1F1200003FA01F502FA0EFE45EA0E05B6
:1077C40022FA00F0054302FA01F4274BD3E900231F
:1077D40004EA020A05EA030B9DF80F204FF00003A8
:1077E40006990978A1F1200EC1F1200003FA01F7EE
:1077F40002FA0EFE47EA0E0722FA00F0074302FAE5
:1078040001F6BB4508BFB2451AD19DF80F30069A60
:107814005278012A0CBF01220022D2B293420CBF3B
:1078240001230023DBB20293069B5B68002B07D085
:10783400069B5B68069A12780299C9B2104698476B
:107844009DF81F3001338DF81F30084B1B789DF8CD
:107854001F209A42FFF460AF00BF09B0BDE8F08F6B
:10786400145E0020485E0020405E0020185E002068
:1078740070B586B001900A468DF803204FF00101DF
:107884004FF000020198A0F12006C0F1200502FA91
:1078940000F401FA06F6344321FA05F52C4301FA03
:1078A40000F3CDE904342F4B184600F039FA039065
:1078B400039B002B53D12C4BD3E90012DDE9043494
:1078C40003EA010304EA0204234337D1019807F0D1
:1078D400DFFE0346002B0CD0244BD3E90012DDE974
:1078E400043443EA010344EA0204204AC2E90034AE
:1078F4000FE0DDE904346FEA03016FEA04021B4B75
:10790400D3E9003403EA010304EA0204174AC2E992
:107914000034154BD3E90012DDE9043443EA0103D2
:1079240044EA0204104AC2E900340E48104B1B68B2
:107934000022194600F07CF9039011E0DDE90434DB
:107944006FEA03016FEA0402074BD3E9003403EA48
:10795400010304EA0204044AC2E9003400E000BF5F
:1079640006B070BD205E0020485E0020405E00200E
:107974001C5E002010B58AB003900B4601928DF86E
:107984000B30019B042B01D807235AE007F090FD2C
:10799400034683F00103DBB2002B09D007F036FD68
:1079A4000990099B0893089B002B01D0089B48E091
:1079B400254A039B1360254A9DF80B301370244A13
:1079C400019B1360234A4FF000034FF00004C2E907
:1079D4000034214A4FF000034FF00004C2E90034A0
:1079E40022E09DF80B30DB00039A1344079305ABA8
:1079F40000210A461A800A469A7003238DF814302F
:107A0400079B9B788DF81530079B1B78184605ABB0
:107A1400124A194607F058FD0990099B0693069BE4
:107A2400002B01D0069B0CE09DF80B305A1E8DF8FC
:107A34000B20002BD5D10A4A00210A4800F0AAF8ED
:107A4400034618460AB010BD145E0020185E0020DC
:107A54001C5E0020405E0020485E00207578020015
:107A64000D7702002CC5030000B583B000230193F9
:107A74000CE00C4B1A68019BDB0013441B780121BA
:107A8400184607F091FD019B01330193064B1B78C7
:107A94001A46019B9A42ECD80023184603B05DF8BD
:107AA40004FB00BF145E0020185E002000B587B000
:107AB40001900023039300230493019B059303ABDC
:107AC4001A46002144F2010000F016F800BF07B086
:107AD4005DF804FBBFF34F8F0549054BDB6803F4E6
:107AE400E062044B1343CB60BFF34F8F00BFFDE74D
:107AF40000ED00E00400FA0500B585B003900291A2
:107B0400019272B6FFF73EFC00BFFFF707FA034687
:107B1400002BFAD10F4B1B881B0443F001030E49C1
:107B24001846FFF7FFF80D4B1B6803F00103002B09
:107B340000D000BE074B1B881B0443F00203084916
:107B44001846FFF7EFF8FFF7C5FF00BF05B05DF873
:107B540004FB00BFD057002030C50300F0ED00E067
:107B64003CC5030000B585B00190019806F0D6FA33
:107B74000390039B1B7B002B05D0039B9B68039AFC
:107B840012681046984700BF05B05DF804FB002357
:107B94001846704700B58BB005900B4603928DF8DC
:107BA4001330059B1B68079300230993039B002B49
:107BB40002D0059B002B01D1072330E0079B1B7BE0
:107BC400002B01D008232AE0079B5B68002B23D1FC
:107BD40010220021079814F0F1FA9DF81330002BBD
:107BE40002D10023089301E001230893079B039A21
:107BF4009A600D4B0093079B089A4FF47A710B48D7
:107C040005F0E2FF0246079B5A60079B5B68002B66
:107C140004D10E23099301E0082300E0099B1846D0
:107C24000BB05DF804FB00BF697B02004CC5030088
:107C340000B58BB0059004910392059B0993099BB1
:107C44005B680893089B002B01D1082362E0099B21
:107C54001B7B002B07D0089806F04AFA0346002B3A
:107C640001D0002356E0099B039A1A60EFF30583C1
:107C74000793079B002B2DD00023069306AA00230D
:107C840000931346049A0921089805F0DDFF034682
:107C9400012B01D004233DE005F0C2FB014606AAF6
:107CA4000023009313460A460621089805F0CCFFEA
:107CB4000346012B01D004232CE0069B002B25D086
:107CC400164B4FF080525A6040BFBFF34F8FBFF343
:107CD4006F8F1BE0022300930023049A0421089869
:107CE40005F0B2FF0346012B01D0042312E005F096
:107CF4008DFB02460223009300230121089805F01E
:107D0400A3FF0346012B01D0042303E0099B0122B6
:107D14001A73002318460BB05DF804FB00ED00E075
:107D240000B589B00390039B0793079B5B68069398
:107D3400069B002B01D1082333E0EFF30583059361
:107D4400059B002B1CD00023049304AA002300935A
:107D5400134600220821069805F076FF0346012BFE
:107D640001D004231DE0049B002B16D00F4B4FF0D1
:107D740080525A6040BFBFF34F8FBFF36F8F0CE048
:107D840002230093002300220321069805F05CFFE0
:107D94000346012B01D0042303E0079B00221A733E
:107DA4000023184609B05DF804FB00BF00ED00E0B5
:107DB40082B0EFF310830093009B019372B6019B92
:107DC400184602B0704762B600BF704700B585B070
:107DD4000190FFF7EDFF0390164B9B68002B1BD11E
:107DE400144B01229A60144BD3F88020134B134098
:107DF400104A1360104B114AC3F880200E4BD3F87D
:107E040084300C4A53600C4B4FF0FF32C3F884208B
:107E1400019B00221A7002E0019B01221A70039B4D
:107E2400002B01D1FFF7CFFF0023184605B05DF802
:107E340004FB00BF505E002000E100E0FC06FFBD33
:107E440000B585B003468DF80730104B9B68002BB6
:107E540016D09DF80730002B12D1FFF7A9FF03902D
:107E64000B4A0A4B1B681360094A084B5B68536052
:107E7400064B00229A60039B002B01D1FFF7A3FF5E
:107E84000023184605B05DF804FB00BF505E0020D7
:107E940000E100E000B583B001900198FFF796FF80
:107EA40000BF03B05DF804FB00B583B003468DF852
:107EB40007309DF807301846FFF7C2FF00BF03B034
:107EC4005DF804FB82B00190019B03F00303002BD7
:107ED4000CBF01230023DBB2184602B07047000038
:107EE40000B585B00190002303930EE00A4A039B7A
:107EF40052F82330002B05D0074A039B52F8233055
:107F040001989847039B01330393039B032BEDD9FB
:107F140000BF05B05DF804FB6C5E002082B00190E8
:107F24000091019B1B78013B052B61D801A252F8FB
:107F340023F000BF517F0200597F02007F7F0200BF
:107F4400B17F0200D17F0200ED7F0200009B00227E
:107F54001A704EE0009B01221A70019B1A89009B43
:107F64009A81019B9A88009BDA81019BDA68009BC5
:107F74009A60009B00221A743BE0009B02221A7054
:107F8400019B1A89009B9A81019B9A88009BDA8144
:107F9400019BDA68009B9A60019B9B7D062B0CBFBA
:107FA40001230023DAB2009B1A7422E0009B03220F
:107FB4001A70019BDA88009B9A81019B1A89009BA5
:107FC400DA81019BDA68009B9A6012E0009B04222C
:107FD4001A70019BDA88009B9A81009B0022DA8147
:107FE400009B00229A6004E0009B05221A7000E0C6
:107FF40000BF00BF02B0704784B001900091019BA4
:108004000393039A009B9A4206D2039B1B68B3F125
:10801400FF3F01D0012300E0002303F00103DBB2A2
:10802400184604B0704782B00190019B5B8803330B
:108034009B00019A1344184602B0704700B583B000
:10804400019000910198FFF7EEFF0246009B9A42CF
:1080540001D902230CE0019B9B884FF6FF729342E7
:1080640003D0019B1B88002B01D1012300E00023D6
:10807400184603B05DF804FB00B583B00190019B82
:10808400002B13D00D4BDB681A46019B9A420DD886
:108094000A4B1B691A46019B9A4207D30198FFF7C2
:1080A40011FF0346002B01D0012300E0002303F05D
:1080B4000103DBB2184603B05DF804FB045800204A
:1080C40082B00190019B002B04D0019B1B680B4ADA
:1080D400934201D003230DE0019B04331B68084A3B
:1080E400934204D0074A934203D1012302E00023C0
:1080F40000E00323184602B0704700BFDEC0ADDEC7
:10810400FE011EF1FF011EF184B0019000230393D0
:108114000CE0039B9B00019A13441B68B3F1FF3FDF
:1081240001D0002307E0039B01330393039BB3F5C2
:10813400806FEED30123184604B0704782B0034623
:108144000A46ADF806301346ADF80430BDF80620F3
:10815400134913469B0013449B000B4408331A88AD
:10816400BDF804301344ADF80430BDF806200C49C2
:1081740013469B0013449B000B440A331A88BDF832
:1081840004301344ADF80430BDF8043040F2FF323B
:10819400934294BF01230023DBB2184602B0704718
:1081A4000C5F002084B0019000910A230393002304
:1081B400ADF80A3027E0BDF80A20174913469B00A2
:1081C40013449B000B4404331A68009B9A4215D253
:1081D400BDF80A20104913469B0013449B000B442E
:1081E40004331B6803F58052009B9A4206D900238E
:1081F4000393019BBDF80A201A8008E0BDF80A30F9
:108204000133ADF80A30BDF80A30012BD3D9039BF2
:10821400184604B0704700BF0C5F002000B589B059
:10822400039002910192039B03F580530693039BF1
:1082340008330393029B02221A80039B079332E0C4
:1082440006990798FFF7FAFE03468DF817309DF854
:108254001730002B0AD1079B9A68184B1B689A4267
:1082640013D9079B9B68154A13600EE0019B002BF2
:1082740002D0019B01221A709DF81730022B04D101
:10828400029B4FF480621A8014E0029B1A88079BB9
:108294005B8813449BB203339AB2029B1A800798FB
:1082A400FFF7C1FE079006990798FFF7A5FE03465E
:1082B400002BC5D109B05DF804FB00BF7C5E002033
:1082C40082B001900091009B9B7D022B09D9019BF8
:1082D4001A89009BDB8813449BB203339AB2019B37
:1082E4001A81019B5A89009BDB88D31A9BB2033BFA
:1082F4009AB2019B5A8100BF02B0704700B583B0A7
:10830400074B1B681946002300930823054A0648B7
:1083140002F01EFC0346184603B05DF804FB00BFE0
:10832400345F002060C503000458002000B585B008
:1083340003900399002300930823044A044802F09D
:1083440007FC0346184605B05DF804FB68C5030046
:108354000458002000B585B003460091ADF80630FE
:1083640000238DF80F30BDF806300333ADF80A3022
:10837400BDF80A3040F2FD32934201D909234AE0A4
:108384000023ADF80C303BE0BDF80C202449134623
:108394009B0013449B000B441B78002B2BD1BDF88E
:1083A4000A20BDF80C3011461846FFF7C7FE0346F5
:1083B400002B20D001238DF80F30009BBDF80C203A
:1083C4001A80BDF80C20BDF80C1015480B469B0014
:1083D4000B449B0003440A331988BDF80A300B444C
:1083E40098B20F4913469B0013449B000B440A3375
:1083F40002461A8008E0BDF80C300133ADF80C30A9
:10840400BDF80C30012BBFD99DF80F30002B01D0E3
:10841400002300E00723184605B05DF804FB00BF05
:108424000C5F002082B003460A46ADF806301346BE
:10843400ADF80430BDF80420BDF804100C480B4618
:108444009B000B449B0003440A331988BDF8063093
:10845400CB1A9BB2033B98B2054913469B001344C5
:108464009B000B440A3302461A8000BF02B07047D7
:108474000C5F002008B50121024801F05AFE0346B2
:10848400184608BD7C5E002000B585B00346009107
:10849400ADF80630BDF80620234913469B0013446B
:1084A4009B000B4404331B6803F580530293009B29
:1084B4001B680393039B002B04D00398FFF7B3FDC1
:1084C400039024E0BDF80620174913469B0013448B
:1084D4009B000B4404331B680833039317E0029991
:1084E4000398FFF7ABFD0346012B09D0022B0CD0F8
:1084F400002B00D00BE0009B039A1A6001230EE0CE
:108504000398FFF790FD039001E0002307E0029930
:108514000398FFF771FD0346002BE0D100231846B2
:1085240005B05DF804FB00BF0C5F002000B585B00A
:1085340001900091019B5B681846FFF79DFD03467F
:10854400002B19D0019B1A89244B1B899A4213D101
:10855400019B1A68019B5B689B689A420CD1019B42
:108564005B6819460098FFF71DFE0346002B0CBFFD
:1085740001230023DBB22CE0009B00221A8023E0BD
:108584000023029310E0029B0393039B9A68019BD0
:108594001B689A4208D1029A019B5A600F4B1A89B0
:1085A400019B1A81012314E0009B1B8802AA114637
:1085B4001846FFF769FF0346002BE4D1009B1B8894
:1085C40001339AB2009B1A80009B1B88012BD7D9D8
:1085D4000023184605B05DF804FB00BF3C5F002093
:1085E40000B587B00390029101920093304B1B7841
:1085F400DBB283F00103DBB2002B01D0022353E092
:10860400019B002B02D0009B002B48D105234BE09B
:10861400009B9B881946274A0B469B000B449B00F2
:1086240013441B78002B33D124E0009B1B68059373
:10863400039B002B06D0059B9A88039B1B889A42B8
:1086440000D017E0029B002B06D0059B1A88029BE2
:108654001B889A4200D00DE0059B9A68019B1A6022
:10866400009B1A68019B5A60134B1A89019B1A815B
:10867400002319E0009B9B88009A11461846FFF7D7
:1086840003FF0346002BD0D1009B00221A6000E0B8
:1086940000BF009B9B8801339AB2009B9A80009B89
:1086A4009B88012BB4D90A23184607B05DF804FB54
:1086B4005C5E00200C5F00203C5F002000B585B0AC
:1086C4000190084B0199184601F091FB03901C227C
:1086D4000021039813F072FD039B184605B05DF862
:1086E40004FB00BF7058002000B583B00190044B18
:1086F4000199184601F094FB00BF03B05DF804FB38
:108704007058002000B583B00190054B01991846BC
:1087140001F09AFB0346184603B05DF804FB00BF62
:108724007058002000B583B00190044B019918469D
:1087340001F0A3FB00BF03B05DF804FB70580020F8
:1087440008B50121054801F00CFD0346002B14BFB8
:1087540001230023DBB2184608BD00BF645E00207D
:1087640000B587B0002305930023ADF8123003232E
:10877400ADF8103000238DF80F300023ADF80C3025
:10878400F0E0BDF80C301B031A467F4BDB68134442
:1087940002930298FFF794FC03468DF807309DF886
:1087A4000730012B00F09C80032B02D0002B62D0F9
:1087B400D3E00298FFF7A8FC0346002B3BD0734B91
:1087C4001B68002B29D0BDF81220714913469B0069
:1087D40013449B000B4402221A70BDF812206C490A
:1087E40013469B0013449B000B440433029A1A6003
:1087F400BDF81220664913469B0013449B000B44AA
:10880400083302221A80634ABDF812305380BDF83F
:1088140012300133ADF8123008E05C4A029B136059
:108824005A4B02229A8001238DF80F30059B43F0A6
:108834000103059391E0BDF81030013BADF8103011
:10884400BDF81220524913469B0013449B000B446D
:108854000433029A1A60BDF812204D4913469B0056
:1088640013449B000B4403221A70BDF812300133E9
:10887400ADF8123071E0BDF81220454913469B0053
:1088840013449B000B4400221A70BDF81220404987
:1088940013469B0013449B000B440433029A1A6052
:1088A400BDF8122013469B0013449B000833384A3A
:1088B4009918BDF8122013469B0013449B001033F3
:1088C400334A13441A460298FFF7A8FC059B43F069
:1088D40002030593BDF812300133ADF812303CE0C9
:1088E4009DF80F30002B25D0BDF8122028491346DF
:1088F4009B0013449B000B4402221A70BDF8122003
:10890400224B1968224813469B0013449B000344DE
:1089140004331960BDF812201D4913469B0013440B
:108924009B000B44083302221A80BDF81230013335
:10893400ADF81230154A029B1360002216490298C2
:10894400FFF76CFC114B9B88022B01D1042300E040
:108954000823059A1343059300BFBDF80C30013377
:10896400ADF80C30BDF80C30022B7FF60AAFBDF821
:108974001030012B01D800230593059BDBB2184668
:1089840007B05DF804FB00BF04580020345F0020EA
:108994000C5F00203C5F0020385F002000B587B0EA
:1089A40003900291039B02229A750299039B1A1D5C
:1089B400002300930423074802F0CAF80590059B9E
:1089C400002B01D1002300E00E23184607B05DF808
:1089D40004FB00BF0458002000B587B00390029147
:1089E400039B1B69002B01D0032200E00122039B9F
:1089F4009A75029B08331946039B03F10C0200236A
:108A040000930423064802F0A3F80590059B002B6D
:108A140001D1002300E00E23184607B05DF804FBE3
:108A24000458002000B587B003900291039B1B7883
:108A3400032B01D1052200E00622039B9A75029BB9
:108A440004331946039B03F1080200230093042313
:108A5400064802F07DF80590059B002B01D1002308
:108A640000E00E23184607B05DF804FB045800200C
:108A740000B587B003900B46ADF80A300399002384
:108A8400009304230C4A0D4802F062F80590059BFC
:108A9400002B01D00E230BE0BDF80A200849134631
:108AA4009B0013449B000B44103301221A700023D3
:108AB400184607B05DF804FB70C503000458002095
:108AC4000C5F002000B589B0019002AB00221A604F
:108AD4005A609A60019BDB6802930DF1160202ABA7
:108AE40011461846FFF722FD0346002B12D0039BC4
:108AF4000693069B9A88019BDA80069B1A88019B41
:108B04001A81039BBDF8162011461846FFF7B0FFE3
:108B1400079001E00A230793079B184609B05DF804
:108B240004FB000000B587B00190019B981D02AAC8
:108B34000D4B0021FFF754FD0590059B002B08D138
:108B4400039A094B9B8819461046FFF791FF05903D
:108B540004E008220021044813F030FB059B18466A
:108B640007B05DF804FB00BF4C5F002000B587B080
:108B740003900291039B01229A75029B0C331846C1
:108B8400039B1A69039BDB889900002300930B461F
:108B94000146074801F0DCFF0590059B002B01D13D
:108BA400002300E00E23184607B05DF804FB00BF65
:108BB4000458002082B0174B1B8901339AB2154B1D
:108BC4001A81144B00225A80124B00221A7300237C
:108BD400ADF8063017E0BDF80610BDF806200E48C3
:108BE40013469B0013449B0003441B78002B0CBFCB
:108BF40001230023DAB2074B0B449A72BDF8063006
:108C04000133ADF80630BDF80630012BE3D900BFBF
:108C140002B070473C5F00200C5F002084B00190DC
:108C240000238DF80F300023ADF80C3031E0BDF88F
:108C34000C301C4A13449B7A002B25D0BDF80C3011
:108C4400184A134400229A72BDF80C2016491346A0
:108C54009B0013449B000B440C331B68002B13D163
:108C6400BDF80C20104913469B0013449B000B4491
:108C740010331B78002B07D0019BBDF80C201A8001
:108C840001238DF80F3008E0BDF80C300133ADF846
:108C94000C30BDF80C30012BC9D99DF80F301846A3
:108CA40004B070473C5F00200C5F002008B5084BFF
:108CB40005221A70074B02229A80064B1B6819463C
:108CC40000230122044802F01BF80346184608BD9D
:108CD4003C5F0020345F00200458002000B583B0BE
:108CE400164B5B88ADF80230BDF8022014491346D8
:108CF4009B0013449B000B440C331B68002B14D1C2
:108D04000E4B04221A70BDF802200D4913469B0035
:108D140013449B000B4404331B68194600230122AF
:108D2400084801F0EDFF019002E0FFF7BFFF01905A
:108D3400019B184603B05DF804FB00BF3C5F0020B4
:108D44000C5F00200458002000B587B0114B5B680D
:108D54000593114B1A68104B9B889B001344049392
:108D6400059B5B880333ADF80E300A4B03221A705F
:108D74000499084B5A68BDF80E30980000230093FC
:108D84000346064801F0E4FE0346184607B05DF8C2
:108D940004FB00BF3C5F0020345F00200458002027
:108DA40000B583B00A4B5B880A491846FFF76CFB91
:108DB4000346002B03D0FFF7C7FF019002E0FFF743
:108DC4008DFF0190019B184603B05DF804FB00BFC2
:108DD4003C5F0020405F002008B50A4B06221A7051
:108DE400084B5B881946084A0B469B000B449B00C2
:108DF400134404331B681846FFF798FA03461846D1
:108E040008BD00BF3C5F00200C5F002008B5054B87
:108E140007221A70034B00225A60FFF76FFA0346C9
:108E2400184608BD3C5F002008B50D48FFF7F6FE64
:108E3400034683F00103DBB2002B0BD0094B002265
:108E44001A70084B00225A80064B00225A6041F6E1
:108E54001D5302E0FFF7A4FF0346184608BD00BFF8
:108E64003E5F00203C5F002082B0094B5B680193A9
:108E7400019B5B880333ADF80230064B9A88BDF83A
:108E8400023013449AB2034B9A8000BF02B0704779
:108E94003C5F0020345F002082B0184B1B680193B4
:108EA400174B5B881946174A0B469B000B449B00E3
:108EB400134404331B68114A1360114B5B88194631
:108EC400104A0B469B000B449B0013440433019A45
:108ED4001A600B4B5B881946084B9888094A0B4665
:108EE4009B000B449B001344083302461A80034B37
:108EF40002229A8000BF02B0704700BF345F002096
:108F04003C5F00200C5F002008B51A4B1B78072B30
:108F14002CD801A252F823F03D8F0200718F020079
:108F2400718F0200498F0200558F0200618F020089
:108F3400618F0200698F0200FFF73CFE0D4B012296
:108F44001A7014E0FFF790FF0A4B02221A700EE029
:108F5400FFF7A2FF074B06221A7008E0054B072211
:108F64001A7004E0034B01221A7000E000BF00BF36
:108F740008BD00BF3C5F002000B587B001900091A0
:108F84000F230593019B002B04D0624B00225A60EF
:108F94000123BBE0009B1B79032B00F2AB8001A2F1
:108FA40052F823F0B98F0200C78F020055900200D7
:108FB40075900200009B01221A71FFF79FF905903A
:108FC4009BE000238DF813300023ADF810302BE024
:108FD400BDF81020504913469B0013449B000B44DA
:108FE4001B78022B1BD1BDF810204B4913469B0064
:108FF40013449B000B4400221A7001238DF8133094
:10900400BDF81020444913469B0013449B000B44B5
:1090140004331B681846FFF789F9059008E0BDF88A
:1090240010300133ADF81030BDF81030012BCFD91A
:109034009DF8133083F00103DBB2002B5CD0354B79
:1090440001221A70334B00225A6041F61D535DE031
:10905400009B00221A71314B02229A802F4B1B680D
:109064001946002301222E4801F04AFE059044E0EF
:10907400009B00221A71294B1B681846FFF756F90A
:109084000590284B5B88ADF80E30244B1B68029387
:10909400BDF80E20204913469B0013449B000B444B
:1090A40004331B681D4A1360BDF80E201A49134689
:1090B4009B0013449B000B440433029A1A60BDF8CE
:1090C4000E20164B9888144913469B0013449B00AA
:1090D4000B44083302461A80104B02229A80BDF8D2
:1090E4000E200D4913469B0013449B000B440022A1
:1090F4001A7002E000BF00E000BF059B002B04D003
:10910400044B00225A600E2300E00023184607B0E7
:109114005DF804FB5C5E00200C5F0020345F0020DF
:10912400045800203C5F002000B587B001900091F6
:10913400009B9B8A1A4613469B0013449B003A4AA1
:1091440013440493019B002B05D000990498FFF766
:10915400B7F8012363E0049B5A68049B1B899B00B6
:1091640013440393009B9B7D062B4DD801A252F818
:1091740023F000BFBB910200DF910200C7910200FF
:10918400D391020095910200EB9102000592020036
:10919400264B00225A60009B9B69244A1360244991
:1091A4002248FFF7C3F9034683F00103DBB2002B27
:1091B40001D00A2333E003990098FFF7EFFB0590F1
:1091C40025E003990098FFF707FC05901FE0039939
:1091D4000098FFF7CBFC059019E003990098FFF77E
:1091E40021FC059013E0009B06229A750F4B5A68E8
:1091F4000F4B1B8819461046FFF73AFC059006E012
:1092040041F61D53059302E00F23059300BF059B10
:10921400002B03D000990498FFF752F8059B1846D9
:1092240007B05DF804FB00BF0C5F0020545F002012
:10923400605F002000B585B001900091019B002B78
:1092440001D0012323E0009B1B79012B0BD0022BBF
:1092540014D0002B16D1009B02221A710098FFF73C
:1092640031FC039012E00098FFF75CFC0390039B31
:109274000A2B0AD141F61D53039306E041F61D5310
:10928400039303E00F23039300E000BF039B1846FE
:1092940005B05DF804FB000000B585B00190019BAA
:1092A400002B01D001233BE01F4B1B7B002B03D081
:1092B4001D4B00221A7301E0FFF726FE1A4B1B78A0
:1092C400013B062B28D801A252F823F0ED920200AC
:1092D400F5920200FD920200059302001D93020024
:1092E4000D93020015930200FFF79EFD039016E014
:1092F400FFF756FD039012E0FFF726FD03900EE002
:10930400FFF7ECFC03900AE0FFF766FD039006E02C
:10931400FFF77CFD039002E00F23039300BF039B40
:10932400184605B05DF804FB3C5F002000B589B029
:1093340001903A4B1B68002B05D13948FFF7E2F93D
:109344000246364B1A60354B1B681B78013B052BD4
:109354002BD801A252F823F07593020085930200E2
:10936400859302009593020095930200A593020051
:109374002A4B1B6819460198FFF7FEFD019017E080
:10938400264B1B6819460198FFF7CEFE01900FE0AB
:10939400224B1B6819460198FFF74CFF019007E028
:1093A4000198FFF779FF019002E00F23019300BFBA
:1093B400019B002B2BD003AB00221A605A609A60E9
:1093C400DA601A61019B41F61D52934201D0019B60
:1093D40000E000230493114B1B6803AA11461846AE
:1093E400FEF79CFD03AB1846FEF77AFD0B4B0022FB
:1093F4001A60002301930A48FFF794F9FFF7A0F9D4
:10940400034683F00103DBB2002B02D191E700BFD6
:1094140000E000BF00BF09B05DF804FB645F0020FA
:10942400685F002008B50121054800F06AFE034684
:10943400002B02D10020FFF779FF00BF08BD00BF59
:10944400645E002000B583B00190019B5B68184600
:10945400FFF76CFF00BF03B05DF804FB00B58BB0F1
:109464000390029101928DF803300023ADF824306B
:109474000023ADF82630514B1B78DBB283F0010397
:10948400DBB2002B01D0022393E0029B002B01D11D
:1094940005238EE0029B1B884FF6FF72934203D094
:1094A400029B5B88002B01D1042382E0029B5B6852
:1094B4001846FEF707FD034683F00103DBB2002BD9
:1094C40001D0032375E0019B002B11D1029B9B6803
:1094D400ADF826300DF11A02BDF8263011461846B3
:1094E400FEF738FF0890089B002B09D0089B60E02A
:1094F400019B1B88ADF81A30019B5B88ADF82630C0
:1095040005AB1846FFF7DAF80790079B002B09D143
:10951400BDF81A20BDF8263011461846FEF782FF22
:10952400082346E0079B9DF803201A70079B00223E
:109534009A75BDF81A20079B9A82029B5A68079B6A
:109544001A61FEF797FF0246079BDA60029B1A88AE
:10955400079B1A81029B5A88079B9A80079BBDF838
:109564002620DA809DF80330032B06D1079B0422C2
:109574009A75039B1A68079B9A61079BBDF8242080
:109584005A8105AB1846FFF7AFF8039B002B0DD0AB
:10959400039B00225A60079BDA68039B1A60039BB3
:1095A40000229A72064B1A89039B1A81FFF73AFF2D
:1095B400002318460BB05DF804FB00BF5C5E00207E
:1095C4003C5F002000B585B001900C4B1B68042B58
:1095D40002D10C2303930BE0084B1B680849019A42
:1095E40041F823200121054800F0A3FD0023039343
:1095F400039B184605B05DF804FB00BF685E0020BD
:109604006C5E002084B04FF010235B6903934FF02D
:1096140080531B6902934FF080535B690193039B52
:10962400B3F1FF3F04D1019B029A02FB03F300E074
:10963400039B184604B0704700B583B04FF4405301
:109644000193FFF7DFFF0246054B1A61044B1A69C9
:10965400019BD31A024AD36000BF03B05DF804FB38
:109664000458002008B5FFF7E7FF00220349044827
:1096740001F02AFA0346184608BD00BF9CC7030040
:109684000458002008B504481C238C22034900F028
:1096940067FB00BF08BD00BF70580020805E00203B
:1096A40000B58BB002AB00221A605A609A60DA608F
:1096B4001A61404B1B78DBB2002B05D002AB184675
:1096C400FEF70EFC002371E03B4800F062FD034608
:1096D400002B01D0002369E0FFF7C4FF0990099B28
:1096E400002B01D0099B61E0FFF7CCFFFFF738F8AE
:1096F40003468DF823309DF82330022B0DD0062B22
:109704000DD0002B09D000BF01AB1846FEF7D6FFE1
:109714000790079B002B10D10DE00B2346E0254B4F
:1097240001221A70234B00225A6002AB1846FEF73E
:10973400D7FB00233AE0082338E0079B01221A7084
:109744009DF82330013B0A2B28D801A252F823F0BC
:1097540081970200A197020081970200A19702005D
:1097640099970200A197020099970200A19702001D
:10977400899702009197020089970200079B0022B3
:109784001A710CE0079B03221A7108E0079B02225E
:109794001A7104E0079B01221A7100E000BF01ABBB
:1097A4001846FEF7A1FFFFF73DFE002318460BB055
:1097B4005DF804FB5C5E0020605E002000B585B0AF
:1097C40001900091019B002B02D0009B002B01D142
:1097D400052329E00DF10A0319460198FEF7A6FEB8
:1097E4000346002B1FD0019B5B680393BDF80A302E
:1097F4001A4613469B0013449B0008330C4A134437
:1098040004330121184600F094FC009B039A1A606B
:10981400019B5B6803F10C02009B5A60019B0122CF
:109824009A72002300E00A23184605B05DF804FB91
:109834000C5F002000B585B00190019B002B01D185
:10984400052339E00DF10A0319460198FEF76EFE6F
:109854000346002B2DD0BDF80A301946184A0B4692
:109864009B000B449B0013440C331B68002B1DD03E
:10987400019B9B7A002B19D0BDF80A301A46104977
:1098840013469B0013449B000B440C331B68591E66
:109894000B4813469B0013449B0003440C3319608C
:1098A400019B00229A720023039304E0062303938E
:1098B40001E00A230393039B184605B05DF804FBFB
:1098C4000C5F002000B585B001900B46ADF8023066
:1098D400134B1B78DBB283F00103DBB2002B01D006
:1098E400022319E0019B002B01D1052314E00DF1A3
:1098F4000A02BDF8023011461846FEF72BFD03900C
:10990400039B002B07D1BDF80A20019B1A80019B01
:10991400BDF802205A80039B184605B05DF804FB8D
:109924005C5E002000B585B001901F4B1B78DBB254
:1099340083F00103DBB2002B01D002232FE0019B53
:10994400002B01D105232AE0019B1B88022B01D99E
:10995400042324E0019B1B881A4613469B001344EE
:109964009B00124A13440293019B5B880333029ABF
:109974005289934210DC019B5A88019B1B8819462B
:109984001046FEF74FFD019B00221A80019B002226
:109994005A800023039301E004230393039B184696
:1099A40005B05DF804FB00BF5C5E00200C5F002086
:1099B40000B583B001900091022300220099019820
:1099C400FFF74CFD0346184603B05DF804FB00B5F1
:1099D40085B0039002910192019B002B01D10523D4
:1099E40006E00223019A02990398FFF737FD034624
:1099F400184605B05DF804FB00B583B001900091F2
:109A0400019B002B01D1052306E0032300220099CA
:109A14000198FFF723FD0346184603B05DF804FBE5
:109A240000B585B00346ADF80630184B1B78DBB2A1
:109A340083F00103DBB2002B01D0022322E0BDF846
:109A440006304FF6FF72934201D104231AE002ABB1
:109A54001846FEF733FE0390039B002B01D1082325
:109A640010E0039B05221A70039B01221A71039BC9
:109A7400BDF80620DA8002AB1846FEF735FEFFF784
:109A8400D1FC0023184605B05DF804FB5C5E0020A1
:109A940000B583B0144B1B78DBB283F00103DBB257
:109AA400002B01D002231AE06B461846FEF706FE8F
:109AB4000190019B002B01D1082310E0019B062299
:109AC4001A706B461846FEF70FFE084B1B78002BE6
:109AD40002D0064B01221A73FFF7A4FC0023184698
:109AE40003B05DF804FB00BF5C5E00203C5F002017
:109AF40000B585B0029201930346ADF80E300B46D3
:109B0400ADF80C3003A90DF10E00019B029AFEF78B
:109B140067FD0346184605B05DF804FB00B585B043
:109B2400034602910192ADF80E300DF10E01019B36
:109B3400029A0020FEF754FD0346184605B05DF86E
:109B440004FB00B585B0034602910192ADF80E30D6
:109B54000DF10E00019B029A0021FEF741FD034620
:109B6400184605B05DF804FB82B001900091019B9A
:109B7400002B02D0009B002B01D1052304E0019BA4
:109B84001A68009B1A600023184602B07047000050
:109B94001EF0040F1CBFEFF309800AE0EFF3088006
:109BA4000849094A884201D8904202D88D464FF0AC
:109BB40000006B46854608B5044B9847BDE808404D
:109BC4009D4670470000042000F803200F9C02000B
:109BD40000BF00BFBFF34F8F0549054BDB6803F49B
:109BE400E062044B1343CB60BFF34F8F00BFFDE72C
:109BF40000ED00E00400FA0500B583B00190FFF722
:109C0400E9FF00BF03B05DF804FB00B583B0019029
:109C1400FDF7B8FB00BFFDF781F90346002BFAD12D
:109C24000198FFF7E9FF00BF03B05DF804FB86B0BD
:109C340001900091019B53E8011F8AB2D889024424
:109C44009889824228BF121A1889824202BFBFF340
:109C54002F8F002307E0C2EA010243E80120002815
:109C6400E9D14FF001038DF80F3005900291049271
:109C7400029A009B1A609DF80F30DBB2184606B0BA
:109C8400704784B00190019951E8013FC3EA03434E
:109C940041E80132002AF7D10392029300BF04B0D5
:109CA400704786B001900091019B53E8021F1FFA90
:109CB400A1F2D888824202BFBFF32F8F00230DE0A8
:109CC400D88902449889824228BF121AC1EA024202
:109CD40043E802200028E8D14FF001038DF80F304B
:109CE400059002910492029A009B1A609DF80F302D
:109CF400DBB2184606B0704784B00190019951E870
:109D0400023FC3EA234341E80232002AF7D1039217
:109D1400029300BF04B0704786B00190019B53E8E2
:109D2400021FDA88B1EB314F4FF0000017BF89B240
:109D340042EA024241EA024204E05968B1EB314F7F
:109D440008BF012043E802210029E8D18DF80F0063
:109D5400059104929DF80F30DBB2184606B07047A7
:109D640084B00390029111461A460B46ADF80630B2
:109D74001346ADF80430029B002B01D10E231FE0E3
:109D8400BDF80630BDF80420B3FBF2F102FB01F28A
:109D94009B1A9BB2002B01D0092311E0039B029A6A
:109DA4001A60039B00225A60039B00229A60039B63
:109DB400BDF806209A81039BBDF80420DA810023B4
:109DC400184604B0704700B585B001900198FFF7BC
:109DD400A3FF03468DF80F309DF80F30002B01D000
:109DE400002300E01123184605B05DF804FB00B51C
:109DF40085B001900091009B19460198FFF717FF69
:109E04000346002B07D0019B1B68009A1288134459
:109E14000393039B00E00023184605B05DF804FBA0
:109E240000B583B001900091009B1A88009B5B8869
:109E34009A4204D10198FFF724FF012300E0002394
:109E4400184603B05DF804FB00B585B0019000919D
:109E5400009B19460198FFF724FF0346002B07D007
:109E6400019B1B68009A528813440393039B00E0F0
:109E74000023184605B05DF804FB00B583B00190DB
:109E84000091009B1A88009B5B889A4204D1019838
:109E9400FFF732FF012300E00023184603B05DF80A
:109EA40004FB00B585B001900091009B5B099B0009
:109EB400019AD018009B03F01F03012202FA03F356
:109EC400194600F0D6F8039000BF05B05DF804FB16
:109ED40000B583B001900091009B5B099B00019A3F
:109EE400D018009B03F01F03012202FA03F3194662
:109EF40000F0A7F80246009B03F01F0322FA03F3C5
:109F040003F00103002B14BF01230023DBB2184626
:109F140003B05DF804FB00B585B001900091009B8F
:109F24005B099B00019AD018009B03F01F030122D8
:109F340002FA03F3DB43194600F0CBF8039000BFA9
:109F440005B05DF804FB82B001900091009B5B09B1
:109F54009B00019A13441A68009B03F01F0322FA22
:109F640003F303F00103002B14BF01230023DBB22E
:109F7400184602B0704700B58BB0019000910023E1
:109F840009933BE0099B9B00019A13441B68DB4344
:109F94000693069B93FAA3F30593059BB3FA83F305
:109FA400089323E0099B5A01089B13440793079ADB
:109FB400009B9A421ED207990198FFF789FF034636
:109FC40083F00103DBB2002B01D0079B1EE0099B49
:109FD4009B00019A13441B68DB430493049B93FA8C
:109FE400A3F30393039BB3FA83F30893089B1F2BF8
:109FF400D8D900E000BF099B01330993009B013BC2
:10A004005B095A1C099B9A42BCD8009B18460BB0AA
:10A014005DF804FB10B487B001900091019B009A95
:10A0240053E8004F104643E8000191F0000FF7D1C8
:10A03400059404900391059B184607B05DF8044B02
:10A04400704710B487B001900091019B009A53E8C7
:10A05400004F44EA020043E8000191F0000FF6D1FA
:10A06400059404900391059B184607B05DF8044BD2
:10A07400704710B487B001900091019B009A53E897
:10A08400004F44EA020043E8000191F0000FF6D1CA
:10A09400059404900391049B184607B05DF8044BA3
:10A0A400704710B487B001900091019B009A53E867
:10A0B400004F04EA020043E8000191F0000FF6D1DA
:10A0C400059404900391059B184607B05DF8044B72
:10A0D400704710B487B001900091019B009A53E837
:10A0E400004F04EA020043E8000191F0000FF6D1AA
:10A0F400059404900391049B184607B05DF8044B43
:10A10400704710B487B001900091019B009A53E806
:10A11400004F04EB020043E8000191F0000FF6D178
:10A12400059404900391059B184607B05DF8044B11
:10A13400704710B487B001900091019B009A53E8D6
:10A14400004F04EB020043E8000191F0000FF6D148
:10A15400059404900391049B184607B05DF8044BE2
:10A16400704710B487B001900091019B009A53E8A6
:10A17400004FA4EB020043E8000191F0000FF6D178
:10A18400059404900391049B184607B05DF8044BB2
:10A19400704700B583B0019001210198FFF751FF8A
:10A1A4000346184603B05DF804FB00B583B0019084
:10A1B40001210198FFF75DFF0346184603B05DF8DF
:10A1C40004FB00B583B0019000210198FFF769FFFB
:10A1D4000346184603B05DF804FB82B001900B46B9
:10A1E4008DF80330019BDA689DF803300199898A60
:10A1F40001FB03F31344184602B0704782B0019088
:10A204000091009B019AD2689B1A019A928AB3FB2F
:10A21400F2F3DBB2184602B0704784B00190019BA0
:10A22400002B01D10E2321E0019B9B681A46019B60
:10A234005B68D31A8DF80F30019B1B68019A526832
:10A244001A6007E0019B1A681368591C11609DF895
:10A254000F201A709DF80F305A1E8DF80F20002B16
:10A26400F0D1019B1B6800221A710023184604B028
:10A27400704700B585B001900023039300238DF847
:10A284000A300DF10A031846FDF704FE019B1B6812
:10A294001A68019B5B689A4220D9019B1B681A6863
:10A2A400013A1A601B681B7819460198FFF795FF5D
:10A2B4000390019B9B681A46019B1B681B68D31A79
:10A2C4008DF80B30019B1B681B799DF80B209A427B
:10A2D40004D9019B1B689DF80B201A719DF80A3064
:10A2E4001846FDF7E1FD039B184605B05DF804FB35
:10A2F40010B584B001900091009B039300238DF866
:10A304000B300DF10B031846FDF7C4FD019B1B68D0
:10A314001C68621C1A6003990198FFF76FFF0346DB
:10A3240023709DF80B301846FDF7BEFD00BF04B046
:10A3340010BD00B583B00190019B9B68002B0CD02D
:10A34400019B5B69019A1069019A1168019A9268EC
:10A354009847019B00229A6000E000BF03B05DF8BB
:10A3640004FB0EB400B584B00190059B002B0AD009
:10A374000023039306AB039303AB1A460599019894
:10A3840000F0ACF900E000BF04B05DF804EB03B0EA
:10A39400704700B583B001900B468DF80330019BE4
:10A3A4001A68019B9B68581C0199886013449DF8A6
:10A3B40003201A70019B9A68019B5B689A4202D33E
:10A3C4000198FFF7B6FF00BF03B05DF804FB00B5CA
:10A3D40087B0039002910192009300230593009BA0
:10A3E40003F00103002B24D00BE0029B0133029302
:10A3F400059B013305939DF8133019460398FFF725
:10A40400C8FF029B1B788DF813309DF81330002B86
:10A41400EBD106E0019B013B019320210398FFF758
:10A42400B8FF019A059B9A422ED9019B002BF1D1CA
:10A434002AE0029B002B0BD0029811F0F3FE05904A
:10A4440006E0019B013B019320210398FFF7A1FF44
:10A45400019A059B9A420FD9019B002BF1D10BE085
:10A46400029B01330293059B013305939DF813303E
:10A4740019460398FFF78DFF029B1B788DF8133064
:10A484009DF81330002BEBD100BF07B05DF804FB3F
:10A4940000B589B00390029101920093029B079347
:10A4A4000123069307E0079A019BB2FBF3F307939A
:10A4B400069B01330693079A019B9A42F3D2009AB2
:10A4C400069B9A4201D9009B06930B9B03F0010360
:10A4D400002B22D10A9B002B1FD00B9B03F00203FD
:10A4E400002B06D0009B002B03D130238DF81730AE
:10A4F40002E020238DF8173008E00A9B013B0A9301
:10A504009DF8173019460398FFF743FF0A9B002B69
:10A5140003D0069A0A9B9A42EFD301230793009B28
:10A52400012B03D9009B013B009309E0029A079B8E
:10A53400B2FBF3F30493049A019B9A4200D205E020
:10A54400079B019A02FB03F30793E8E7029A079B30
:10A55400B2FBF3F30493049B079A02FB03F3029AFE
:10A56400D31A0293154A049B13441B781946039883
:10A57400FFF70FFF079A019BB2FBF3F30793079BC7
:10A58400002BE3D10B9B03F00103002B11D00A9B9A
:10A59400002B0ED006E00A9B013B0A93202103986E
:10A5A400FFF7F7FE0A9B002B03D0069A0A9B9A42F8
:10A5B400F1D300BF09B05DF804FB00BF80C5030000
:10A5C40000B589B00590049103920293049B002B7B
:10A5D400B8BF5B4206930123079307E0039B069AE7
:10A5E40092FBF3F30693079B01330793039B069AAD
:10A5F4009A42F3DA029A079B9A4201D9029B079383
:10A604000A9B002B0AD0049B002B04DB0B9B03F05A
:10A614000403002B02D00A9B013B0A930B9B03F01B
:10A624000203002B02D0029B002B16D00B9B03F0DD
:10A634000103002B11D10A9B002B0ED006E00A9BCC
:10A64400013B0A9320210598FFF7A3FE0A9B002BE8
:10A6540003D0079A0A9B9A42F1D3049B002B07DA92
:10A66400049B5B4204932D210598FFF792FE08E0BA
:10A674000B9B03F00403002B03D02B210598FFF759
:10A6840088FE0B9B03F00203002B19D00B9B03F0F5
:10A694000103002B14D1029B002B11D10A9B002B28
:10A6A4000ED006E00A9B013B0A9330210598FFF780
:10A6B40070FE0A9B002B03D0079A0A9B9A42F1D39F
:10A6C40004990B9B01930A9B0093029B039A0598A0
:10A6D400FFF7DEFE00BF09B05DF804FB00B58FB0E4
:10A6E400059004910392049B002B00F0E981049BE4
:10A6F4001B788DF83730049B013304939DF8373071
:10A70400002B00F0D4819DF83730252B40F0C38115
:10A7140000230A9301230C93049B1B788DF8373094
:10A724009DF837302D2B04D0302B0AD02B2B10D092
:10A7340017E00A9B43F001030A93049B013304933B
:10A7440012E00A9B43F002030A93049B013304932F
:10A754000AE00A9B43F004030A93049B0133049325
:10A7640002E000230C9300BF0C9B002BD4D10023E8
:10A7740009939DF837302A2B0CD1039B1B68191DB4
:10A78400039A11601B68099A13440993049B0133CB
:10A7940004931AE0049B1B788DF837309DF837300A
:10A7A4002F2B12D99DF83730392B0ED8049B013347
:10A7B4000493099A13469B0013445B001A469DF8C0
:10A7C40037301344303B0993D3E700230B93049BA6
:10A7D4001B788DF837309DF837302E2B1DD1049B14
:10A7E40001330493049B1B788DF837309DF8373080
:10A7F4002F2B12D99DF83730392B0ED8049B0133F7
:10A8040004930B9A13469B0013445B001A469DF86D
:10A8140037301344303B0B93E4E7049B1B788DF8EB
:10A8240037309DF837306C2B03D09DF83730682BC8
:10A8340007D1049B01330493049B1B788DF83730B4
:10A84400EFE79DF83730253B532B00F21F8101A21F
:10A8540052F823F087AA020091AA020091AA0200EA
:10A8640091AA020091AA020091AA020091AA0200F0
:10A8740091AA020091AA020091AA020091AA0200E0
:10A8840091AA020091AA020091AA020091AA0200D0
:10A8940091AA020091AA020091AA020091AA0200C0
:10A8A40091AA020091AA020091AA020091AA0200B0
:10A8B40091AA020091AA020091AA020091AA0200A0
:10A8C40091AA020091AA020091AA020091AA020090
:10A8D40091AA020091AA020091AA020091AA020080
:10A8E40091AA020091AA020091AA020091AA020070
:10A8F40091AA020091AA020091AA020091AA020060
:10A9040091AA020091AA020091AA020091AA02004F
:10A9140091AA020091AA020091AA020091AA02003F
:10A9240013AA020091AA020091AA020091AA0200AD
:10A9340091AA020091AA020091AA020091AA02001F
:10A9440091AA020091AA020091AA0200A9A90200F8
:10A95400CBA9020091AA020091AA020091AA0200C6
:10A9640091AA0200CBA9020091AA020091AA0200B6
:10A9740091AA020091AA020091AA020091AA0200DF
:10A9840053AA020091AA020091AA020037AA020067
:10A9940091AA0200EFA9020091AA020091AA020062
:10A9A40013AA0200039B1B68191D039A11601B68FC
:10A9B4000C930C9B8DF823309DF823301946059891
:10A9C400FFF7E7FC63E0039B1B68191D039A116002
:10A9D4001B680C930A9B0193099B00930B9B0A220F
:10A9E4000C990598FFF7ECFD51E0039B1B68191DBA
:10A9F400039A11601B680C930C990A9B0193099BA1
:10AA040000930B9B0A220598FFF742FD3FE0039B4E
:10AA14001B68191D039A11601B680C930C990A9BFF
:10AA24000193099B00930B9B10220598FFF730FDBF
:10AA34002DE0039B1B68191D039A11601B68079383
:10AA44000A9B099A07990598FFF7C1FC1FE0039B2D
:10AA54001B68191D039A11601B680C93302105981B
:10AA6400FFF797FC78210598FFF793FC0C990023D6
:10AA7400019308230093082310220598FFF708FD8B
:10AA840005E025210598FFF784FC00E000BF049B46
:10AA94000133049305E09DF8373019460598FFF714
:10AAA40078FC049B1B78002B7FF421AE00E000BFF0
:10AAB400059B1B7B002B04D00598FFF73AFC00E0B4
:10AAC40000BF0FB05DF804FB00B587B0059004919A
:10AAD4000392059B002B0FD1184B1B881B0443F0DA
:10AAE40001031846164A17490E2300930B461649CC
:10AAF400FCF74BF90E231CE0049B002B0FD10F4BEA
:10AB04001B881B0443F001031846104A0D490E2309
:10AB140000930B460C49FCF738F90E2309E0059B1A
:10AB2400049A1A60059B1B681B680399059898474B
:10AB34000346184607B05DF804FB00BFF057002039
:10AB4400A0C5030044C70300A8C50300D4C503007F
:10AB540010B586B00590049103920293059B002BD7
:10AB64000FD15C4B1B881B0443F0010318465A4A5F
:10AB74005A490E2300930B465949FCF706F90E2354
:10AB8400A4E0039B002B0FD1524B1B881B0443F002
:10AB940001031846534A51490E2300930B4650496A
:10ABA400FCF7F3F80E2391E0059B1B68002B0FD1F3
:10ABB400484B1B881B0443F0010318464A4A474983
:10ABC400082300930B464649FCF7DFF808237DE091
:10ABD400029B002B0FD13F4B1B881B0443F0010346
:10ABE4001846424A3D49092300930B463C49FCF769
:10ABF400CCF809236AE0059B5B685A68029BB3FBA7
:10AC0400F2F102FB01F29B1A002B0FD0314B1B888F
:10AC14001B0443F001031846354A304909230093C5
:10AC24000B462F49FCF7B1F809234FE0049800F0D4
:10AC340057F90346002B0FD1264B1B881B0443F006
:10AC4400010318462B4A2549102300930B46244937
:10AC5400FCF79BF8102339E0039B184600F040F9F9
:10AC64000346002B0FD11B4B1B881B0443F001032D
:10AC74001846214A1949102300930B461849FCF73A
:10AC840084F8102322E0029A0499059800F00EF942
:10AC94000346002B0FD10F4B1B881B0443F0010309
:10ACA4001846164A0D49102300930B460C49FCF72D
:10ACB4006CF810230AE0059B1B68DC68089B009372
:10ACC400029B039A04990598A0470346184606B0C8
:10ACD40010BD00BFF0570020A0C5030058C70300F3
:10ACE400A8C5030034C60300DCC50300F0C5030097
:10ACF4003CC6030068C6030080C60300A4C6030064
:10AD040010B586B00590049103920293059B002B25
:10AD14000FD13C4B1B881B0443F0010318463A4AED
:10AD24003A490E2300930B463949FCF72EF80E23BB
:10AD340064E0059B1B68002B0FD1324B1B881B045E
:10AD440043F001031846334A3049082300930B4665
:10AD54002F49FCF71AF8082350E0039B002B0FD16E
:10AD6400284B1B881B0443F0010318462A4A274931
:10AD7400092300930B462649FCF707F809233DE015
:10AD84000499059800F0B9F80346002B0FD11D4B28
:10AD94001B881B0443F001031846204A1B49102357
:10ADA40000930B461A49FBF7F0FF102326E0059B9E
:10ADB4005B681B68039A02FB03F31A46049905981F
:10ADC40000F074F80346002B0FD10E4B1B881B04B4
:10ADD40043F001031846124A0C49102300930B4612
:10ADE4000B49FBF7D2FF102308E0059B1B681C6985
:10ADF400029B039A04990598A0470346184606B097
:10AE040010BD00BFF0570020A0C503006CC70300AD
:10AE1400A8C50300DCC50300F0C50300CCC60300CD
:10AE2400F4C6030000B585B00190019B002B03D04C
:10AE3400019B1B68002B28D10023039319E0039A7C
:10AE440013469B0013449B001A46154B134401936D
:10AE5400019B1B68002B09D0019B1B68DB690198CF
:10AE640098470346002B01D0012314E0039B0133D0
:10AE740003930C4A0A4BD31A0B4AA2FB03231B0964
:10AE8400039A9A42DBD3002305E0019B1B68DB692C
:10AE9400019898470346184605B05DF804FB00BFC7
:10AEA4000458002018580020CDCCCCCC84B003909A
:10AEB40002910192039BDA68029B9A4209D8029A92
:10AEC400019B13445A1E039B1B699A4201D8012318
:10AED40000E0002303F00103DBB2184604B070471E
:10AEE40082B00190019B03F00303002B0CBF0123EC
:10AEF4000023DBB2184602B0704782B00190009183
:10AF0400019B5B681B685A1E009B1340002B0CBFFF
:10AF140001230023DBB2184602B0704729DF7047D3
:10AF240000BF184628DF704700BF184600B589B037
:10AF340001900091019B1B689B68002B35D002ABEC
:10AF440000221A605A609A60DA601A615A61009BA2
:10AF54000393019B9B680793019B1B79002B02D0F1
:10AF6400012B0DD01AE001238DF80830019B1B69D9
:10AF74000493019BDB680593019B5B6906930DE0D9
:10AF840002238DF80830019BDB684FF4805202FBEA
:10AF940003F30493019B5B69069300BF019B1B6849
:10AFA4009B6802AA1046984700E000BF09B05DF80C
:10AFB40004FB00B587B00190019B5A69019B9B6912
:10AFC400D31AB3F5805F28BF4FF48053059304224E
:10AFD400059BB3FBF2F3012B38BF01230593019BBF
:10AFE4001A69019B9B6913440493019BDB681A460D
:10AFF400019B9B6913440393059A03990498FFF7F3
:10B004008DFF0346184607B05DF804FB00B583B016
:10B014000190019BDA68019B1B6913441846FFF7F2
:10B0240081FF0346184603B05DF804FB08B5034BE3
:10B0340003491846FEF721FF00BF08BD84580020CD
:10B044001060002008B5084B08491846FEF7FCFEBE
:10B054000246074B1A60064B1B68002B14BF0123E2
:10B064000023DBB2184608BD84580020106000207D
:10B074000C60002000B583B02A4B1B7A002B0BD147
:10B08400FFF7E0FF034683F00103DBB2002B03D09C
:10B09400244B00225A6042E0224B02221A72224BB5
:10B0A4001B681B79002B02D0012B07D00DE01E4B2F
:10B0B4001B681846FFF77DFF019009E01A4B1B68D7
:10B0C4001846FFF7A3FF019002E00323019300BF9A
:10B0D400019B002B02D0112B0CD00FE0114B1B7CD9
:10B0E40083F00103DBB2002B18D00021022000F012
:10B0F40061F913E00B4B01221A7210E00A4B1B6832
:10B1040003211846FFF712FF064B00221A72054B63
:10B1140000225A60FFF78AFF00BF00E000BF03B0BF
:10B124005DF804FBF85F00200C60002008B50848B7
:10B13400FFF72FF80346002B08D1064B5B7C83F006
:10B144000103DBB2002B01D0FFF794FF00BF08BD61
:10B15400FC5F0020F85F002084B001901B4B0022AC
:10B16400DA60019B1B79002B02D0012B19D028E057
:10B17400019B5A69019B9B69D31AB3F5805F28BF71
:10B184004FF480530393019B9A69039B1A44019BD8
:10B194009A61019B9A69019B5B699A420ED10123D2
:10B1A40010E0019B1B695A1C019B1A61019B1A69DF
:10B1B400019B5B699A4203D1012303E000BF00E0D5
:10B1C40000BF0023184604B0704700BFF85F00209A
:10B1D40082B00190084BDB680133074AD360064B09
:10B1E400DB68082B04D9044B0022DA60012300E059
:10B1F4000023184602B07047F85F002000B583B002
:10B2040001900091019B0C4A5A600C48FEF7C1FF63
:10B214000346002B0BD10FF015FD03461A46074BCE
:10B224001A7407481C238C220649FEF799FD002353
:10B23400184603B05DF804FB80C70300F85F0020E4
:10B24400845800206C5F002000B583B00190009109
:10B2540014220021054810F0B1FF054B1846FEF7F3
:10B26400B2FD0023184603B05DF804FBF85F00202C
:10B274008458002000B587B0039002910192009396
:10B28400174A04AB19461046FEF7B1FD0590059B1D
:10B29400002B01D104231FE01C220021059810F08B
:10B2A4008DFF059B00221A71059B039A1A60059B6A
:10B2B400089A9A60059B029A1A61059B019ADA60C2
:10B2C400059B009A5A61064A04AB19461046FEF7DC
:10B2D400A7FDFFF72BFF0023184607B05DF804FB1A
:10B2E4008458002000B585B0039002910192009328
:10B2F400029B009A1946019810F036FF0023184665
:10B3040005B05DF804FB000000B587B0039002911E
:10B3140001920093184A04AB19461046FEF767FDE4
:10B324000590059B002B01D1042320E01C22002161
:10B33400059810F043FF059B01221A71059B039A9F
:10B344001A60059B009A9A604FF48052029BB3FBEB
:10B35400F2F2059BDA60059B019A5A61064A04AB36
:10B3640019461046FEF75CFDFFF7E0FE0023184681
:10B3740007B05DF804FB00BF8458002082B0019040
:10B384000091009B184602B0704782B00190009172
:10B394000023184602B0704782B00190044B1B7A18
:10B3A400002B14BF01230023DBB2184602B0704700
:10B3B400F85F002000B585B001900091019B022B3D
:10B3C40002D0019B032B49D1274B1B7A012B35D08B
:10B3D400022B02D0002B43D033E000238DF80F3032
:10B3E400019B022B02D0032B09D011E01F4B1B68D9
:10B3F4001846FFF7B1FE03468DF80F3008E01B4BEB
:10B404001B681846FFF7E4FE03468DF80F3000BFB3
:10B414009DF80F30002B13D0134B00221A72134BDC
:10B424001A68019B022B01D1002300E00D23194669
:10B434001046FFF77BFDFFF7F9FD01E000BF00E0D8
:10B4440000BF094B5B7C83F00103DBB2002B02D00D
:10B45400FFF710FE05E00FF0D9FB02E000BF00E0AB
:10B4640000BF05B05DF804FBF85F00200C6000200D
:10B4740082B0034600918DF80730064B01225A74BE
:10B48400044B1B7A002B0CBF01230023DBB21846AC
:10B4940002B07047F85F002000B583B00346009106
:10B4A4008DF807309DF80730012B03D09DF8073045
:10B4B400032B0DD1084B00225A749DF80730012B41
:10B4C4000CBF01230023DAB2034B1A74FFF7D2FD39
:10B4D40000BF03B05DF804FBF85F002000B583B043
:10B4E40001900198FEF799FE0346184603B05DF8F3
:10B4F40004FB00B58BB001900091019B9B8A043B37
:10B504000793009A079B1344DA1C079BB2FBF3F3DF
:10B514008DF81B300198FEF7ACFE0590059B002BBF
:10B5240001D1002338E0059B00221A71059B0122FA
:10B534005A71079B9AB2059BDA80059B09939DF883
:10B544001B30013B0493099B019A1A600023089362
:10B554001DE00198FEF78DFE0390039B002B0ED097
:10B56400059B5B790133DAB2059B5A71099B039AF7
:10B574001A60039B019A1A60039B099304E00598DF
:10B5840000F00EF8002307E0089B01330893089AA3
:10B59400049B9A42DDD3059B18460BB05DF804FB6F
:10B5A40000B58BB00190019B0793079B5B798DF8E5
:10B5B4001B30019B08939DF81B30013B059300232E
:10B5C400099305E0089B1B680893099B01330993C1
:10B5D400099A059B9A42F5D3089B1B680493019B27
:10B5E4000893002309930BE0089B1B6803930899B5
:10B5F4000498FEF77DFE039B0893099B013309938E
:10B604009DF81B20099B9A42EED800BF0BB05DF851
:10B6140004FB00B585B00190019B0393039B0433A5
:10B6240001211846FEF785FD00BF05B05DF804FB57
:10B6340000B587B00190019B0593059B043301215C
:10B644001846FEF78EFD0346039303AB0493049B55
:10B654001B78002B02D10198FFF7A2FF00BF07B0AF
:10B664005DF804FB00B58DB0039002910192009344
:10B67400039B0693069BDB880593039B0B93009B1C
:10B684001A1D059BB2FBF3F30A93009B0433059A3E
:10B69400B3FBF2F2059901FB02F29B1A0993009A9B
:10B6A400019B1A44059B1344DA1C059BB2FBF3F37C
:10B6B4008DF8133005E00B9B1B680B930A9B013B31
:10B6C4000A930A9B002BF6D100230893059A099B41
:10B6D400D31A0793079A019B934228BF13460793F3
:10B6E4002DE09DF83830002B0BD0029A089BD0181F
:10B6F4000B9A099B13440433079A194610F034FD3E
:10B704000AE00B9A099B1344181D029A089B1344E0
:10B71400079A194610F028FD002309930B9B1B6818
:10B724000B93019A079BD31A0193089A079B13441E
:10B734000893059A019B934228BF13460793019BE4
:10B74400002BCED100BF0DB05DF804FB00B587B06F
:10B75400059004910392029300230093029B039AA1
:10B7640004990598FFF77EFF00BF07B05DF804FB5E
:10B7740000B587B0059004910392029301230093CE
:10B78400029B039A04990598FFF76CFF00BF07B06A
:10B794005DF804FB82B001900091019B009A1A604D
:10B7A400019B1B681A68019B5A60019B5A68019BA4
:10B7B4001B685B689A4202D1019B00225A6000BF59
:10B7C40002B0704782B00190019B5B68002B14D0DB
:10B7D400019B5B681A46019B1B689B6813441A46CD
:10B7E400019B5A60019B5A68019B1B685B689A42E3
:10B7F40004D1019B00225A6000E000BF02B07047F0
:10B8040000B585B00190019800F00EF80390039BF9
:10B81400002B01D0039B00E0024B184605B05DF8F5
:10B8240004FB00BFBCC7030086B00190164B059310
:10B83400164B04931FE0049A059BD31ADB10DA0F0E
:10B8440013445B10DB00059A13440393039B1B68AA
:10B854000293029A019B9A4202D9039B04930AE041
:10B86400029A019B9A4203D2039B0833059302E098
:10B87400039B5B6804E0059A049B9A42DBD3002394
:10B88400184606B0704700BFBCCB0300E4CC0300ED
:10B8940082B001900091009B1B7B002B07D0009B82
:10B8A4005A68019B1A60019B00221A7106E0009BF2
:10B8B4001A68019B1A60019B01221A7100BF02B031
:10B8C400704700B583B001900091019B1B79002B58
:10B8D40004D00099019800F00BF803E00099019856
:10B8E40000F024F8019B1B68184603B05DF804FBC4
:10B8F40082B001900091009B5A68019B1B68D21A88
:10B90400009B9B689A4207D9019B1A68009B9B681D
:10B914001A44019B1A6006E0009B5A68019B1A6056
:10B92400019B00221A7100BF02B0704782B00190DF
:10B934000091019B1A68009B1B68D21A009B9B68AC
:10B944009A4207D9019B1A68009B9B68D21A019BF3
:10B954001A6006E0009B1A68019B1A60019B012291
:10B964001A7100BF02B07047BFF34F8F0549054BF2
:10B97400DB6803F4E062044B1343CB60BFF34F8FE7
:10B9840000BFFDE700ED00E00400FA05024B034AA6
:10B994001A6000BF704700BF985800200090D00381
:10B9A40008B500F025F90346002B0ED04FF0804374
:10B9B4000022C3F80C214FF080430022C3F8102169
:10B9C4004FF080430022C3F8382500F02FF90346D6
:10B9D400002B76D07D4A4FF08053D3F80434C2F85C
:10B9E40020357A4A4FF08053D3F80834C2F824350E
:10B9F400764A4FF08053D3F80C34C2F82835734A92
:10BA04004FF08053D3F81034C2F82C356F4A4FF0FE
:10BA14008053D3F81434C2F830356C4A4FF0805355
:10BA2400D3F81834C2F83435684A4FF08053D3F849
:10BA34001C34C2F84035654A4FF08053D3F82034A3
:10BA4400C2F84435614A4FF08053D3F82434C2F825
:10BA540048355E4A4FF08053D3F82834C2F84C3549
:10BA64005A4A4FF08053D3F82C34C2F85035574A11
:10BA74004FF08053D3F83034C2F85435534A4FF062
:10BA84008053D3F83434C2F86035504A4FF08053B1
:10BA9400D3F83834C2F864354C4A4FF08053D3F8A5
:10BAA4003C34C2F86835494A4FF08053D3F84034E7
:10BAB400C2F86C35454A4FF08053D3F84434C2F889
:10BAC400703500F0D1F80346002B02D0404B414AB8
