:020000022000DC
:106000000000042061620200B9620200BB6202006B
:10601000BD620200BF620200C16202000000000017
:10602000000000000000000000000000C362020049
:10603000C562020000000000C7620200C9620200DF
:10604000F5810200CF620200ED860200D3620200F9
:10605000D5620200D762020045850200DB620200C1
:10606000DD620200DF620200E1620200E362020020
:10607000E5620200E7620200E9620200EB620200F0
:10608000ED62020089700200F1620200F362020018
:1060900025710200F762020049A30200FB620200C0
:1060A000FD620200FF62020001630200036302005E
:1060B0000563020007630200CB620200CB620200AC
:1060C000096302000B6302000D6302000F6302000C
:1060D00011630200136302001563020017630200DC
:1060E000196302001B6302001D630200CB62020001
:1060F000CB62020021630200CB6202001F63020038
:10610000364937480A1A02D0072291438D4635494D
:1061100035480A1A06D00722914381F309880222E2
:1061200082F3148831483249324A00F045F8324847
:106130003249334A00F040F832483349334A00F0DC
:106140003BF833483349344A00F036F83348344991
:10615000344A00F031F834483449354A00F02CF81C
:1061600034483549354A00F027F83548354900228A
:1061700000F02DF834483549002200F028F8344862
:106180003449091A082903DB002202600430016047
:10619000314A90471F482049884205D002680430A0
:1061A00003B4904703BCF7E700208646EC46002086
:1061B00000212A4A9047FEE7884207D0521A05D0AC
:1061C000037801300B700131013AF9D170478842F0
:1061D00002D002700130FAE770470000000004208E
:1061E00000E00320000004200000042010B602009C
:1061F000142300206823002024630200246302008B
:10620000D4A7020010B6020014230020142300209B
:10621000D8A80200D8A80200D8A80200D8A8020076
:10622000D8A80200D8A80200D8A80200D8A8020066
:1062300010B6020064B60200682300206823002024
:10624000682300205C2C00205C2C00205C2C0020AB
:106250005C2C00205C4C0020856202003D92020014
:106260000F484FF00701884385460E4880470E4887
:10627000016841F470010160BFF34F8FBFF36F8F6E
:10628000FFF73EBF09480A490A4A884207D0521A16
:1062900005D0037801300B700131013AF9D1704714
:1062A00000000420F57C020088ED00E0A4A80200B4
:1062B000E022002014230020FEE7FEE7FEE7FEE7D1
:1062C000FEE7FEE7FEE7FEE7FEE7FEE7FEE7FEE7A6
:1062D000FEE7FEE7FEE7FEE7FEE7FEE7FEE7FEE796
:1062E000FEE7FEE7FEE7FEE7FEE7FEE7FEE7FEE786
:1062F000FEE7FEE7FEE7FEE7FEE7FEE7FEE7FEE776
:10630000FEE7FEE7FEE7FEE7FEE7FEE7FEE7FEE765
:10631000FEE7FEE7FEE7FEE7FEE7FEE7FEE7FEE755
:04632000FEE700BFD5
:10632400F0B595B01C4608460D46164601F0EBFB49
:106334001A9B099400240D930822234605A9284694
:1063440008960A948DF82C400C9401F01AFC079BD3
:106354000293BDF81830ADF80C30BDF81A30ADF822
:106364000E309DF814308DF8114003F00302012A19
:106374001DD1BDF81440059EC3F3C203C4F38314B6
:106384008DF81030A20008230EA9284601F0F9FB6D
:10639400C6F3952608AB0093224602AB0EA93046FD
:1063A40000F0E6FB284601F0B2FB15B0F0BD022A6E
:1063B400F8D1BDF81640C3F3C203C4F389148DF8B1
:1063C40010300827082C264628BF08263B463246AC
:1063D4000EA9284601F0D5FBA41B08AB02AA31463E
:1063E4000EA8374400F028FC002CEBD1DAE70000BB
:1063F400014B01221A707047A92300207047000046
:1064040070B50E4D06460FCD88B06C460FC495E8A6
:106414000F0084E80F0008A9002E4FF00603084A75
:1064240041F8203D08BF0022064801F06BFE08B188
:1064340000F07CFD044B1E7008B070BDD8A80200AB
:10644400F5630200142300206823002007B5044BE1
:106454000093044A4023FFF763FF03B05DF804FB95
:106464006D6402006923002038B50D4B0D4D0020EA
:1064740018700D4804782D5DD2B21C4665B1043005
:1064840002F0AAFD08B100F051FD084B1A7812B1D0
:106494002378002BFBD038BD0C3002F077FBF1E7FA
:1064A400A9230020402A0020142300206823002070
:1064B40008B50848084A0378D35C3BB1043002F0BD
:1064C40035FD0020BDE80840FFF79ABF0C3002F00C
:1064D40007FBF6E714230020402A00200120FFF7E1
:1064E4008FBF000010B5054CFFF7F8FF04212046CC
:1064F40000F0AEFA0123637210BD00BF2823002010
:10650400037813F0030F10B503F0040402D004F071
:10651400FF02F4B1B4B103F00303012B03D0022B47
:1065240009D0012010BD0A6800880232C0F383102C
:1065340002440A60F5E70B684288023303EB9213C6
:106544000B60EEE70B684288013303EB9213028879
:10655400F4E7104610BD00002DE9F04F89B006465F
:10656400851C08A8494C019200230F4600F8113DF0
:1065740000F0C2FF23683B606268A368134422688A
:1065840001339B1A04F21C4704F5836A04F214488D
:10659400AB421AD3019A0023002A6FD0012262F37E
:1065A400010343F0040366F389132168A2689DF88C
:1065B4000F000A4003320D4444F82230256000F0F5
:1065C400BFFF012009B0BDE8F08F0121384601F07A
:1065D4001CF8504601F033F8404601F030F80DF154
:1065E40020096068D4F808B049F8100D00EA0B00DF
:1065F400033004EB80004946FFF782FF049BB8B9DF
:106604000BEA030204EB8202D16805919A1C013360
:1066140003EA0B0B04EB8B0E0492DEF80C300693AA
:1066240001F00303012B21D0022B04D083460CE09C
:106634000BEA0300DCE7BDF81630BDF81AB0C3F36B
:106644008913033302EB93030493404600F0FAFFEB
:1066540008B1049B63605946384600F0D6FF62686F
:10666400A3681344226801339B1A91E7BDF81430E0
:10667400BDF81AB0C3F383131344E5E7022262F3AF
:10668400010343F0040366F39F538EE77C24002048
:1066940008B50E4B0E48FF229A600022C3F8182456
:1066A4001A605A60C3F8142483F8202401F0E2F934
:1066B40038B9084A084B09499B1ADB0802469A4232
:1066C40000D108BD21F822200132F8E77C24002003
:1066D40074A802000CA8020074A80200E0220020A2
:1066E40030B50B4C79B10B4A0B49121BD20800236D
:1066F4009A4201D1002030BD01EB83056D888542AB
:1067040002D00133F4E7034654F8330030BD00BF30
:106714000CA8020074A80200E0220020094B0139F1
:1067240003EBC000032909D8DFE801F00A020406DC
:106734000420704700797047407970470020704703
:10674400022070470CA80200034B58681B68C31A48
:1067540058425841704700BF7C2400202DE9F04383
:1067640087B0FFF7F1FF0746002840F0E6807B4D35
:10677400C5F81804BFF34F8F6868AC680DF11808AA
:1067840048F8100D2040033005EB80004146FFF728
:10679400B7FE029B064600285AD104EA0302991C5C
:1067A400013305EB8202234005EB8303D268DB68E7
:1067B400049302F00303022B039202915AD1BDF811
:1067C4000E306748C3F389194F46502FA8BF50278E
:1067D40067F38F1307F10801ADF80E3001F062F989
:1067E4008046002800F0B08001F08DF9082203A94A
:1067F4003346404601F09AF9029924EA0102013233
:10680400920097422FD9002A00F099802140D6B2F5
:106814000331BF1B534C05EB8101FFB20823324601
:10682400404601F083F934B106F108033A462146A3
:10683400404601F07BF9029B09F1030903EB99033C
:106844000293D5F81834002B47D1D5F8104450E002
:106854002A689A4204D86A60384607B0BDE8F083D3
:1068640004EA03008FE70C40E11C08233A4605EBD9
:106874008101DDE7012B67D1BDF80C303848C3F343
:106884008311062928BF062161F389130231890087
:10689400ADF80C3001F006F98046002854D001F020
:1068A40032F93346082203A9404601F03FF9BDF806
:1068B4000C20C2F38312B31C96424FEA8303C0D266
:1068C40002994A1C21400331029205EB8101042202
:1068D400404601F02BF90136E9E7404601F017F98B
:1068E400FFF732FF80F00100C7B2B5E7637A73BBEC
:1068F4006468002CFAD1404601F009F906A800F8B2
:10690400114D00F0F9FDD5F818340BB9029B6B60FA
:106914009DF8070000F014FEE2E7236820469B6818
:1069240098476468002CF8D10F4B1049188800046C
:1069340040F0020000F074F8D2E700278CE7FEB2C2
:1069440014460849174669E7D5F81044EAE723686E
:1069540041461B6820469847CAE700BF7C240020B4
:1069640074A8020088240020F422002004A9020054
:106974002DE9F74F284C80460F46924601A9012283
:1069840018469B46A568FFF7E7FD88B3DDF8049039
:10699400002609F102025E4534D100211F4800F0AF
:1069A40001FE80F3100009F101022A4004EB820287
:1069B400000405EA0903033340EA1840D06014F8E0
:1069C400232068F3C50204F8232034F8232066F357
:1069D400891224F8232054F82320012167F39F22ED
:1069E40044F8232061F301026FF3820204F82320A8
:1069F40094F820341BB1FFF7B1FE0028FBD103B09B
:106A0400BDE8F08F02EA050104EB81015AF8263053
:106A1400CB6001360132BEE77C2400209828002098
:106A240000231A46FFF7A4BF13B502AC012344F8B0
:106A3400042D2246FFF79CFF02B010BD07B58DE878
:106A44000C0002236A46FFF793FF03B05DF804FBD2
:106A54000F4A30B5D2F810440023214641B90372DD
:106A6400D2F810444CB9C2F810044160184630BD45
:106A74000D7A9D4205D04968F0E762684260606023
:106A8400F4E701330A2BE8D14FF0FF33EEE700BF00
:106A94007C240020084A38B50123D2F8104482F837
:106AA40020341D4604B938BD2368657220465B68EE
:106AB40098476468F6E700BF7C240020C38873B558
:106AC40004460D4633B1144A00921449144A284628
:106AD40000F019FE217A05291CD0637A4BB1A088F5
:106AE400FFF71CFE0F4B104953F82020284600F0F6
:106AF4000AFE227A0D4BA08853F822600021FFF78A
:106B0400EFFD0B4903463246284602B0BDE870400B
:106B140000F0F9BD02B070BD7FA9020067A90200B0
:106B24005FA902002CA9020084A9020094A9020012
:106B340087A90200037A052B10B50C460FD0437ABF
:106B440023B1084A0849204600F0DDFD07492046E4
:106B540000F0D9FD2046BDE8104000F0C9BD002A70
:106B6400F8D0F3E77FA9020084A902007CA90200FF
:106B74002DE9F04385B01F460C9D002306460C46C4
:106B8400904695F80C902B7329463846FFF796FFEC
:106B9400B8F1060F09D8DFE808F00412181F2833EB
:106BA40040003146284600F0AEFD00222946384612
:106BB400FFF7C0FF85F80C9005B0BDE8F0832268AC
:106BC4003146284600F09FFDEFE794E80C0031467B
:106BD400284600F098FDE8E7A3680093314694E85E
:106BE4000C00284600F08FFDDFE7E3680193A368FB
:106BF4000093314694E80C00284600F084FDD4E765
:106C040023690293E3680193A3680093314694E8EF
:106C14000C00284600F077FDC7E7636903932369F6
:106C24000293E3680193A3680093314694E80C004F
:106C3400284600F068FDB8E708292DE9F84F80469A
:106C44000E4617461C4636D8002593F80C901D7343
:106C540019461046FFF732FFDFF87CA0DFF87CB05E
:106C6400AE422AD918F805205946204600F04BFDBB
:106C74000135082DF4D11649DFF864B0204600F040
:106C840042FD0025AE421DD918F805A0504603F078
:106C94000BFD002814BF52462E225946204600F010
:106CA40032FD0135082DEDD1012221463846FFF78A
:106CB40041FF84F80C90BDE8F88F5146204600F05F
:106CC40022FDD5E70349204600F01DFDE9E700BF9A
:106CD4005AA9020058A9020056A9020050A90200AC
:106CE4005CA902002DE9F84FDFF8A4B00025254B7C
:106CF4001B78ECB2A34201D8BDE8F88F224BD3F83D
:106D0400008018F8349001204A46002103F060FC0A
:106D1400DBE9002300EA020601EA03073E4308EB2D
:106D2400C40A2CD023EA010122EA0000CBE90001C5
:106D3400484601F0F5FB18F834408146224601200C
:106D4400002103F045FC114BD3E9006722460640BD
:106D54000F404846002103F03BFC8F4208BF8642A7
:106D64000DD1DAF8043053B19AF801104A1E514299
:106D74005141A1EB09004142414120469847013568
:106D8400B5E700BFA0280020D8280020C82800208C
:106D9400D02800202DE9F84307461F4800F09CFB4B
:106DA400002837D13A460120002103F011FC1B4B87
:106DB40004460D46D3E9000104EA000805EA010986
:106DC40058EA09021E461FD1384601F0A9FB144BAC
:106DD40098B1D3E9000120432943C3E90001D6E96E
:106DE40000231D430F4B0C4819681443C6E90045A2
:106DF4000022BDE8F84300F029BBD3E9000120EAF2
:106E0400040021EA0501E8E720EA040421EA050573
:106E1400C3E90045BDE8F883A8280020D028002055
:106E2400C8280020A4280020042AF7B505460C46EB
:106E3400164638D901F080FAC8B11C4B1C491D60B4
:106E44001C4B1D4F1C701D4B00221E600023C1E90A
:106E540000231B49C1E90023013CE4B20026FF2CB6
:106E64000BD1184A1848002100F0DEFA03E001F0C3
:106E74002BFA0028E1D003B0F0BD23B205EBC30226
:106E8400032192788DF804108DF8052001A93A4663
:106E940015F833008DF8066001F058FA013CE4B2AD
:106EA4000028DCD0E7E70720E5E700BFD82800206A
:106EB400C8280020A0280020996D0200A4280020E2
:106EC400D0280020E96C0200F4A9020070B5084D36
:106ED400084E00242B789C4201D3002070BD3368F7
:106EE400012113F8340001F0AFFA0134F2E700BFD6
:106EF400A0280020D828002070B5094D094E002490
:106F04002B789C4204D30848BDE8704000F0E4BAF2
:106F1400336813F8340001F0E1FA0134F0E700BFFC
:106F2400A0280020D8280020A82800201FB5002170
:106F3400039001AA44F201000191029100F004F8C7
:106F440005B05DF804FB000010B572B6FFF7A2FDB2
:106F5400FFF704FC0028FBD1104C114920880004E1
:106F640040F00100FFF75CFD0E4B1B68DB0700D50A
:106F740000BE20880C49000440F00200FFF750FDD9
:106F8400BFF34F8F09490A4BCA6802F4E062134306
:106F9400CB60BFF34F8F00BFFDE700BFF42200209A
:106FA400F8A90200F0ED00E004AA020000ED00E000
:106FB4000400FA05094A537891780133DBB2994207
:106FC40008BF0023117899421FBF0370507818231B
:106FD40003FB002014BF043000207047DC2800208D
:106FE40073B5054602A8002400F8014D0E4600F0D2
:106FF40083FA0DF10600FFF7DDFF90B106700A4B2E
:107004009DF8062045605A709DF8070000F098FA34
:1070140024B9064B4FF48012C3F80021204602B075
:1070240070BD0424F0E700BFDC28002000E100E08C
:10703400024B4FF43C6043F00103184720AA0200BE
:1070440038B50C4B0C4C4FF40032C3F880200125AA
:107054004FF48033C4F84833C4F808336560FFF74D
:10706400E7FF064BA56000241C60FFF7E1FF044B1B
:107074001C7038BD00E100E000100140F829002038
:10708400E9290020F8B51F4B1F491B680025C1F8EA
:107094004051C1F84451C1F84851C1F84C51C1F8AC
:1070A4000051C1F804514BB3D1F80445174909689C
:1070B400641A24F07F442F461A68A24209D8A41AFD
:1070C40015441A7CDE691AB11F745A69986990478D
:1070D400AEB90F4B0F4A197813788B4205D101339F
:1070E400DBB2022B08BF0023137012780A4B43F85B
:1070F40022500A4B4FF48012C3F80021F8BD3346E6
:10710400DAE700BFFC29002000100140F829002024
:10711400F4290020F5290020EC29002000E100E0FA
:107124002DE9F74F9C4A9D49137809789C4E994262
:1071340057D00133DBB2022B08BF002313709949E7
:107144001278994B0F6853F822003B1823F07F43C1
:1071540000220B60336815461446964613B942B1B3
:10716400336006E01968814229D902B13360091AF3
:1071740019604FF0010833688C4FDFF83CB200937C
:107184004FF00009002D61D02C46ED69854B6068F5
:107194001A68831A23F07F41854B9942A36800F251
:1071A400B7800B44236000236360A360E36133680A
:1071B40001222274002B40F0B3803460E2E7401ACD
:1071C4000C44D968C3F800E0D3F81CC031B13A19B3
:1071D40022F07F42DD615A6099601D4663460122B8
:1071E400BCE70025A846C6E7531CB978DBB2994230
:1071F4003B704FF0180303FB027208BF3D70137914
:107204009468022B1BD0032B11D0012B1ED1217C9F
:10721400E1B9D36863601369A3605369E360936958
:10722400A361644B1B78002BB0D06160AEE70023F0
:1072340035681A46002D67D143B1356006E03268DF
:1072440013469246002B5AD1002323743A787B7854
:107254009342C9D1B9F1000F06D13368009A9A421A
:1072640002D1B8F1000F44D03368002B73D0D3F8A7
:1072740000A0514D4B4BD5F804751C68DFF84081D4
:107284003E1B98F8003026F07F4603369BB94FF436
:107294008033C5F84433C5F80433484B4FF4003207
:1072A4004FF00109C3F880211A60C5F80090FFF778
:1072B400BFFE88F80090B2452CBF5444A41924F0B2
:1072C4007F44C5F84045D5F80435DB1B23F07F43E4
:1072D400E41B033324F07F44A3420AD9D5F80435D0
:1072E400C5F84035FFF7A4FE344B4FF40032C3F821
:1072F4000021304B00221A7003B0BDE8F08F9C428D
:107304002CD09A46DB699DE72A740123ED6991E745
:10731400121A22F07F429A4234BF9B1A002341E79B
:10732400226819688A420BD88A1A1A60E36144E712
:10733400521AD969184661B92260E161DC6121E71A
:10734400184619689142F3D3891A196019460346FD
:10735400F2E70B46F5E7FFF773FECAE754450DD194
:10736400D369336053B90F4801920121CBF8081057
:107374000360104B1970FFF75BFE019AE169236803
:10738400CAF81C1011B1086803440B6033689A42B0
:1073940018BF4FF0010957E7F4290020F529002010
:1073A400FC290020F8290020EC290020DC280020FA
:1073B400FEFF7F00E82900200010014000E100E00A
:1073C400E929002008B5FFF73BFE114B00200B22F2
:1073D40018709A7058700F4B18600F4B18700F4B41
:1073E40018700F4B4FF48012E021C3F8802183F80A
:1073F40014131A6002F18042A2F56F22C2F8080544
:1074040083F81113074BD2F804251A6008BD00BF96
:10741400DC280020FC290020F4290020F529002084
:1074240000E100E0F8290020074B9B784BB132B112
:1074340028B10368187C20B959745A617047072031
:1074440070470820704700BFDC2800202DE9F7436F
:107454001E4FBB7805460E469046ABB3A0B3042935
:1074640030D9436983B3437C02A80024012B00F87C
:10747400014D0CBF8946A14600F03EF80DF106000F
:10748400FFF798FDE0B101230370114B4560D3F879
:10749400043583609DF80630C660C0F81090C0F8CB
:1074A40014807B709DF8070000F04AF824B9094B5A
:1074B4004FF48012C3F80021204603B0BDE8F083E6
:1074C4000424EFE70724F7E70824F5E7DC28002085
:1074D4000010014000E100E0064A92783AB130B170
:1074E400426922B1002202740221FFF779BD08200B
:1074F400704700BFDC28002070B5EFF3108672B629
:107504000C4A946801239CB993600B4B0B4DD3F840
:10751400801029401160C3F88050D3F88410516062
:107524004FF0FF32C3F88420047006B962B670BD10
:107534000370FAE7002A002000E100E0FC06FFBD2A
:10754400084B9A6810B55AB150B9EFF3108272B66D
:1075540005491C680C605C684C60986002B962B6AE
:1075640010BD00BF002A002000E100E001F01F026E
:107574004B090121914000EB830000F01FB801F09A
:107584001F0301229A404B0900EB8300D14300F012
:107594002FB84B0901F01F0150F82300C84000F038
:1075A4000100704700B550E8002F0B4640E8003E4C
:1075B4009EF0000FF7D110465DF804FB00B550E8CB
:1075C400003F43EA010240E8002E9EF0000FF6D18E
:1075D40010465DF804FB00B550E8002F02EA0103F1
:1075E40040E8003E9EF0000FF6D110465DF804FB23
:1075F40000B550E8003F03EA010240E8002E9EF087
:10760400000FF6D110465DF804FB00B550E8003FCA
:1076140003EB010240E8002E9EF0000FF6D1104665
:107624005DF804FB00B550E8003FA3EB010240E81D
:10763400002E9EF0000FF6D110465DF804FB0121E8
:10764400FFF7BCBF0021FFF7C6BF10B590B1426879
:10765400836801689B1ADBB20A60013BDBB2FF2B33
:10766400026802D10020107110BD11684C1C146016
:107674000B70F2E70E2010BD37B5054602A80024B2
:1076840000F8014DFFF738FF2A686B6811689942CA
:107694000ED9481E106011F8014CEB68A98A01FB51
:1076A4000434AB6811791B1ADBB2994238BF1371E9
:1076B4009DF80700FFF744FF204603B030BD37B5FF
:1076C400054602A8002300F8013D0C46FFF714FF0D
:1076D4002A681368591C1160E968641AA98AB4FB02
:1076E400F1F41C709DF80700FFF72AFF03B030BDCA
:1076F400826810B504462AB1436901680069984755
:107704000023A36010BD0EB403B5039929B102AAE6
:1077140004AB42F8043D00F06DF802B05DF804EBF0
:1077240003B07047826830B40468551C8560A15466
:10773400826843689A4202D330BCFFF7D9BF30BC99
:10774400704700002DE9F84F0A9C99460B9B174699
:10775400824688460A460126BA420FD24E4538BFB1
:107764004E4613F0010B01D164B900240125B9F18F
:10777400010F1AD909F1FF397D43F8E7B2FBF7F29B
:107784000136E9E79B070ED5B9F1000F0CBF302590
:107794002025A642EAD2013C29465046FFF7C2FF03
:1077A400002CF6D1E1E72025F3E7B8FBF5F39F427F
:1077B400E2D9DFF83C90B8FBF5F3504619F8031012
:1077C40005FB1388FFF7AEFFB5FBF7F5002DF2D1EB
:1077D400BBF1000F0AD03CB9BDE8F88F013C202171
:1077E4005046FFF79FFF0CB1A642F7D3BDE8F88FD0
:1077F40026AA02002DE9F74F054617460C46002934
:1078040000F0358114F8011B49B92B7B002B00F0E3
:107814002E81284603B0BDE8F04FFFF769BF252944
:1078240040F0218123460026194611F8012B2D2A08
:1078340024D0302A26D02B2A27D000242A2A99465D
:1078440003F1010124D13B681A1D1B683A601C44F2
:10785400894699F800302E2B25D109F101014FF00A
:107864000008894611F8012BA2F1300009281CD820
:107874000A2303FB0823A3F13008F2E746F00106CC
:107884000B46D1E746F00206FAE746F00406F7E7AE
:107894001A780B46A2F130010929DAD80A2101FB32
:1078A4000424303CCAE74FF0000899F8001001F0B6
:1078B400FB02682A02D119F8011FF8E769290FD0E1
:1078C4004BD8582965D007D825296ED009F1010471
:1078D4002378002B96D198E7632962D06429F5D1E7
:1078E4003A68D2F800A0111D8AEAEA723960A2EB64
:1078F400EA724FF0010B092A5BDCC34538BFC3466B
:107904002CB1BAF1000F01DB710700D5013CB207BD
:1079140002D5B8F1000F04D0F30702D4002C4ED1E5
:107924000024BAF1000F52DACAF1000A2D212846C8
:10793400FFF7F8FE06F00302022A05D1B8F1000FA2
:1079440002D1002C47D100248DE8500043460A227E
:1079540051462846FFF7F6FEB8E773294CD014D8F1
:107964007029B3D13B681A1D3A60302128461C683F
:10797400FFF7D8FE78212846FFF7D4FE00230193B1
:107984000823009310222146E3E775292BD0782998
:107994009CD139680A1D3A6043468DE85000102294
:1079A40028E03B681A1D19783A602846FFF7BAFEAA
:1079B4008CE70A230BF1010B92FBF3F29BE7A3453F
:1079C400AFD220212846013CFFF7ACFEA6E77007A2
:1079D400B0D52B21ABE7A345B6D230212846013CD4
:1079E400FFF7A0FEADE739680A1D3A608DE8500044
:1079F40043460A220968ACE73B681A1D3A60F1075E
:107A0400D3F800A012D55646A6EB0A0B16F8011BB4
:107A140041B95C457FF65AAF20212846013CFFF767
:107A240081FEF6E72846FFF77DFEEDE7BAF1000F89
:107A340011D0504602F09CFE0646B44200D964B907
:107A44000AF1FF3A1AF8011F00293FF43FAF284614
:107A5400FFF768FEF6E75646EFE720212846013C8B
:107A6400FFF760FEE9E72846FFF75CFE30E703B066
:107A7400BDE8F08FFFF7E9BDF8B546790446721EFC
:107A840000239342246804D301460025B54202D35F
:107A9400F8BD0133F5E70F682046FFF710FE013506
:107AA4003946F3E72DE9F843878ACD1C8046FFF772
:107AB400E3FD043F3D440446B5FBF7F5002650B111
:107AC4000123EDB206714371C780013DC0F8008007
:107AD4008146AE4202D32046BDE8F8834046FFF714
:107AE400CBFD074648B16379013363710136C9F8A8
:107AF4000000C0F800808146EBE72046FFF7BCFF9A
:107B04003846BDE8F88301210430FFF77EBD10B587
:107B1400012104460430FFF785FD10F0FF0F04D166
:107B24002046BDE81040FFF7A7BF10BD2DE9F8437C
:107B3400C68804330F46B3FBF6F4154606FB14332C
:107B440080463CB9A6EB0309A94528BFA9462DB92F
:107B5400BDE8F883D8F80080013CF2E7043308EB71
:107B64000300A5EB09054A46391902F0A3FDAE420C
:107B74004C44D8F80080B1464FF0000328BFA94612
:107B8400E5E72DE9F843C6880F46191D1546B1FBF4
:107B9400F6F4804606FB14113CB9A6EB0109A9458D
:107BA40028BFA9462DB9BDE8F883D8F80080013C68
:107BB400F2E704314144A5EB09054A46381902F0BD
:107BC40079FDAE424C44D8F80080B1464FF0000134
:107BD40028BFA946E6E741DF70470000064B10B511
:107BE40000241C70054B1C60BFF35F8F04490548DB
:107BF40000F030F8204610BD142A0020182A002076
:107C040038AA02000C2A002007B502A8002300F8B5
:107C1400013DFFF771FCF1EE103A23F09F03E1EE12
:107C2400103ABFF35F8F0A4B4022C3F884219DF8BA
:107C34000700FFF785FC02F06BFB20B1FFF7CBFFD9
:107C440003B05DF804FB20BF40BF20BFF8E700BFCE
:107C540000E100E00B684A684360934208BF0023D8
:107C6400016008BF43607047436843B1026891688C
:107C740052680B449342436004BF0023436070473F
:107C84000D4930B5A1F594720225914201D8002026
:107C940030BD8B1ADB1093FBF5F302EBC30452F8EF
:107CA4003330834205D802D204F10802EDE760685C
:107CB40030BD2146E9E700BF88AB020008B5FFF7F5
:107CC400DFFF024B002808BF184608BD4DAA02007A
:107CD400054B1B68082B01BF044B1868B0FA80F0F1
:107CE400400918BF00207047300100103401001013
:107CF40008B54FF080430022C3F80C21C3F81021CB
:107D0400C3F838254FF0805203F54043D2F80414E9
:107D1400C3F82015D2F80814C3F82415D2F80C14AB
:107D2400C3F82815D2F81014C3F82C15D2F814147B
:107D3400C3F83015D2F81814C3F83415D2F81C144B
:107D4400C3F84015D2F82014C3F84415D2F824140B
:107D5400C3F84815D2F82814C3F84C15D2F82C14DB
:107D6400C3F85015D2F83014C3F85415D2F83414AB
:107D7400C3F86015D2F83814C3F86415D2F83C146B
:107D8400C3F86815D2F84014C3F86C15D2F844242B
:107D9400C3F87025FFF79CFF10B1384B384A1A60BE
:107DA400FFF796FF18B1374BFB22C3F81825FFF7EE
:107DB4008FFF48B13449354B0A681B6822F00F0223
:107DC40003F00F0313430B60FFF782FF18B1304B2E
:107DD4004FF400721A604FF08043D3F80024D207A6
:107DE40044BF6FF00102C3F800242A4AD2F8883055
:107DF40043F47003C2F88830BFF34F8FBFF36F8F23
:107E04004FF01023D3F80022002A03DBD3F8043206
:107E1400002B2FDA204B0122C3F80425D3F80024C9
:107E2400002AFBD04FF010221221C2F80012D3F81E
:107E34000024002AFBD04FF010231222C3F804229E
:107E4400154B1A46D3F800140029FBD00021C3F8BF
:107E54000415D2F80034002BFBD0BFF34F8F0D492B
:107E64000E4BCA6802F4E0621343CB60BFF34F8F3A
:107E740000BFFDE70A4B0B4A1A6008BD8C56004050
:107E84004881030000F00040E40E00405802001056
:107E94004096024000ED00E000E001400400FA05D5
:107EA400342300200090D003074B1B5C1F2B86BF9C
:107EB40003F01F0305494FF0A041012202FA03F326
:107EC400C1F80C35704700BF46AF020000030050F4
:107ED400074B1B5C1F2B86BF03F01F0305494FF0A4
:107EE400A041012202FA03F3C1F80835704700BF2C
:107EF40046AF02000003005008B50020FFF7E8FF7A
:107F04000120FFF7E5FF0220FFF7E2FF0320BDE8B1
:107F14000840FFF7DDBF0000C20770B5044614D562
:107F2400154D164E00220320535D1F2B86BF03F010
:107F34001F0331464FF0A04103F5E0730132042AD8
:107F440041F82300F0D1FFF7D7FFA30712D50C4C5B
:107F54000A4D00220C20135D1F2B86BF03F01F0364
:107F640029464FF0A04103F5E0730132042A41F899
:107F74002300F0D170BD00BF46AF020000030050E3
:107F840042AF020038B5084C04F108030546002846
:107F940018BF1C4623682BB11A6822605B68284608
:107FA4009847F7E738BD00BF242A002020B9054BC5
:107FB40001225A70FFF7E6BF012802D1014A9070EE
:107FC400F8E770471C2A002020B9034B01225A709D
:107FD400FFF7D8BF704700BF1C2A002038B50B4CF0
:107FE400237883B90A486360A3602361E36000F0E7
:107FF400D1F8054602F08CF908B900F0D9F801234C
:108004002370284638BD8525FBE700BF1C2A0020C5
:10801400B17F020037B502A80023094C00F8013DE6
:10802400FFF76AFAE368013BE360E56815B900F01D
:10803400D3F8A5709DF80700FFF782FA03B030BDAE
:108044001C2A0020012813B509D003D303281BD010
:1080540002B010BD0F4B0122C3F88020F8E702A83C
:1080640000230D4C00F8013DFFF746FA23780BB9C5
:10807400FFF7B4FFE3689DF807000133E3600123D1
:10808400A370FFF75DFAE3E700F092F8FFF7C2FF91
:10809400DEE700BF00E100E01C2A00201FB50378E2
:1080A4008DF8003043680193037A8DF80830C36873
:1080B4000393054A054B684653F8213052F82110C2
:1080C400984705B05DF804FB302A0020382A0020C8
:1080D4001FB503788DF800304368019383688DF8E9
:1080E4000830C3680393054A054B684653F82130AA
:1080F40052F82110984705B05DF804FB302A00209F
:10810400382A0020F0B5194B0678DFF870C043F820
:108114002620174B96460A6943F826204B7F0CF815
:1081240006300C4607460FCC89B06D460FC594E85F
:108134000F0085E80F001CF80630049653B1BEF119
:10814400000F0C4A694608BF0022381D00F00AFEE1
:1081540009B0F0BDBEF1000F074A694608BF00220E
:1081640007F10C0000F0E0FBF2E700BF382A002022
:10817400302A0020A1800200D5800200402A00207D
:1081840000F180400023036082B003680193019BE7
:1081940002B07047054A13792BB90121106011719F
:1081A4005371184670478520704700BF442A002049
:1081B400084B1A68D20706D4E02283F80023012270
:1081C400C3F880211A604FF080430122C3F81825B8
:1081D400704700BF00E100E0044B01221A604FF039
:1081E4008042D2F81834DB03FBD470470C00004003
:1081F400124B1B6810B573B14FF48070FFF7C0FFCA
:108204004FF080430122C3F808230D4B587910B96D
:108214005A711B6898470B4B1B6873B14FF48270FB
:10822400FFF7AEFF4FF080430222C3F80823044B4C
:1082340001201B68BDE81040184710BD0001004034
:10824400442A00200401004000F1804000F5C040B1
:10825400002382B0036003680193019B02B070475E
:1082640003681F2B83BF03F01F03036001484FF013
:10827400A04070470003005007B502AB43F8040D5B
:108284001846FFF7EDFF019B00EB8300D0F80037A1
:1082940023F44033C0F80037D0F8003743EA0141F3
:1082A400C0F8001703B05DF804FB0000054B4FF065
:1082B400FF32072843F8202084BF1B1883F8582076
:1082C400704700BF4C2A002010B5174C94F86A3050
:1082D40043BBFF21E2180133302B82F83010F9D16F
:1082E4000021C8B2FFF7E2FF01310C29F9D10021C6
:1082F40006220E4802F008FA0D4BE02283F806230A
:108304004022C3F880214FF4BE701A60FFF79CFF2F
:10831400084B4FF00042C3F80423012384F86A3069
:10832400002010BD082010BD4C2A0020B02A0020D7
:1083340000E100E000600040034B93F86A00003065
:1083440018BF0120704700BF4C2A0020F7B53C4CF1
:108354002318064693F93030002B6FDA8878C0F37F
:10836400400000280BBF082300230C250825AB423E
:1083740002D1042003B0F0BD54F82370013745D175
:10838400A7195DB287F8305044F8232010B923446C
:1083940083F858608B785A0718D4D80738D502A8C0
:1083A40040F8086DFFF75CFF009B00EB8300D0F8FA
:1083B400003723F00203C0F800372248F20806F021
:1083C40007070123BB40875C3B43835488780A78C2
:1083D40010F0020029D0AB0003F1804303F5C04341
:1083E4003602D3F8101521F44F3121F44071C3F84B
:1083F40010151204D3F8101506F47C5602F440321A
:1084040016430E43C3F810650020B3E70133AEE70B
:1084140002A84A7840F8046DFFF722FF019B03F598
:10842400E073920040F82320C7E7083D2C4494F8F9
:10843400606046EA821284F860209BE7082099E78E
:108444004C2A0020B02A002073B5224C2518064679
:1084540095F93020072A1ADD224492F858309B09F6
:10846400032B10D102A840F8046DFFF7F9FE019A1E
:10847400D0F81035D340DB0707D402213046FFF78C
:10848400FBFE02B070BD012BF7D00321F6E7D3B297
:10849400072BF6D8930003F1804303F5C043D3F8C8
:1084A400100540F00100C3F8100502F140008000FF
:1084B40080B2FFF7C9FE0029E3D095F9303054F8B3
:1084C4002330002BDDD0012303FA02F2024BC3F860
:1084D4000423D6E74C2A0020006000400E4B0344DE
:1084E40093F93020072A02DD0021FFF7C5BED3B27D
:1084F400072B10D8930003F1804303F5C043D3F84E
:10850400101521F00101C3F81015012303FA02F23A
:10851400024BC3F8082370474C2A00200060004037
:1085240007B502AB43F8040D1846FFF799FE019B0B
:10853400D0F81005D84000F0010003B05DF804FB4A
:108544002DE9F04F89B00024614A624E624D0294D5
:1085540003940121A2F5C04052F8043B012B80B2E0
:1085640006D1D6F804330B4202D0FFF76DFE0C435C
:10857400AA424FEA4101EDD1584B1B68012B0ED1A1
:108584004FF4BE70FFF760FE4FF0A04344F0004488
:10859400D3F810350293524BD3F81035039314F0EB
:1085A400FF0F34D1002C80F28F8004AE002304939B
:1085B40073604C4F4FF0FF33069307934FF001085D
:1085C400002425467B1993F96020531C63D0D2B252
:1085D40022F0C00908AB4FEAD90003EB000B02F00C
:1085E40007011BF8083C08FA01F10B4253D007EBD2
:1085F4000903920993F9303057F823A0BAF1000F18
:1086040021D1032A47D1335C0B4333541DE0354F4A
:1086140001260025344210D0AB0003F1804303F55A
:10862400C043D3F81005D3F8101557F8253023B1FB
:10863400C1F30141C0F3052098470135082D4FEAE5
:108644004606E7D1AEE7032ADDD001A8CDF80490B1
:10865400FFF706FE019B03F5E07350F823301BF887
:10866400180C0842C3F3014305D0022B13D1032A8B
:108674000BD1114604E0032B0DD1032A05D10221AD
:108684004846FFF7F9FD0134E4B2BAF1000F02D015
:1086940011464846D0470135042D93D1A4B14FF07B
:1086A400A0430299D3F8102503F540739142D3F8FF
:1086B400103502D10399994206D002920393049A89
:1086C400059B069207937BE709B0BDE8F08F00BFD6
:1086D4000061004000600040206100407C61004077
:1086E400000300504C2A0020014B1B68184700BFB0
:1086F400B82A00200D4B984237B50D4610D102A878
:10870400002300F8013DFEF7F7FE094B1C7914B96C
:1087140001221D601A719DF80700FEF711FF14B9BC
:10872400002003B030BD1120FBE700BF0020004053
:10873400B82A0020034B984201BF034B00221A6061
:108744001A71704700200040B82A002000234350CB
:1087540082B043580193019B02B070470A4610B59A
:108764004FF48E71FFF7F2FF136A9168C95C136AC4
:1087740001331362C0F81C1510BD8B690A4610B58D
:108784004FF4847123B9FFF7E1FFD0F8183510BD19
:10879400FFF7DCFF536AD168D0F81805C854536A50
:1087A4000133536210BD00001FB501238DF8003062
:1087B400044B02900191684693E80600904705B087
:1087C4005DF804FBC02A002030B54D4AD2F80433CA
:1087D40013F4007F85B015464FD0D2F82431002B16
:1087E4004BD04FF492711046FFF7B0FF4FF4017372
:1087F400C2F80833434B93F8291009B90121516099
:108804003F4902228DF80020D1F88024C1F8802449
:1088140003929A690292DA68019200229A61DA61FB
:10882400684693E8060090473548D0F81C315BB1A0
:1088340034490A6A4B699A420A464CD291F8283064
:10884400002B48D1FFF78AFF2D4AD2F8443193B167
:108854004FF4A2711046FFF779FF2A4B93F82910C1
:1088640009B1012111609A692AB100229A61586AFA
:10887400D968FFF799FF05B030BDD5F804335B071D
:10888400D2D5D5F80831002BCED01E4C1C48214639
:10889400FFF773FF636AA2699A422346C4D1E2696F
:1088A40052B12369E168E3600023606AA261E36175
:1088B4006362FFF779FFB7E794F829200AB9012228
:1088C4006A600F4A4FF40171C2F8081300229A61DA
:1088D400586AD968EDE74FF48E710948FFF736FFFF
:1088E40051690029B0D00023029191688DF80030BD
:1088F40001915361684692E80A009847A4E700BFD3
:1089040000200040C02A00201F2886BF00F01F005E
:10891400044B4FF0A04300F5E070022243F82020FE
:10892400704700BF000300502DE9F843674B0479FA
:1089340091462C2202FB0432064692F82A200D4668
:108944009846002A40F0BE8061490068FFF7D2FED5
:108954000746002840F0B88029684A1C10D01F2917
:1089640087BF01F01F035B4A0B464FF0A042012072
:10897400984003F5E073C2F80805032042F8230089
:108984006868431C0DD01F288BBF00F01F030346EB
:10899400504A4FF0A04203F5E0734FF0000E42F846
:1089A40023E03368AA6995F814E0C3F824256A7DA6
:1089B400BEF1010F4EEA0202C3F86C25C3F8140598
:1089C400C3F80C152BD1A968481C0DD01F298BBFE7
:1089D40001F01F020A463F484FF0A04002F5E07242
:1089E4004FF0000E40F822E0E868421C13D01F2824
:1089F40087BF00F01F0E374A86464FF0A0424FF063
:108A0400010C0CFA0EFC0EF5E07EC2F808C54FF01E
:108A1400030C42F82EC0C3F80805C3F810152C2324
:108A2400634308EB0302C2F804902A6948F8032060
:108A3400B9F1000F33D04FF48E7130682D7FFFF7FA
:108A440085FE30684FF4A271FFF780FE3268224B36
:108A5400C2F80433120B53B2002BA8BF03F16040D9
:108A64004FEA53134FEA4511BABF1C4802F00F05F1
:108A740000F561404FEA8303B4BFC9B2C9B203F140
:108A84006043B4BF415580F8001303F5614302F01D
:108A94001F02012101FA02F2C3F880211A6033682F
:108AA4000422C3F800252C2303FB048300229A61CB
:108AB400DA6183F829205A61012283F82A20384692
:108AC400BDE8F8830827FAE71127F8E7C02A002051
:108AD400CD870200000300508000020014ED00E086
:108AE4002DE9F04103680479254D0022C3F80025DF
:108AF4002C2202FB04520646526872B1214AC3F882
:108B04000823190B4AB20120520901F01F0100FA8F
:108B140001F120321C4840F82210D3F80C05D3F898
:108B24001485D3F80815D3F810754FF0FF3290422E
:108B3400C3F81425C3F80C25C3F80825C3F8102579
:108B440001D0FFF7E1FEB8F1FF3F02D04046FFF746
:108B5400DBFE7A1C02D03846FFF7D6FE4B1C02D04F
:108B64000846FFF7D1FE3068FFF7E4FD2C2303FB32
:108B74000454002384F82A306360BDE8F08100BF08
:108B8400C02A00208402020000E100E02DE9F8433D
:108B9400234F06794FF02C0909FB0674804665695A
:108BA400002D37D16261A16025624FF48E71006897
:108BB40084F82850FFF7CAFDD8F800000123836029
:108BC4002146FFF7CBFD6368A14633BBD8F80050BC
:108BD400226A63699A4212D3D8F80030D3F81C2170
:108BE400002AFBD00122DA6000202C2303FB067646
:108BF40000237361BDE8F88394F8283043B9D5F8AD
:108C04001C31002BF8D049462846FFF7A7FDDFE7C3
:108C14000F20EAE71120BDE8F8832846BDE8F88371
:108C2400C02A00200023435082B043580193019B83
:108C340002B070471FB501238DF80030054B8DF845
:108C440008000191684693E80600904705B05DF876
:108C540004FB00BFEC2A00207FB5384AD2F8246117
:108C6400002E49D010464FF49271FFF7DBFF022328
:108C74008DF80030D2F88034C2F880340393D2F8EF
:108C84003C358DF808302E4BDA68019200229A6147
:108C9400DA61684693E806009047284AD2F84431DE
:108CA40073B14FF4A2711046FFF7BCFF244B9969CE
:108CB40031B100219961D2F83C05D968FFF7BAFFB8
:108CC4001E4AD2F82031ABB14FF490711046FFF731
:108CD400A9FF1B4B596969B1D2F84C158DF80810DE
:108CE400002299688DF8002001915A61684693E842
:108CF4000600904704B070BDD2F81031002BCCD0E0
:108D04004FF488711046FFF78DFF0D4BD2F83C05E8
:108D140099698842C1D1DC696CB1D2F80052D96832
:108D240025F02005C2F800521A699C61DA60DE6100
:108D3400FFF780FFB1E79C61D968F9E700200040A4
:108D4400EC2A00201F2886BF00F01F00044B4FF0C0
:108D5400A04300F5E070022243F82020704700BFD2
:108D6400000300502DE9F8436B4B06799146242209
:108D740002FB0632044692F820200D469846002A4B
:108D840040F0C68065490068FFF7B4FC0746002838
:108D940040F0C0802868421C10D01F2887BF00F014
:108DA4001F035F4A03464FF0A0420121994003F597
:108DB400E073C2F80815032142F8231069684B1CBC
:108DC4000DD01F298BBF01F01F030B46544A4FF0EF
:108DD400A04203F5E0734FF0000E42F823E023684D
:108DE400AA6995F814E0C3F824256A7DBEF1010F41
:108DF4004EEA0202C3F86C25C3F80C05C3F8141537
:108E04002BD1A968481C0DD01F298BBF01F01F026C
:108E14000A4643484FF0A04002F5E0724FF0000EBE
:108E240040F822E0E868421C13D01F2887BF00F0F6
:108E34001F0E3B4A86464FF0A0424FF0010C0CFA3D
:108E44000EFC0EF5E07EC2F808C54FF0030C42F8A4
:108E54002EC0C3F80805C3F810152423734308EB88
:108E64000302C2F804902A6948F80320B9F1000FFC
:108E74003DD04FF4887120682D7FFFF7D3FE4FF467
:108E840090712068FFF7CEFE4FF492712068FFF7CF
:108E9400C9FE20684FF4A271FFF7C4FE2268214B7B
:108EA400C2F80433120B53B2002BA8BF03F1604085
:108EB4004FEA53134FEA4511BABF1B4802F00F059E
:108EC40000F561404FEA8303B4BFC9B2C9B203F1EC
:108ED4006043B4BF415580F8001303F5614302F0C9
:108EE4001F02012101FA02F2C3F880211A602368EB
:108EF4000822C3F80025242303FB068300229A6179
:108F0400DA615A61012283F820203846BDE8F883EB
:108F14000827FAE71127F8E7EC2A00205D8C020005
:108F2400000300501003020014ED00E02DE9F041AD
:108F340003680479254D0022C3F80025242202FB8E
:108F440004520646526872B1214AC3F80823190B29
:108F54004AB20120520901F01F0100FA01F1203246
:108F64001C4840F82210D3F80C05D3F81485D3F824
:108F74000815D3F810754FF0FF329042C3F80C2552
:108F8400C3F81425C3F80825C3F8102501D0FFF74A
:108F9400D9FEB8F1FF3F02D04046FFF7D3FE7A1C5A
:108FA40002D03846FFF7CEFE4B1C02D00846FFF72E
:108FB400C9FE3068FFF7BEFB242303FB04540023DF
:108FC40084F820306360BDE8F08100BFEC2A002003
:108FD4001003020000E100E001F06043B3F1005F20
:108FE4002DE9F041074632D11D4B0679242505FBB6
:108FF400063598466C696CBB6A61A96000684FF4D9
:109004009071FFF70FFE4FF4AC713868FFF70AFE5A
:109014003B686A69A968C3F84415C3F84825012266
:109024009A606A68CAB9D3F82011D3F8582149B9AB
:10903400002AF8D00F20242303FB06860023736143
:10904400BDE8F081002A14BF0F200020F3E71020B0
:10905400BDE8F0811120BDE8F0812046BDE8F08133
:10906400EC2A002072DF704773DF704776DF7047A9
:109074007ADF70477CDF70477FDF70478FDF704790
:10908400B1DF7047FDF752BF08B5064B01211878D0
:10909400FFF7EAFF08B1FDF749FF0020BDE80840EB
:1090A400FEF702BF502300200388212B13B504468A
:1090B4004ED022D8112B2BD0132B41D0102B3DD1C5
:1090C4002C4B2D491888000440F00300FDF7A8FC40
:1090D4000120FEF7E9FE0020FEF7FAFE274BA188E7
:1090E4002748198000F000FF08B1FDF71FFFFDF7C6
:1090F400EDFE18B3FDF71AFF20E0522B32D0562BA9
:1091040001D03B2B1AD11321A088FFF7AFFFF0E762
:10911400184B1C491888000440F00300FDF780FC3C
:109124000120FEF7D5FE154B4FF6FF721A80FDF7AE
:10913400E3FE08B1FDF7FAFEFFF7A6FF02B010BD8B
:109144000E4800231A4685210088FFF795FFD0E7D3
:10915400002301A980888DF804308DF80530FFF7CD
:109164008DFFC6E7054800231A4619460088FFF715
:1091740087FFBEE7F42200206CAF020052230020D8
:109184007C2B002076AF020008B503784BB9054B61
:109194003B211888FFF76AFF18B1BDE80840FDF7C6
:1091A400C5BE08BD522300200B2810B50C4618D1AB
:1091B4000E4B0F491888000440F00300FDF730FC03
:1091C4000C4B0D491888224600F0FAFF30F00802D3
:1091D4000BD043F20202904207D043F20142904284
:1091E40003D0BDE81040FDF7A1BE10BDF42200205D
:1091F40083AF020052230020642B002010B502200C
:10920400094C52B1FEF750FE20880849000440F092
:109214000300BDE81040FDF703BCFEF759FE2088AB
:1092240003490004F3E700BFF42200209DAF0200CD
:10923400AEAF0200FDF77ABE00B54FF40041A7B00F
:109244000020FDF725FA08B1FDF770FEFDF74AF995
:109254000120FEF761FEFEF7B5F808B1FDF766FEE2
:1092640040F2666201217148FDF7DEFD08B1FDF7A9
:109274005DFEFEF7B3FC08B1FDF758FE01F00CF8F3
:1092840008B1FDF753FE26AC002344F83C3D012011
:10929400214601F087F808B1FDF748FE204601F0A9
:1092A4002DF908B1FDF742FE9DF8203060480122F7
:1092B40062F3030326AD62F3071305F8783D01F06A
:1092C40057FA5B4982B22846FFF7D4FE08B1FDF78E
:1092D4002DFE08220021204601F016FA5023ADF895
:1092E4005C30A023ADF85E300023ADF8603020463A
:1092F4004FF4C873ADF86230FFF7BAFE08B1FDF75A
:1093040015FE00214B4800F0E5FC08B1FDF70EFE08
:10931400002308932146484B4848179300F0D2FD98
:1093240008B1FDF703FE464B46480893294600F072
:1093340053FE08B1FDF7FAFD41F22353ADF80430B2
:10934400404B3C229B7C8DF806300021284601F0DE
:10935400DBF9022301268DF820303C22062300216C
:1093640020468DF822608DF8233001F0CDF9ADF858
:109374006C60354E01AB321D31681C93284600F0F9
:10938400E5F808B1FDF7D2FD304AB168204600F097
:10939400DDF808B1FDF7CAFD1822002102A801F08A
:1093A400B3F9002301228DF81D20ADF814308DF897
:1093B400082003938DF81C3002AA40232249244834
:1093C4000493FFF74FFE08B1FDF7B0FD1C22002106
:1093D400204601F099F900234FF4202217931892A4
:1093E400ADF86A304FF420328DF86C30194B199275
:1093F4001C930322184B8DF8682020461D9300F01F
:1094040061FB08B1FDF792FD144B1549188800045F
:1094140040F00300FDF704FBFFF736FEFDF79EF96D
:109424000028FBD1FEF7F0FBF8E700BF382300204B
:10943400C0AF0200502B0020399202007C2B002088
:1094440001920200642B0020402300204C230020C2
:10945400502300208D91020089900200F422002004
:10946400CEAF02006DDF704779DF70477DDF704754
:1094740064DF70472DE9F74F0C9CBDF834B02788A2
:10948400002580468A4691462E46B8F8002096422A
:109494000BDB35B12288013AD21B92B2FF2A39D8AC
:1094A400DA55002003B0BDE8F08FD8F8042052F854
:1094B4002600019000220DF1030101A8FFF7D8FF57
:1094C4000028EFD19DF803204A4521D12288002DA0
:1094D40014BF0020022002EB09010144594519DCA4
:1094E4003DB9013292B2228003F802A022880132EF
:1094F400228022880DF103011A4401A8FFF7B8FF66
:109504000028CFD121889DF803200A442280012518
:109514000136BAE70C20C5E72DE9F341089CBDF8F4
:10952400245017468DE8300002220646FFF7A2FFBA
:1095340048B91022394630460995089402B0BDE86E
:10954400F041FFF797BF02B0BDE8F0812DE9F04F7D
:1095540000231688138090F82D3085B007460D46F9
:10956400144643B3082E4ED902A8FFF77BFF002808
:1095740040F0FF8013880822CA54238801339BB229
:109584001B222380CA542088013080B22080062206
:109594000DF10901284401F08DF823889DF8082075
:1095A40006339BB212F0FE0218BF01222380EA5454
:1095B400238801332380BB78FBB123880433B3426F
:1095C40021D802A8FFF750FF002840F0D28023885A
:1095D4000322EA54238801339BB219222380EA54DC
:1095E4002388BDF8082001339BB2E9182380EA548C
:1095F400120A4A70238802332380FA78AAB1238896
:10960400D91CB14201D90C20B3E00221E9542388CA
:1096140001339BB201212380E95423880B449BB27C
:109624002380EA5423880B4423807A68AAB12388D0
:10963400D91CB142E7D8022192F90020E9542388C9
:1096440001339BB20A212380E954238801339BB25E
:109654002380EA542388013323803B89002B7CD167
:109664003B8A53B18DE850002B460722032107F1B2
:109674001000FFF751FF00287BD13B8B53B18DE8DD
:1096840050002B461522142107F11800FFF744FF60
:1096940000286ED13A6A002A6ED1D7F82480B8F136
:1096A400000F2ED0B8F804302188981C8A1C02447C
:1096B400B242A8D8FE28A6D803336B5423880133BA
:1096C4009BB2FF222380EA54238801339BB2238078
:1096D400B8F80020EA54E918120A4A7020880230C7
:1096E40080B22080B8F804205AB1D8F808100029B4
:1096F4004CD0284400F0DEFF2388B8F8042013443B
:10970400238097F82C30002B7BD1387888B33B88A2
:10971400012B3BD021888A1CB2423FF674AF01284A
:1097240005D17B7802330B449E42FFF46CAF023EBA
:10973400761A04A9B6B221F8086DA818FFF796FEA8
:10974400B8B93B78022B40F09F80BDF80830B34293
:1097540040F2B680ADF808609FE08DE850002B46DB
:109764000622022107F10800FFF7D6FE00283FF485
:1097740077AF05B0BDE8F08FB4F800E00EF1060352
:10978400B3423FF640AF1188052901D80720F0E71E
:109794006FF4486C01EB0C039BB24FF27D3C6345C4
:1097A400F4D95388052BF1D96FF44860181880B2A6
:1097B4006045EBD94FF6FF70814203D0834201D05C
:1097C4009942E3D8052305F80E30238801339BB270
:1097D40012212380E954238801339BB2238011880A
:1097E400E954E818090A4170238802339BB22380A4
:1097F4005288EA54E918120A4A70238802332380F3
:109804004BE7BB6A002BC1D04FF000094FF00C0AA4
:109814004FF0160B97F82C305FFA89F293427FF6DB
:1098240074AFB96A0AFB02F201EB0208B8F804301B
:10983400981CFE283FF6E7AE208803332B54238878
:1098440001339BB2238005F803B0238801339BB214
:1098540023808A5AEA54E918120A4A70208802308E
:1098640080B22080B8F804205AB1D8F80810002932
:109874008CD0284400F01EFF2388B8F80420134439
:10988400238009F10109C5E7012B7FF463AF7B78DD
:109894009E42FFF45FAFADF808300821BDF80830F0
:1098A400FE2B3FF6B0AE22880133AB54228801323E
:1098B40092B22280A954228813442380002058E7BE
:1098C4000921EBE775DF704776DF70477ADF704771
:1098D4007BDF7047034B1A8882420CBF1846002076
:1098E400704700BFA42B0020024B9B6903B11847AB
:1098F400704700BF882B002037B585B22846FFF794
:10990400E9FF034670B1164C017A227B91420BD2D7
:1099140000F10A012846FFF7D5FFE8B1112801D06C
:10992400FFF7E2FF03B030BD237C0022027243B193
:109934003B212846FFF7C8FF30F0080301D0FFF7AA
:10994400D3FF6369002BEDD000228DF80420ADF81D
:10995400065001A89847E5E71A7A01321A72E1E73E
:10996400882B002013B50B46497A0F4C024669B97F
:10997400A06861681C7A002C18BF01465868FDF77E
:1099840065FD08B1FFF7B0FF02B010BD00211972E8
:109994006369002BF8D00121ADF806008DF804109E
:1099A40001A89847F0E700BF882B00208388B3F50F
:1099B400FA7F28BF6FF4F97230B528BF9C18058868
:1099C4004A8838BF002495420CD84088904209D375
:1099D4008A88A24206D303F2F310904234BF0020D7
:1099E400012030BD002030BD0388112B70B5014625
:1099F4002ED002D8102B05D070BD122B51D0502B75
:109A040035D070BDC37B012B4AD14FF6FF70FFF7F1
:109A140061FF054620B90420BDE87040FFF764BF2C
:109A2400264A8E880680002303721368C5F80A301C
:109A34000A30536843601031FFF7B8FF204B687257
:109A4400DB896BBB29463046BDE87040FFF78ABF0F
:109A54008088FFF73FFF044610B34068FDF73CFDE4
:109A640008B1FFF741FF4FF6FF73238070BD144B1D
:109A7400C288DB899A4213D1038A022B10D18688CB
:109A84003046FFF727FF054650B101F1120000F000
:109A9400D3F80028D6D16868FDF71EFD0028BBD195
:109AA40070BD86883046FFF715FF05460028F7D0BD
:109AB40008310A30FFF77AFF6872C3E7B82B002039
:109AC400882B0020F8B5064650B305460FCD154F38
:109AD4003C460FC495E8070084E807003068124B41
:109AE4003B60B8B1FFF7F2FED8B931680A681A6072
:109AF4004A685A600D480E4A4FF6FF7303800D4BB7
:109B040040F8043F0021FDF78FFC002814BF032018
:109B14000020F8BD1846FFF7DBFE0028EAD0F8BDA8
:109B24000E20F8BD882B0020B82B0020A42B002089
:109B3400FD980200C02B002073B50191019C0646DC
:109B44006CB100242546294601A8FDF722FD18B171
:109B540006EB440301349D800135142DF3D13046C6
:109B6400346002B070BD00002DE9F047038884889A
:109B7400112B8CB0064638D01A2B3BD0102B24D195
:109B8400274DAB680CA8DB4340F8303D6968FDF70E
:109B94002FFD009901A8FFF7CFFF0DF106094FF043
:109BA4000008019B984513D3132C35D821461D4832
:109BB400FDF7DCFC21461C48FDF7D8FCF37B012BA8
:109BC40003D01A482146FDF7D1FC0CB0BDE8F0875C
:109BD40039F802AF002704375146E819FDF7CFFCE6
:109BE400742FF8D108F10108DBE70E482146FDF790
:109BF400C6FCEAE7057A0E482D09012D214606DD4B
:109C0400FDF7B4FC022D21460A48F0D0DBE7FDF74E
:109C1400B6FC21460748EAE70420FDF787F9D4E7B4
:109C2400E02B0020E82B0020E42B0020EC2B00206C
:109C3400F02B0020F42B0020007800F00100704786
:109C440090DF7047A5DF7047B5DF7047F0B585B08A
:109C54000023ADF80810ADF80A106A4602A90746B9
:109C6400ADF80C30ADF80E300093ADF80430FFF7CA
:109C7400E7FF064618B3134C2588FEF71FF82D049A
:109C840045F0010503463A460F492846FCF7D6FE3F
:109C9400BDF80020BDF8023002B933B120880B4969
:109CA400000440F00100FCF7C9FEBDF8042032B105
:109CB40020880749000440F00100FCF7B5FE304657
:109CC40005B0F0BD00230020E6AF020030B0020072
:109CD4006FB0020070B117231B2203804380C3803E
:109CE40003810023016102718372C37202734273A0
:109CF400184670470E20704737B5034680880C46D7
:109D0400A0B91A88232A00F0AB8011D8102A24D0D5
:109D1400112A52D0A37A4BB1E1880020FFF792FFB9
:109D2400002840F0A3800123A072E37203B030BD89
:109D34003A2A4BD0552A65D0242AEBD11A7A0B69DA
:109D44004A73002BE6D04DF67A210090ADF804005A
:109D5400ADF800108DF804207EE0DB7B0A790A73ED
:109D6400012B13D0022B14D0E18823898B4205D216
:109D74000020FFF767FF70B90123E372217B637B47
:109D84008B42C7D20020FFF761FFC3E70B88E38053
:109D9400EAE74B88FBE7112802D10123A372EDE720
:109DA4003A4B1D88FDF78AFF2D0445F00105024654
:109DB40037492846FCF738FEE0E71723CB800B81B0
:109DC4001B238872C8720B734B73A3E75B89CA8821
:109DD400934228BF1346172B0A6938BF17230B81F8
:109DE40062B1C97A51B140F67721ADF80010ADF8EF
:109DF4000200ADF804306946204690470023E37220
:109E0400A37287E7DB88C988A072172B38BF172392
:109E14008B4228BF0B462381FFF716FF58B11B4B1B
:109E24001D88FDF74BFF2D0445F001050246194935
:109E34002846FCF7F9FDE27A002A7FF46BAF236928
:109E4400002B3FF467AF40F67721ADF8022022895A
:109E5400ADF80010ADF8042069462046984759E74C
:109E6400197A237B994228BF19468CE711283FF4BD
:109E74005DAF064B1C88FDF721FF240444F0010468
:109E8400024603492046FCF7CFFD4FE7002300209C
:109E9400C5B00200F6B00200B0DF704766DF70475D
:109EA400034610B500214088FFF7F8FF024608B9C1
:109EB4001A7210BD112801D10122F9E75B68BDE8CF
:109EC4001040184760B159B10378DE2B0AD00B68F3
:109ED4004360DE2303704FF6FF7343800020704716
:109EE4000E2070470820704728B10378DE2B04D178
:109EF4004180002070470E20704708207047F0B55D
:109F0400054685B00C46F1B1E8B10B78DE2B1AD1C9
:109F140082884B889A4204D10B7A13B10846FFF722
:109F2400BFFF2B88112B32D0512B0ED0012B0AD11D
:109F34002B7A012B07D1A9886288914203D123721D
:109F44002046FFF7ADFF05B0F0BDAE886388B3428D
:109F5400F9D1AF79022FF6D1AD7B2B1F022BF2D8AA
:109F640000211022684600F0CFFB052D14BF4FF4EA
:109F7400C0730023694630468DF80070ADF8043094
:109F8400FFF78AFF0028DED063689847DBE7638821
:109F9400AA889A4204BF4FF6FF736380D3E7A8DF11
:109FA4007047AADF7047AEDF704762DF70470288F0
:109FB400502A10B40DD1C4884A88944209D1028A27
:109FC400012A06D14B6923B1827C5DF8044B808859
:109FD40018475DF8044B70472DE9F0410B68436165
:109FE40094B0764B04AA804603F11006154618680F
:109FF4005968144603C40833B3422246F7D108F122
:10A0040012012846FFF7D1FF0446002840F0D28011
:10A0140098F812308DF80A3014A941F2235321F82C
:10A02400483D42460120FFF7BAFF0446002840F0AD
:10A03400C18001460322684600F066FB9DF80030AB
:10A04400012565F3030365F307138DF800309DF8CC
:10A05400013065F3030365F307138DF801309DF8B0
:10A064000230214665F342031C220DA88DF802300C
:10A0740000F04AFB9DF834300E9443F012038DF83F
:10A08400343001AE98F812308DF80E30214641F28A
:10A09400245303223046109411941394ADF80C30D9
:10A0A400CDF848D000F030FB9DF8043065F303038D
:10A0B40065F307138DF804309DF8053064F303034A
:10A0C40064F307138DF805309DF8063065F34203F9
:10A0D40064F3C30364F3041364F3000321461422FA
:10A0E40008A88DF8063003AF00F00EFB08F10A0350
:10A0F40008AA0DA9B8F80000ADF82A400C940897F6
:10A104000996ADF82850ADF82C50FFF74AFF0446E5
:10A1140000284FD101461C220DA800F0F5FA9DF845
:10A1240034300E9443F00A038DF8343098F812302A
:10A134008DF80E30214641F2255303223046109407
:10A14400119412941394ADF80C3000F0DDFA9DF8DC
:10A15400043065F3030365F307138DF804309DF8A9
:10A16400053065F3030365F307138DF805309DF897
:10A17400063065F3420364F3C30364F3041364F326
:10A1840000032146142208A88DF8063000F0BCFA1A
:10A1940008F1020308AA0DA9B8F80000ADF82A4096
:10A1A4000C9408970996ADF82850ADF82C50FFF799
:10A1B400F8FE0446204614B0BDE8F08132B1020036
:10A1C40070B588B00E468DF807201022054601248C
:10A1D4000DEB02000021ADF80E4000F095FA7389F2
:10A1E400ADF810300DF10703079304A90DF10E0328
:10A1F40028468DF812400693FFF7D5FE08B070BDCF
:10A2040010DF704713B5044609496846FDF722FD7F
:10A21400019808B902B010BD036841682046984708
:10A2240018B16846FDF720FDF2E71120F2E700BF00
:10A2340048B1020013B5044607496846FDF70AFD14
:10A24400019B0BB902B010BD20461A6859689047AB
:10A254006846FDF709FDF3E760B102000C4A92F885
:10A2640016335B09012B01D9042B08D142F20200F9
:10A27400FCF75CBE1A6842F480021A607047054B12
:10A2840099680029F6D14FF480031360704700BF2A
:10A2940000E100E0002A0020F7B5184F3C785CBBD1
:10A2A400174E012520463570FFF7ACFF112820D04A
:10A2B4002046FFF7BFFF134B1868019002A800F86F
:10A2C400054DFDF719F9104901A8FFF799FF044658
:10A2D400B0FA80F0400938709DF80300FDF730F9BA
:10A2E4003CB90A4B34701C70FFF7B8FF2846FFF7DF
:10A2F400A1FF204603B0F0BD0824FAE7592C002042
:10A30400582C002042B102004D6F02005A2C00204C
:10A31400014B1878704700BF592C002007B5084935
:10A324006846FDF797FC019B13B903B05DF804FB85
:10A3340058681A6890476846FDF796FCF3E700BF33
:10A3440054B10200FFF7EABF60DF704769DF70476E
:10A3540061DF704730B5114B1B7891B0E3B1104DFC
:10A3640034240DF1020103A8ADF80240FFF7F0FF19
:10A3740070B9294601A8FDF76DFC029B002BF0D0B3
:10A3840003A81A685968904701A8FDF76DFCF4E723
:10A39400052801D0FCF7CAFD11B030BD5B2C0020AC
:10A3A400A0B3020030B5054685B00C46002900F084
:10A3B40094804B4B0B600C22002101A800F0A4F9FF
:10A3C40001238DF8063022688DF80450062301A974
:10A3D4002020ADF80830FFF7B9FF58B1414B1D8874
:10A3E400FDF76CFC2D0445F0010502463E49284664
:10A3F400FCF71AFB0C22002101A800F085F90123C7
:10A404008DF805302268002301A940208DF806301C
:10A414008DF80730FFF79AFF58B1324B1D88FDF7CE
:10A424004DFC2D0445F00105024630492846FCF751
:10A43400FBFA0C22002101A800F066F90A23226825
:10A444008DF8043001A90120FFF780FF58B1254B96
:10A454001D88FDF733FC2D0445F00105024624490F
:10A464002846FCF7E1FA0C22002101A800F04CF97F
:10A474004FF4B0632268019301A9A120FFF766FF9E
:10A4840058B1184B1D88FDF719FC2D0445F0010542
:10A49400024618492846FCF7C7FA0C22002101A8F5
:10A4A40000F032F99DF8043022686FF3000301A92B
:10A4B400A0208DF80430FFF749FF80B1094B1C88B8
:10A4C400FDF7FCFB240444F0010402460A4920463B
:10A4D400FCF7AAFA002005B030BD0E20FBE7FAE72E
:10A4E400E02200200823002074B10200BAB1020067
:10A4F40006B2020052B20200A3B20200F8B504464A
:10A504000768FFF721FF23689F42054620D21A4EB1
:10A514001A493088000440F00200FCF781FA3088C0
:10A524002368174900043A4640F00200FCF786FA13
:10A534004FF080533088D3F80C31226811499B02C4
:10A5440003F1005300049A1A40F00200FCF76CFA7D
:10A5540025B90D4B01221A702846F8BD064B284632
:10A564001C88FDF7ABFB240444F0010402460749B0
:10A574002046FCF759FAEFE708230020F6B2020060
:10A5840025B3020056B302005B2C002080B3020006
:10A594004BDF70471FB50D4C01A8FFF7F9FF70B9E9
:10A5A400214602A8FDF756FB039B002BF4D001982B
:10A5B4001A685968904702A8FDF756FBF4E7052886
:10A5C40001D0FCF7B3FC04B010BD00BFB8B3020067
:10A5D400B2F120030AD5C2F1200301FA02F120FAF4
:10A5E40003F341EA030100FA02F0704700FA03F1B1
:10A5F4004FF00000704700BF7F2805D8034B185C5C
:10A60400034B5B5C1840704700207047D0B30200D6
:10A6140050B40200A0F16103192B98BF2038704791
:10A62400A0F14103192B98BF203070477F2805D82B
:10A63400034B185C034B5B5C184070470020704769
:10A64400D0B3020050B40200A0F16103192B98BFEB
:10A6540020387047A0F14103192B98BF2030704770
:10A664007F299ABF017001206FF02E0070475AB104
:10A674000A787F2A0AD800B1026000211960596063
:10A68400501A18BF01207047002070476FF02E0049
:10A694007047000008B5034B5B689B681B689847CC
:10A6A40008BD00BF5423002008B50921FFF7F2FFBD
:10A6B40008BD0000844640EA010313F0030F18D1DB
:10A6C4008446202A0BD32DE9F007B1E8F807A0E867
:10A6D400F807A2F12002202AF7D2BDE8F007042AE5
:10A6E40007D351F8043B40F8043BA2F10402042AC6
:10A6F400F7D2002A05D011F8013B00F8013B013ADA
:10A70400F9D16046704700BF8446002A2DD010F06E
:10A71400030F04D000F8011B013A26D0F7E7C9B2B1
:10A7240041EA012141EA0141202A12D3A2F1200287
:10A734002DE9F0030B460C460D460E460F4688469F
:10A744008946A0E8FA03203AFBD2BDE8F0032032A0
:10A754000BD0042A05D340F8041B043A05D0042A7C
:10A76400F9D200F8011B013AFBD16046704700BFE3
:10A7740000F1010110F0030F11D010F8012B002A91
:10A7840023D010F0030F0AD010F8012B002A1CD09C
:10A7940010F0030F03D010F8012B002A15D02DE977
:10A7A40070004FF001324FF0803350F8044BA4EBAB
:10A7B400020525EA04051D4000D1F6E7A0F10400D6
:10A7C40070BC10F8012B002AFBD1A0EB01007047EC
:08A7D400CD7F0200000000002F
:10A7DC006D9B020000000000FD9C0200502B00202D
:10A7EC00ED99020000000000039F02007C2B00206A
:10A7FC00B39F0200642B0020AD900200000000000B
:10A80C0050AF02000000000056AF02000000000034
:10A81C005DAF02000000000061AF0200000000000C
:10A82C0066AF02000000000015A90200000003033F
:10A83C0019A90200000000034AAF0200000000004A
:10A84C0025B10200000003036CB1020000000303F9
:10A85C00ACB3020000000303C4B302000000030306
:08A86C0044AA020000000000F4
:10A87400AC230020742400207C240020B423002076
:08A88400F8220020180000007A
:08A88C004980020000000000F9
:10A8940059A302000000000099A502000000000076
:10A8A40000000000000000000000000000000000A4
:10A8B4000000000000000000000000000000000094
:10A8C4000000000000000000000000000000000084
:04A8D4000000000080
:10A8D800FFFFFFFFFFFFFFFFFFFFFFFFFFFFFFFF80
:10A8E80000000000000000000000D6010701000081
:10A8F80051640200B5640200016402004261636BA6
:10A90800656E647320666C75736865640061707049
:10A918000062616C6C6F632E6C6F675F6D656D7044
:10A928006F6F6C007FA90200A8A902005FA902004E
:10A93800B0A90200B8A90200C0A90200C8A9020073
:10A94800D0A90200D8A902002025303278002020A2
:10A9580020007C002563001B5B313B33316D0025F3
:10A96800734C6F67732064726F707065642028255C
:10A97800642925730D0A001B5B306D002573003CAC
:10A9880025733E2025733A200000000000000000D7
:10A99800FEA90200E0A90200E8A90200EDA9020050
:10A9A8001B5B313B33306D001B5B313B33326D0039
:10A9B8001B5B313B33336D001B5B313B33346D0024
:10A9C8001B5B313B33356D001B5B313B33366D0010
:10A9D8001B5B313B33376D007761726E696E6700C0
:10A9E800696E666F0064656275670000A8280020BC
:10A9F800466174616C206572726F7200537973746A
:10AA0800656D207265736574000000000000000029
:10AA180000000000000000000338FDD87047303106
:10AA280032333435363738394142434445460000DD
:10AA3800DCA70200DCA70200040000007077725F48
:10AA48006D676D7400556E6B6E6F776E20657272F0
:10AA58006F7220636F6465000000000088AB02001D
:10AA68000100000094AB020002000000B2AB02003B
:10AA780003000000D3AB020004000000E6AB0200B4
:10AA880005000000F7AB0200060000000BAC020056
:10AA98000700000023AC0200080000003BAC0200E5
:10AAA8000900000053AC02000A0000006CAC020070
:10AAB8000B00000084AC02000C0000009BAC0200FC
:10AAC8000D000000AFAC02000E000000C1AC020097
:10AAD8000F000000D0AC020010000000E4AC02003F
:10AAE80011000000FBAC0200120000000AAD0200D9
:10AAF800130000001FAD02008000000033AD02000B
:10AB08008100000054AD02008200000070AD020018
:10AB1800830000008CAD020084000000AAAD020092
:10AB280085000000CBAD020086000000F0AD0200F9
:10AB38009000000007AE02009100000025AE020060
:10AB48009200000043AE02000082000058AE0200EE
:10AB58000182000076AE02000282000092AE02007E
:10AB680000840000AEAE020001840000D2AE0200F4
:10AB780002840000FCAE02000384000021AF020042
:10AB88004E52465F53554343455353004E52465F1A
:10AB98004552524F525F5356435F48414E444C45CD
:10ABA800525F4D495353494E47004E52465F4552F6
:10ABB800524F525F534F46544445564943455F4EA2
:10ABC8004F545F454E41424C4544004E52465F4506
:10ABD80052524F525F494E5445524E414C004E52CC
:10ABE800465F4552524F525F4E4F5F4D454D004EA6
:10ABF80052465F4552524F525F4E4F545F464F5533
:10AC08004E44004E52465F4552524F525F4E4F548B
:10AC18005F535550504F52544544004E52465F457D
:10AC280052524F525F494E56414C49445F5041522F
:10AC3800414D004E52465F4552524F525F494E5663
:10AC4800414C49445F5354415445004E52465F4578
:10AC580052524F525F494E56414C49445F4C454E03
:10AC6800475448004E52465F4552524F525F494E34
:10AC780056414C49445F464C414753004E52465F4B
:10AC88004552524F525F494E56414C49445F4441E8
:10AC98005441004E52465F4552524F525F44415410
:10ACA800415F53495A45004E52465F4552524F52F2
:10ACB8005F54494D454F5554004E52465F455252D8
:10ACC8004F525F4E554C4C004E52465F4552524FC4
:10ACD800525F464F5242494444454E004E52465FE9
:10ACE8004552524F525F494E56414C49445F414488
:10ACF8004452004E52465F4552524F525F4255539E
:10AD080059004E52465F4552524F525F434F4E4E86
:10AD18005F434F554E54004E52465F4552524F5274
:10AD28005F5245534F5552434553004E52465F4577
:10AD380052524F525F4D4F44554C455F4E4F545FF2
:10AD4800494E495449414C495A4544004E52465F80
:10AD58004552524F525F4D555445585F494E4954DC
:10AD68005F4641494C4544004E52465F4552524F5A
:10AD7800525F4D555445585F4C4F434B5F464149D0
:10AD88004C4544004E52465F4552524F525F4D5516
:10AD98005445585F554E4C4F434B5F4641494C45CF
:10ADA80044004E52465F4552524F525F4D555445EE
:10ADB800585F434F4E445F494E49545F4641494CA2
:10ADC8004544004E52465F4552524F525F4D4F44E4
:10ADD800554C455F414C52454144595F494E495491
:10ADE80049414C495A4544004E52465F4552524FDC
:10ADF800525F53544F524147455F46554C4C004EA5
:10AE080052465F4552524F525F4150495F4E4F5430
:10AE18005F494D504C454D454E544544004E5246B1
:10AE28005F4552524F525F464541545552455F4E19
:10AE38004F545F454E41424C4544004E52465F4593
:10AE480052524F525F494F5F50454E44494E47005A
:10AE58004E52465F4552524F525F4452565F5457C6
:10AE6800495F4552525F4F56455252554E004E5219
:10AE7800465F4552524F525F4452565F5457495F9E
:10AE88004552525F414E41434B004E52465F455238
:10AE9800524F525F4452565F5457495F4552525F72
:10AEA800444E41434B004E52465F4552524F525F0B
:10AEB800424C455F495053505F52585F504B545F66
:10AEC8005452554E4341544544004E52465F4552F4
:10AED800524F525F424C455F495053505F4348417F
:10AEE8004E4E454C5F414C52454144595F45584987
:10AEF800535453004E52465F4552524F525F424C94
:10AF0800455F495053505F4C494E4B5F444953434A
:10AF18004F4E4E4543544544004E52465F455252AB
:10AF28004F525F424C455F495053505F5045455220
:10AF38005F52454A4543544544000B0C18190D0E01
:10AF48000F10636C6F636B00434C4F434B004750CB
:10AF5800494F5445005052530055415254005541F1
:10AF680052544500436F6E6E6563746564004469AE
:10AF780073636F6E6E65637465640053656E6420F9
:10AF8800627574746F6E2073746174652063686190
:10AF98006E67652E005265636569766564204C4569
:10AFA80044204F4E21005265636569766564204CE4
:10AFB8004544204F464621004E6F726469635F42E4
:10AFC8006C696E6B7900426C696E6B79206578618B
:10AFD8006D706C6520737461727465642E0073649F
:10AFE8005F626C655F6761705F646174615F6C6507
:10AFF8006E6774685F7570646174652829202872AB
:10B0080065717565737429206F6E20636F6E6E6548
:10B018006374696F6E203078257820726574757254
:10B028006E65642025732E005468652072657175FD
:10B0380065737465642054582F5258207061636B8F
:10B048006574206C656E67746820697320746F6F0F
:10B05800206C6F6E672062792025752F2575206F0B
:10B0680063746574732E0054686520726571756524
:10B078007374656420636F6D62696E6174696F6E65
:10B08800206F6620545820616E64205258207061E9
:10B09800636B6574206C656E6774687320697320D0
:10B0A800746F6F206C6F6E67206279202575206D34
:10B0B8006963726F7365636F6E64732E0073645F88
:10B0C800626C655F67617474635F65786368616EFD
:10B0D80067655F6D74755F7265717565737428292E
:10B0E8002072657475726E65642025732E00736412
:10B0F8005F626C655F67617474735F6578636861CC
:10B108006E67655F6D74755F7265706C792829204C
:10B1180072657475726E65642025732E006E726692
:10B128005F626C655F676174740023D1BCEA5F7805
:10B138002315DEEF121200000000010000070000D6
:10B14800A4A80200A4A802000800000094A8020015
:10B15800A4A80200080000008CA8020094A802001D
:10B16800080000006E72665F7364680073645F6253
:10B178006C655F6366675F73657428292072657400
:10B1880075726E6564202573207768656E2061741A
:10B1980074656D7074696E6720746F2073657420B0
:10B1A800424C455F434F4E4E5F4346475F474150D1
:10B1B8002E0073645F626C655F6366675F736574B6
:10B1C80028292072657475726E656420257320774E
:10B1D80068656E20617474656D7074696E6720743B
:10B1E8006F2073657420424C455F4741505F43466A
:10B1F800475F524F4C455F434F554E542E00736482
:10B208005F626C655F6366675F7365742829207287
:10B21800657475726E6564202573207768656E2085
:10B22800617474656D7074696E6720746F207365DE
:10B238007420424C455F434F4D4D4F4E5F43464748
:10B248005F56535F555549442E0073645F626C65C1
:10B258005F6366675F736574282920726574757209
:10B268006E6564202573207768656E206174746547
:10B278006D7074696E6720746F2073657420424C1A
:10B28800455F47415454535F4346475F41545452C6
:10B298005F5441425F53495A452E0073645F626CA4
:10B2A800655F6366675F73657428292072657475C6
:10B2B800726E6564202573207768656E20617474EA
:10B2C800656D7074696E6720746F207365742042B1
:10B2D8004C455F47415454535F4346475F5345527B
:10B2E800564943455F4348414E4745442E00496E01
:10B2F80073756666696369656E742052414D206195
:10B308006C6C6F636174656420666F722074686525
:10B3180020536F66744465766963652E00436861DF
:10B328006E6765207468652052414D2073746172A0
:10B3380074206C6F636174696F6E2066726F6D2024
:10B348003078257820746F20307825782E004D616C
:10B3580078696D756D2052414D2073697A65206654
:10B368006F72206170706C69636174696F6E2069B7
:10B378007320307825782E0073645F626C655F6592
:10B388006E61626C6528292072657475726E6564D9
:10B398002025732E00000000DCA702000CA8020084
:10B3A800080000006E72665F7364685F626C650017
:10B3B800D4A70200DCA70200080000006E72665FD6
:10B3C8007364685F736F6300202020202020202092
:10B3D80020682828282820202020202020202020FD
:10B3E800202020202020202048101010101010109D
:10B3F80010101010101010108484848484848484A5
:10B4080084841010101010101081818181818101B5
:10B418000101010101010101010101010101010114
:10B4280001010110101010101082828282828202A3
:10B4380002020202020202020202020202020202E4
:10B448000202021010101020000703200417020146
:10B45800085710408000000004B60200C8B402007B
:10B46800DCB5020053756E004D6F6E0054756500B3
:10B47800576564005468750046726900536174002A
:10B48800000000004A616E00466562004D6172006E
:10B49800417072004D6179004A756E004A756C0002
:10B4A80041756700536570004F6374004E6F7600F6
:10B4B8004465630000000000414D00504D0000004D
:10B4C80000B60200FCB50200FCB50200FCB50200A3
:10B4D800FCB50200FCB50200FCB50200FCB5020098
:10B4E800FCB50200FCB50200FFFFFFFFFFFFFFFFF6
:10B4F800FFFFFFFFFFFF00003CB502006CB4020035
:10B5080078B502008CB40200C0B4020020B5020075
:10B51800D0B502002CB50200256D2F25642F2579A2
:10B528000000000025612025622025652025542083
:10B538002559000053756E646179004D6F6E646122
:10B54800790054756573646179005765646E657335
:10B558006461790054687572736461790046726930
:10B568006461790053617475726461790000000048
:10B578004A616E75617279004665627275617279A9
:10B58800004D6172636800417072696C004D6179A9
:10B59800004A756E65004A756C7900417567757368
:10B5A800740053657074656D626572004F63746FE3
:10B5B800626572004E6F76656D6265720044656300
:10B5C800656D62657200000025483A254D3A25539D
:10B5D80000000000FDA5020019A6020025A6020031
:10B5E80031A602004DA6020059A6020065A6020077
:10B5F80073A60200000000002E00000043000000B7
:08B60800504F534958000000A7
:10B61000000000000020004000000000002000406A
:10B6200000000000F8A80200000000000000000078
:10B630000090D0030B000300AD910200102B0020FE
:10B640001F0000002F2B00201F000000FF00FFFF45
:10B6500060B4020060B4020060B4020060B4020092
:04B6600060B40200D0
:040000032000626116
:00000001FF
